:020000040800F2
:10000000B4E00120390A0008950A0008950A0008A2
:10001000950A0008950A0008950A000800000000EB
:10002000000000000000000000000000950A000829
:10003000950A000800000000950A0008950A0008CB
:10004000950A0008950A0008950A0008950A000814
:10005000950A0008950A0008950A0008950A000804
:10006000950A0008950A0008950A0008950A0008F4
:10007000950A0008950A0008950A0008950A0008E4
:10008000950A0008950A0008950A0008950A0008D4
:10009000950A0008950A0008950A0008950A0008C4
:1000A000950A0008950A0008950A0008950A0008B4
:1000B00079200008950A0008950A0008950A0008AA
:1000C000950A0008950A0008950A0008950A000894
:1000D000950A0008950A00089D080008950A00087E
:1000E000950A0008950A0008950A0008950A000874
:1000F000950A0008950A0008950A0008950A000864
:10010000950A0008950A0008950A0008950A000853
:10011000950A0008950A0008950A0008950A000843
:10012000950A0008950A0008950A0008950A000833
:10013000950A0008950A0008950A0008950A000823
:10014000950A0008950A0008950A0008950A000813
:1001500031210008950A0008950A0008950A000850
:10016000950A0008950A0008950A0008950A0008F3
:10017000950A0008950A0008950A0008950A0008E3
:10018000950A0008950A000880B584B000AF3B4688
:10019000184601F01FF93A68454B1A60444B1B683A
:1001A000184603F0A3FD02460B46104619464FF0D1
:1001B0000002404B03F010FE02460B461046194663
:1001C0004FF000023C4B03F031FF02460B46104655
:1001D00019464FF000024FF0804303F027FF02461C
:1001E0000B461046194604F0B9F80246334B1A6024
:1001F0002F4B1B68184603F079FD02460B4610464C
:1002000019464FF000022B4B03F0E6FD02460B4669
:100210001046194622A3D3E9002303F007FF024644
:100220000B46104619464FF000024FF0804303F092
:10023000FDFE02460B461046194604F08FF80246B2
:100240001F4B1A601A4B1B68184603F04FFD0246FD
:100250000B46104619464FF00002164B03F0BCFD4A
:1002600002460B46104619460FA3D3E9002303F0BC
:10027000DDFE02460B46104619464FF000024FF0D5
:10028000804303F0D3FE02460B461046194604F0A5
:1002900065F802460B4B1A601037BD4680BD00BFA3
:1002A000000000000094C14000000000882A614165
:1002B000945A00200000F43F00002240985A002089
:1002C0004CD501209C5A0020B0B584B000AF7860B6
:1002D0000023FB6020484FF4805101F00DFA0346E3
:1002E000002B03D01D4B00221A60F3E71B4B1B6849
:1002F0005A1C1A4B1A60194B1B68012B02D1FB6860
:100300000133FB60FB68184603F0F0FC02460B4625
:10031000104619460EA3D3E9002303F05DFD024603
:100320000B4614461D467B68184603F0DFFC024668
:100330000B462046294603F0DFFF0346002B00D181
:10034000C8E700BF1037BD46B0BD00BFAFF30080A7
:1003500062105839B4C8304000040240AC5A002042
:1003600080B58AB000AF7860396000237B620023DB
:100370003B620023FB610023BB617B681B8A9BB24D
:100380007B627B6A23F440537B623B68DB887A6A3A
:1003900013437B627B6A9AB27B681A827B689B8973
:1003A0009BB27B627B6A23F4B05323F00C037B6225
:1003B0003B689A883B681B8913439AB23B685B8908
:1003C00013439BB27A6A13437B627B6A9AB27B685F
:1003D0009A817B689B8A9BB27B627B6A23F4407321
:1003E0007B623B689B897A6A13437B627B6A9AB221
:1003F0007B689A8207F10803184600F0EBFF7A68E1
:10040000314B9A4203D07A68304B9A4202D17B69D1
:100410003B6201E03B693B627B689B899BB29BB27C
:100420001BB2002B0CDA3A6A13469B0013449A0065
:100430001A443B681B685B00B2FBF3F3FB610BE003
:100440003A6A13469B0013449A001A443B681B689F
:100450009B00B2FBF3F3FB61FA691D4BA3FB021394
:100460005B091B017B627B6A1B09642202FB03F3AD
:10047000FA69D31ABB617B689B899BB29BB21BB2A2
:10048000002B0DDABB69DB0003F13202104BA3FB3A
:1004900002135B0903F007037A6A13437B620CE0E3
:1004A000BB691B0103F13202094BA3FB02135B0979
:1004B00003F00F037A6A13437B627B6A9AB27B680C
:1004C0001A812837BD4680BD00100140001401404C
:1004D0001F85EB5180B483B000AF78600B46FB7092
:1004E000FB78002B08D07B689B899BB243F40053B8
:1004F0009AB27B689A8107E07B689B899BB223F460
:1005000000539AB27B689A810C37BD465DF8047B34
:10051000704700BF80B483B000AF78600B467B802B
:100520007B88C3F308039AB27B689A800C37BD4678
:100530005DF8047B704700BF80B487B000AF78607F
:1005400013460A467A807B7000233B610023FB60E0
:100550000023BB6000237B617B687B617B88DBB20F
:100560005B09DBB23B617B8803F01F03FB60FB6828
:10057000012202FA03F3BB603B69012B03D17B69C3
:100580000C337B6109E03B69022B03D17B6910339B
:100590007B6102E07B6914337B617B78002B06D0A2
:1005A0007B697A691168BA680A431A6006E07B6958
:1005B0007A691168BA68D2430A401A601C37BD468E
:1005C0005DF8047B704700BF80B485B000AF7860F1
:1005D0000B467B800023FB737B681B889AB27B8869
:1005E00013409BB2002B02D00123FB7301E00023D8
:1005F000FB73FB7B18461437BD465DF8047B7047E0
:1006000080B487B000AF78600B467B800023FB602E
:1006100000237B610023BB600023FB747B88DBB27B
:100620005B09DBB2BB607B8803F01F037B617B69E6
:10063000012202FA03F37B61BB68012B06D17B68C0
:100640009B899BB27A6913407B610FE0BB68022BE8
:1006500006D17B681B8A9BB27A6913407B6105E0F7
:100660007B689B8A9BB27A6913407B617B881B0AFB
:100670009BB2FB60FB68012202FA03F3FB607B681C
:100680001B889BB2FA681340FB607B69002B05D086
:10069000FB68002B02D00123FB7401E00023FB74F4
:1006A000FB7C18461C37BD465DF8047B704700BFD5
:1006B00080B485B000AF78600B467B800023FB815F
:1006C0000023BB817B881B0AFB81FB89012202FA84
:1006D00003F3BB81BB89DB439AB27B681A80143772
:1006E000BD465DF8047B704780B586B000AF4FF41F
:1006F0000030012100F036FF0120012100F014FF3D
:100700000C233B6102233B750023BB750123FB7562
:1007100002237B7507F110031648194600F05EFFAF
:1007200014480221072201F001F812480321072290
:1007300000F0FCFF4FF4E1333B600023BB8000235B
:10074000FB8000233B810023BB810C237B813B4644
:1007500009481946FFF704FE074840F225510122D7
:10076000FFF7EAFE04480121FFF7B4FE1837BD4643
:1007700080BD00BF000002400044004080B582B050
:1007800000AF0346FB7100BF07488021FFF71CFF45
:100790000346002BF8D0FB799BB203481946FFF7BC
:1007A000B9FE0837BD4680BD0044004080B584B026
:1007B00000AF78600023FB6009E0FB687A681344AF
:1007C0001B781846FFF7DAFFFB680133FB60FB6814
:1007D0007A6813441B78002BEFD11037BD4680BDDB
:1007E00080B582B000AF26233B710A237B710123C1
:1007F000BB710123FB713B1D184601F0BFFC08379C
:10080000BD4680BD80B586B000AFF860B9607A6043
:10081000BB68002B01D100233BE002E07B68013381
:100820007B607B681B78202BF8D07B681B78002BC3
:1008300004D1FB6800221A7001232AE0786803F0D3
:10084000B7FF0346013B7A6813447B6102E07B6992
:10085000013B7B617A697B689A4203D97B691B788B
:10086000202BF4D07B6901337B61BB685A1E796908
:100870007B68CB1A9A4238BF13463B61F8687968A7
:100880003A6903F08FFDFA683B69134400221A703D
:100890003B6918461837BD4680BD00BF80B582B0A1
:1008A00000AF5D4840F22551FFF7AAFE0346002B3A
:1008B00000F0AE80584840F22551FFF7F9FE564B44
:1008C0009B889BB2FB71FB79402B05D9FB795A2B96
:1008D00002D8FB792033FB71FB790D2B3DD84F4BB0
:1008E0001B68002B04D14E4B1B68002B00D18FE0FE
:1008F0004A4B1A684A4B18684A491346DB001344AE
:10090000DB0003440B4400221A70444B1A68134660
:10091000DB001344DB00434A9918404B1A68134626
:10092000DB001344DB003F4A1344084645211A46C6
:10093000FFF768FF394B00221A60394B00221A601A
:100940003948384900F042F938603B68032B03D13D
:100950003648FFF72BFF53E052E0FB792C2B34D1C4
:100960000023FB712D4B1A682D4B18682D49134637
:10097000DB001344DB0003440B44FA791A70274B65
:100980001A681346DB001344DB00264A9918234BF0
:100990001A681346DB001344DB00224A134408465E
:1009A00045211A46FFF72EFF1C4B1B680A2B03D963
:1009B0001F48FFF7FBFE2BE0184B1B685A1C174B18
:1009C0001A60174B00221A601AE0154B1B68442B63
:1009D00003D91848FFF7EAFE1AE0104B1A68104BCB
:1009E000186810491346DB001344DB0003440B4432
:1009F000FA791A700A4B1B685A1C094B1A60FFE7F8
:100A000000BF05484021FFF7DFFD0346002BF8D06B
:100A10000837BD4680BD00BF00440040905A00200A
:100A20008C5A002054D50120A08701203C490008A1
:100A3000444900085049000880B582B000AF104B0F
:100A40007B60104B3B6007E03B681A1D3A607A6898
:100A5000111D796012681A603A680B4B9A42F3D301
:100A60000A480B494FF000028842B8BF40F8042BF7
:100A7000FFF6FAAF00F06EFC0837BD4680BD00BF40
:100A80003C4C0008000000208C5A00208C5A0020AA
:100A9000B4D8012080B400AFFEE700BF80B584B0B9
:100AA00000AF78607B68013B0C2B6ED801A252F836
:100AB00023F000BFE90A00088B0B0008F10A0008C8
:100AC000F90A0008010B0008090B0008110B0008C7
:100AD000190B0008210B00088B0B0008290B0008DC
:100AE000310B0008390B00082A48FFF75FFE27E0AA
:100AF0002948FFF75BFE23E02848FFF757FE1FE079
:100B00002748FFF753FE1BE02648FFF74FFE17E08C
:100B10002548FFF74BFE13E02448FFF747FE0FE0A0
:100B20002348FFF743FE0BE02248FFF73FFE07E0B4
:100B30002148FFF73BFE03E02048FFF737FE00BFE8
:100B40000023FB601AE01E4B9B68591EFA6813468F
:100B5000DB001344DB004FF4587202FB01F2134434
:100B600003F10802164B134404331846FFF71EFE28
:100B70001448FFF71BFEFB680133FB60FB680B2B7F
:100B8000E1DD1148FFF712FE00E000BF1037BD465F
:100B900080BD00BF5C490008684900087049000832
:100BA0008049000890490008A0490008B849000899
:100BB000DC490008F0490008084A00081C4A0008FF
:100BC000A0870120304A0008344A000880B582B06E
:100BD00000AF786039607B685A687B681B68013BAE
:100BE0009A4208DA7B689A687B685B6801339A42AC
:100BF00007D103232AE07B689B68002B01D10323E4
:100C000024E07B685B687A684FF4587101FB03F35A
:100C1000134403F108023B68111D1A464FF4587340
:100C2000084611461A4603F0BDFB7B685A687B688C
:100C30001B68013B9A4205DA7B685B685A1C7B683B
:100C40005A6002E07B6800225A6000231846083789
:100C5000BD4680BD80B582B000AF786039607B68EA
:100C60009A687B685B689A4201D1022323E07B6823
:100C70009B683A6879684FF4587000FB03F30B44A3
:100C8000083311461A1D4FF45873084611461A4688
:100C900003F088FB7B689A687B681B68013B9A427B
:100CA00005DA7B689B685A1C7B689A6002E07B6867
:100CB00000229A60002318460837BD4680BD00BF59
:100CC00080B588B000AF78607B689B6C172B01DD26
:100CD0000D2390E07B6890331846494903F0FCFBF4
:100CE0000346002B02D10123FB6103E07B68D3F8AC
:100CF0009030FB61434B9A687B689B6C9A4206DD9F
:100D0000404B9A687B689B6CD31ABB6108E03D4BF3
:100D10009A683C4B1B681A447B689B6CD31ABB6176
:100D200000237B612BE000233B611FE0BA693B6934
:100D30001344344A126893FBF2F102FB01F29B1A4E
:100D40004FF4587202FB03F303F108022D4B1344D6
:100D500004332C481946FFF739FFB860BB68002BF5
:100D600001D0BB6847E03B6901333B617B689B6C0A
:100D70005A1E3B699A42D9DC7B6901337B617A69EF
:100D8000FB699A42CFDB7B68903318461C4903F01D
:100D9000A3FB0346002B2DD10023FB60194B9B685E
:100DA000002B11DD174B9B68013B4FF4587202FB7F
:100DB00003F303F10802134B13440433114819469B
:100DC000FFF704FFF86010E00E4B1B68013B4FF487
:100DD000587202FB03F303F108020A4B1344043375
:100DE00008481946FFF7F2FEF860FB68002B01D0B7
:100DF000FB6800E0002318462037BD4680BD00BFD9
:100E0000384A0008A087012080B582B000AF786022
:100E1000396078684B4903F05FFB0346002B04D12F
:100E20003B6800221A60002387E07868464903F097
:100E300053FB0346002B04D13B6803221A600023B6
:100E40007BE07868414903F047FB0346002B04D15F
:100E50003B684F221A6000236FE078683C4903F03A
:100E60003BFB0346002B04D13B681C221A60002385
:100E700063E07868374903F02FFB0346002B04D169
:100E80003B68E0221A60002357E07868324903F09B
:100E900023FB0346002B04D13B68FF221A6000238A
:100EA0004BE078682D4903F017FB0346002B04D173
:100EB0003B681F221A6000233FE07868284903F04E
:100EC0000BFB0346002B04D13B687F221A600023F2
:100ED00033E07868234903F0FFFA0346002B04D17E
:100EE0003B68E3221A60002327E078681E4903F07C
:100EF000F3FA0346002B04D13B68FC221A6000235E
:100F00001BE07868194903F0E7FA0346002B04D187
:100F10003B6844221A6000230FE07868144903F00C
:100F2000DBFA0346002B04D13B68A8221A60002399
:100F300003E03B6800221A60052318460837BD46C7
:100F400080BD00BF444A00084C4A0008544A0008CB
:100F5000604A0008684A0008704A0008744A00089D
:100F60007C4A0008884A0008904A0008984A00080D
:100F7000A04A00082DE9F0438DB008AF7860002347
:100F8000BB600023FB6033E07968FA681346DB003E
:100F90001344DB000B441B782D2B13D07968FA68BF
:100FA0001346DB001344DB000B441B782F2B1CD9AA
:100FB0007968FA681346DB001344DB000B441B78A6
:100FC000392B12D8FA681346DB001344DB007A6829
:100FD0001344184603F0E2F901467868FA681346AC
:100FE000DB001344DB0003441960FB680133FB6042
:100FF000FB680B2BC8DD7B681846A54903F06CFA2B
:101000000346002B0FD17B68D3F890107B68D3F890
:10101000D8207B689B6C084611461A4601F034FBC9
:10102000B860BB6864E17B6818469A4903F054FADB
:101030000346002B10D17B6803F148027B684833DC
:1010400010461946FFF7E0FEB8607B689B6C1846B7
:1010500002F022F8BB684BE17B6818468E4903F02A
:101060003BFA0346002B01D1042341E17B6818467B
:101070008A4903F031FA0346002B01D1042337E1FA
:101080007B681846864903F027FA0346002B21D1D6
:101090007B6803F590727B6803F5907310461946E0
:1010A000FFF7B2FEB860BB68002B01D0BB681FE140
:1010B0007B68986C7B68D3F890107B68D3F8D82055
:1010C0007B68D3F820310024009402F0BDFBB860A7
:1010D000BB680DE17B681846724903F0FDF90346D1
:1010E000002B29D17B6803F5B4727B6803F5B473D8
:1010F00010461946FFF788FEB860BB68002B01D088
:10110000BB68F5E07B68986C7B68D3F890107B68CF
:10111000D3F8D8207B68D3F820317C68D4F86851A4
:101120007C68D4F8B041009501940024029401F049
:101130004FFEB860BB68DBE07B6818465A4903F095
:10114000CBF90346002B25D17B6803F5B4727B688D
:1011500003F5B47310461946FFF756FEB8607B6876
:10116000986C7B68D3F890107B68D3F8D8207B68A4
:10117000D3F820317C68D4F868517C68D4F8B04149
:1011800000950194002402940024039401F0B6FE1B
:10119000BB68ADE07B681846444903F09DF90346FF
:1011A000002B2AD17B6803F1D8027B68D833104624
:1011B0001946FFF729FEB860BB68002B01D0BB6859
:1011C00096E07B68986C7B68D3F890107B68D3F8C6
:1011D000D8207B6803F590737C6804F5B4757C684F
:1011E000D4F8B041009501940024029400240394A3
:1011F00002F0B0F9B860BB687AE07B6818462C4909
:1012000003F06AF90346002B54D17B6803F546725C
:101210007B6803F5467310461946FFF7F5FDB86085
:10122000BB68002B01D0BB6862E07B68986C7B6870
:10123000D3F890107B68D3F8D8207B68D3F820319E
:101240007C68D4F868917C68D4F8B0817C68D4F864
:10125000F8C17C68D4F840E27C68D4F888627C6885
:10126000D4F8D0527C68D4F81843CDF80090CDF86B
:101270000480CDF808C0CDF80CE0049605950694DE
:101280000024079402F03CFBB860BB6830E000BF6C
:10129000A84A0008B04A0008BC4A0008C84A00082A
:1012A000D04A0008D84A0008E04A0008EC4A000882
:1012B000F44A00087B681846104903F00DF903460C
:1012C000002B06D17B689B6C1846FEF7FDFF0023C0
:1012D0000EE07B6818460A4903F0FEF80346002B2F
:1012E00005D17868FFF7ECFCB860BB6800E0042328
:1012F00018461437BD46BDE8F08300BFFC4A00081D
:10130000044B000880B5ADF55C7D00AF3B1D186057
:101310000023C7F86C333A1D07F10C031068194617
:10132000FFF798FCC7F86C03D7F86C33002B02D09A
:10133000D7F86C3308E007F10C031846FFF71AFEE4
:10134000C7F86C03D7F86C33184607F55C77BD46D1
:1013500080BD00BF80B582B000AF00F02DFAFFF76E
:10136000C3F9FFF73DFAFEF70FFF174B17221A607C
:10137000154B00225A60144B00229A601348FFF765
:1013800015FA00F0C3FC002000F000FD00237B6094
:1013900000233B600E484FF4805100F0ADF9034646
:1013A000002B02D000237B600DE07B6801337B6063
:1013B0007B68012B07D10448FFF7A4FF3860386829
:1013C000FFF76CFBE6E7E5E7A08701200C4B000880
:1013D0000004024080B489B000AF78600023BB6194
:1013E00000237B610023FB6102233B610023FB6040
:1013F0000223BB60484B9B6803F00C03BB61BB69D5
:10140000042B07D0082B09D0002B3FD17B68434A1F
:101410001A603FE07B68424A1A603BE03E4B5B68E3
:1014200003F480039B0DFB603B4B5B6803F03F03C1
:10143000BB60FB68002B0DD0394ABB68B2FBF3F2EE
:10144000354B596847F6C0730B409B0903FB02F309
:10145000FB610CE0314ABB68B2FBF3F22E4B5968DA
:1014600047F6C0730B409B0903FB02F3FB612A4B59
:101470005B6803F440331B0C01335B003B61FA698A
:101480003B69B2FBF3F27B681A6003E07B68234A96
:101490001A6000BF204B9B6803F0F003BB61BB697F
:1014A0001B09BB611F4ABB6913441B78DBB27B611C
:1014B0007B681A687B69DA407B685A60164B9B68C8
:1014C00003F4E053BB61BB699B0ABB61154ABB696E
:1014D00013441B78DBB27B617B685A687B69DA4016
:1014E0007B689A600C4B9B6803F46043BB61BB69EB
:1014F0005B0BBB610B4ABB6913441B78DBB27B619E
:101500007B685A687B69DA407B68DA602437BD46BD
:101510005DF8047B704700BF003802400024F400EF
:1015200000127A000000002080B483B000AF786021
:101530000B46FB70FB78002B06D0094B084A116B59
:101540007A680A431A6306E0054B054A116B7A680C
:10155000D2430A401A630C37BD465DF8047B7047DE
:101560000038024080B483B000AF78600B46FB7057
:10157000FB78002B06D0094B084A116C7A680A43A5
:101580001A6406E0054B054A116C7A68D2430A409A
:101590001A640C37BD465DF8047B70470038024082
:1015A00080B483B000AF78600B46FB70FB78002BF3
:1015B00006D0094B084A516C7A680A435A6406E01F
:1015C000054B054A516C7A68D2430A405A640C377D
:1015D000BD465DF8047B70470038024080B487B098
:1015E00000AF7860396000237B6100233B610023FA
:1015F000FB6000237B6176E07B69012202FA03F342
:101600003B613B681A683B691340FB60FA683B69C1
:101610009A4265D17B681A687B695B00032101FAF5
:1016200003F3DB431A407B681A607B681A683B68E7
:101630001B7919467B695B0001FA03F31A437B6847
:101640001A603B681B79012B03D03B681B79022B86
:101650002ED17B689A687B695B00032101FA03F352
:10166000DB431A407B689A607B689A683B685B79C9
:1016700019467B695B0001FA03F31A437B689A60A1
:101680007B685A687B699BB2012101FA03F3DB4353
:101690001A407B685A607B685A683B689B79194698
:1016A0007B699BB201FA03F39BB21A437B685A60D1
:1016B0007B68DA687B699BB25B00032101FA03F364
:1016C000DB431A407B68DA607B68DA683B68DB7969
:1016D00019467B695B0001FA03F31A437B68DA6001
:1016E0007B6901337B617B690F2B85D91C37BD4634
:1016F0005DF8047B704700BF80B485B000AF7860B0
:101700000B467B800023FB737B685A697B88134000
:10171000002B02D00123FB7301E00023FB73FB7B52
:1017200018461437BD465DF8047B704780B485B019
:1017300000AF786013460A467A807B700023FB6016
:101740000023BB607A787B8803F007039B0002FAD2
:1017500003F3FB607B88DB089BB21A467B88DB08BF
:101760009BB219467B68083153F821107B8803F03F
:1017700007039B000F2000FA03F3DB4319407B684B
:10178000083243F822107B88DB089BB21A467B683C
:10179000083253F82220FB681343BB607B88DB08C8
:1017A0009BB21A467B680832B96843F82210143796
:1017B000BD465DF8047B704780B500AF114B114A00
:1017C000126842F001021A600E4B00229A600D4A24
:1017D0000C4B1B6823F0847323F480331360094B94
:1017E000094A5A60074B074A126822F480221A609D
:1017F000044B0022DA6000F00BF8044B4FF000625B
:101800009A6080BD003802401030002400ED00E0F6
:1018100080B483B000AF00237B6000233B60354B76
:10182000344A126842F480321A60324B1B6803F467
:1018300000333B607B6801337B603B68002B03D146
:101840007B68B3F5A06FF0D12A4B1B6803F400331B
:10185000002B02D001233B6001E000233B603B688A
:10186000012B42D1234B234A126C42F080521A645E
:10187000214B214A126842F480421A601D4B1D4AD6
:1018800092689A601B4B1B4A926842F400429A602D
:10189000184B184A926842F4A0529A60154B174AA6
:1018A0005A60144B134A126842F080721A6000BFEB
:1018B000104B1B6803F00073002BF9D0104B40F263
:1018C00005621A600B4B0B4A926822F003029A6081
:1018D000084B084A926842F002029A6000BF054B2A
:1018E0009B6803F00C03082BF9D10C37BD465DF85B
:1018F000047B7047003802400070004008544007E5
:10190000003C024080B483B000AF78607B681B6805
:1019100023F001027B681A607B6800221A607B68F2
:1019200000225A607B6800229A607B680022DA609D
:101930007B6800221A617B6821225A617A68454BD4
:101940009A4203D1444B3D229A607EE07A68434B31
:101950009A4204D1404B4FF474629A6075E07A6801
:101960003F4B9A4204D13C4B4FF474129A606CE0A6
:101970007A683C4B9A4204D1374B4FF074629A60BC
:1019800063E07A68384B9A4203D1334B374ADA60C6
:101990005BE07A68364B9A4203D12F4B354ADA60C6
:1019A00053E07A68344B9A4203D12B4B334ADA60C6
:1019B0004BE07A68324B9A4204D1274B4FF03D52AC
:1019C000DA6042E07A682F4B9A4203D12E4B3D22D7
:1019D0009A603AE07A682D4B9A4204D12A4B4FF430
:1019E00074629A6031E07A68294B9A4204D1264B9E
:1019F0004FF474129A6028E07A68264B9A4204D118
:101A0000214B4FF074629A601FE07A68224B9A4231
:101A100003D11D4B154ADA6017E07A681F4B9A42D2
:101A200003D1194B134ADA600FE07A681C4B9A42D3
:101A300003D1154B114ADA6007E07A68194B9A42D4
:101A400003D1114B4FF03D52DA600C37BD465DF8C3
:101A5000047B704710600240006002402860024032
:101A60004060024058600240706002403D0000202B
:101A700088600240400F0020A060024000003D202E
:101A8000B8600240106402400064024028640240D2
:101A9000406402405864024070640240886402401E
:101AA000A0640240B864024080B485B000AF7860A2
:101AB00039600023FB607B681B68FB60FA68244B7D
:101AC0001340FB603B681A683B68DB681A433B685D
:101AD0005B691A433B689B691A433B68DB691A439D
:101AE0003B681B6A1A433B685B6A1A433B689B6A04
:101AF0001A433B685B6B1A433B689B6B1343FA6862
:101B00001343FB607B68FA681A607B685B69FB6063
:101B1000FB6823F00703FB603B68DA6A3B681B6BDA
:101B20001343FA681343FB607B68FA685A613B68A9
:101B30001A697B685A603B685A687B689A603B68A0
:101B40009A687B68DA601437BD465DF8047B70479D
:101B50003F801CF080B483B000AF78600B46FB7010
:101B6000FB78002B06D07B681B6843F001027B6882
:101B70001A6005E07B681B6823F001027B681A602D
:101B80000C37BD465DF8047B704700BF80B485B05C
:101B900000AFF860B9601346FB71BB6803F08003C7
:101BA000002B0FD0FB79002B06D0FB685B6943F05C
:101BB0008002FB685A6105E0FB685B6923F08002E4
:101BC000FB685A61BB68802B14D0FB79002B08D0CE
:101BD000FB681A68BB6803F01E031A43FB681A60AF
:101BE00008E0FB681A68BB6803F01E03DB431A4079
:101BF000FB681A601437BD465DF8047B704700BF70
:101C000080B487B000AF786039600023FB75002393
:101C1000FB600023BB607A68224B9A4202D8224BB9
:101C20003B6101E0214B3B613B6823F0F02323F053
:101C3000C313002B0AD03B68DB0A03F01E03FB60D2
:101C40007B681A68FB681340BB6004E07B685B69D3
:101C500003F08003BB603B6803F00053002B03D00C
:101C60003B695B68FB6002E03B691B68FB60FB68EB
:101C700023F0F02323F08213FB60FA683B681340E3
:101C8000002B05D0BB68002B02D00123FB7501E0BF
:101C90000023FB75FB7D18461C37BD465DF8047BB1
:101CA000704700BF0F6402400060024000640240C1
:101CB00080B485B000AF786039607A68104B9A4282
:101CC00002D8104BFB6001E00F4BFB603B6803F058
:101CD0000053002B07D03B6823F0F02323F082133E
:101CE000FA68D36006E03B6823F0F02323F0821308
:101CF000FA6893601437BD465DF8047B704700BFF7
:101D00000F640240006002400064024080B582B06F
:101D100000AF1B4B00221A80194B00225A60184B4F
:101D200000229A600023BB8017E00023FB800DE0B7
:101D3000BA8813469B0013449B011A44FB88134442
:101D4000104A0021D154FB880133FB80FB88B3F596
:101D5000A07FEDD9BB880133BB80BB88EF2BE4D9D2
:101D600000F05EF800F0B0F800F03EF900F010F975
:101D7000054B1A68024B9A600837BD4680BD00BF0C
:101D8000A05A0020B05A00208864024080B584B078
:101D900000AF0346FB710023BB8114E00023FB81ED
:101DA0000AE0F989BA89FB79084611461A4600F01B
:101DB00011F8FB890133FB81FB89B3F5A07FF0D3D8
:101DC000BB890133BB81BB89EF2BE7D91037BD46F7
:101DD00080BD00BF80B483B000AF13460246FA80D6
:101DE0000A46BA80FB70FB88B3F5A07F01D30023BD
:101DF000FB80BB88EF2B01D90023BB80BA88134638
:101E00009B0013449B011A44FB881344034AF9784E
:101E1000D1540C37BD465DF8047B7047B05A0020A2
:101E200080B582B000AF10200121FFF77DFB4FF697
:101E300080733B6001233B710023BB710123FB7165
:101E400003237B713B461E481946FFF7C7FB1C4B1B
:101E50004FF47F425A8302200121FFF765FB4FF4C4
:101E600000633B6002233B7103237B710023BB7142
:101E70000123FB713B4613481946FFF7AFFB11489E
:101E80000B210122FFF752FC02200121FFF74CFB3E
:101E90004FF480533B6001233B710023BB7101234E
:101EA000FB7103237B713B4606481946FFF796FBFF
:101EB000044B4FF480521A830837BD4680BD00BFE3
:101EC000001002400004024080B588B000AF01203D
:101ED0000121FFF765FB0B23BB610023BB820023BD
:101EE000BB830023FB8207F114032848194600F046
:101EF000A3F901200121FFF735FB40F66B23BB61FD
:101F00000023BB820023BB830023FB8207F1140361
:101F10004FF08040194600F08FF960233B80012389
:101F20007B804FF4D273BB600223BB813B464FF0F2
:101F30008040194600F02AFA4FF08040082100F056
:101F400011FB60233B8001237B804FF4A073BB60B7
:101F50000223BB813B464FF08040194600F09CFABB
:101F60004FF08040082100F019FB0848012100F0E3
:101F7000CDF94FF08040012100F0C8F94FF08040CA
:101F8000012100F0E3F92037BD4680BD000001408B
:101F900080B582B000AF134810210122FFF7F6FD93
:101FA00044233B7100237B710123BB710123FB712F
:101FB0003B1D184600F0E2F84FF080400821012256
:101FC00000F00AFB1C233B7100237B710023BB71D3
:101FD0000123FB713B1D184600F0D0F80837BD46C1
:101FE00080BD00BF8864024080B590B000AF4FF460
:101FF00080000121FFF798FA1B480021FFF7AAFD96
:102000001948FFF77FFC4FF040637B60174BBB60C4
:10201000174BFB6040233B6140F241137B6100237F
:10202000BB614FF48063FB6100233B6200237B6252
:102030000023BB624FF44033FB6200233B63012368
:102040007B630023BB630023FB633B1D06481946EB
:10205000FFF72AFD07484FF48071012200F0F0FAE3
:102060004037BD4680BD00BF886402401510024065
:10207000B05A00200000014080B500AF4FF0804012
:10208000082100F0CDFA254B1B8801339AB2234B6F
:102090001A80224B1B88B3F5037F05D91F4B002202
:1020A0001A801F4A1D4B5A601C4B1B88012B04D8F9
:1020B0001C4B4FF480525A8303E01A4B4FF480526A
:1020C0001A83164B1B88232B27D9144B1A8840F2EE
:1020D00002239A4221D8144B104A92681A60124B7C
:1020E0000E4A5268DA60114B104A128892B242F0DE
:1020F000010292B21A800C4B0B4A126842F00102A4
:102100001A60064B1B8803F00103002B05D0034B1C
:102110005B6803F24112014B5A6080BDA05A002057
:10212000B05A0020000402408864024000000140D0
:1021300080B500AF0D480E49FFF762FD0346002B46
:1021400012D00A480A49FFF7B3FD0A4B094A128820
:1021500092B222F0010292B21A80044B00221A605D
:10216000054B4FF47F425A8380BD00BF8864024014
:1021700000880020000001400010024080B485B0BB
:1021800000AF78600023FB730023BB730F237B73C6
:102190007B68DB78002B37D0254BDB68DB4303F40F
:1021A000E0631B0AFB73FB7BC3F10403BB737A7B05
:1021B000FB7B42FA03F37B737B685B781A46BB7B3D
:1021C00002FA03F3FB737B689A787B7B1340DAB2E5
:1021D000FB7B1343FB73FB7B1B01FB73154A7B6883
:1021E0001B781344FA7B83F80023124B7A68127829
:1021F0005209D2B27968097801F01F01012000FA72
:1022000001F143F822100EE00A4B7A681278520965
:10221000D2B27968097801F01F01012000FA01F1BA
:10222000203243F822101437BD465DF8047B704716
:1022300000ED00E000E100E080B485B000AF786020
:1022400039600023FB817B681B88FB817A68284BFF
:102250009A4213D07A68274B9A420FD07B68B3F129
:10226000804F0BD07A68244B9A4207D07A68234B70
:102270009A4203D07A68224B9A4208D1FB8923F014
:102280007003FB813B685A88FB891343FB817A68A2
:102290001C4B9A420CD07A681B4B9A4208D0FB899F
:1022A00023F44073FB813B681A89FB891343FB814C
:1022B0007B68FA891A803B685A687B68DA623B68F7
:1022C0001A887B681A857A68094B9A4203D07A6823
:1022D000084B9A4204D13B689B7A1A467B681A865F
:1022E0007B6801229A821437BD465DF8047B7047F3
:1022F00000000140000401400004004000080040CC
:10230000000C0040001000400014004080B483B076
:1023100000AF78600B46FB70FB78002B08D07B6821
:102320001B889BB243F080039AB27B681A8007E057
:102330007B681B889BB223F080039AB27B681A806B
:102340000C37BD465DF8047B704700BF80B483B096
:1023500000AF78600B46FB70FB78002B08D07B68E1
:102360001B889BB243F001039AB27B681A8007E096
:102370007B681B889BB223F001039AB27B681A80AA
:102380000C37BD465DF8047B704700BF80B485B054
:1023900000AF7860396000237B810023FB8100233C
:1023A000BB817B681B8C9BB223F480739AB27B68E1
:1023B0001A847B681B8CFB817B689B88BB817B6854
:1023C0009B8B7B817B8923F070037B817B8923F04E
:1023D00003037B813B681A887B8913437B81FB89DC
:1023E00023F40073FB813B689B891B029AB2FB8933
:1023F0001343FB813B685B881B029AB2FB89134342
:10240000FB817A68224B9A4203D07A68214B9A4228
:102410002BD1FB8923F40063FB813B68DB891B0222
:102420009AB2FB891343FB81FB8923F48063FB8110
:102430003B689B881B029AB2FB891343FB81BB89D3
:1024400023F48053BB81BB8923F40053BB813B68D9
:102450001B8A1B019AB2BB891343BB813B685B8A11
:102460001B019AB2BB891343BB817B68BA899A80EE
:102470007B687A899A833B689A687B68DA637B68B1
:10248000FA891A841437BD465DF8047B704700BF93
:10249000000001400004014080B485B000AF7860C6
:1024A00039600023BB8100237B810023FB817B6893
:1024B0001B8C9BB223F480539AB27B681A847B688E
:1024C0001B8C7B817B689B88FB817B689B8BBB81A2
:1024D000BB8923F4E043BB81BB8923F44073BB81F8
:1024E0003B681B881B029AB2BB891343BB817B8963
:1024F00023F400537B813B689B891B039AB27B8941
:1025000013437B813B685B881B039AB27B8913432F
:102510007B817A68114B9A4203D07A68104B9A42B9
:102520000AD1FB8923F48043FB813B681B8A9B0112
:102530009AB2FB891343FB817B68FA899A807B6896
:10254000BA899A833B689A687B681A647B687A893F
:102550001A841437BD465DF8047B704700000140C3
:102560000004014080B485B000AF78600B467B80EA
:102570000023FB817B689B8BFB81FB8923F0080395
:10258000FB81FA897B881343FB817B68FA899A83F4
:102590001437BD465DF8047B704700BF80B485B03A
:1025A00000AF78600B467B800023FB817B689B8BB0
:1025B000FB81FB8923F40063FB817B881B029AB2B9
:1025C000FB891343FB817B68FA899A831437BD46E4
:1025D0005DF8047B704700BF80B483B000AF7860C3
:1025E00013460A467A807B707B78002B08D07B6884
:1025F0009B899AB27B8813439AB27B689A8109E0DF
:102600007B689B899AB27B88DB439BB213409AB26A
:102610007B689A810C37BD465DF8047B704700BF2C
:1026200080B483B000AF78600B467B807B88DB434F
:102630009AB27B681A820C37BD465DF8047B7047FE
:1026400080B483B000AF786013460A467A807B700E
:102650007B78002B08D07B689B899AB27B881343D8
:102660009AB27B689A8109E07B689B899AB27B88E1
:10267000DB439BB213409AB27B689A810C37BD460C
:102680005DF8047B704700BF90B589B000AFF8607B
:10269000B9607A600023FB610023BB6100237B618A
:1026A000FB68B3F5A07F08DCFB68002B05DBBB688B
:1026B000F02B02DCBB68002B01DA062342E17B68C9
:1026C000002B33D10023BB612CE000237B6123E08E
:1026D000874ABB6919017B690B4413441B78002BA3
:1026E00017D07B699AB2FB689BB2134499B2BB695D
:1026F0009AB2BB689BB213449AB27D48BB691C0175
:102700007B69234403441B78084611461A46FFF7A9
:1027100061FB7B6901337B617B690F2BD8DDBB6972
:102720000133BB61BB690F2BCFDD0AE17B68012B55
:1027300037D10023BB6130E00F237B6127E06C4A77
:10274000BB6919017B690B4413441B78002B1BD018
:102750007B690F3B002BB8BF5B429AB2FB689BB210
:10276000134499B2BB699AB2BB689BB213449AB244
:102770005F48BB691C017B69234403441B780846FE
:1027800011461A46FFF726FB7B69013B7B617B699B
:10279000002BD4DABB690133BB61BB690F2BCBDDE6
:1027A000CFE07B68022B33D10023BB612CE00023F8
:1027B0007B6123E04E4A7B691901BB690B441344DA
:1027C0001B78002B17D07B699AB2FB689BB213442D
:1027D00099B2BB699AB2BB689BB213449AB244489F
:1027E0007B691C01BB69234403441B7808461146DE
:1027F0001A46FFF7EFFA7B6901337B617B690F2B88
:10280000D8DDBB690133BB61BB690F2BCFDD98E01D
:102810007B68032B37D10F23BB6130E000237B6142
:1028200027E0334A7B691901BB690B4413441B78C9
:10283000002B1BD07B699AB2FB689BB2134499B200
:10284000BB690F3B002BB8BF5B429AB2BB689BB21F
:1028500013449AB226487B691C01BB692344034494
:102860001B78084611461A46FFF7B4FA7B69013314
:102870007B617B690F2BD4DDBB69013BBB61BB690D
:10288000002BCBDA5DE07B68042B28D1BB68BB61F1
:102890001EE0FB687B6112E07B6999B2BB699AB26A
:1028A0001448FB6903441B78084611461A46FFF793
:1028B00091FAFB690133FB617B6901337B61FB6842
:1028C00003F182027B699A42E6DCBB690133BB619A
:1028D000BB6803F14E02BB699A42DADC31E07B68E7
:1028E000052B2CD1BB68BB6122E0FB687B6116E045
:1028F000AC270020100000207B6999B2BB699AB216
:102900001248FB6903441B78084611461A46FFF734
:1029100061FAFB690133FB617B6901337B61FB6811
:1029200003F164027B699A42E6DCBB690133BB6157
:10293000BB6803F16402BB699A42D6DC01E007235D
:1029400000E0002318462437BD4690BDAC28002087
:10295000B0B590B000AFF860B9607A603B6000231A
:10296000BB637B6DBB61BB695B00BB61BB69013B4A
:10297000BB617A68FB68D31A184601F0C7F90246B2
:102980000B46C7E904233A68BB68D31A184601F01E
:10299000BDF902460B46C7E90A23BB687B62FB68A8
:1029A0003B620123FB61D7E90A014FF000024FF0BF
:1029B000000301F083FC0346002B11D04FF0FF33DE
:1029C000FB61D7E90A0101F0A1FC0346002BB8BF67
:1029D0005B42184601F09AF902460B46C7E90A2302
:1029E000D7E90A231046194601F044F802460B467F
:1029F00010461946D7E9042301F03AF802460B467F
:102A00001046194601F082FC03467B637B6B3B63F7
:102A1000BB687B62FB68FB63B4E0FB6B99B27B6ACB
:102A20009AB23B6DDBB2084611461A46FFF7D2F95F
:102A3000BB69012B6ADD7B6B3B63FB6B3B62002355
:102A4000BB635FE0BA6BBB699A421FD03B6A99B225
:102A50007B6A9AB2BB6B9BB2D31A9AB23B6DDBB264
:102A6000084611461A46FFF7B5F93B6A99B27B6AE8
:102A70009AB2BB6B9BB2D31A9BB201339AB23B6D35
:102A8000DBB2084611461A46FFF7A4F93B6B002B50
:102A90001CDD3A6AFB6913443B62386B01F036F97E
:102AA00004460D46D7E904231046194600F0E2FF1C
:102AB00002460B462046294600F0DAFF02460B4646
:102AC0001046194601F022FC03463B63386B01F0C7
:102AD0001DF904460D46D7E90A231046194600F0B1
:102AE000C9FF02460B462046294600F0C3FF0246B6
:102AF0000B461046194601F009FC03463B63BB6BCD
:102B00000133BB63BA6BBB699A429BDD7B6B002BC5
:102B10001CDD7A6AFB6913447B62786B01F0F6F87E
:102B200004460D46D7E904231046194600F0A2FFDB
:102B300002460B462046294600F09AFF02460B4605
:102B40001046194601F0E2FB03467B63786B01F007
:102B5000DDF804460D46D7E90A231046194600F071
:102B600089FF02460B462046294600F083FF0246B5
:102B70000B461046194601F0C9FB03467B63FB6B0D
:102B80000133FB63FA6B7B689A42FFF646AF002382
:102B900018464037BD46B0BDB0B590B000AFF86044
:102BA000B9607A603B607B6DBB617A68FB68D31A61
:102BB000184601F0ABF802460B46C7E90E233A6807
:102BC000BB68D31A184601F0A1F802460B46C7E9C4
:102BD0000423BB687B630023BB620123FB61D7E94D
:102BE0000E014FF000024FF0000301F067FB0346B7
:102BF000002B11D04FF0FF33FB61D7E90E0101F03C
:102C000085FB0346002BB8BF5B42184601F07EF8F7
:102C100002460B46C7E90E23D7E90E0101F076FB09
:102C200003465C00D7E9040101F070FB0346E31A98
:102C30007B627B6A3B62FB683B63BB68FB62BB6990
:102C40005B00BB61BB69013BBB61BB687B63B4E0FC
:102C50003B6B99B27B6B9AB23B6DDBB20846114677
:102C60001A46FFF7B7F8BB69012B6ADD7B6A3B6246
:102C70007B6BFB620023BB625FE0BA6ABB699A426E
:102C80001FD03B6B9AB2BB6A9BB2D31A99B2FB6A54
:102C90009AB23B6DDBB2084611461A46FFF79AF826
:102CA0003B6B9AB2BB6A9BB2D31A9BB2013B99B2FF
:102CB000FB6A9AB23B6DDBB2084611461A46FFF733
:102CC00089F83B6A002B1CDDFA6AFB691344FB623E
:102CD000386A01F01BF804460D46D7E90423104674
:102CE000194600F0C7FE02460B462046294600F072
:102CF000BFFE02460B461046194601F007FB03468D
:102D00003B62386A01F002F804460D46D7E90E230B
:102D10001046194600F0AEFE02460B4620462946F4
:102D200000F0A8FE02460B461046194601F0EEFAE6
:102D300003463B62BB6A0133BB62BA6ABB699A4213
:102D40009BDD7B6A002B1CDD3A6BFB6913443B6304
:102D5000786A00F0DBFF04460D46D7E904231046ED
:102D6000194600F087FE02460B462046294600F031
:102D70007FFE02460B461046194601F0C7FA03468D
:102D80007B62786A00F0C2FF04460D46D7E90E2345
:102D90001046194600F06EFE02460B4620462946B4
:102DA00000F068FE02460B461046194601F0AEFAE6
:102DB00003467B627B6B01337B637A6B3B689A4291
:102DC000FFF646AF002318464037BD46B0BD00BFF2
:102DD00080B588B004AFF860B9607A603B60FB688A
:102DE000B3F5A07F08DCFB68002B05DBBB68F02B8C
:102DF00002DCBB68002B01DA06237BE07B68B3F5BD
:102E0000A07F08DC7B68002B05DB3B68F02B02DC35
:102E10003B68002B01DA06236CE0BB69FF2B02DC68
:102E2000BB69002B01DA052364E0FA687B689A42EB
:102E300010D1BA683B689A420CD1FB6899B2BB6862
:102E40009AB2BB69DBB2084611461A46FEF7C2FFCA
:102E500000234FE0FB69002BB8BF5B42FB617A683F
:102E6000FB68D31A83EAE372A2EBE3723968BB68AA
:102E7000CB1A002BB8BF5B429A421DDB7A68FB6815
:102E80009A420CDDBB690093FB6901933B6A029394
:102E9000F868B9687A683B68FFF75AFD29E0BB69B2
:102EA0000093FB6901933B6A029378683968FA687A
:102EB000BB68FFF74DFD1CE03A68BB689A420CDD29
:102EC000BB690093FB6901933B6A0293F868B96898
:102ED0007A683B68FFF760FE0BE0BB690093FB6913
:102EE00001933B6A029378683968FA68BB68FFF718
:102EF00053FE002318461037BD4680BD80B58AB00A
:102F000004AFF860B9607A603B60FB68B3F5A07FFE
:102F100008DCFB68002B05DBBB68F02B02DCBB6820
:102F2000002B01DA0623B2E03B6AFF2B02DC3B6A8E
:102F3000002B01DA0523AAE07B68002BB8BF5B42B7
:102F40007B603B68002BB8BF5B423B607B6A012B18
:102F500023D1BB687B6119E0FB683B610DE03B69F5
:102F600099B27B699AB23B6ADBB2084611461A46AF
:102F7000FEF730FF3B6901333B61FA687B681A4416
:102F80003B699A42EBDA7B6901337B61BA683B6843
:102F90001A447B699A42DFDA78E07B6A002B73D1AE
:102FA000FA687B68134401333A6A0092BA6A019264
:102FB000FA6A0292F868B9681A46BB68FFF708FF18
:102FC000FA687B68D118FA687B681A44B8683B686D
:102FD00003440133386A0090B86A0190F86A02909D
:102FE0000846B968FFF7F4FEBB6A012B28DDFA68D2
:102FF0007B68D118BA683B6813445A1EB8683B68AE
:103000000344013B386A0090B86A0190F86A029064
:1030100008461146FA68FFF7DBFEBA683B681344BE
:103020005A1CB968BB6ACB1A396A0091B96A019116
:10303000F96A0291F8681146FA68FFF7C9FE25E0BF
:10304000FA687B68D118BA683B681A44B8683B686C
:103050000344386A0090B86A0190F86A0290084602
:103060001146FA68FFF7B4FEBA683B6813443A6A3F
:103070000092BA6A0192FA6A0292F8681946FA68EE
:10308000BB68FFF7A5FE01E00C2300E00023184613
:103090001837BD4680BD00BF80B584B000AF7860F2
:1030A0007B68FF2B02DC7B68002B01DA05231CE028
:1030B0000023BB8115E00023FB810BE07B68DBB2C2
:1030C000F989BA89084611461A46FEF783FEFB893C
:1030D0000133FB81FB89B3F5A07FEFD3BB890133BB
:1030E000BB81BB89EF2BE6D9002318461037BD46BC
:1030F00080BD00BF80B588B000AFF860B9607A606D
:10310000FB707B68FF2B02DC7B68002B01DA052358
:103110001BE2FB68B3F5A07F08DCFB68002B05DB36
:10312000BB68F02B02DCBB68002B01DA06230CE243
:1031300000237B61B86A8C4901F0CEF90346002B6D
:1031400040F0F680FB78DA00884B13443B61FB6A61
:10315000012B6ED1FB68FB6164E0BB68BB6158E08A
:10316000BA69BB68D31A3A6913441B781A46F969DD
:10317000FB68CB1A012101FA03F313407B617B69E1
:10318000002B43D03B6B002B0BD1FB6999B2BB6981
:103190009AB27B68DBB2084611461A46FEF71AFE61
:1031A00034E03B6B012B13D1BB689AB2BB699BB275
:1031B000D31A9AB2FB699BB2134499B2BB699AB213
:1031C0007B68DBB2084611461A46FEF703FE1DE097
:1031D0003B6B022B18D1FB6999B2BB699AB27B6831
:1031E000DBB2084611461A46FEF7F4FDFB699BB2B6
:1031F000013399B2BB699AB27B68DBB208461146CB
:103200001A46FEF7E7FD01E00A239EE1BB690133A0
:10321000BB61BB6803F10802BB699A42A0DCFB6991
:103220000133FB61FB6803F10802FB699A4294DCFD
:103230008AE1FB6A022B79D1FB68FB616FE0BB6816
:10324000BB6163E0BB6903F00103002B14D1BA69D1
:10325000BB68D31ADA0F13445B103A6913441B7826
:103260001A46F969FB68CB1AD90F0B445B10012190
:1032700001FA03F313407B617B69002B43D03B6B66
:10328000002B0BD1FB6999B2BB699AB27B68DBB2A8
:10329000084611461A46FEF79DFD34E03B6B012BB4
:1032A00013D1BB689AB2BB699BB2D31A9AB2FB69BD
:1032B0009BB2134499B2BB699AB27B68DBB20846F1
:1032C00011461A46FEF786FD1DE03B6B022B18D116
:1032D000FB6999B2BB699AB27B68DBB208461146BA
:1032E0001A46FEF777FDFB699BB2013399B2BB69C1
:1032F0009AB27B68DBB2084611461A46FEF76AFDB1
:1033000001E00A2321E1BB690133BB61BB6803F122
:103310001002BB699A4295DCFB690133FB61FB68D3
:1033200003F11002FB699A4289DC0DE10B230CE1E9
:10333000B86A0F4901F0D0F80346002B40F0028133
:10334000FB78203BFB70FA781346DB009B1A094A96
:1033500013443B61FB6A012B75D1FB68FB616CE098
:10336000BB68BB6161E000BF204B0008BC4F002080
:10337000284B0008BC530020FA69FB68D31A3A694D
:1033800013441B781A46B969BB68CB1A012101FAAC
:1033900003F313407B617B69002B43D03B6B002B15
:1033A0000BD1FB6999B2BB699AB27B68DBB2084664
:1033B00011461A46FEF70EFD34E03B6B012B13D18C
:1033C000BB689AB2BB699BB2D31A9AB2FB699BB233
:1033D000134499B2BB699AB27B68DBB208461146C6
:1033E0001A46FEF7F7FC1DE03B6B022B18D1FB6978
:1033F00099B2BB699AB27B68DBB2084611461A469D
:10340000FEF7E8FCFB699BB2013399B2BB699AB243
:103410007B68DBB2084611461A46FEF7DBFC01E08A
:103420000A2392E0BB690133BB61BB68DA1DBB694B
:103430009A42A1DCFB690133FB61FB68DA1DFB6981
:103440009A428DDC80E0FB6A022B79D1FB68FB613C
:103450006FE0BB68BB6163E0BB6903F00103002B55
:1034600014D1FA69FB68D31ADA0F13445B103A6976
:1034700013441B781A46B969BB68CB1AD90F0B44A1
:103480005B10012101FA03F313407B617B69002B80
:1034900043D03B6B002B0BD1FB6999B2BB699AB24D
:1034A0007B68DBB2084611461A46FEF793FC34E00F
:1034B0003B6B012B13D1BB689AB2BB699BB2D31A89
:1034C0009AB2FB699BB2134499B2BB699AB27B680A
:1034D000DBB2084611461A46FEF77CFC1DE03B6B4A
:1034E000022B18D1FB6999B2BB699AB27B68DBB237
:1034F000084611461A46FEF76DFCFB699BB2013384
:1035000099B2BB699AB27B68DBB2084611461A468B
:10351000FEF760FC01E00A2317E0BB690133BB61E1
:10352000BB6803F10E02BB699A4295DCFB6901336B
:10353000FB61FB6803F10E02FB699A4289DC03E040
:103540000B2302E0092300E0002318462037BD4684
:1035500080BD00BF80B5A6B004AFF860B9607A60E6
:103560003B607B68FF2B02DC7B68002B01DA0523C4
:10357000C4E0FB68B3F5A07F08DCFB68002B05DB2B
:10358000BB68F02B02DCBB68002B01DA0623B5E038
:10359000FB68C7F88430BB68C7F880300023FB673E
:1035A0000023BB6700237B6707F1100318463968C7
:1035B00001F0A0F899E007F11002FB6F13441B78AB
:1035C000D7F890200092D7F894200192D7F898204D
:1035D0000292D7F89C200392D7F88400D7F8801085
:1035E0007A68FFF787FD78677B6F002B01D07B6FD0
:1035F00084E0FB6F0133FB67D7F89430DB00D7F82A
:1036000084201344C7F8843007F11002FB6F134481
:103610001B78202B47D10023BB67BB6F0133BB67EF
:10362000D7F89430DA00D7F884301A44D7F89430B9
:10363000DB00B96F01FB03F31344B3F5A07F1DDB7F
:10364000FB6F0133FB67FB68C7F88430D7F8943011
:10365000DB00D7F880201344C7F88030D7F89430C7
:10366000DA00D7F880301344F02B03DCD7F8803031
:10367000002B01DA062341E000BF36E0BA6FFB6F92
:10368000134407F18802134413F8783C202B2CD004
:10369000BA6FFB6F134407F18802134413F8783CA8
:1036A000002B22D0B9E7D7F89430DA00D7F884306D
:1036B0001344B3F5A07F18DBFB68C7F88430D7F854
:1036C0009430DB00D7F880201344C7F88030D7F857
:1036D0009430DA00D7F880301344F02B03DCD7F8AD
:1036E0008030002B01DA062308E007F11002FB6F9F
:1036F00013441B78002B7FF45EAF002318468837F5
:10370000BD4680BD80B584B000AFF860B9607A6016
:103710003B60FB689AB27B689BB2134499B2BB686A
:103720009AB23B689BB213449AB2BB69DBB20846BB
:1037300011461A46FEF74EFBFB689AB27B689BB2B5
:10374000D31A99B2BB689AB23B689BB213449AB23F
:10375000BB69DBB2084611461A46FEF73BFBFB6825
:103760009AB27B689BB2134499B2BB689AB23B6829
:103770009BB2D31A9AB2BB69DBB2084611461A460D
:10378000FEF728FBFB689AB27B689BB2D31A99B20A
:10379000BB689AB23B689BB2D31A9AB2BB69DBB2E0
:1037A000084611461A46FEF715FBFB689AB23B68BD
:1037B0009BB2134499B2BB689AB27B689BB2134424
:1037C0009AB2BB69DBB2084611461A46FEF702FB05
:1037D000FB689AB23B689BB2D31A99B2BB689AB2A3
:1037E0007B689BB213449AB2BB69DBB208461146B0
:1037F0001A46FEF7EFFAFB689AB23B689BB2134495
:1038000099B2BB689AB27B689BB2D31A9AB2BB6971
:10381000DBB2084611461A46FEF7DCFAFB689AB29C
:103820003B689BB2D31A99B2BB689AB27B689BB2D1
:10383000D31A9AB2BB69DBB2084611461A46FEF7A4
:10384000C9FA1037BD4680BD80B58AB002AFF860B6
:10385000B9607A603B603B68FF2B02DC3B68002B61
:1038600001DA052347E0FB68B3F5A07F08DCFB68BD
:10387000002B05DBBB68F02B02DCBB68002B01DAF8
:10388000062338E00023FB617B68BB617A6813463E
:10389000DB079B1A5B0003337B613B680093F8688E
:1038A000B968FA69BB69FFF72DFF1FE0FB690133B7
:1038B000FB617B69002B0BDDBB69013BBB61FA69D6
:1038C000BB69D31A9A007B6913440A337B6105E014
:1038D000FB699A007B69134406337B613B68009364
:1038E000F868B968FA69BB69FFF70CFFBA69FB6948
:1038F0009A42DBDA002318462037BD4680BD00BF60
:1039000080B58AB004AFF860B9607A603B6000238C
:103910007B61BB6BFF2B02DCBB6B002B01DA052349
:103920009DE0FB68B3F5A07F3CDCFB68002B39DB36
:10393000BB68F02B36DCBB68002B33DB7B68B3F550
:10394000A07F2FDC7B68002B2CDB3B68F02B29DC75
:103950003B68002B26DB3B6AB3F5A07F22DC3B6A89
:10396000002B1FDB7B6AF02B1CDC7B6A002B19DB36
:10397000BB6AB3F5A07F15DCBB6A002B12DBFB6AC8
:10398000F02B0FDCFB6A002B0CDB3B6BB3F5A07F4D
:1039900008DC3B6B002B05DB7B6BF02B02DC7B6BCD
:1039A000002B01DA06235AE0BB6B0093FB6B0193FB
:1039B00000230293F868B9687A683B68FFF708FA51
:1039C00078617B69002B01D07B6948E0BB6B009379
:1039D000FB6B019300230293786839683A6A7B6A2B
:1039E000FFF7F6F978617B69002B01D07B6936E03F
:1039F000BB6B0093FB6B019300230293386A796AD7
:103A0000BA6AFB6AFFF7E4F978617B69002B01D0A1
:103A10007B6924E0BB6B0093FB6B01930023029353
:103A2000B86AF96A3A6B7B6BFFF7D2F978617B6908
:103A3000002B01D07B6912E0BB6B0093FB6B019301
:103A400000230293386B796BFA68BB68FFF7C0F903
:103A500078617B69002B01D07B6900E00023184668
:103A60001837BD4680BD00BF81F0004102E000BFB5
:103A700083F0004330B54FEA41044FEA430594EA2E
:103A8000050F08BF90EA020F1FBF54EA000C55EA69
:103A9000020C7FEA645C7FEA655C00F0E2804FEA3A
:103AA0005454D4EB5555B8BF6D420CDD2C4480EA1C
:103AB000020281EA030382EA000083EA010180EA4C
:103AC000020281EA0303362D88BF30BD11F0004F9A
:103AD0004FEA01314FF4801C4CEA113102D04042D0
:103AE00061EB410113F0004F4FEA03334CEA13330B
:103AF00002D0524263EB430394EA050F00F0A78023
:103B0000A4F10104D5F1200E0DDB02FA0EFC22FA1D
:103B100005F2801841F1000103FA0EF2801843FA11
:103B200005F359410EE0A5F120050EF1200E012A02
:103B300003FA0EFC28BF4CF0020C43FA05F3C01840
:103B400051EBE37101F0004507D54FF0000EDCF1B9
:103B5000000C7EEB00006EEB0101B1F5801F1BD362
:103B6000B1F5001F0CD349085FEA30004FEA3C0C66
:103B700004F101044FEA445212F5800F80F09A805C
:103B8000BCF1004F08BF5FEA500C50F1000041EB60
:103B9000045141EA050130BD5FEA4C0C404141EB64
:103BA000010111F4801FA4F10104E9D191F0000F8B
:103BB00004BF01460020B1FA81F308BF2033A3F10E
:103BC0000B03B3F120020CDA0C3208DD02F1140C05
:103BD000C2F10C0201FA0CF021FA02F10CE002F140
:103BE0001402D8BFC2F1200C01FA02F120FA0CFC39
:103BF000DCBF41EA0C019040E41AA2BF01EB045182
:103C0000294330BD6FEA04041F3C1CDA0C340EDC7F
:103C100004F11404C4F1200220FA04F001FA02F3C2
:103C200040EA030021FA04F345EA030130BDC4F180
:103C30000C04C4F1200220FA02F001FA04F340EA75
:103C40000300294630BD21FA04F0294630BD94F026
:103C5000000F83F4801306BF81F480110134013D0D
:103C60004EE77FEA645C18BF7FEA655C29D094EA7E
:103C7000050F08BF90EA020F05D054EA000C04BFFC
:103C80001946104630BD91EA030F1EBF00210020E7
:103C900030BD5FEA545C05D14000494128BF41F086
:103CA000004130BD14F580043CBF01F5801130BDEA
:103CB00001F0004545F0FE4141F470014FF0000075
:103CC00030BD7FEA645C1ABF194610467FEA655C26
:103CD0001CBF0B46024650EA013406BF52EA0335C8
:103CE00091EA030F41F4002130BD00BF90F0000FB6
:103CF00004BF0021704730B54FF4806404F13204F2
:103D00004FF000054FF0000150E700BF90F0000FAA
:103D100004BF0021704730B54FF4806404F13204D1
:103D200010F0004548BF40424FF000013EE700BFA1
:103D300042004FEAE2014FEA31014FEA02701FBF31
:103D400012F07F4393F07F4F81F06051704792F003
:103D5000000F14BF93F07F4F704730B54FF460747D
:103D600001F0004521F0004120E700BF50EA0102C8
:103D700008BF704730B54FF000050AE050EA010275
:103D800008BF704730B511F0004502D5404261EBE5
:103D900041014FF4806404F132045FEA915C3FF426
:103DA000DCAE4FF003025FEADC0C18BF03325FEABF
:103DB000DC0C18BF033202EBDC02C2F1200300FA74
:103DC00003FC20FA02F001FA03FE40EA0E0021FA99
:103DD00002F11444C1E600BF70B54FF0FF0C4CF483
:103DE000E06C1CEA11541DBF1CEA135594EA0C0F39
:103DF00095EA0C0F00F0DEF82C4481EA030621EA74
:103E00004C5123EA4C5350EA013518BF52EA0335AE
:103E100041F4801143F4801338D0A0FB02CE4FF060
:103E20000005E1FB02E506F00042E0FB03E54FF090
:103E30000006E1FB03569CF0000F18BF4EF0010E88
:103E4000A4F1FF04B6F5007F64F5407404D25FEA84
:103E50004E0E6D4146EB060642EAC62141EA555137
:103E60004FEAC52040EA5E504FEACE2EB4F1FD0C79
:103E700088BFBCF5E06F1ED8BEF1004F08BF5FEAF7
:103E8000500E50F1000041EB045170BD06F00046A9
:103E900046EA010140EA020081EA0301B4EB5C0456
:103EA000C2BFD4EB0C0541EA045170BD41F480114E
:103EB0004FF0000E013C00F3AB8014F1360FDEBF73
:103EC000002001F0004170BDC4F10004203C35DA4F
:103ED0000C341BDC04F11404C4F1200500FA05F3D2
:103EE00020FA04F001FA05F240EA020001F0004273
:103EF00021F0004110EBD37021FA04F642EB0601E9
:103F00005EEA430E08BF20EAD37070BDC4F10C0412
:103F1000C4F1200500FA04F320FA05F001FA04F2D6
:103F200040EA020001F0004110EBD37041F10001C2
:103F30005EEA430E08BF20EAD37070BDC4F12005CD
:103F400000FA05F24EEA020E20FA04F301FA05F235
:103F500043EA020321FA04F001F0004121FA04F2DD
:103F600020EA020000EBD3705EEA430E08BF20EAAD
:103F7000D37070BD94F0000F0FD101F000464000E7
:103F800041EB010111F4801F08BF013CF7D041EA69
:103F9000060195F0000F18BF704703F0004652006D
:103FA00043EB030313F4801F08BF013DF7D043EA3E
:103FB0000603704794EA0C0F0CEA135518BF95EAF4
:103FC0000C0F0CD050EA410618BF52EA4306D1D17B
:103FD00081EA030101F000414FF0000070BD50EA9A
:103FE000410606BF1046194652EA430619D094EA24
:103FF0000C0F02D150EA013613D195EA0C0F05D10E
:1040000052EA03361CBF104619460AD181EA030161
:1040100001F0004141F0FE4141F470014FF0000019
:1040200070BD41F0FE4141F4780170BD70B54FF0B4
:10403000FF0C4CF4E06C1CEA11541DBF1CEA135534
:1040400094EA0C0F95EA0C0F00F0A7F8A4EB050416
:1040500081EA030E52EA03354FEA013100F088800D
:104060004FEA03334FF0805545EA131343EA1263D6
:104070004FEA022245EA111545EA10654FEA00268B
:104080000EF000419D4208BF964244F1FD0404F544
:10409000407402D25B084FEA3202B61A65EB0305A0
:1040A0005B084FEA32024FF480104FF4002CB6EB5D
:1040B000020E75EB030E22BFB61A754640EA0C00DD
:1040C0005B084FEA3202B6EB020E75EB030E22BF1D
:1040D000B61A754640EA5C005B084FEA3202B6EB5E
:1040E000020E75EB030E22BFB61A754640EA9C001D
:1040F0005B084FEA3202B6EB020E75EB030E22BFED
:10410000B61A754640EADC0055EA060E18D04FEAAA
:10411000051545EA16754FEA06164FEAC30343EA4A
:1041200052734FEAC2025FEA1C1CC0D111F4801F17
:104130000BD141EA00014FF000004FF0004CB6E710
:1041400011F4801F04BF01430020B4F1FD0C88BFAF
:10415000BCF5E06F3FF6AFAEB5EB030C04BFB6EBBA
:10416000020C5FEA500C50F1000041EB045170BDAD
:104170000EF0004E4EEA113114EB5C04C2BFD4EBDA
:104180000C0541EA045170BD41F480114FF0000E5E
:10419000013C90E645EA060E8DE60CEA135594EADA
:1041A0000C0F08BF95EA0C0F3FF43BAF94EA0C0FDD
:1041B0000AD150EA01347FF434AF95EA0C0F7FF452
:1041C00025AF104619462CE795EA0C0F06D152EAA6
:1041D00003353FF4FDAE1046194622E750EA41068A
:1041E00018BF52EA43067FF4C5AE50EA41047FF49B
:1041F0000DAF52EA43057FF4EBAE12E74FF0FF3C00
:1042000006E000BF4FF0010C02E000BF4FF0010CD0
:104210004DF804CD4FEA410C7FEA6C5C4FEA430C49
:1042200018BF7FEA6C5C1BD001B050EA410C0CBF98
:1042300052EA430C91EA030F02BF90EA020F0020FA
:10424000704710F1000F91EA030F58BF994208BF61
:1042500090422CBFD8176FEAE37040F0010070471E
:104260004FEA410C7FEA6C5C02D150EA013C07D175
:104270004FEA430C7FEA6C5CD6D152EA033CD3D0C0
:104280005DF8040B704700BF8446104662468C46BA
:104290001946634600E000BF01B5FFF7B7FF0028ED
:1042A00048BF10F1000F01BD4DF808EDFFF7F4FF16
:1042B0000CBF012000205DF808FB00BF4DF808EDA1
:1042C000FFF7EAFF34BF012000205DF808FB00BFC4
:1042D0004DF808EDFFF7E0FF94BF012000205DF8E6
:1042E00008FB00BF4DF808EDFFF7CEFF94BF01209B
:1042F00000205DF808FB00BF4DF808EDFFF7C4FF94
:1043000034BF012000205DF808FB00BF4FEA4102E6
:1043100012F5001215D211D56FF47873B3EB625217
:1043200012D94FEAC12343F0004343EA505311F03E
:10433000004F23FA02F018BF404270474FF00000D0
:10434000704750EA013005D111F0004008BF6FF00E
:10435000004070474FF00000704700BF4A0011D284
:1043600012F5001211D20DD56FF47873B3EB6252CF
:104370000ED44FEAC12343F0004343EA505323FADB
:1043800002F070474FF00000704750EA013002D150
:104390004FF0FF3070474FF00000704700210A22B5
:1043A00000F0C0BA844641EA000313F003036DD164
:1043B000403A41D351F8043B40F8043B51F8043BE8
:1043C00040F8043B51F8043B40F8043B51F8043BEF
:1043D00040F8043B51F8043B40F8043B51F8043BDF
:1043E00040F8043B51F8043B40F8043B51F8043BCF
:1043F00040F8043B51F8043B40F8043B51F8043BBF
:1044000040F8043B51F8043B40F8043B51F8043BAE
:1044100040F8043B51F8043B40F8043B51F8043B9E
:1044200040F8043B51F8043B40F8043B51F8043B8E
:1044300040F8043B403ABDD2303211D351F8043B2E
:1044400040F8043B51F8043B40F8043B51F8043B6E
:1044500040F8043B51F8043B40F8043B103AEDD2DD
:104460000C3205D351F8043B40F8043B043AF9D22E
:10447000043208D0D2071CBF11F8013B00F8013B01
:1044800001D30B8803806046704700BF082A13D30E
:104490008B078DD010F003038AD0C3F10403D21A26
:1044A000DB071CBF11F8013B00F8013B80D331F85A
:1044B000023B20F8023B7BE7043AD9D3013A11F8DA
:1044C000013B00F8013BF9D20B7803704B78437045
:1044D0008B7883706046704740EA010C1CF0070F30
:1044E00023D1BDF1100DCDE90245CDE900676FF094
:1044F00000064FF0000700BFF0E80223F1E8024594
:10450000A24282FA46FCA7FA86FC08BFBCF1000F63
:1045100040F0D780AB4283FA46FCA7FA86FC08BF7E
:10452000BCF1000F40F0CA80E6E710F0030C21D088
:1045300020F0030050F8042B5FEACC7C08D00FD2A7
:1045400011F801CB5FFA92F3B3EB0C0C10D17BB1F5
:1045500011F801CB5FFAA2F3B3EB0C0C08D13BB11D
:1045600011F801CB5FFAB2F3B3EB0C0C00D10BB92D
:1045700060467047BDF1100DCDE90245CDE90067F9
:104580006FF000064FF0000711F0030C2DD110F072
:10459000040F0DD050F8042B51F8044BA24282FABC
:1045A00046FCA7FA86FC08BFBCF1000F40F08980EA
:1045B00011F0040F9FD051F8045B00BFF0E8022314
:1045C000AA4282FA46FCA7FA86FC08BFBCF1000F9B
:1045D00071D1F1E80245A34283FA46FCA7FA86FCB2
:1045E00008BFBCF1000F63D1E8E721F00301BCF183
:1045F000020F1ED03BDA51F8045B00BF50F8043BB9
:104600004FEA152583FA46FCA7FA86FCB7EB0C2F78
:1046100003EA162208BFAA424DD151F8045BBCF14F
:10462000000F82EA03034FEA056208BF93423CD1C0
:10463000E4E751F8045B00BF50F8043B4FEA15452E
:1046400083FA46FCA7FA86FCB7EB0C4F03EA164246
:1046500008BFAA422FD151F8045BBCF1000F82EAD7
:1046600003034FEA054208BF93421ED1E4E751F825
:10467000045B00BF50F8043B4FEA156583FA46FC23
:10468000A7FA86FCB7EB0C6F03EA166208BFAA42D2
:1046900011D151F8045BBCF1000F82EA03034FEA29
:1046A000052208BF934200D1E4E719BA12BA0AE022
:1046B00019BA22BA07E011BA2ABA04E019BA2ABA1A
:1046C00001E011BA22BA9CFA8CF0DDE90067DDE95D
:1046D00002451DF1100D38B1B0FA80F0C0F118009C
:1046E00021FA00F122FA00F20120914298BF8041A4
:1046F000704700BF80EA0102844612F0030F4FD1D9
:1047000011F0030F32D14DF8044D11F0040F51F8A0
:10471000043B0BD0A3F101329A4312F0803F04BF57
:104720004CF8043B51F8043B16D100BF51F8044B40
:10473000A3F101329A4312F0803FA4F101320BD170
:104740004CF8043BA24312F0803F04BF51F8043BF5
:104750004CF8044BEAD023460CF8013B13F0FF0F52
:104760004FEA3323F8D15DF8044B704711F0010F85
:1047700006D011F8012B0CF8012B002A08BF704756
:1047800011F0020FBFD031F8022B12F0FF0F16BF4D
:104790002CF8022B8CF8002012F47F4FB3D1704715
:1047A00011F8012B0CF8012B002AF9D1704700BF3A
:1047B00020F0030110F00300C0F1000051F8043BA9
:1047C00000F1040C4FEACC0C6FF000021CBF22FA7F
:1047D0000CF213434FF0010C4CEA0C2C4CEA0C4C3D
:1047E000A3EB0C0222EA030212EACC1204BF51F836
:1047F000043B0430F4D013F0FF0F1FBF013013F45B
:104800007F4F013013F47F0F18BF0130704700BF96
:104810002DE9F00F424C82B0D4F800C001900E4652
:1048200000E02646344614F8015B0CEB05004078A6
:1048300000F0080000F0FF0A0028F2D12D2D5BD017
:104840002B2D04BF7578B41C33F010003CD0994672
:10485000BAF1000F0CBF6FF0004B4FF0004BBBFBE9
:10486000F9F8002709FB18BB38460CE0303DAB4295
:1048700019DD7E1C05D0404523D820D009FB00500F
:10488000012714F8015B0CEB0506767816F0040F8F
:10489000ECD116F0030606D0012E14BF572637269A
:1048A000AD1BAB42E5DC7B1C15D0BAF1000F21D16A
:1048B0000AB1EFB9116002B0BDE8F00F70475D4575
:1048C000DCDD4FF0FF37DCE7302D1AD0002BBED1F6
:1048D0000A239946BCE70199BAF1000F4FF0220371
:1048E0000CBF6FF000404FF000400B60002AE2D098
:1048F000611EDFE74042DBE7B41C75784FF0010A28
:10490000A2E7207800F0DF00582803D0002B9ED1CA
:1049100008239CE7102365789946023498E700BF86
:104920005C56002030B4044C0D46134601462A461E
:10493000206830BCFFF76CBF885A002046554C4CAD
:1049400051000000636F6D2066756C6C0000000004
:104950006172672066756C6C0A0000005153495AF9
:10496000454552524F520A0046554C4C510A0000E0
:10497000434F4D4D414E444552524F520A000000A4
:10498000554E444546494E4544434F4C4F520A000C
:104990004F55545F4F465F424F574E5A5A0A0000D8
:1049A000554E444546494E45445F4249544D415059
:1049B0005F4E520A000000004F4E4C595F464F4E6A
:1049C000545354594C455F4E4F524D414C5F4156E4
:1049D00041494C49424C450A00000000554E4445AF
:1049E00046494E45445F464F4E544E414D450A00A0
:1049F000464F4E5453495A455F4E4F545F455849B0
:104A00005354494E470A000046494C4C45445F4EBA
:104A10004F545F305F4F525F310A0000544F4F4692
:104A200041524241434B4552524F520A000000004E
:104A30002C2000000A00000065696E64656C6F6FD1
:104A4000730000007A77617274000000626C617517
:104A5000770000006C69636874626C6175770000B0
:104A600067726F656E000000726F6F640000000077
:104A700077697400637961616E0000006C69636836
:104A800074637961616E00006D6167656E746100C9
:104A90006765656C00000000627275696E00000059
:104AA0006F72616E6A6500006269746D617000000A
:104AB000636C65617273636865726D0064726965C9
:104AC000686F656B00000000656C6C6970730000B6
:104AD0006369726B656C00006C696A6E00000000AF
:104AE0007265636874686F656B00000074656B7352
:104AF000740000006669677575720000776163680D
:104B0000740000006865726861616C0052656164E0
:104B10007920746F20726563656976652E000000E8
:104B2000617269616C000000636F6E736F6C61731A
:104B30000000000000202020202020202020282805
:104B4000282828202020202020202020202020204D
:104B5000202020202088101010101010101010108D
:104B600010101010100404040404040404040410BD
:104B7000101010101010414141414141010101014B
:104B80000101010101010101010101010101010115
:104B90001010101010104242424242420202020221
:104BA00002020202020202020202020202020202E5
:104BB0001010101020000000000000000000000095
:104BC00000000000000000000000000000000000E5
:104BD00000000000000000000000000000000000D5
:104BE00000000000000000000000000000000000C5
:104BF00000000000000000000000000000000000B5
:104C000000000000000000000000000000000000A4
:104C10000000000000000000000000000000000094
:104C20000000000000000000000000000000000084
:0C4C300000000000000000004300000035
:104C3C000000000001020304010203040607080936
:104C4C008888888888888888888888886868486C74
:104C5C007171717171704C28488CD4D4F4F4F8F8DB
:104C6C00F8F8F8F8F8F8F8F4D4D0AC886464646810
:104C7C0088888888888888888888888888888888A8
:104C8C008888888888888888888888888888888898
:104C9C0088888888888888888888888888886868C8
:104CAC00486C717171707070707070707070707021
:104CBC00707070706C6C6C6C6C90B4D4D4D8D8D49C
:104CCC00D4D4888888888888888888888888686404
:104CDC00486C7171717171704C482468B0D4F4F4E3
:104CEC00F8F8F8F8F8F8F8F8F8F8F5F5D0B08864B2
:104CFC00646888888888888888888888888888886C
:104D0C008888888888888888888888888888888817
:104D1C008888888888888888888888888888888807
:104D2C006868486C717170707070707070707070B1
:104D3C007070706C6C6C6C6C9090B4D4D5D9D8D8F5
:104D4C00D8D4D4D4888888888888888888888888A3
:104D5C0068446871717171717070704C484890D46E
:104D6C00F4F8F8F8F8F8F8F8F8F8F8F8F8F9F5D5E0
:104D7C00D08C88688888888888888888888888887B
:104D8C008888888888888888888888888888888897
:104D9C008888888888888888888888888888888887
:104DAC0088888868484C7070707070707070707003
:104DBC007070706C4C6C6C6C90B0B4D5D5D9D8D874
:104DCC00D8F8F8F4D4D48888888888888888888823
:104DDC00886868486C71717171707071706C48483A
:104DEC008CD4F4F8F8F8F8F8F8F8F8F8F8F8F8F8CB
:104DFC00F8F9F5D0AC88888888888888888888886D
:104E0C008888888888888888888888888888888816
:104E1C008888888888888888888888888888888806
:104E2C008888888888684848707070707070707056
:104E3C007070706C6C6C6C6C90B0B4D4D9D9F8F890
:104E4C00F8F8F8F8F4F4F4F4888888888888888866
:104E5C008888886868486C71717171707071707035
:104E6C006C486CB0D4F8F8F8F8F8F8F8F8F8F8F8EA
:104E7C00F8F8F8F8F5F5D4AC8C8888888888888898
:104E8C008888888888888888888888888888888896
:104E9C008888888888888888888888888888888886
:104EAC00888888888888886848486C7070707070AA
:104EBC007070706C6C6C6C9090B4D5D5D9D8F8F8C7
:104ECC00F8F8F8F8F8F4F4F4F4F48888888888880A
:104EDC0088888888886848686D7171717170707085
:104EEC0070706C68688CD4F4F8F8F8F8F8F8F8F886
:104EFC00F8F8F8F8F8F8F8F4F5D4B0AC88888888A5
:104F0C008888888888888888888888888888888815
:104F1C008888888888888888888888888888888805
:104F2C008888888888888888888868486C70909079
:104F3C0090706C6C6C6C9090B0D4D4D9F9F8F8F883
:104F4C00F8F8F8F8F8F8F8F8F4F4F4F488888888A5
:104F5C008888888888886844486C71717171515050
:104F6C0070707071706C688CB0D4F8F8F8F8F8F850
:104F7C00F8F8F8F8F8F8F8F8F8F8F5F4F4D0AC8894
:104F8C00848488888888888888888888888888889D
:104F9C008888888888888888888888888888888885
:104FAC008888888888888888888888886848486C31
:104FBC0090906C6C6C6C9090B4D4D4F8F8F8F8F8C1
:104FCC00F4F8F8F8F8F8F8F8F8F8F8F8F4D4888861
:104FDC0088888888888888886844486C71715151A1
:104FEC00515050505070706C686890B4D4F8F8F808
:104FFC00F8F8F8F8F8F8F8F8F8F8F8F8F4F4F5F533
:10500C00D0AC8888848888888888888888888888AC
:10501C008888888888888888888888888888888804
:10502C008888888888888888888888888888686834
:10503C00686C6C8C6C6C8C90B4D4D4D4F8F8F8F894
:10504C00F8F8F4F8F8F8F8F8F8F8F8F8F4F8F8D400
:10505C00888888888888888888686844486C6D4CFB
:10506C004C5050504C50505070706C6C8CB0D4D420
:10507C00F8F8F8F8F8F8F8F8F8F8F8F8F8F8F4F4AC
:10508C00F4F5F5D0AC8888848888888888888888E6
:10509C008888888888888888888888888888888884
:1050AC008888888888888888888888888888888874
:1050BC00686868686C6C8C90B0D4D4D8F8F8F8F840
:1050CC00F8F8F8F8F8F8F8F8F8F8F8F8F8F4F4F460
:1050DC00F4D4888888888888888888684448486C8C
:1050EC004C4C4C2C2C2C2C4C4C4C70706C6C6C8C8C
:1050FC00B0D4F4F8F8F8F8F8F8F8F8F8F8F8F8F894
:10510C00F8F8F8F4F5F4D4D0AC88888888888888C6
:10511C008888888888888888888888888888888803
:10512C0088888888888888888888888888888888F3
:10513C008888686868688C8CB0D4D4D8F8F8F8F88B
:10514C00F8F8F8F8F8F8F8F8F8F8F8F8F8F8F8F4D7
:10515C00F4F4F4D4888888888888888888684448D7
:10516C00484C4C4C2C2C2C2C2C2C2C4C4C70706CEF
:10517C006C6C8CB4D4F8F8F8F8F8F8F8F8F8F8F88F
:10518C00F8F8F8F8F8F8F8F8F4F4D0AC88888888CF
:10519C008888888888888888888888888888888883
:1051AC008888888888888888888888888484848483
:1051BC008484846868888CACB0D4D4F4F8F8F8F89B
:1051CC00F8F8F8F8F8F8F8F8F8F4F4F4F8F8F8F85F
:1051DC00F8F4F4F4D4B0888888888888888868685B
:1051EC0044484C4C4C4C2C2C2C2C2C2C2C2C4C4CFF
:1051FC00706C4C486C90D4D4F8F8F8F8F8F8F8F8CF
:10520C00F8F8F8F8F8F8F8F8F8F8F8F4F4D0AC88FE
:10521C008888888888888888888888888888888802
:10522C008888888484848484848484848484848426
:10523C008484888888888CACB0D4D4F4F8F8F8F8D6
:10524C00F8F8F8F8F8F8F8F4F4F4F8F8F4F4F4F4EE
:10525C00F4F4F8F8F4F4D4B08888888888888888BE
:10526C00684444484C4C4C2C2C2C2C2C2C2C2C2C8A
:10527C002C4C4C4C4C48688CB0D4D4F8F8F8F8F85A
:10528C00F8F8F8F8F8F8F8F8F8F8F8F8F8F8F4F49A
:10529C00D0D0AC88888888888888888888888888CE
:1052AC008888888888888888888888888888888872
:1052BC00ACACACACACACD0D0D0D4F4F4F4F4F8F8D6
:1052CC00F8F8F8F8F8F8F8F8F8F4F4F4F4F4F4F46E
:1052DC00F4F4F4F4F8F4F4D4D48C888888888888AE
:1052EC008868684448484C2C2C2C2C2C2C2C2C2CAE
:1052FC002C2C2C2C4C4C4C4848688CB0D4F4F8F822
:10530C00F8F8F8F8F8F8F8F8F8F8F8F8F8F8F8F811
:10531C00F4F4F4F4D0ACACACACACACACACACACAC7D
:10532C00ACACD0D0D0D0D0D0D0D0D0D0D0D0D0D0B9
:10533C00D0D0D0D0D5F5F5F5F5F4F4F4F4F4F4F8C8
:10534C00F8F8F8F8F4F8F8F8F8F8F4F4F4F8F4F4E9
:10535C00F4F4F4F4F4F4F4F4F4D4B08C888888887D
:10536C0088888868444448484C2C2C2C2C2C2C2C99
:10537C002C2C2C2C2C2C2C4C4C4848686C8CB0D4E1
:10538C00F8F8F8F8F8F8F8F8F8F8F8F8F8F8F8F891
:10539C00F8F8F8F8F4F4F4D4D0D0D0D0D0D0D0D0F1
:1053AC00D0D0D4D4F4F4F4F5F5F5F5F5F5F5F5F530
:1053BC00F5F5F5F5F5F5F5F5F5F5F4F4F4F4F4F893
:1053CC00F8F8F8F8F8F8F4F4F4F8F4F4F4F8F8F869
:1053DC00F4F4F4F4F4F4F4F4F4F4D4B0908C888889
:1053EC00888888888868444448484C2C2C2C2C2C61
:1053FC002C2C2C2C2C2C2C2C2C2C4C4C48486868F1
:10540C008CB4D4F8F8F8F8F8F8F8F8F8F8F8F8F8E4
:10541C00F8F8F8F8F8F8F8F4F4F4F4F4F4F4F4F424
:10542C00F4F4F4F4F4F4F4F4F4F4F4F8F8F8F8F81C
:10543C00F8F8F8F4F4F4F4F4F4F4F4F4F4F4F8F80C
:10544C00F8F8F8F8F8F8F8F8F8F4F4F4F4F4F4F8E8
:10545C00F8F8F4F4F4F4F4F4F4F4D4D4B0B08C6CB0
:10546C0088888888888888684444484C2C2C2C2C44
:10547C002C2C2C2C2C2C2C2C2C2C2C2C4C4C4848E8
:10548C00484868B0D4F4F8F8F8F8F8F8F8F8F4F8F4
:10549C00F8F8F8F8F8F8F8F8F8F8F8F4F8F4F4F490
:1054AC00F4F4F4F4F4F4F4F4F4F4F4F4F4F8F8F8A4
:1054BC00F8F8F8F8F8F4F4F4F4F4F4F4F4F4F4F888
:1054CC00F8F8F8F8F8F8F8F8F8F8F8F4F4F4F4F464
:1054DC00F4F8F8F8F4F4F4F4F4F4F4F4D4B0B09080
:1054EC00906C88888888888888644448484C2C2C20
:1054FC002C2C2C2C2C2C2C2C2C2C2C2C2C2C4C4CA0
:10550C0048484848486CB0D4F4F8F8F8F4F4F4F48B
:10551C00F4F8F8F8F8F8F8F8F8F8F8F8F8F8F8F803
:10552C00F8F8F8F8F8F4F4F4F4F8F8F8F4F8F8F803
:10553C00F8F8F8F8F8F8F8F8F8F8F8F8F8F8F8F8DF
:10554C00F8F8F8F8F8F8F8F8F8F8F8F8F8F4F4F4DB
:10555C00F4F4F4F4F8F8F4F4F4F4F4F4F4D4B090BF
:10556C008C90707088888888888868444448484C37
:10557C002C2C2C2C2C2C2C2C2C2C2C2C2C2C2C2C5F
:10558C002C4C4C48484848688CB0D4F8F4F8F4F4E7
:10559C00F4F4F8F8F8F8F8F8F8F8F8F8F8F8F8F887
:1055AC00F8F8F8F8F8F8F8F8F8F8F8F8F8F8F8F86F
:1055BC00F8F8F8F8F8F8F8F8F8F8F8F8F8F8F8F85F
:1055CC00F8F8F8F8F8F8F8F8F8F8F8F8F8F8F8F453
:1055DC00F4F4F4F4F4F4F4F4F8F4F4F4F4F4D0B0E3
:1055EC008C6C6C6C70708888888888886844444897
:1055FC00482C2C2C2C2C2C2C2C2C2C2C2C2C2C2CC3
:10560C002C2D2D4D4C4C48484848688CD0F4F4F85F
:10561C00F4F8F4F4F8F8F4F8F8F8F8F8F8F8F8F80E
:10562C00F8F8F8F8F8F8F8F8F8F8F8F8F8F8F8F8EE
:10563C00F8F8F8F8F8F8F8F8F8F8F8F8F8F8F8F8DE
:10564C00F8F8F8F8F8F8F8F8F8F8F8F8F8F8F8F8CE
:10565C00F4F4F8F4F8F8F4F4F4F4F4F4F5F5D4B054
:10566C008C8C6C6C4C4C4C4C888888888888644436
:10567C004448482C2C2C2C2C2C2C2C2C2C2D2D2D0B
:10568C002D2D2D2D2D2D4D484848484848688CD43B
:10569C00D5F9F8F4F4F4F4F4F4F8F8F8F8F8F8F8B8
:1056AC00F8F8F8F8F8F8F8F8F8F8F8F8F8F8F8F86E
:1056BC00F8F8F8F8F8F8F8F8F8F8F8F8F8F8F8F85E
:1056CC00F8F8F8F8F8F8F8F8F8F8F8F8F8F8F8F84E
:1056DC00F8F4F8F8F4F8F4F8F8F8F8F8F4F5F5D478
:1056EC00B08C6C6C6C4C4C4C4C4C888888888868A2
:1056FC0064444848482C2C2C2C2C2C282C2C2C2C3E
:10570C002D2D2D2D2D2D2D2D282848484848484825
:10571C00688CD4F5F4F4F4F4F4F4F8F8F8F8F8F838
:10572C00F8F8F8F8F8F8F8F8F8F8F8F8F8F8F8F8ED
:10573C00F8F8F8F8F8F8F8F8F8F8F8F8F8F8F8F8DD
:10574C00F8F8F8F8F8F8F8F8F8F8F8F8F8F8F8F8CD
:10575C00F8F8F8F8F8F4F4F4F4F8F8F8F8F4F5D5F7
:10576C00D4B08C6C6C4C4C4C4C4C2C2C8988888850
:10577C008868444448482C2C2C2C2C2C282828286D
:10578C00282C2C2D2D2D2D2D2D2929292848484804
:10579C0048484868ACD0D4D4D4D4D4F4F8F8F8F849
:1057AC00F8F8F8F8F8F8F8F8F8F8F8F8F8F8F8F86D
:1057BC00F8F8F8F8F8F8F8F8F8F8F8F8F8F8F8F85D
:1057CC00F8F8F8F8F8F8F8F8F8F8F8F8F8F8F8F84D
:1057DC00F8F8F8F8F8F8F4F4F4F4F4F4F4F4F4D485
:1057EC00D5B4B08C6C6C4C4C4C2C2C2C2C2C89883F
:1057FC0088888868444448482C2C2C2D2C28282830
:10580C0028282828282D2D292929292929292828FB
:10581C00484848484848688CB0D0B0D0D4F4F8F820
:10582C00F8F8F8F8F8F8F8F8F8F8F8F8F8F8F8F8EC
:10583C00F8F8F8F8F8F8F8F8F8F8F8F8F8F8F8F8DC
:10584C00F8F8F8F8F8F8F8F8F8F8F8F8F8F8F8F8CC
:10585C00F8F8F8F8F8F8F8F8F8F4F4F4F4F4F8F4D4
:10586C00F4D4B0908C6C484C4C4C4C2C2C2C2C2CD8
:10587C008988888868644444484C4C2D2D2D2C28EC
:10588C002828282828282828282829292929292986
:10589C00282828484848484848688CACACD0D4F4F0
:1058AC00F8F8F8F8F8F8F8F8F8F8F8F8F8F8F8F86C
:1058BC00F8F8F8F8F8F8F8F8F8F8F8F8F8F8F8F85C
:1058CC00F8F8F8F8F8F8F8F8F8F8F8F8F8F8F8F84C
:1058DC00F8F8F8F8F8F8F8F8F8F8F4F4F4F4F4F454
:1058EC00F8F4D4B0906C6C6C4C4C4C4C4C2C2C2C68
:1058FC002C2C8988888868444448484D4D2D2D2D82
:10590C002828282828282828282828282828292909
:10591C00282828282848484848484844688CB0D447
:10592C00F4F4F8F8F8F8F8F8F8F8F8F8F8F8F8F8F3
:10593C00F8F8F8F8F8F8F8F8F8F8F8F8F8F8F8F8DB
:10594C00F8F8F8F8F8F8F8F8F8F8F8F8F8F8F8F8CB
:10595C00F8F8F8F8F8F8F8F8F8F8F8F4F4F4D4D40F
:10596C00D4F4D4D4B08C6C6C6C4C4C4C4C4C4C2C47
:10597C002C2C2C2C8888888868444448484C2C2C27
:10598C002D2D282828282828282828282828282881
:10599C002929282828282828484848484844688C19
:1059AC00D0D4F4F4F8F8F8F8F8F8F8F8F8F8F8F8BF
:1059BC00F8F8F8F8F8F8F8F8F8F8F8F8F8F8F8F85B
:1059CC00F8F8F8F8F8F8F8F8F8F8F8F8F8F8F8F84B
:1059DC00F8F8F8F8F8F8F8F8F8F8F8F8F8F8F4F443
:1059EC00D0D0D0D4D0B08C6C6C4C4C4C4C4C4C4C6F
:1059FC002C2C2C2C2C2C88888888684444484828CB
:105A0C00282828282828282828282828282828280A
:105A1C00282828282828282828282848484848445E
:105A2C0068ACD4F4F4F4F8F8F8F8F8F8F8F8F8F8F6
:105A3C00F8F8F8F8F8F8F8F8F8F8F8F8F8F8F8F8DA
:105A4C00F8F8F8F8F8F8F8F8F8F8F8F8F8F8F8F8CA
:105A5C00F8F8F8F8F8F8F8F8F8F8F8F8F8F8F8F8BA
:105A6C00F4F4D0D0B0B08C8C6C6C6C4C4C4C4C4C6A
:105A7C004C2C2C2C2C2C2C2C888888886444444846
:105A8C00282828282828282828282828282828288A
:105A9C00282828282828282828282828282848483A
:105AAC00484468B0D4F4F8F8F8F8F8F8F8F8F8F8CE
:105ABC00F8F8F8F8F8F8F8F8F8F8F8F8F8F8F8F85A
:105ACC00F8F8F8F8F8F8F8F8F8F8F8F8F8F8F8F84A
