:020000040800F2
:10000000E4D20120C10900081D0A00081D0A0008E9
:100010001D0A00081D0A00081D0A00080000000053
:100020000000000000000000000000001D0A0008A1
:100030001D0A0008000000001D0A00081D0A000833
:100040001D0A00081D0A00081D0A00081D0A0008F4
:100050001D0A00081D0A00081D0A00081D0A0008E4
:100060001D0A00081D0A00081D0A00081D0A0008D4
:100070001D0A00081D0A00081D0A00081D0A0008C4
:100080001D0A00081D0A00081D0A00081D0A0008B4
:100090001D0A00081D0A00081D0A00081D0A0008A4
:1000A0001D0A00081D0A00081D0A00081D0A000894
:1000B000213100081D0A00081D0A00081D0A000859
:1000C0001D0A00081D0A00081D0A00081D0A000874
:1000D0001D0A00081D0A0008A90700081D0A0008DB
:1000E0001D0A00081D0A00081D0A00081D0A000854
:1000F0001D0A00081D0A00081D0A00081D0A000844
:100100001D0A00081D0A00081D0A00081D0A000833
:100110001D0A00081D0A00081D0A00081D0A000823
:100120001D0A00081D0A00081D0A00081D0A000813
:100130001D0A00081D0A00081D0A00081D0A000803
:100140001D0A00081D0A00081D0A00081D0A0008F3
:10015000D93100081D0A00081D0A00081D0A000800
:100160001D0A00081D0A00081D0A00081D0A0008D3
:100170001D0A00081D0A00081D0A00081D0A0008C3
:100180001D0A00081D0A000880B584B000AF3B4678
:10019000184600F041FF3A68454B1A60444B1B6813
:1001A000184603F007FC02460B46104619464FF06E
:1001B0000002404B03F074FC02460B461046194601
:1001C0004FF000023C4B03F095FD02460B461046F3
:1001D00019464FF000024FF0804303F08BFD0246BA
:1001E0000B461046194603F01DFF0246334B1A60BA
:1001F0002F4B1B68184603F0DDFB02460B461046EA
:1002000019464FF000022B4B03F04AFC02460B4606
:100210001046194622A3D3E9002303F06BFD0246E2
:100220000B46104619464FF000024FF0804303F092
:1002300061FD02460B461046194603F0F3FE0246E6
:100240001F4B1A601A4B1B68184603F0B3FB02469B
:100250000B46104619464FF00002164B03F020FCE7
:1002600002460B46104619460FA3D3E9002303F0BC
:1002700041FD02460B46104619464FF000024FF072
:10028000804303F037FD02460B461046194603F043
:10029000C9FE02460B4B1A601037BD4680BD00BF39
:1002A000000000000094C14000000000882A614165
:1002B000C05A00200000F43F00002240C45A002031
:1002C000D4C80120C85A002080B485B000AF78603F
:1002D0000DE00023FB6002E0FB680133FB60FA687D
:1002E000074B1B689A42F7D37B68013B7B607B68B6
:1002F000002BEED11437BD465DF8047B704700BF7C
:10030000D4C8012080B58AB000AF7860396000237E
:100310007B6200233B620023FB610023BB617B689F
:100320001B8A9BB27B627B6A23F440537B623B68EF
:10033000DB887A6A13437B627B6A9AB27B681A8293
:100340007B689B899BB27B627B6A23F4B05323F06A
:100350000C037B623B689A883B681B8913439AB203
:100360003B685B8913439BB27A6A13437B627B6A67
:100370009AB27B689A817B689B8A9BB27B627B6A1C
:1003800023F440737B623B689B897A6A13437B62E8
:100390007B6A9AB27B689A8207F10803184600F0DC
:1003A0003BFE7A68314B9A4203D07A68304B9A42CE
:1003B00002D17B693B6201E03B693B627B689B89C0
:1003C0009BB29BB21BB2002B0CDA3A6A13469B001D
:1003D00013449A001A443B681B685B00B2FBF3F3BA
:1003E000FB610BE03A6A13469B0013449A001A44DF
:1003F0003B681B689B00B2FBF3F3FB61FA691D4B82
:10040000A3FB02135B091B017B627B6A1B0964224D
:1004100002FB03F3FA69D31ABB617B689B899BB229
:100420009BB21BB2002B0DDABB69DB0003F1320279
:10043000104BA3FB02135B0903F007037A6A134313
:100440007B620CE0BB691B0103F13202094BA3FB89
:1004500002135B0903F00F037A6A13437B627B6A22
:100460009AB27B681A812837BD4680BD00100140D2
:10047000001401401F85EB5180B483B000AF786059
:100480000B46FB70FB78002B08D07B689B899BB2E6
:1004900043F400539AB27B689A8107E07B689B899A
:1004A0009BB223F400539AB27B689A810C37BD4605
:1004B0005DF8047B704700BF80B483B000AF786004
:1004C0000B467B807B88C3F308039AB27B689A80D3
:1004D0000C37BD465DF8047B704700BF80B487B021
:1004E00000AF786013460A467A807B7000233B6138
:1004F0000023FB600023BB6000237B617B687B6182
:100500007B88DBB25B09DBB23B617B8803F01F03B6
:10051000FB60FB68012202FA03F3BB603B69012B1D
:1005200003D17B690C337B6109E03B69022B03D16A
:100530007B6910337B6102E07B6914337B617B78DC
:10054000002B06D07B697A691168BA680A431A6081
:1005500006E07B697A691168BA68D2430A401A607A
:100560001C37BD465DF8047B704700BF80B485B082
:1005700000AF78600B467B800023FB737B681B8891
:100580009AB27B8813409BB2002B02D00123FB73ED
:1005900001E00023FB73FB7B18461437BD465DF872
:1005A000047B704780B487B000AF78600B467B80D7
:1005B0000023FB6000237B610023BB600023FB74EE
:1005C0007B88DBB25B09DBB2BB607B8803F01F0377
:1005D0007B617B69012202FA03F37B61BB68012B1B
:1005E00006D17B689B899BB27A6913407B610FE0DF
:1005F000BB68022B06D17B681B8A9BB27A691340C9
:100600007B6105E07B689B8A9BB27A6913407B61C2
:100610007B881B0A9BB2FB60FB68012202FA03F392
:10062000FB607B681B889BB2FA681340FB607B69A8
:10063000002B05D0FB68002B02D00123FB7401E0E6
:100640000023FB74FB7C18461C37BD465DF8047B19
:10065000704700BF80B485B000AF78600B467B80E8
:100660000023FB810023BB817B881B0AFB81FB8964
:10067000012202FA03F3BB81BB89DB439AB27B6898
:100680001A801437BD465DF8047B704780B586B08C
:1006900000AF4FF40030012100F086FD0120012160
:1006A00000F064FD0C233B6102233B750023BB7506
:1006B0000123FB7502237B7507F1100316481946C9
:1006C00001F090FD14480221072201F069FE124852
:1006D0000321072201F064FE4FF4E1333B60002365
:1006E000BB800023FB8000233B810023BB810C23C4
:1006F0007B813B4609481946FFF704FE074840F254
:1007000025510122FFF7EAFE04480121FFF7B4FE5C
:100710001837BD4680BD00BF0000024000440040C5
:1007200080B582B000AF0346FB7100BF074880214F
:10073000FFF71CFF0346002BF8D0FB799BB2034860
:100740001946FFF7B9FE0837BD4680BD004400409A
:1007500080B584B000AF78600023FB6009E0FB68DF
:100760007A6813441B781846FFF7DAFFFB680133F9
:10077000FB60FB687A6813441B78002BEFD11037BD
:10078000BD4680BD80B582B000AF26233B710A23F1
:100790007B710123BB710123FB713B1D184602F0E5
:1007A00041FD0837BD4680BD80B582B000AF4848E6
:1007B00040F22551FFF7F6FE0346002B00F084803F
:1007C000434840F22551FFF745FF414B9B889BB2C0
:1007D000FB71FB79402B05D9FB795A2B02D8FB79A9
:1007E0002033FB71FB790D2B2AD83A4B1B68002B69
:1007F00004D1394B1B68002B00D165E0354B1968DB
:10080000354B1B68354A342000FB01F10B4413447F
:1008100000221A702F4B00221A602F4B00221A6000
:100820002F482E4900F0FEF838602E48FFF790FF61
:100830003B68032B03D12C48FFF78AFF3CE03BE0E9
:10084000FB792C2B1ED10023FB71224B1968224B04
:100850001B68224A342000FB01F10B441344FA794F
:100860001A701C4B1B68082B03D92048FFF770FF38
:100870002AE0184B1B685A1C164B1A60164B0022B4
:100880001A6019E0144B1B68312B03D91848FFF785
:100890005FFF19E00F4B19680F4B1B680F4A34209C
:1008A00000FB01F10B441344FA791A700A4B1B68E0
:1008B0005A1C094B1A60FFE700BF05484021FFF7AB
:1008C00055FE0346002BF8D00837BD4680BD00BF5B
:1008D00000440040AC5A0020B05A0020E0C801207B
:1008E000C8870120A4450008B0450008B8450008A5
:1008F000C445000880B582B000AF786078680A21EE
:1009000000F004F80837BD4680BD00BF80B588B050
:1009100000AF78600B46FB700F23FB617B68002BF8
:1009200009D107F10802FB69134430221A70FB69F0
:10093000013BFB6122E01EE0FA787B68B3FBF2F139
:1009400002FB01F29B1ABB61FB787A68B2FBF3F3FE
:100950007B60194ABB6913441B78DAB207F10801BE
:10096000FB690B441A70FB69013BFB61FB69002BBF
:1009700001D100237B607B68002BDDD115E0FB6992
:100980000133FB6100BF0D488021FFF7EFFD0346F7
:10099000002BF8D007F10802FB6913441B785BB207
:1009A0009BB206481946FFF787FDFB690E2BE6DD73
:1009B0002037BD4680BD00BF00000020004400403D
:1009C00080B582B000AF104B7B60104B3B6007E0FE
:1009D0003B681A1D3A607A68111D796012681A60C6
:1009E0003A680B4B9A42F3D30A480B494FF0000286
:1009F0008842B8BF40F8042BFFF6FAAF00F0AAFA1D
:100A00000837BD4680BD00BFB44700080000002085
:100A1000AC5A0020AC5A0020E8CA012080B400AFD4
:100A2000FEE700BF80B582B000AF786039607B68B8
:100A30005A687B681B68013B9A4208DA7B689A68AF
:100A40007B685B6801339A4207D103232AE07B6805
:100A50009B68002B01D1032324E07B685A687968E6
:100A600013469B011344DB000B4403F108023B686F
:100A7000111D1A464FF40273084611461A4603F038
:100A8000F5FA7B685A687B681B68013B9A4205DA75
:100A90007B685B685A1C7B685A6002E07B680022B6
:100AA0005A60002318460837BD4680BD80B582B025
:100AB00000AF786039607B689A687B685B689A42AF
:100AC00001D1022322E07B689A683968786813466E
:100AD0009B011344DB00034408331A1D4FF40273D7
:100AE000084611461A4603F0C1FA7B689A687B688B
:100AF0001B68013B9A4205DA7B689B685A1C7B683D
:100B00009A6002E07B6800229A600023184608374A
:100B1000BD4680BD80B582B000AF7860396078682E
:100B20003F4903F03DFB0346002B04D13B68002204
:100B30001A6000236FE078683A4903F031FB0346FE
:100B4000002B04D13B6803221A60002363E078681D
:100B5000354903F025FB0346002B04D13B684F22A7
:100B60001A60002357E07868304903F019FB034608
:100B7000002B04D13B681C221A6000234BE07868EC
:100B80002B4903F00DFB0346002B04D13B68E02208
:100B90001A6000233FE07868264903F001FB034612
:100BA000002B04D13B68FF221A60002333E07868F1
:100BB000214903F0F5FA0346002B04D13B681F22BC
:100BC0001A60002327E078681C4903F0E9FA03461D
:100BD000002B04D13B687F221A6000231BE0786859
:100BE000174903F0DDFA0346002B04D13B68E322EA
:100BF0001A6000230FE07868124903F0D1FA034627
:100C0000002B04D13B68FC221A60002303E03B6800
:100C100000221A60052318460837BD4680BD00BF74
:100C2000F0450008F8450008004600080C4600089A
:100C3000144600081C460008204600082846000804
:100C4000344600083C460008B0B588B004AF786070
:100C50000023BB60BB68002B01D0BB683CE10023D4
:100C6000FB602EE07A68FB68342101FB03F3134438
:100C70001B782D2B11D07A68FB68342101FB03F31C
:100C800013441B782F2B19D97A68FB68342101FB98
:100C900003F313441B78392B10D8FB68342202FB72
:100CA00003F37A681344184603F0DCF902467968C6
:100CB000FB68342000FB03F30B441A60FB6801332C
:100CC000FB60FB68092BCDDD7B681846844903F087
:100CD00067FA0346002B0DD17B68596B7B689A6ECF
:100CE0007B68D3F89C30084611461A4600F098FA03
:100CF0000023F1E07B6818467A4903F051FA034675
:100D0000002B10D17B6803F134027B68343310462A
:100D10001946FFF7FFFEB8607B685B6B184600F072
:100D200081FFBB68D8E07B6818466F4903F038FA4A
:100D30000346002B01D10423CEE07B6818466B49A3
:100D400003F02EFA0346002B01D10423C4E07B6894
:100D50001846674903F024FA0346002B22D17B682A
:100D600003F59C727B6803F59C7310461946FFF7E8
:100D7000D1FEB860BB68002B01D0BB68ACE07B68DB
:100D8000586B7B68996E7B68D3F89C207B68D3F89E
:100D9000D0307C68D4F80441009401F0C7F9B86001
:100DA000BB6899E07B681846524903F0F9F903469D
:100DB000002B28D17B6803F582727B6803F5827370
:100DC00010461946FFF7A6FEB860BB68002B01D09D
:100DD000BB6881E07B68586B7B68996E7B68D3F851
:100DE0009C207B68D3F8D0307C68D4F804517C68B0
:100DF000D4F83841009501940024029400F0C2FD1B
:100E0000B860BB6868E07B6818463B4903F0C8F9E6
:100E10000346002B24D17B6803F582727B6803F5BF
:100E2000827310461946FFF775FEB8607B68586BF1
:100E30007B68996E7B68D3F89C207B68D3F8D030B0
:100E40007C68D4F804517C68D4F83841009501944A
:100E5000002402940024039400F016FEBB683BE0DB
:100E60007B681846254903F09BF90346002B28D1DF
:100E70007B6803F19C027B689C3310461946FFF7A0
:100E800049FEB860BB68002B01D0BB6824E07B68DA
:100E9000586B7B68996E7B68D3F89C207B68D03355
:100EA0007C6804F582757C68D4F83841009501941B
:100EB000002402940024039401F00AF8B860BB688F
:100EC0000AE07B6818460E4903F06AF90346002BD6
:100ED00001D1042300E0042318461037BD46B0BDFD
:100EE000444600084C46000858460008644600087E
:100EF0006C460008744600087C46000888460008D6
:100F00009046000880B5ADF5067D00AF3B1D18602A
:100F10000023C7F814323A1D07F10C031068194674
:100F2000FFF7C4FDC7F81402D7F81432002B02D023
:100F3000D7F8143208E007F10C031846FFF784FED7
:100F4000C7F81402D7F81432184607F50677BD46DD
:100F500080BD00BF80B582B000AF01F067FA01F03C
:100F600029FFFFF711F901F055FDFFF78FFBFFF7A0
:100F700009FC2648FFF7ECFB01F00CFD00200021E6
:100F800001F018FD224B20221A60214B00225A60EA
:100F90001F4B00229A6001F00DFF002001F04AFF74
:100FA00000237B6000233B601A484FF4805101F01E
:100FB000C1F90346002B01D000237B6015484FF494
:100FC000805101F0B7F90346002B04D17B68002B58
:100FD00001D101237B607B68012B16D102237B604A
:100FE00001F0D8FC0A48FFF78DFF38603B68002B02
:100FF00006D03B68022B03D03B681846FFF77AFC0B
:101000003B68184601F0C6FDCEE7CDE798460008DC
:10101000C88701200004024080B489B000AF786026
:101020000023BB6100237B610023FB6102233B6142
:101030000023FB600223BB60484B9B6803F00C035A
:10104000BB61BB69042B07D0082B09D0002B3FD113
:101050007B68434A1A603FE07B68424A1A603BE083
:101060003E4B5B6803F480039B0DFB603B4B5B686E
:1010700003F03F03BB60FB68002B0DD0394ABB680F
:10108000B2FBF3F2354B596847F6C0730B409B092E
:1010900003FB02F3FB610CE0314ABB68B2FBF3F2E5
:1010A0002E4B596847F6C0730B409B0903FB02F3B4
:1010B000FB612A4B5B6803F440331B0C01335B007C
:1010C0003B61FA693B69B2FBF3F27B681A6003E0AB
:1010D0007B68234A1A6000BF204B9B6803F0F00333
:1010E000BB61BB691B09BB611F4ABB6913441B7809
:1010F000DBB27B617B681A687B69DA407B685A6087
:10110000164B9B6803F4E053BB61BB699B0ABB6150
:10111000154ABB6913441B78DBB27B617B685A6854
:101120007B69DA407B689A600C4B9B6803F46043F0
:10113000BB61BB695B0BBB610B4ABB6913441B788A
:10114000DBB27B617B685A687B69DA407B68DA6076
:101150002437BD465DF8047B704700BF003802406D
:101160000024F40000127A001000002080B483B044
:1011700000AF78600B46FB70FB78002B06D0094B64
:10118000084A116B7A680A431A6306E0054B054A60
:10119000116B7A68D2430A401A630C37BD465DF87A
:1011A000047B70470038024080B483B000AF7860A1
:1011B0000B46FB70FB78002B06D0094B084A116CDC
:1011C0007A680A431A6406E0054B054A116C7A688E
:1011D000D2430A401A640C37BD465DF8047B704761
:1011E0000038024080B483B000AF78600B46FB70DB
:1011F000FB78002B06D0094B084A516C7A680A43E9
:101200005A6406E0054B054A516C7A68D2430A409D
:101210005A640C37BD465DF8047B704700380240C5
:1012200090B589B000AFF860B9607A600023FB61C7
:101230000023BB6100237B61FB68B3F5A07F08DC62
:10124000FB68002B05DBBB68F02B02DCBB68002BC6
:1012500001DA01234FE17B68012B33D10023BB610D
:101260002CE000237B6123E08B4ABB6919017B6979
:101270000B4413441B78002B17D07B699AB2FB6890
:101280009BB2134499B2BB699AB2BB689BB2134438
:101290009AB28148BB691C017B69234403441B78D3
:1012A000084611461A4601F0E9FD7B6901337B616E
:1012B0007B690F2BD8DDBB690133BB61BB690F2B89
:1012C000CFDD17E17B68022B38D10023BB6131E011
:1012D0000F237B6126E0704ABB6919017B690B44CF
:1012E00013441B78002B17D0FB699AB2FB689BB2A2
:1012F000134499B2BB699AB2BB689BB213449AB2C9
:101300006548BB691C017B69234403441B7808467C
:1013100011461A4601F0B2FDFB690133FB617B699E
:10132000013B7B617B69002BD5DA0023FB61BB6944
:101330000133BB61BB690F2BCADDDBE07B68032B8C
:1013400033D10023BB612CE000237B6123E0524AB0
:101350007B691901BB690B4413441B78002B17D020
:101360007B699AB2FB689BB2134499B2BB699AB28B
:10137000BB689BB213449AB247487B691C01BB69A6
:10138000234403441B78084611461A4601F076FDB3
:101390007B6901337B617B690F2BD8DDBB6901332E
:1013A000BB61BB690F2BCFDDA4E07B68042B38D178
:1013B0000F23BB612FE000237B6123E0364A7B696A
:1013C0001901BB690B4413441B78002B17D07B69B0
:1013D0009AB2FB689BB2134499B2FB699AB2BB689C
:1013E0009BB213449AB22C487B691C01BB6923440D
:1013F00003441B78084611461A4601F03FFD7B69FD
:1014000001337B617B690F2BD8DDFB690133FB6105
:10141000BB69013BBB61BB69002BCCDA0023FB61DC
:1014200068E07B68052B2DD1BB68BB6123E0FB68BE
:101430007B6117E07B6999B2BB699AB21748FB6977
:1014400003441B78084611461A4601F017FDFA6955
:1014500042F29B739A4202D8FB690133FB617B69BC
:1014600001337B61FB6803F182027B699A42E1DC14
:10147000BB690133BB61BB6803F14E02BB699A4291
:10148000D5DC37E07B68062B32D1BB68BB6128E036
:10149000FB687B611CE000BFBC270020200000200F
:1014A0007B6999B2BB699AB21548FB6903441B7802
:1014B000084611461A4601F0E1FCFA6942F20F7340
:1014C0009A4202D8FB690133FB617B6901337B617E
:1014D000FB6803F164027B699A42E1DCBB6901337A
:1014E000BB61BB6803F16402BB699A42D0DC01E0D6
:1014F000022300E0002318462437BD4690BD00BFFC
:10150000BC280020B0B590B000AFF860B9607A6038
:101510003B607B6DBB617A68FB68D31A184602F0AA
:1015200059FA02460B46C7E904233A68BB68D31A46
:10153000184602F04FFA02460B46C7E90E23BB6875
:101540007B630023FB62FB683B620123FB61D7E9FD
:101550000E014FF000024FF0000302F013FD0346AE
:10156000002B11D04FF0FF33FB61D7E90E0102F0E1
:1015700031FD0346002BB8BF5B42184602F02AFA41
:1015800002460B46C7E90E23D7E90E23104619463B
:1015900002F0D4F802460B4610461946D7E9042358
:1015A00002F0CAF802460B461046194602F012FD38
:1015B0000346BB62BB6A7B62BB687B63BB695B0043
:1015C000BB61BB69013BBB61FB683B63B4E03B6B48
:1015D00099B27B6B9AB23B6DDBB2084611461A4654
:1015E00001F04CFCBB69012B6ADDBB6A7B623B6B83
:1015F0003B620023FB625FE0FA6ABB699A421FD03C
:101600003B6A99B27B6B9AB2FB6A9BB2D31A9AB2CD
:101610003B6DDBB2084611461A4601F02FFC3B6ACF
:1016200099B27B6B9AB2FB6A9BB2D31A9BB201331D
:101630009AB23B6DDBB2084611461A4601F01EFC19
:101640007B6A002B1CDD3A6AFB6913443B62786AB3
:1016500002F0C0F904460D46D7E9042310461946A6
:1016600002F06CF802460B462046294602F064F868
:1016700002460B461046194602F0ACFC03467B625C
:10168000786A02F0A7F904460D46D7E90E23104602
:10169000194602F053F802460B462046294602F04E
:1016A0004DF802460B461046194602F093FC0346DD
:1016B0007B62FB6A0133FB62FA6ABB699A429BDD7B
:1016C000BB6A002B1CDD7A6BFB6913447B63B86A31
:1016D00002F080F904460D46D7E904231046194666
:1016E00002F02CF802460B462046294602F024F868
:1016F00002460B461046194602F06CFC0346BB62DC
:10170000B86A02F067F904460D46D7E90E23104681
:10171000194602F013F802460B462046294602F00D
:101720000DF802460B461046194602F053FC0346DC
:10173000BB623B6B01333B633A6B7B689A42FFF6BB
:1017400046AF002318464037BD46B0BDB0B590B097
:1017500000AFF860B9607A603B607B6DBB617A680E
:10176000FB68D31A184602F035F902460B46C7E962
:101770000E233A68BB68D31A184602F02BF90246CA
:101780000B46C7E90423BB687B630023BB620123CC
:10179000FB61D7E90E014FF000024FF0000302F0A9
:1017A000F1FB0346002B11D04FF0FF33FB61D7E96B
:1017B0000E0102F00FFC0346002BB8BF5B42184637
:1017C00002F008F902460B46C7E90E23D7E90E01DD
:1017D00002F000FC03465C00D7E9040102F0FAFBCA
:1017E0000346E31A7B627B6A3B62FB683B63BB6830
:1017F000FB62BB695B00BB61BB69013BBB61BB6852
:101800007B63B4E03B6B99B27B6B9AB23B6DDBB20E
:10181000084611461A4601F031FBBB69012B6ADD0F
:101820007B6A3B627B6BFB620023BB625FE0BA6A50
:10183000BB699A421FD03B6B9AB2BB6A9BB2D31A68
:1018400099B2FB6A9AB23B6DDBB2084611461A4662
:1018500001F014FB3B6B9AB2BB6A9BB2D31A9BB2EA
:10186000013B99B2FB6A9AB23B6DDBB20846114666
:101870001A4601F003FB3B6A002B1CDDFA6AFB6988
:101880001344FB62386A02F0A5F804460D46D7E916
:1018900004231046194601F051FF02460B4620462C
:1018A000294601F049FF02460B461046194602F050
:1018B00091FB03463B62386A02F08CF804460D4601
:1018C000D7E90E231046194601F038FF02460B46B1
:1018D0002046294601F032FF02460B4610461946C3
:1018E00002F078FB03463B62BB6A0133BB62BA6A13
:1018F000BB699A429BDD7B6A002B1CDD3A6BFB695E
:1019000013443B63786A02F065F804460D46D7E954
:1019100004231046194601F011FF02460B462046EB
:10192000294601F009FF02460B461046194602F00F
:1019300051FB03467B62786A02F04CF804460D4680
:10194000D7E90E231046194601F0F8FE02460B4671
:101950002046294601F0F2FE02460B461046194683
:1019600002F038FB03467B627B6B01337B637A6B4F
:101970003B689A42FFF646AF002318464037BD4603
:10198000B0BD00BF80B588B004AFF860B9607A60C0
:101990003B60FB68B3F5A07F08DCFB68002B05DB30
:1019A000BB68F02B02DCBB68002B01DA012366E088
:1019B0007B68B3F5A07F08DC7B68002B05DB3B6808
:1019C000F02B02DC3B68002B01DA012357E0BB69F6
:1019D000FF2B02DCBB69002B01DA03234FE0FB691C
:1019E000002BB8BF5B42FB617A68FB68D31A83EABD
:1019F000E372A2EBE3723968BB68CB1A002BB8BF65
:101A00005B429A421DDB7A68FB689A420CDDBB6937
:101A10000093FB6901933B6A0293F868B9687A689E
:101A20003B68FFF76FFD29E0BB690093FB690193F9
:101A30003B6A029378683968FA68BB68FFF762FD11
:101A40001CE03A68BB689A420CDDBB690093FB69F5
:101A500001933B6A0293F868B9687A683B68FFF7BC
:101A600075FE0BE0BB690093FB6901933B6A02932F
:101A700078683968FA68BB68FFF768FE0023184683
:101A80001037BD4680BD00BF80B58AB004AFF86096
:101A9000B9607A603B60FB68B3F5A07F08DCFB6847
:101AA000002B05DBBB68F02B02DCBB68002B01DAE6
:101AB0000123B2E03B6AFF2B02DC3B6A002B01DA18
:101AC0000323AAE07B68002BB8BF5B427B603B68C6
:101AD000002BB8BF5B423B607B6A012B23D1BB6804
:101AE0007B6119E0FB683B610DE03B6999B27B6962
:101AF0009AB23B6ADBB2084611461A4601F0BEF9BB
:101B00003B6901333B61FA687B681A443B699A423E
:101B1000EBDA7B6901337B61BA683B681A447B6905
:101B20009A42DFDA78E07B6A002B73D1FA687B682F
:101B3000134401333A6A0092BA6A0192FA6A029235
:101B4000F868B9681A46BB68FFF71CFFFA687B683B
:101B5000D118FA687B681A44B8683B6803440133BB
:101B6000386A0090B86A0190F86A02900846B9682D
:101B7000FFF708FFBB6A012B28DDFA687B68D118E4
:101B8000BA683B6813445A1EB8683B680344013B7B
:101B9000386A0090B86A0190F86A029008461146C7
:101BA000FA68FFF7EFFEBA683B6813445A1CB9683D
:101BB000BB6ACB1A396A0091B96A0191F96A02913C
:101BC000F8681146FA68FFF7DDFE25E0FA687B68E1
:101BD000D118BA683B681A44B8683B680344386A4D
:101BE0000090B86A0190F86A029008461146FA68B7
:101BF000FFF7C8FEBA683B6813443A6A0092BA6AB3
:101C00000192FA6A0292F8681946FA68BB68FFF70F
:101C1000B9FE01E0052300E0002318461837BD4651
:101C200080BD00BF80B584B000AF78607B68FF2BBB
:101C300002DC7B68002B01DA03231CE00023BB815C
:101C400015E00023FB810BE07B68DBB2F989BA89E0
:101C5000084611461A4601F011F9FB890133FB8150
:101C6000FB89B3F5A07FEFD3BB890133BB81BB896F
:101C7000EF2BE6D9002318461037BD4680BD00BFC4
:101C800080B588B000AFF860B9607A60FB7000235F
:101C90007B613B6B002B40F08680FB78DA008A4B3F
:101CA00013443B61FB6A012B36D1FB68FB612BE0DF
:101CB000BB68BB611FE0BA69BB68D31A3A691344B9
:101CC0001B781A46F969FB68CB1A012101FA03F364
:101CD00013407B617B69002B0AD0FB6999B2BB6919
:101CE0009AB27B68DBB2084611461A4601F0C6F884
:101CF000BB690133BB61BB6803F10802BB699A424F
:101D0000D9DCFB690133FB61FB6803F10802FB6965
:101D10009A42CDDC0023D3E0FB6A022B41D1FB6861
:101D2000FB6136E0BB68BB612AE0BB6903F00103DD
:101D3000002B14D1BA69BB68D31ADA0F13445B10B5
:101D40003A6913441B781A46F969FB68CB1AD90F14
:101D50000B445B10012101FA03F313407B617B69A3
:101D6000002B0AD0FB6999B2BB699AB27B68DBB2DF
:101D7000084611461A4601F081F8BB690133BB6180
:101D8000BB6803F11002BB699A42CEDCFB690133E8
:101D9000FB61FB6803F11002FB699A42C2DC00237D
:101DA0008EE006238CE03B6B012B40F08880FB78B3
:101DB000203BFB70FA781346DB009B1A434A13441E
:101DC0003B61FB6A012B33D1FB68FB612AE0BB68F6
:101DD000BB611FE0FA69FB68D31A3A6913441B78A8
:101DE0001A46B969BB68CB1A012101FA03F3134003
:101DF0007B617B69002B0AD0FB6999B2BB699AB2FF
:101E00007B68DBB2084611461A4601F037F8BB6919
:101E10000133BB61BB68DA1DBB699A42DADCFB693E
:101E20000133FB61FB68DA1DFB699A42CFDC46E0B7
:101E3000FB6A022B41D1FB68FB6136E0BB68BB61EA
:101E40002AE0BB6903F00103002B14D1FA69FB6897
:101E5000D31ADA0F13445B103A6913441B781A46FD
:101E6000B969BB68CB1AD90F0B445B10012101FA89
:101E700003F313407B617B69002B0AD0FB6999B2A5
:101E8000BB699AB27B68DBB2084611461A4600F07D
:101E9000F5FFBB690133BB61BB6803F10E02BB698F
:101EA0009A42CEDCFB690133FB61FB6803F10E0251
:101EB000FB699A42C2DC002302E0062300E0002313
:101EC00018462037BD4680BDCC4F0020CC530020A3
:101ED00080B5A6B004AFF860B9607A603B607B68FB
:101EE000FF2B02DC7B68002B01DA032378E0FB6820
:101EF000B3F5A07F08DCFB68002B05DBBB68F02B8B
:101F000002DCBB68002B01DA012369E0D7F89030CE
:101F1000002B01D0042363E0FB68C7F88430BB6862
:101F2000C7F880300023FB670023BB6707F1140369
:101F30001846396802F042FA4AE007F11402FB6FD2
:101F400013441B78D7F890200092D7F89420019280
:101F5000D7F898200292D7F89C200392D7F88400F3
:101F6000D7F880107A68FFF78BFEB867BB6F002B3D
:101F700001D0BB6F34E0FB6F0133FB67D7F89430BF
:101F8000DB00D7F884201344C7F88430D7F89430A6
:101F9000DA00D7F884301344B3F5A07F18DB0023B0
:101FA000C7F88430D7F89430DB00D7F8802013448A
:101FB000C7F88030D7F89430DA00D7F8803013446F
:101FC000F02B03DCD7F88030002B01DA012307E087
:101FD00007F11402FB6F13441B78002BADD10023D3
:101FE00018468837BD4680BD80B584B000AFF86024
:101FF000B9607A603B60FB689AB27B689BB213441D
:1020000099B2BB689AB23B689BB213449AB2BB695F
:10201000DBB2084611461A4600F030FFFB689AB260
:102020007B689BB2D31A99B2BB689AB23B689BB2E9
:1020300013449AB2BB69DBB2084611461A4600F057
:102040001DFFFB689AB27B689BB2134499B2BB68D0
:102050009AB23B689BB2D31A9AB2BB69DBB208460C
:1020600011461A4600F00AFFFB689AB27B689BB2E1
:10207000D31A99B2BB689AB23B689BB2D31A9AB290
:10208000BB69DBB2084611461A4600F0F7FEFB6852
:102090009AB23B689BB2134499B2BB689AB27B6810
:1020A0009BB213449AB2BB69DBB2084611461A468A
:1020B00000F0E4FEFB689AB23B689BB2D31A99B277
:1020C000BB689AB27B689BB213449AB2BB69DBB21D
:1020D000084611461A4600F0D1FEFB689AB23B68EA
:1020E0009BB2134499B2BB689AB27B689BB2D31A75
:1020F0009AB2BB69DBB2084611461A4600F0BEFE32
:10210000FB689AB23B689BB2D31A99B2BB689AB289
:102110007B689BB2D31A9AB2BB69DBB20846114600
:102120001A4600F0ABFE1037BD4680BD80B58AB0C0
:1021300002AFF860B9607A603B603B68FF2B02DC5D
:102140003B68002B01DA032347E0FB68B3F5A07F6F
:1021500008DCFB68002B05DBBB68F02B02DCBB68EE
:10216000002B01DA012338E00023FB617B68BB61AF
:102170007A681346DB079B1A5B0003337B613B687D
:102180000093F868B968FA69BB69FFF72DFF1FE093
:10219000FB690133FB617B69002B0BDDBB69013BF4
:1021A000BB61FA69BB69D31A9A007B6913440A338D
:1021B0007B6105E0FB699A007B69134406337B6110
:1021C0003B680093F868B968FA69BB69FFF70CFFD0
:1021D000BA69FB699A42DBDA002318462037BD460C
:1021E00080BD00BF80B487B000AF78603960002345
:1021F0007B6100233B610023FB6000237B6176E071
:102200007B69012202FA03F33B613B681A683B6970
:102210001340FB60FA683B699A4265D17B681A6893
:102220007B695B00032101FA03F3DB431A407B68FF
:102230001A607B681A683B681B7919467B695B00EA
:1022400001FA03F31A437B681A603B681B79012B80
:1022500003D03B681B79022B2ED17B689A687B697F
:102260005B00032101FA03F3DB431A407B689A60A9
:102270007B689A683B685B7919467B695B0001FA69
:1022800003F31A437B689A607B685A687B699BB248
:10229000012101FA03F3DB431A407B685A607B6833
:1022A0005A683B689B7919467B699BB201FA03F334
:1022B0009BB21A437B685A607B68DA687B699BB281
:1022C0005B00032101FA03F3DB431A407B68DA6009
:1022D0007B68DA683B68DB7919467B695B0001FA49
:1022E00003F31A437B68DA607B6901337B617B69A6
:1022F0000F2B85D91C37BD465DF8047B704700BFA6
:1023000080B485B000AF78600B467B800023FB7300
:102310007B681A697B881340002B02D00123FB7372
:1023200001E00023FB73FB7B18461437BD465DF8C4
:10233000047B704780B485B000AF78600B467B802B
:102340000023FB737B685A697B881340002B02D003
:102350000123FB7301E00023FB73FB7B184614375A
:10236000BD465DF8047B704780B483B000AF7860F1
:102370000B467B807B687A881A830C37BD465DF8F4
:10238000047B704780B483B000AF78600B467B80DD
:102390007B687A885A830C37BD465DF8047B7047AA
:1023A00080B485B000AF786013460A467A807B70AF
:1023B0000023FB600023BB607A787B8803F007036F
:1023C0009B0002FA03F3FB607B88DB089BB21A4692
:1023D0007B88DB089BB219467B68083153F82110D3
:1023E0007B8803F007039B000F2000FA03F3DB4315
:1023F00019407B68083243F822107B88DB089BB2C7
:102400001A467B68083253F82220FB681343BB60EE
:102410007B88DB089BB21A467B680832B96843F8B0
:1024200022101437BD465DF8047B704780B500AFBD
:10243000114B114A126842F001021A600E4B002241
:102440009A600D4A0C4B1B6823F0847323F480338D
:102450001360094B094A5A60074B074A126822F475
:1024600080221A60044B0022DA6000F00BF8044B63
:102470004FF000629A6080BD0038024010300024A6
:1024800000ED00E080B483B000AF00237B60002348
:102490003B60354B344A126842F480321A60324B4A
:1024A0001B6803F400333B607B6801337B603B684F
:1024B000002B03D17B68B3F5A06FF0D12A4B1B68CA
:1024C00003F40033002B02D001233B6001E0002322
:1024D0003B603B68012B42D1234B234A126C42F0F4
:1024E00080521A64214B214A126842F480421A60D9
:1024F0001D4B1D4A92689A601B4B1B4A926842F41E
:1025000000429A60184B184A926842F4A0529A60AE
:10251000154B174A5A60144B134A126842F08072E6
:102520001A6000BF104B1B6803F00073002BF9D03A
:10253000104B40F205621A600B4B0B4A926822F076
:1025400003029A60084B084A926842F002029A60BD
:1025500000BF054B9B6803F00C03082BF9D10C3727
:10256000BD465DF8047B70470038024000700040B3
:1025700008544007003C024080B483B000AF78604C
:102580007B681B6823F001027B681A607B6800226D
:102590001A607B6800225A607B6800229A607B6820
:1025A0000022DA607B6800221A617B6821225A616E
:1025B0007A68454B9A4203D1444B3D229A607EE0B3
:1025C0007A68434B9A4204D1404B4FF474629A604C
:1025D00075E07A683F4B9A4204D13C4B4FF4741239
:1025E0009A606CE07A683C4B9A4204D1374B4FF0CA
:1025F00074629A6063E07A68384B9A4203D1334B35
:10260000374ADA605BE07A68364B9A4203D12F4B47
:10261000354ADA6053E07A68344B9A4203D12B4B47
:10262000334ADA604BE07A68324B9A4204D1274B46
:102630004FF03D52DA6042E07A682F4B9A4203D164
:102640002E4B3D229A603AE07A682D4B9A4204D193
:102650002A4B4FF474629A6031E07A68294B9A42AF
:1026600004D1264B4FF474129A6028E07A68264B06
:102670009A4204D1214B4FF074629A601FE07A684D
:10268000224B9A4203D11D4B154ADA6017E07A6853
:102690001F4B9A4203D1194B134ADA600FE07A6854
:1026A0001C4B9A4203D1154B114ADA6007E07A6855
:1026B000194B9A4203D1114B4FF03D52DA600C375F
:1026C000BD465DF8047B7047106002400060024028
:1026D0002860024040600240586002407060024042
:1026E0003D00002088600240400F0020A0600240B2
:1026F00000003D20B86002401064024000640240C7
:102700002864024040640240586402407064024001
:1027100088640240A0640240B864024080B485B07E
:1027200000AF786039600023FB607B681B68FB604A
:10273000FA68244B1340FB603B681A683B68DB680F
:102740001A433B685B691A433B689B691A433B68C1
:10275000DB691A433B681B6A1A433B685B6A1A438E
:102760003B689B6A1A433B685B6B1A433B689B6BF5
:102770001343FA681343FB607B68FA681A607B684E
:102780005B69FB60FB6823F00703FB603B68DA6A68
:102790003B681B6B1343FA681343FB607B68FA6862
:1027A0005A613B681A697B685A603B685A687B6863
:1027B0009A603B689A687B68DA601437BD465DF8BA
:1027C000047B70473F801CF080B483B000AF78601A
:1027D0000B46FB70FB78002B06D07B681B6843F030
:1027E00001027B681A6005E07B681B6823F0010228
:1027F0007B681A600C37BD465DF8047B704700BFEC
:1028000080B485B000AFF860B9601346FB71BB6857
:1028100003F08003002B0FD0FB79002B06D0FB6860
:102820005B6943F08002FB685A6105E0FB685B6905
:1028300023F08002FB685A61BB68802B14D0FB79BF
:10284000002B08D0FB681A68BB6803F01E031A430C
:10285000FB681A6008E0FB681A68BB6803F01E0397
:10286000DB431A40FB681A601437BD465DF8047BF1
:10287000704700BF80B487B000AF78603960002334
:10288000FB750023FB600023BB607A68224B9A42F1
:1028900002D8224B3B6101E0214B3B613B6823F0B6
:1028A000F02323F0C313002B0AD03B68DB0A03F0AC
:1028B0001E03FB607B681A68FB681340BB6004E082
:1028C0007B685B6903F08003BB603B6803F00053E7
:1028D000002B03D03B695B68FB6002E03B691B682F
:1028E000FB60FB6823F0F02323F08213FB60FA689F
:1028F0003B681340002B05D0BB68002B02D001239E
:10290000FB7501E00023FB75FB7D18461C37BD46B7
:102910005DF8047B704700BF0F6402400060024016
:102920000064024080B485B000AF786039607A6896
:10293000104B9A4202D8104BFB6001E00F4BFB603A
:102940003B6803F00053002B07D03B6823F0F023D3
:1029500023F08213FA68D36006E03B6823F0F0238B
:1029600023F08213FA6893601437BD465DF8047B48
:10297000704700BF0F6402400060024000640240E4
:1029800080B500AF02487821FFF7FCFC80BD00BF96
:102990000010024080B500AF012000F09FF9044B09
:1029A00000221A700520FDF78FFC00F0ABF980BD06
:1029B000BC5A002080B582B000AF786039603B68B7
:1029C000002B07D17B68DBB2803BDBB2184600F0FE
:1029D00085F91CE03B68012B07D17B68DBB2403BEB
:1029E000DBB2184600F07AF911E03B68022B07D100
:1029F0007B68DBB26C3BDBB2184600F06FF906E097
:102A00007B68DBB22C3BDBB2184600F067F9083775
:102A1000BD4680BD80B582B000AF10200121FEF719
:102A2000A5FB04200121FEF7A1FB08200121FEF7F0
:102A30009DFB01233B710023BB710023FB7102232B
:102A40007B7178233B603B462C481946FFF7CAFB55
:102A500001233B603B462A481946FFF7C3FB4FF46E
:102A600000633B603B4627481946FFF7BBFB4FF42A
:102A700000533B603B4623481946FFF7B3FB214810
:102A80004FF40051FFF77EFC1D480121FFF77AFC4F
:102A90001C484FF40061FFF775FC0F20FDF714FC94
:102AA000302000F0EFF83220FDF70EFC302000F06F
:102AB000E9F8302000F0E6F8022000F0E3F8052005
:102AC000FDF702FC2C2000F0DDF80F20FDF7FCFBE9
:102AD0000E2000F0D7F80F20FDF7F6FB012000F0E4
:102AE000D1F80F20FDF7F0FB062000F0CBF80F2007
:102AF000FDF7EAFB0837BD4680BD00BF001002406D
:102B0000000C02400008024080B582B000AF0346CE
:102B1000FB710C484FF40051FFF726FCFB79184677
:102B200000F0B0F8084B1B780133DAB2064B1A708C
:102B3000054B1B78202B02D1034B00221A7008375B
:102B4000BD4680BD00080240BC5A002080B584B05C
:102B500000AF78600023FB7311E00D4B1B78102B46
:102B600003D100202021FFF725FFFB7B7A68134467
:102B70001B781846FFF7C8FFFB7B0133FB73FB7B19
:102B80007A6813441B78002BE7D11037BD4680BD0F
:102B9000BC5A002080B58AB000AF786000233B7734
:102BA0000F237B627B68002B09D17B6A5A1E7A62F5
:102BB00007F128010B44302203F81C2C23E01CE011
:102BC0007A68164BA3FB0213D9080B469B000B44F3
:102BD0005B00D31A3B627A68104BA3FB0213DB083D
:102BE0007B607B6A5A1E7A620D493A6A0A441278FF
:102BF00007F128010B4403F81C2C7B68002B02D042
:102C00007B6A002BDCD17B6A013307F10C02134491
:102C10001846FFF79BFF2837BD4680BDCDCCCCCCF6
:102C20006C56002080B582B000AF0346FB71FFF701
:102C3000A7FEFB7903F00103002B03D010484021CD
:102C4000FFF792FBFB7903F00203002B03D00C4843
:102C50002021FFF789FBFB7903F00403002B03D04D
:102C600007481021FFF780FBFB7903F00803002BD6
:102C700003D003480821FFF777FB0837BD4680BD26
:102C80000010024080B582B000AF0346FB711248CD
:102C90000121FFF769FBFB791B09DBB21846FFF73F
:102CA000C1FF0D480121FFF76DFB00F02BF80A482A
:102CB0000121FFF759FBFB7903F00F03DBB2184644
:102CC000FFF7B0FF04480121FFF75CFB00F01AF8A2
:102CD0000837BD4680BD00BF000C024080B582B001
:102CE00000AF0346FB7106484FF40051FFF74AFB63
:102CF000FB791846FFF7C6FF0837BD4680BD00BF09
:102D00000008024080B584B000AF0023FB730123AC
:102D1000BB732FE078237B6000233B720023BB72E0
:102D20000023FB7202237B723B1D1F481946FFF7ED
:102D300059FA1E484FF40051FFF724FB1B484FF48B
:102D40000061FFF711FB0120FDF7BEFA18480121D1
:102D5000FFF70AFB0120FDF7B7FA13484021FFF700
:102D6000CFFA0346FB7312480121FFF70BFB01204A
:102D7000FDF7AAFAFA7BBB7B9A42CBD078237B6023
:102D800001233B720023BB720023FB7202237B7280
:102D90003B1D05481946FFF725FA0120FDF794FA77
:102DA0001037BD4680BD00BF001002400008024041
:102DB000000C024080B582B000AF1B4B00221A808D
:102DC000194B00225A60184B00229A600023BB80E6
:102DD00017E00023FB800DE0BA8813469B001344E4
:102DE0009B011A44FB881344104A0021D154FB88EC
:102DF0000133FB80FB88B3F5A07FEDD9BB8801339D
:102E0000BB80BB88EF2BE4D900F05EF800F0B0F88F
:102E100000F03EF900F010F9054B1A68024B9A6079
:102E20000837BD4680BD00BFCC5A0020D85A0020CC
:102E30008864024080B584B000AF0346FB71002374
:102E4000BB8114E00023FB810AE0F989BA89FB7990
:102E5000084611461A4600F011F8FB890133FB8140
:102E6000FB89B3F5A07FF0D3BB890133BB81BB895C
:102E7000EF2BE7D91037BD4680BD00BF80B483B0CB
:102E800000AF13460246FA800A46BA80FB70FB8800
:102E9000B3F5A07F01D30023FB80BB88EF2B01D9C2
:102EA0000023BB80BA8813469B0013449B011A443D
:102EB000FB881344034AF978D1540C37BD465DF8BA
:102EC000047B7047D85A002080B582B000AF102034
:102ED0000121FEF74BF94FF680733B6001233B71F4
:102EE0000023BB710123FB7103237B713B461E480A
:102EF0001946FFF777F91C4B4FF47F425A830220A3
:102F00000121FEF733F94FF400633B6002233B716C
:102F100003237B710023BB710123FB713B461348E4
:102F20001946FFF75FF911480B210122FFF738FA24
:102F300002200121FEF71AF94FF480533B60012370
:102F40003B710023BB710123FB7103237B713B4663
:102F500006481946FFF746F9044B4FF480521A838E
:102F60000837BD4680BD00BF00100240000402408B
:102F700080B588B000AF01200121FEF733F90B23A3
:102F8000BB610023BB820023BB830023FB8207F1CC
:102F900014032848194600F0A3F901200121FEF787
:102FA00003F940F66B23BB610023BB820023BB8384
:102FB0000023FB8207F114034FF08040194600F014
:102FC0008FF960233B8001237B804FF4D273BB6079
:102FD0000223BB813B464FF08040194600F02AFA9D
:102FE0004FF08040082100F011FB60233B8001235B
:102FF0007B804FF4A073BB600223BB813B464FF044
:103000008040194600F09CFA4FF08040082100F003
:1030100019FB0848012100F0CDF94FF08040012153
:1030200000F0C8F94FF08040012100F0E3F92037AB
:10303000BD4680BD0000014080B582B000AF13489E
:1030400010210122FFF7DCFB44233B7100237B713D
:103050000123BB710123FB713B1D184600F0E2F810
:103060004FF080400821012200F00AFB1C233B7135
:1030700000237B710023BB710123FB713B1D1846AC
:1030800000F0D0F80837BD4680BD00BF886402401C
:1030900080B590B000AF4FF480000121FEF766F8D4
:1030A0001B480021FFF790FB1948FFF765FA4FF026
:1030B00040637B60174BBB60174BFB6040233B6159
:1030C00040F241137B610023BB614FF48063FB61DD
:1030D00000233B6200237B620023BB624FF440333A
:1030E000FB6200233B6301237B630023BB6300235C
:1030F000FB633B1D06481946FFF710FB07484FF4DA
:103100008071012200F0F0FA4037BD4680BD00BF5B
:103110008864024015100240D85A00200000014087
:1031200080B500AF4FF08040082100F0CDFA254B6C
:103130001B8801339AB2234B1A80224B1B88B3F5AC
:10314000037F05D91F4B00221A801F4A1D4B5A606E
:103150001C4B1B88012B04D81C4B4FF480525A8304
:1031600003E01A4B4FF480521A83164B1B88232B13
:1031700027D9144B1A8840F202239A4221D8144BC3
:10318000104A92681A60124B0E4A5268DA60114B6C
:10319000104A128892B242F0010292B21A800C4B8D
:1031A0000B4A126842F001021A60064B1B8803F0BA
:1031B0000103002B05D0034B5B6803F24112014B66
:1031C0005A6080BDCC5A0020D85A0020000402402A
:1031D000886402400000014080B500AF0D480E49F0
:1031E000FFF748FB0346002B12D00A480A49FFF7B5
:1031F00099FB0A4B094A128892B222F0010292B25C
:103200001A80044B00221A60054B4FF47F425A8308
:1032100080BD00BF8864024000880020000001409B
:103220000010024080B485B000AF78600023FB73CB
:103230000023BB730F237B737B68DB78002B37D0B5
:10324000254BDB68DB4303F4E0631B0AFB73FB7B6A
:10325000C3F10403BB737A7BFB7B42FA03F37B73FA
:103260007B685B781A46BB7B02FA03F3FB737B68CF
:103270009A787B7B1340DAB2FB7B1343FB73FB7BB7
:103280001B01FB73154A7B681B781344FA7B83F898
:103290000023124B7A6812785209D2B27968097801
:1032A00001F01F01012000FA01F143F822100EE0A5
:1032B0000A4B7A6812785209D2B27968097801F01B
:1032C0001F01012000FA01F1203243F822101437C7
:1032D000BD465DF8047B704700ED00E000E100E0D2
:1032E00080B485B000AF786039600023FB817B68D3
:1032F0001B88FB817A68284B9A4213D07A68274B47
:103300009A420FD07B68B3F1804F0BD07A68244B80
:103310009A4207D07A68234B9A4203D07A68224BAC
:103320009A4208D1FB8923F07003FB813B685A88DD
:10333000FB891343FB817A681C4B9A420CD07A6854
:103340001B4B9A4208D0FB8923F44073FB813B68F6
:103350001A89FB891343FB817B68FA891A803B68D1
:103360005A687B68DA623B681A887B681A857A68D3
:10337000094B9A4203D07A68084B9A4204D13B68C1
:103380009B7A1A467B681A867B6801229A821437D8
:10339000BD465DF8047B7047000001400004014019
:1033A0000004004000080040000C004000100040F5
:1033B0000014004080B483B000AF78600B46FB700F
:1033C000FB78002B08D07B681B889BB243F08003FE
:1033D0009AB27B681A8007E07B681B889BB223F057
:1033E00080039AB27B681A800C37BD465DF8047B77
:1033F000704700BF80B483B000AF78600B46FB70AD
:10340000FB78002B08D07B681B889BB243F001033C
:103410009AB27B681A8007E07B681B889BB223F016
:1034200001039AB27B681A800C37BD465DF8047BB5
:10343000704700BF80B485B000AF7860396000236A
:103440007B810023FB810023BB817B681B8C9BB2AB
:1034500023F480739AB27B681A847B681B8CFB818F
:103460007B689B88BB817B689B8B7B817B8923F0FE
:1034700070037B817B8923F003037B813B681A887F
:103480007B8913437B81FB8923F40073FB813B68B9
:103490009B891B029AB2FB891343FB813B685B88C3
:1034A0001B029AB2FB891343FB817A68224B9A4232
:1034B00003D07A68214B9A422BD1FB8923F4006315
:1034C000FB813B68DB891B029AB2FB891343FB81BA
:1034D000FB8923F48063FB813B689B881B029AB2C3
:1034E000FB891343FB81BB8923F48053BB81BB89D8
:1034F00023F40053BB813B681B8A1B019AB2BB8932
:103500001343BB813B685B8A1B019AB2BB8913439F
:10351000BB817B68BA899A807B687A899A833B6889
:103520009A687B68DA637B68FA891A841437BD4627
:103530005DF8047B704700BF0000014000040140BB
:1035400080B485B000AF786039600023BB81002370
:103550007B810023FB817B681B8C9BB223F480530F
:103560009AB27B681A847B681B8C7B817B689B8802
:10357000FB817B689B8BBB81BB8923F4E043BB81D0
:10358000BB8923F44073BB813B681B881B029AB242
:10359000BB891343BB817B8923F400537B813B6848
:1035A0009B891B039AB27B8913437B813B685B88B1
:1035B0001B039AB27B8913437B817A68114B9A4231
:1035C00003D07A68104B9A420AD1FB8923F48043D6
:1035D000FB813B681B8A9B019AB2FB891343FB81E9
:1035E0007B68FA899A807B68BA899A833B689A6873
:1035F0007B681A647B687A891A841437BD465DF843
:10360000047B7047000001400004014080B485B095
:1036100000AF78600B467B800023FB817B689B8B2F
:10362000FB81FB8923F00803FB81FA897B88134324
:10363000FB817B68FA899A831437BD465DF8047B69
:10364000704700BF80B485B000AF78600B467B80C8
:103650000023FB817B689B8BFB81FB8923F4006348
:10366000FB817B881B029AB2FB891343FB817B6839
:10367000FA899A831437BD465DF8047B704700BF12
:1036800080B483B000AF786013460A467A807B70BE
:103690007B78002B08D07B689B899AB27B88134388
:1036A0009AB27B689A8109E07B689B899AB27B8891
:1036B000DB439BB213409AB27B689A810C37BD46BC
:1036C0005DF8047B704700BF80B483B000AF7860C2
:1036D0000B467B807B88DB439AB27B681A820C376F
:1036E000BD465DF8047B704780B483B000AF78605E
:1036F00013460A467A807B707B78002B08D07B6863
:103700009B899AB27B8813439AB27B689A8109E0BD
:103710007B689B899AB27B88DB439BB213409AB249
:103720007B689A810C37BD465DF8047B704700BF0B
:1037300081F0004102E000BF83F0004330B54FEA62
:1037400041044FEA430594EA050F08BF90EA020FCF
:103750001FBF54EA000C55EA020C7FEA645C7FEA62
:10376000655C00F0E2804FEA5454D4EB5555B8BF85
:103770006D420CDD2C4480EA020281EA030382EAF6
:10378000000083EA010180EA020281EA0303362D88
:1037900088BF30BD11F0004F4FEA01314FF4801C5B
:1037A0004CEA113102D0404261EB410113F0004F6D
:1037B0004FEA03334CEA133302D0524263EB430324
:1037C00094EA050F00F0A780A4F10104D5F1200EC2
:1037D0000DDB02FA0EFC22FA05F2801841F100011D
:1037E00003FA0EF2801843FA05F359410EE0A5F1F1
:1037F00020050EF1200E012A03FA0EFC28BF4CF022
:10380000020C43FA05F3C01851EBE37101F00045D7
:1038100007D54FF0000EDCF1000C7EEB00006EEBE4
:103820000101B1F5801F1BD3B1F5001F0CD349086E
:103830005FEA30004FEA3C0C04F101044FEA4452C5
:1038400012F5800F80F09A80BCF1004F08BF5FEA4C
:10385000500C50F1000041EB045141EA050130BD2C
:103860005FEA4C0C404141EB010111F4801FA4F1CF
:103870000104E9D191F0000F04BF01460020B1FA24
:1038800081F308BF2033A3F10B03B3F120020CDA5C
:103890000C3208DD02F1140CC2F10C0201FA0CF03A
:1038A00021FA02F10CE002F11402D8BFC2F1200C9F
:1038B00001FA02F120FA0CFCDCBF41EA0C01904055
:1038C000E41AA2BF01EB0451294330BD6FEA04049E
:1038D0001F3C1CDA0C340EDC04F11404C4F1200289
:1038E00020FA04F001FA02F340EA030021FA04F39B
:1038F00045EA030130BDC4F10C04C4F1200220FAF2
:1039000002F001FA04F340EA0300294630BD21FA2F
:1039100004F0294630BD94F0000F83F4801306BFF5
:1039200081F480110134013D4EE77FEA645C18BFE9
:103930007FEA655C29D094EA050F08BF90EA020F80
:1039400005D054EA000C04BF1946104630BD91EA78
:10395000030F1EBF0021002030BD5FEA545C05D17B
:103960004000494128BF41F0004130BD14F58004BA
:103970003CBF01F5801130BD01F0004545F0FE412E
:1039800041F470014FF0000030BD7FEA645C1ABF63
:10399000194610467FEA655C1CBF0B46024650EA9A
:1039A000013406BF52EA033591EA030F41F40021C6
:1039B00030BD00BF90F0000F04BF0021704730B54C
:1039C0004FF4806404F132044FF000054FF0000121
:1039D00050E700BF90F0000F04BF0021704730B5E2
:1039E0004FF4806404F1320410F0004548BF4042B7
:1039F0004FF000013EE700BF42004FEAE2014FEA0C
:103A000031014FEA02701FBF12F07F4393F07F4FE6
:103A100081F06051704792F0000F14BF93F07F4F18
:103A2000704730B54FF4607401F0004521F000415B
:103A300020E700BF50EA010208BF704730B54FF0E1
:103A400000050AE050EA010208BF704730B511F0E6
:103A5000004502D5404261EB41014FF4806404F11E
:103A600032045FEA915C3FF4DCAE4FF003025FEAA0
:103A7000DC0C18BF03325FEADC0C18BF033202EB28
:103A8000DC02C2F1200300FA03FC20FA02F001FA82
:103A900003FE40EA0E0021FA02F11444C1E600BF21
:103AA00070B54FF0FF0C4CF4E06C1CEA11541DBFD4
:103AB0001CEA135594EA0C0F95EA0C0F00F0DEF89F
:103AC0002C4481EA030621EA4C5123EA4C5350EA84
:103AD000013518BF52EA033541F4801143F48013D5
:103AE00038D0A0FB02CE4FF00005E1FB02E506F066
:103AF0000042E0FB03E54FF00006E1FB03569CF0BB
:103B0000000F18BF4EF0010EA4F1FF04B6F5007FC0
:103B100064F5407404D25FEA4E0E6D4146EB060632
:103B200042EAC62141EA55514FEAC52040EA5E50BB
:103B30004FEACE2EB4F1FD0C88BFBCF5E06F1ED865
:103B4000BEF1004F08BF5FEA500E50F1000041EB9C
:103B5000045170BD06F0004646EA010140EA020049
:103B600081EA0301B4EB5C04C2BFD4EB0C0541EA6B
:103B7000045170BD41F480114FF0000E013C00F380
:103B8000AB8014F1360FDEBF002001F0004170BDA4
:103B9000C4F10004203C35DA0C341BDC04F11404BD
:103BA000C4F1200500FA05F320FA04F001FA05F249
:103BB00040EA020001F0004221F0004110EBD37016
:103BC00021FA04F642EB06015EEA430E08BF20EA42
:103BD000D37070BDC4F10C04C4F1200500FA04F3E5
:103BE00020FA05F001FA04F240EA020001F0004177
:103BF00010EBD37041F100015EEA430E08BF20EAEA
:103C0000D37070BDC4F1200500FA05F24EEA020E31
:103C100020FA04F301FA05F243EA020321FA04F060
:103C200001F0004121FA04F220EA020000EBD37017
:103C30005EEA430E08BF20EAD37070BD94F0000F17
:103C40000FD101F00046400041EB010111F4801F4B
:103C500008BF013CF7D041EA060195F0000F18BFFC
:103C6000704703F00046520043EB030313F4801F38
:103C700008BF013DF7D043EA0603704794EA0C0FF2
:103C80000CEA135518BF95EA0C0F0CD050EA410608
:103C900018BF52EA4306D1D181EA030101F0004185
:103CA0004FF0000070BD50EA410606BF10461946AD
:103CB00052EA430619D094EA0C0F02D150EA0136B9
:103CC00013D195EA0C0F05D152EA03361CBF1046FA
:103CD00019460AD181EA030101F0004141F0FE4199
:103CE00041F470014FF0000070BD41F0FE4141F41D
:103CF000780170BD70B54FF0FF0C4CF4E06C1CEA1D
:103D000011541DBF1CEA135594EA0C0F95EA0C0FD1
:103D100000F0A7F8A4EB050481EA030E52EA03358C
:103D20004FEA013100F088804FEA03334FF08055AD
:103D300045EA131343EA12634FEA022245EA1115DA
:103D400045EA10654FEA00260EF000419D4208BF8B
:103D5000964244F1FD0404F5407402D25B084FEA38
:103D60003202B61A65EB03055B084FEA32024FF4E4
:103D700080104FF4002CB6EB020E75EB030E22BF41
:103D8000B61A754640EA0C005B084FEA3202B6EB01
:103D9000020E75EB030E22BFB61A754640EA5C00B0
:103DA0005B084FEA3202B6EB020E75EB030E22BF40
:103DB000B61A754640EA9C005B084FEA3202B6EB41
:103DC000020E75EB030E22BFB61A754640EADC0000
:103DD00055EA060E18D04FEA051545EA16754FEA62
:103DE00006164FEAC30343EA52734FEAC2025FEA80
:103DF0001C1CC0D111F4801F0BD141EA00014FF00F
:103E000000004FF0004CB6E711F4801F04BF0143DF
:103E10000020B4F1FD0C88BFBCF5E06F3FF6AFAEFB
:103E2000B5EB030C04BFB6EB020C5FEA500C50F18B
:103E3000000041EB045170BD0EF0004E4EEA11310E
:103E400014EB5C04C2BFD4EB0C0541EA045170BD15
:103E500041F480114FF0000E013C90E645EA060E59
:103E60008DE60CEA135594EA0C0F08BF95EA0C0F87
:103E70003FF43BAF94EA0C0F0AD150EA01347FF4CF
:103E800034AF95EA0C0F7FF425AF104619462CE7A6
:103E900095EA0C0F06D152EA03353FF4FDAE104609
:103EA000194622E750EA410618BF52EA43067FF45A
:103EB000C5AE50EA41047FF40DAF52EA43057FF4EA
:103EC000EBAE12E74FF0FF3C06E000BF4FF0010CF5
:103ED00002E000BF4FF0010C4DF804CD4FEA410C59
:103EE0007FEA6C5C4FEA430C18BF7FEA6C5C1BD026
:103EF00001B050EA410C0CBF52EA430C91EA030FA7
:103F000002BF90EA020F0020704710F1000F91EA03
:103F1000030F58BF994208BF90422CBFD8176FEAD1
:103F2000E37040F0010070474FEA410C7FEA6C5C9F
:103F300002D150EA013C07D14FEA430C7FEA6C5CA6
:103F4000D6D152EA033CD3D05DF8040B704700BFD2
:103F50008446104662468C461946634600E000BF20
:103F600001B5FFF7B7FF002848BF10F1000F01BDF2
:103F70004DF808EDFFF7F4FF0CBF012000205DF8BD
:103F800008FB00BF4DF808EDFFF7EAFF34BF012042
:103F900000205DF808FB00BF4DF808EDFFF7E0FFDB
:103FA00094BF012000205DF808FB00BF4DF808ED2C
:103FB000FFF7CEFF94BF012000205DF808FB00BF93
:103FC0004DF808EDFFF7C4FF34BF012000205DF875
:103FD00008FB00BF4FEA410212F5001215D211D5BD
:103FE0006FF47873B3EB625212D94FEAC12343F0F6
:103FF000004343EA505311F0004F23FA02F018BF78
:10400000404270474FF00000704750EA013005D140
:1040100011F0004008BF6FF0004070474FF0000003
:10402000704700BF4A0011D212F5001211D20DD50F
:104030006FF47873B3EB62520ED44FEAC12343F0AE
:10404000004343EA505323FA02F070474FF0000058
:10405000704750EA013002D14FF0FF3070474FF007
:104060000000704700210A2200F090BA844641EA1D
:10407000000313F003036DD1403A41D351F8043BE0
:1040800040F8043B51F8043B40F8043B51F8043B32
:1040900040F8043B51F8043B40F8043B51F8043B22
:1040A00040F8043B51F8043B40F8043B51F8043B12
:1040B00040F8043B51F8043B40F8043B51F8043B02
:1040C00040F8043B51F8043B40F8043B51F8043BF2
:1040D00040F8043B51F8043B40F8043B51F8043BE2
:1040E00040F8043B51F8043B40F8043B51F8043BD2
:1040F00040F8043B51F8043B40F8043B403ABDD241
:10410000303211D351F8043B40F8043B51F8043BE2
:1041100040F8043B51F8043B40F8043B51F8043BA1
:1041200040F8043B103AEDD20C3205D351F8043B71
:1041300040F8043B043AF9D2043208D0D2071CBF3D
:1041400011F8013B00F8013B01D30B880380604666
:10415000704700BF082A13D38B078DD010F00303DC
:104160008AD0C3F10403D21ADB071CBF11F8013B4C
:1041700000F8013B80D331F8023B20F8023B7BE79B
:10418000043AD9D3013A11F8013B00F8013BF9D2C6
:104190000B7803704B7843708B7883706046704760
:1041A00040EA010C1CF0070F23D1BDF1100DCDE941
:1041B0000245CDE900676FF000064FF0000700BF31
:1041C000F0E80223F1E80245A24282FA46FCA7FA8F
:1041D00086FC08BFBCF1000F40F0D780AB4283FAE9
:1041E00046FCA7FA86FC08BFBCF1000F40F0CA806D
:1041F000E6E710F0030C21D020F0030050F8042B68
:104200005FEACC7C08D00FD211F801CB5FFA92F3B1
:10421000B3EB0C0C10D17BB111F801CB5FFAA2F318
:10422000B3EB0C0C08D13BB111F801CB5FFAB2F340
:10423000B3EB0C0C00D10BB960467047BDF1100D0B
:10424000CDE90245CDE900676FF000064FF00007A9
:1042500011F0030C2DD110F0040F0DD050F8042BE9
:1042600051F8044BA24282FA46FCA7FA86FC08BF2A
:10427000BCF1000F40F0898011F0040F9FD051F87D
:10428000045B00BFF0E80223AA4282FA46FCA7FAC8
:1042900086FC08BFBCF1000F71D1F1E80245A342D2
:1042A00083FA46FCA7FA86FC08BFBCF1000F63D175
:1042B000E8E721F00301BCF1020F1ED03BDA51F810
:1042C000045B00BF50F8043B4FEA152583FA46FC17
:1042D000A7FA86FCB7EB0C2F03EA162208BFAA4206
:1042E0004DD151F8045BBCF1000F82EA03034FEAA1
:1042F000056208BF93423CD1E4E751F8045B00BF7C
:1043000050F8043B4FEA154583FA46FCA7FA86FCB1
:10431000B7EB0C4F03EA164208BFAA422FD151F85F
:10432000045BBCF1000F82EA03034FEA054208BFB9
:1043300093421ED1E4E751F8045B00BF50F8043B00
:104340004FEA156583FA46FCA7FA86FCB7EB0C6FBB
:1043500003EA166208BFAA4211D151F8045BBCF10E
:10436000000F82EA03034FEA052208BF934200D1FF
:10437000E4E719BA12BA0AE019BA22BA07E011BA88
:104380002ABA04E019BA2ABA01E011BA22BA9CFA90
:104390008CF0DDE90067DDE902451DF1100D38B153
:1043A000B0FA80F0C0F1180021FA00F122FA00F210
:1043B0000120914298BF8041704700BF80EA01020E
:1043C000844612F0030F4FD111F0030F32D14DF894
:1043D000044D11F0040F51F8043B0BD0A3F101324E
:1043E0009A4312F0803F04BF4CF8043B51F8043B61
:1043F00016D100BF51F8044BA3F101329A4312F0D9
:10440000803FA4F101320BD14CF8043BA24312F0DF
:10441000803F04BF51F8043B4CF8044BEAD02346DC
:104420000CF8013B13F0FF0F4FEA3323F8D15DF88E
:10443000044B704711F0010F06D011F8012B0CF856
:10444000012B002A08BF704711F0020FBFD031F8CE
:10445000022B12F0FF0F16BF2CF8022B8CF8002055
:1044600012F47F4FB3D1704711F8012B0CF8012BD8
:10447000002AF9D1704700BF2DE9F00F424C82B0FD
:10448000D4F800C001900E4600E02646344614F8E9
:10449000015B0CEB0500407800F0080000F0FF0A1B
:1044A0000028F2D12D2D5BD02B2D04BF7578B41CC4
:1044B00033F010003CD09946BAF1000F0CBF6FF0FA
:1044C000004B4FF0004BBBFBF9F8002709FB18BB72
:1044D00038460CE0303DAB4219DD7E1C05D040452E
:1044E00023D820D009FB0050012714F8015B0CEB06
:1044F0000506767816F0040FECD116F0030606D008
:10450000012E14BF57263726AD1BAB42E5DC7B1CC2
:1045100015D0BAF1000F21D10AB1EFB9116002B084
:10452000BDE8F00F70475D45DCDD4FF0FF37DCE79D
:10453000302D1AD0002BBED10A239946BCE7019931
:10454000BAF1000F4FF022030CBF6FF000404FF0A4
:1045500000400B60002AE2D0611EDFE74042DBE74B
:10456000B41C75784FF0010AA2E7207800F0DF0054
:10457000582803D0002B9ED108239CE71023657890
:104580009946023498E700BF7856002030B4044CB6
:104590000D46134601462A46206830BCFFF76CBF23
:1045A000A85A00200A5175657565640A000000006C
:1045B00046554C4C51000000636F6D2066756C6C65
:1045C000000000006172672066756C6C0A000000D4
:1045D00067656E65726174656420434F4D4D414E51
:1045E00044207374727563747572653A0A00000032
:1045F0007A77617274000000626C61757700000068
:104600006C69636874626C617577000067726F65CE
:104610006E000000726F6F64000000007769740024
:10462000637961616E0000006C696368746379612D
:10463000616E00006D6167656E7461006765656C31
:10464000000000006269746D61700000636C656158
:104650007273636865726D0064726965686F656B1B
:1046600000000000656C6C69707300006369726B18
:10467000656C00006C696A6E00000000726563681A
:1046800074686F656B00000074656B7374000000E4
:104690007761636874000000526561647920746F0B
:1046A00020726563656976652E0000000020202079
:1046B00020202020202028282828282020202020D2
:1046C00020202020202020202020202020881010A2
:1046D00010101010101010101010101010040404FE
:1046E00004040404040404101010101010104141BC
:1046F00041414141010101010101010101010101AA
:1047000001010101010101011010101010104242BD
:104710004242424202020202020202020202020279
:104720000202020202020202101010102000000019
:104730000000000000000000000000000000000079
:104740000000000000000000000000000000000069
:104750000000000000000000000000000000000059
:104760000000000000000000000000000000000049
:104770000000000000000000000000000000000039
:104780000000000000000000000000000000000029
:104790000000000000000000000000000000000019
:1047A0000000000000000000000000000000000009
:0447B00043000000C2
:1047B4003031323334353637383941424344454653
:1047C40000000000010203040102030406070809B3
:1047D4008888888888888888888888886868486CF1
:1047E4007171717171704C28488CD4D4F4F4F8F858
:1047F400F8F8F8F8F8F8F8F4D4D0AC88646464688D
:104804008888888888888888888888888888888824
:104814008888888888888888888888888888888814
:104824008888888888888888888888888888686844
:10483400486C71717170707070707070707070709D
:10484400707070706C6C6C6C6C90B4D4D4D8D8D418
:10485400D4D4888888888888888888888888686480
:10486400486C7171717171704C482468B0D4F4F45F
:10487400F8F8F8F8F8F8F8F8F8F8F5F5D0B088642E
:1048840064688888888888888888888888888888E8
:104894008888888888888888888888888888888894
:1048A4008888888888888888888888888888888884
:1048B4006868486C7171707070707070707070702E
:1048C4007070706C6C6C6C6C9090B4D4D5D9D8D872
:1048D400D8D4D4D488888888888888888888888820
:1048E40068446871717171717070704C484890D4EB
:1048F400F4F8F8F8F8F8F8F8F8F8F8F8F8F9F5D55D
:10490400D08C8868888888888888888888888888F7
:104914008888888888888888888888888888888813
:104924008888888888888888888888888888888803
:1049340088888868484C707070707070707070707F
:104944007070706C4C6C6C6C90B0B4D5D5D9D8D8F0
:10495400D8F8F8F4D4D4888888888888888888889F
:10496400886868486C71717171707071706C4848B6
:104974008CD4F4F8F8F8F8F8F8F8F8F8F8F8F8F847
:10498400F8F9F5D0AC8888888888888888888888E9
:104994008888888888888888888888888888888893
:1049A4008888888888888888888888888888888883
:1049B40088888888886848487070707070707070D3
:1049C4007070706C6C6C6C6C90B0B4D4D9D9F8F80D
:1049D400F8F8F8F8F4F4F4F48888888888888888E3
:1049E4008888886868486C717171717070717070B2
:1049F4006C486CB0D4F8F8F8F8F8F8F8F8F8F8F867
:104A0400F8F8F8F8F5F5D4AC8C8888888888888814
:104A14008888888888888888888888888888888812
:104A24008888888888888888888888888888888802
:104A3400888888888888886848486C707070707026
:104A44007070706C6C6C6C9090B4D5D5D9D8F8F843
:104A5400F8F8F8F8F8F4F4F4F4F488888888888886
:104A640088888888886848686D7171717170707001
:104A740070706C68688CD4F4F8F8F8F8F8F8F8F802
:104A8400F8F8F8F8F8F8F8F4F5D4B0AC8888888821
:104A94008888888888888888888888888888888892
:104AA4008888888888888888888888888888888882
:104AB4008888888888888888888868486C709090F6
:104AC40090706C6C6C6C9090B0D4D4D9F9F8F8F800
:104AD400F8F8F8F8F8F8F8F8F4F4F4F48888888822
:104AE4008888888888886844486C717171715150CD
:104AF40070707071706C688CB0D4F8F8F8F8F8F8CD
:104B0400F8F8F8F8F8F8F8F8F8F8F5F4F4D0AC8810
:104B14008484888888888888888888888888888819
:104B24008888888888888888888888888888888801
:104B34008888888888888888888888886848486CAD
:104B440090906C6C6C6C9090B4D4D4F8F8F8F8F83D
:104B5400F4F8F8F8F8F8F8F8F8F8F8F8F4D48888DD
:104B640088888888888888886844486C717151511D
:104B7400515050505070706C686890B4D4F8F8F884
:104B8400F8F8F8F8F8F8F8F8F8F8F8F8F4F4F5F5AF
:104B9400D0AC888884888888888888888888888829
:104BA4008888888888888888888888888888888881
:104BB40088888888888888888888888888886868B1
:104BC400686C6C8C6C6C8C90B4D4D4D4F8F8F8F811
:104BD400F8F8F4F8F8F8F8F8F8F8F8F8F4F8F8D47D
:104BE400888888888888888888686844486C6D4C78
:104BF4004C5050504C50505070706C6C8CB0D4D49D
:104C0400F8F8F8F8F8F8F8F8F8F8F8F8F8F8F4F428
:104C1400F4F5F5D0AC888884888888888888888862
:104C24008888888888888888888888888888888800
:104C340088888888888888888888888888888888F0
:104C4400686868686C6C8C90B0D4D4D8F8F8F8F8BC
:104C5400F8F8F8F8F8F8F8F8F8F8F8F8F8F4F4F4DC
:104C6400F4D4888888888888888888684448486C08
:104C74004C4C4C2C2C2C2C4C4C4C70706C6C6C8C08
:104C8400B0D4F4F8F8F8F8F8F8F8F8F8F8F8F8F810
:104C9400F8F8F8F4F5F4D4D0AC8888888888888843
:104CA4008888888888888888888888888888888880
:104CB4008888888888888888888888888888888870
:104CC4008888686868688C8CB0D4D4D8F8F8F8F808
:104CD400F8F8F8F8F8F8F8F8F8F8F8F8F8F8F8F454
:104CE400F4F4F4D488888888888888888868444854
:104CF400484C4C4C2C2C2C2C2C2C2C4C4C70706C6C
:104D04006C6C8CB4D4F8F8F8F8F8F8F8F8F8F8F80B
:104D1400F8F8F8F8F8F8F8F8F4F4D0AC888888884B
:104D240088888888888888888888888888888888FF
:104D340088888888888888888888888884848484FF
:104D44008484846868888CACB0D4D4F4F8F8F8F817
:104D5400F8F8F8F8F8F8F8F8F8F4F4F4F8F8F8F8DB
:104D6400F8F4F4F4D4B088888888888888886868D7
:104D740044484C4C4C4C2C2C2C2C2C2C2C2C4C4C7B
:104D8400706C4C486C90D4D4F8F8F8F8F8F8F8F84B
:104D9400F8F8F8F8F8F8F8F8F8F8F8F4F4D0AC887B
:104DA400888888888888888888888888888888887F
:104DB40088888884848484848484848484848484A3
:104DC4008484888888888CACB0D4D4F4F8F8F8F853
:104DD400F8F8F8F8F8F8F8F4F4F4F8F8F4F4F4F46B
:104DE400F4F4F8F8F4F4D4B088888888888888883B
:104DF400684444484C4C4C2C2C2C2C2C2C2C2C2C07
:104E04002C4C4C4C4C48688CB0D4D4F8F8F8F8F8D6
:104E1400F8F8F8F8F8F8F8F8F8F8F8F8F8F8F4F416
:104E2400D0D0AC888888888888888888888888884A
:104E340088888888888888888888888888888888EE
:104E4400ACACACACACACD0D0D0D4F4F4F4F4F8F852
:104E5400F8F8F8F8F8F8F8F8F8F4F4F4F4F4F4F4EA
:104E6400F4F4F4F4F8F4F4D4D48C8888888888882A
:104E74008868684448484C2C2C2C2C2C2C2C2C2C2A
:104E84002C2C2C2C4C4C4C4848688CB0D4F4F8F89E
:104E9400F8F8F8F8F8F8F8F8F8F8F8F8F8F8F8F88E
:104EA400F4F4F4F4D0ACACACACACACACACACACACFA
:104EB400ACACD0D0D0D0D0D0D0D0D0D0D0D0D0D036
:104EC400D0D0D0D0D5F5F5F5F5F4F4F4F4F4F4F845
:104ED400F8F8F8F8F4F8F8F8F8F8F4F4F4F8F4F466
:104EE400F4F4F4F4F4F4F4F4F4D4B08C88888888FA
:104EF40088888868444448484C2C2C2C2C2C2C2C16
:104F04002C2C2C2C2C2C2C4C4C4848686C8CB0D45D
:104F1400F8F8F8F8F8F8F8F8F8F8F8F8F8F8F8F80D
:104F2400F8F8F8F8F4F4F4D4D0D0D0D0D0D0D0D06D
:104F3400D0D0D4D4F4F4F4F5F5F5F5F5F5F5F5F5AC
:104F4400F5F5F5F5F5F5F5F5F5F5F4F4F4F4F4F80F
:104F5400F8F8F8F8F8F8F4F4F4F8F4F4F4F8F8F8E5
:104F6400F4F4F4F4F4F4F4F4F4F4D4B0908C888805
:104F7400888888888868444448484C2C2C2C2C2CDD
:104F84002C2C2C2C2C2C2C2C2C2C4C4C484868686D
:104F94008CB4D4F8F8F8F8F8F8F8F8F8F8F8F8F861
:104FA400F8F8F8F8F8F8F8F4F4F4F4F4F4F4F4F4A1
:104FB400F4F4F4F4F4F4F4F4F4F4F4F8F8F8F8F899
:104FC400F8F8F8F4F4F4F4F4F4F4F4F4F4F4F8F889
:104FD400F8F8F8F8F8F8F8F8F8F4F4F4F4F4F4F865
:104FE400F8F8F4F4F4F4F4F4F4F4D4D4B0B08C6C2D
:104FF40088888888888888684444484C2C2C2C2CC1
:105004002C2C2C2C2C2C2C2C2C2C2C2C4C4C484864
:10501400484868B0D4F4F8F8F8F8F8F8F8F8F4F870
:10502400F8F8F8F8F8F8F8F8F8F8F8F4F8F4F4F40C
:10503400F4F4F4F4F4F4F4F4F4F4F4F4F4F8F8F820
:10504400F8F8F8F8F8F4F4F4F4F4F4F4F4F4F4F804
:10505400F8F8F8F8F8F8F8F8F8F8F8F4F4F4F4F4E0
:10506400F4F8F8F8F4F4F4F4F4F4F4F4D4B0B090FC
:10507400906C88888888888888644448484C2C2C9C
:105084002C2C2C2C2C2C2C2C2C2C2C2C2C2C4C4C1C
:1050940048484848486CB0D4F4F8F8F8F4F4F4F408
:1050A400F4F8F8F8F8F8F8F8F8F8F8F8F8F8F8F880
:1050B400F8F8F8F8F8F4F4F4F4F8F8F8F4F8F8F880
:1050C400F8F8F8F8F8F8F8F8F8F8F8F8F8F8F8F85C
:1050D400F8F8F8F8F8F8F8F8F8F8F8F8F8F4F4F458
:1050E400F4F4F4F4F8F8F4F4F4F4F4F4F4D4B0903C
:1050F4008C90707088888888888868444448484CB4
:105104002C2C2C2C2C2C2C2C2C2C2C2C2C2C2C2CDB
:105114002C4C4C48484848688CB0D4F8F4F8F4F463
:10512400F4F4F8F8F8F8F8F8F8F8F8F8F8F8F8F803
:10513400F8F8F8F8F8F8F8F8F8F8F8F8F8F8F8F8EB
:10514400F8F8F8F8F8F8F8F8F8F8F8F8F8F8F8F8DB
:10515400F8F8F8F8F8F8F8F8F8F8F8F8F8F8F8F4CF
:10516400F4F4F4F4F4F4F4F4F8F4F4F4F4F4D0B05F
:105174008C6C6C6C70708888888888886844444813
:10518400482C2C2C2C2C2C2C2C2C2C2C2C2C2C2C3F
:105194002C2D2D4D4C4C48484848688CD0F4F4F8DC
:1051A400F4F8F4F4F8F8F4F8F8F8F8F8F8F8F8F88B
:1051B400F8F8F8F8F8F8F8F8F8F8F8F8F8F8F8F86B
:1051C400F8F8F8F8F8F8F8F8F8F8F8F8F8F8F8F85B
:1051D400F8F8F8F8F8F8F8F8F8F8F8F8F8F8F8F84B
:1051E400F4F4F8F4F8F8F4F4F4F4F4F4F5F5D4B0D1
:1051F4008C8C6C6C4C4C4C4C8888888888886444B3
:105204004448482C2C2C2C2C2C2C2C2C2C2D2D2D87
:105214002D2D2D2D2D2D4D484848484848688CD4B7
:10522400D5F9F8F4F4F4F4F4F4F8F8F8F8F8F8F834
:10523400F8F8F8F8F8F8F8F8F8F8F8F8F8F8F8F8EA
:10524400F8F8F8F8F8F8F8F8F8F8F8F8F8F8F8F8DA
:10525400F8F8F8F8F8F8F8F8F8F8F8F8F8F8F8F8CA
:10526400F8F4F8F8F4F8F4F8F8F8F8F8F4F5F5D4F4
:10527400B08C6C6C6C4C4C4C4C4C8888888888681E
:1052840064444848482C2C2C2C2C2C282C2C2C2CBA
:105294002D2D2D2D2D2D2D2D2828484848484848A2
:1052A400688CD4F5F4F4F4F4F4F4F8F8F8F8F8F8B5
:1052B400F8F8F8F8F8F8F8F8F8F8F8F8F8F8F8F86A
:1052C400F8F8F8F8F8F8F8F8F8F8F8F8F8F8F8F85A
:1052D400F8F8F8F8F8F8F8F8F8F8F8F8F8F8F8F84A
:1052E400F8F8F8F8F8F4F4F4F4F8F8F8F8F4F5D574
:1052F400D4B08C6C6C4C4C4C4C4C2C2C89888888CD
:105304008868444448482C2C2C2C2C2C28282828E9
:10531400282C2C2D2D2D2D2D2D2929292848484880
:1053240048484868ACD0D4D4D4D4D4F4F8F8F8F8C5
:10533400F8F8F8F8F8F8F8F8F8F8F8F8F8F8F8F8E9
:10534400F8F8F8F8F8F8F8F8F8F8F8F8F8F8F8F8D9
:10535400F8F8F8F8F8F8F8F8F8F8F8F8F8F8F8F8C9
:10536400F8F8F8F8F8F8F4F4F4F4F4F4F4F4F4D401
:10537400D5B4B08C6C6C4C4C4C2C2C2C2C2C8988BB
:1053840088888868444448482C2C2C2D2C282828AC
:1053940028282828282D2D29292929292929282878
:1053A400484848484848688CB0D0B0D0D4F4F8F89D
:1053B400F8F8F8F8F8F8F8F8F8F8F8F8F8F8F8F869
:1053C400F8F8F8F8F8F8F8F8F8F8F8F8F8F8F8F859
:1053D400F8F8F8F8F8F8F8F8F8F8F8F8F8F8F8F849
:1053E400F8F8F8F8F8F8F8F8F8F4F4F4F4F4F8F451
:1053F400F4D4B0908C6C484C4C4C4C2C2C2C2C2C55
:105404008988888868644444484C4C2D2D2D2C2868
:105414002828282828282828282829292929292902
:10542400282828484848484848688CACACD0D4F46C
:10543400F8F8F8F8F8F8F8F8F8F8F8F8F8F8F8F8E8
:10544400F8F8F8F8F8F8F8F8F8F8F8F8F8F8F8F8D8
:10545400F8F8F8F8F8F8F8F8F8F8F8F8F8F8F8F8C8
:10546400F8F8F8F8F8F8F8F8F8F8F4F4F4F4F4F4D0
:10547400F8F4D4B0906C6C6C4C4C4C4C4C2C2C2CE4
:105484002C2C8988888868444448484D4D2D2D2DFE
:105494002828282828282828282828282828292986
:1054A400282828282848484848484844688CB0D4C4
:1054B400F4F4F8F8F8F8F8F8F8F8F8F8F8F8F8F870
:1054C400F8F8F8F8F8F8F8F8F8F8F8F8F8F8F8F858
:1054D400F8F8F8F8F8F8F8F8F8F8F8F8F8F8F8F848
:1054E400F8F8F8F8F8F8F8F8F8F8F8F4F4F4D4D48C
:1054F400D4F4D4D4B08C6C6C6C4C4C4C4C4C4C2CC4
:105504002C2C2C2C8888888868444448484C2C2CA3
:105514002D2D2828282828282828282828282828FD
:105524002929282828282828484848484844688C95
:10553400D0D4F4F4F8F8F8F8F8F8F8F8F8F8F8F83B
:10554400F8F8F8F8F8F8F8F8F8F8F8F8F8F8F8F8D7
:10555400F8F8F8F8F8F8F8F8F8F8F8F8F8F8F8F8C7
:10556400F8F8F8F8F8F8F8F8F8F8F8F8F8F8F4F4BF
:10557400D0D0D0D4D0B08C6C6C4C4C4C4C4C4C4CEB
:105584002C2C2C2C2C2C8888888868444448482847
:105594002828282828282828282828282828282887
:1055A40028282828282828282828284848484844DB
:1055B40068ACD4F4F4F4F8F8F8F8F8F8F8F8F8F873
:1055C400F8F8F8F8F8F8F8F8F8F8F8F8F8F8F8F857
:1055D400F8F8F8F8F8F8F8F8F8F8F8F8F8F8F8F847
:1055E400F8F8F8F8F8F8F8F8F8F8F8F8F8F8F8F837
:1055F400F4F4D0D0B0B08C8C6C6C6C4C4C4C4C4CE7
:105604004C2C2C2C2C2C2C2C8888888864444448C2
:105614002828282828282828282828282828282806
:1056240028282828282828282828282828284848B6
:10563400484468B0D4F4F8F8F8F8F8F8F8F8F8F84A
:10564400F8F8F8F8F8F8F8F8F8F8F8F8F8F8F8F8D6
:10565400F8F8F8F8F8F8F8F8F8F8F8F8F8F8F8F8C6
:10566400F8F8F8F8F8F8F8F8F8F8F8F8F8F8F8F8B6
:10567400F8F8F4F4D4D0AC8C886868684C4C4C4C82
:105684004C4C2C2C2C2C2C2C2C2C888888684424B6
:10569400242828282828282828282828282828288A
:1056A4002828282828282828282828282828282876
:1056B400484848488CD0F5F8F8F8F8F8F8F8F8F8BD
:1056C400F8F8F8F8F8F8F8F8F8F8F8F8F8F8F8F856
:1056D400F8F8F8F8F8F8F8F8F8F8F8F8F8F8F8F846
:1056E400F8F8F8F8F8F8F4F8F8F8F8F8F8F8F8F83A
:1056F400F8F8F8F8F4F4D4D0AC886868684C4C4CEA
:105704004C4C2C2C2C2C2C2C2C2C2C2C8888886845
:1057140044242828282828282828282828282828ED
:105724002828282829282828282828282424242800
:105734002828484848688CD4F9F8F8F8F8F8F8F8B4
:10574400F4F8F4F4F8F8F8F8F8F8F8F8F8F8F8F8E1
:10575400F8F8F8F8F8F8F8F8F8F8F8F8F8F8F8F4C9
:10576400F8F8F8F8F8F8F4F4F4F8F8F8F8F8F8F8C1
:10577400F8F8F8F8F8F8F8F8F4D4B08C6868684CDD
:105784004C4C4C2C2C2C2C2C2C2C2C2C2C2C88883D
:105794006844442428282828282828282828282811
:1057A4002828282828282828282828280804040401
:1057B400042428484848486CB0D5F9F8F8F8F8F8B3
:1057C400F8F4F4F4F4F4F4F8F8F8F8F8F8F8F8F86D
:1057D400F8F8F8F8F8F8F8F8F8F8F8F8F8F8F8F845
:1057E400F8F8F8F8F8F8F4F4F4F4F4F4F4F4F4F859
:1057F400F8F8F8F8F8F8F8F8F8F8F4F4D08C6868E1
:10580400684C4C4C4C2C2C2C2C2C2C2C2C2C2C2C18
:1058140088886844442428282828282828282828D0
:10582400282828282828282828282828280804045C
:105834000404042828484848488CB0D5F8F8F8F8F7
:10584400F8F4F4F4F4F4F4F4F4F4F8F8F8F8F8F8F8
:10585400F8F8F8F8F8F8F8F8F8F8F8F8F8F8F8F8C4
:10586400F8F8F8F8F8F8F8F4F4F4D4D4D4D4D4F478
:10587400F4F4F8F8F8F8F8F8F8F8F8F4F4F4D4B024
:105884006868684C4C4C4C2C2C2C2C2C2C2C2C2C20
:105894002C2C898868442428482828282828282843
:1058A4002828282828282828282828282828280498
:1058B40004040404242828484848488CD4F4F4F800
:1058C400F8F8F8F4F4D4D4D4D0D0D0D4F4F4F8F86C
:1058D400F8F8F8F8F8F8F8F8F8F8F8F8F8F8F8F844
:1058E400F8F8F8F8F8F8F8F8F4F4D4D0D0B0ACAC90
:1058F400B0D0D4F4F4F8F8F8F8F8F8F8F8F8F8F4C4
:10590400D4B08C68684C4C4C4C2C2C2C2C2C2C2C4F
:105914002C2C2C2C896864442448482828282828BE
:1059240028282828282828282828282828282828F3
:1059340028040404040428284848484868B0D4F4D7
:10594400F4F8F8F8F4F4D4D0D0B0AC8C88ACD0F43B
:10595400F4F8F8F8F8F8F8F8F8F8F8F8F8F8F8F8C7
:10596400F8F8F8F8F8F8F8F8F8F8F4D4D0B0B0ACDF
:10597400888888ACD0D4F4F8F8F8F8F8F8F8F8F88F
:10598400F8F8F4D4B06C484C4C4C4C2C2C2C2C2CEB
:105994002C2C2C2C2C2C8868444444484828282837
:1059A4002828282828282828282828282828282873
:1059B40028282804040404242828484848486CB0AB
:1059C400D4F4F4F8F4F4F4F4D4B0B0B0AC8864884B
:1059D400ACD0F4F8F8F8F8F8F8F8F8F8F8F8F8F8BB
:1059E400F8F8F8F8F8F8F8F8F8F8F4F4F4D4B0D0D3
:1059F400D1D188646488ACD0F4F4F8F8F8F8F8F8F5
:105A0400F8F8F8F8F4D4B06C4C4C4C4C4C2C4C4C8E
:105A14004C2C2C2C2C2C2C2C8868442448484828AA
:105A240028282828282828282828282828292828F1
:105A34002828282828282828282828484848484842
:105A44008CB4F4F4F4F8F8F8F4F4D0B0B0D1D0880D
:105A5400646488B0D4F8F8F8F8F8F8F8F8F8F8F8C6
:105A6400F8F8F8F8F8F8F8F8F8F8F8F8F4F4F4D0E6
:105A7400B0D0F5F5AC64646488B0D4F4F8F8F8F800
:105A8400F8F8F8F8F8F4F4F5D48C68484C4C4C4C1D
:105A94004C4C4C5050505050505088684424284826
:105AA4004828282828282828282828282828282951
:105AB4002828282828282828282828282C4C4C48F6
:105AC40048688CD4F4F4F8F8F8F8F4D4D0ACACD139
