:020000040800F2
:10000000FC34012089010008E5010008E501000831
:10001000E5010008E5010008E50100080000000016
:10002000000000000000000000000000E5010008E2
:10003000E501000800000000E5010008E5010008F6
:10004000E5010008E5010008E5010008E5010008F8
:10005000E5010008E5010008E5010008E5010008E8
:10006000E5010008E5010008E5010008E5010008D8
:10007000E5010008E5010008E5010008E5010008C8
:10008000E5010008E5010008E5010008E5010008B8
:10009000E5010008E5010008E5010008E5010008A8
:1000A000E5010008E5010008E5010008E501000898
:1000B00039120008E5010008E5010008E501000823
:1000C000E5010008E5010008E5010008E501000878
:1000D000E5010008E5010008E5010008E501000868
:1000E000E5010008E5010008E5010008E501000858
:1000F000E5010008E5010008E5010008E501000848
:10010000E5010008E5010008E5010008E501000837
:10011000E5010008E5010008E5010008E501000827
:10012000E5010008E5010008E5010008E501000817
:10013000E5010008E5010008E5010008E501000807
:10014000E5010008E5010008E5010008E5010008F7
:10015000F1120008E5010008E5010008E5010008CA
:10016000E5010008E5010008E5010008E5010008D7
:10017000E5010008E5010008E5010008E5010008C7
:10018000E5010008E501000880B582B000AF104B22
:100190007B60104B3B6007E03B681A1D3A607A6851
:1001A000111D796012681A603A680B4B9A42F3D3BA
:1001B0000A480B494FF000028842B8BF40F8042BB0
:1001C000FFF6FAAF00F014F80837BD4680BD00BF57
:1001D000242900080000002000000020000000206A
:1001E000FC2C012080B400AFFEE700BF000000003F
:1001F00090B58DB002AF00F0BFFB00F067FE0020AD
:1002000000F0A4FE0A200A210A2200F0C3FE6420A6
:1002100064210A2200F0BEFE4FF07E53FB61F869B4
:100220004FF0000102F054FB0346002B00D1F3E72E
:100230004FF000033B62F7E04FF000037B62D7E032
:1002400007F1140307F11002009207F10C0201926A
:10025000786A396AFA6900F073F93B7A5B08DBB2B5
:100260001A467B691344FF2B06DC3B7A5B08DBB242
:100270001A467B6913447B613B795B08DBB21A4603
:100280003B691344FF2B06DC3B795B08DBB21A4663
:100290003B6913443B613B785B08DBB21A46FB6861
:1002A0001344FF2B06DC3B785B08DBB21A46FB6885
:1002B0001344FB607A69664B1340002B03DA013B61
:1002C00063F01F030133DAB27B7A1344DBB23B7273
:1002D0007A695F4B1340002B03DA013B63F01F0385
:1002E0000133DBB27B723A69594B1340002B03DABE
:1002F000013B63F01F030133DAB27B791344DBB2B5
:100300003B713A69524B1340002B03DA013B63F017
:100310001F030133DBB27B71FA684E4B1340002B95
:1003200003DA013B63F03F030133DAB27B78134415
:10033000DBB23B70FA68474B1340002B03DA013BFA
:1003400063F03F030133DBB27B707B695B117B6140
:100350003B695B113B61FB689B11FB607B69FB7632
:10036000FB7EDB00FB763B69DAB2FB7E1344FB7657
:10037000FB7E9B00FB76FB68DAB2FB7E1344FB76C8
:10038000786A01F055FC02460B46104619462CA32C
:10039000D3E9002301F0A0FC02460B4610461946A3
:1003A00001F05CFF03469CB2386A2B4902F0D4F896
:1003B0000346184602F096FA03469AB2FB7E2046A0
:1003C00011461A4600F0E6FD786A01F031FC02465B
:1003D0000B46104619461AA3D3E9002301F0CAFAC6
:1003E00002460B461046194601F058FF03467B6251
:1003F000786A1A4902F04EFA0346002B7FF420AFC8
:10040000386A01F015FC02460B46104619460EA349
:10041000D3E9002301F0AEFA02460B461046194616
:1004200001F03CFF03463B62386A4FF07E5102F018
:1004300031FA0346002B7FF4FFAEFEE7AFF30080F6
:100440007B14AE47E17AEC3F111111111111713F8C
:100450001F0000803F000080000070430000B44394
:1004600080B483B000AF78600B46FB70FB78002B44
:1004700006D0094B084A116B7A680A431A6306E0F2
:10048000054B054A116B7A68D2430A401A630C3750
:10049000BD465DF8047B70470038024080B483B0ED
:1004A00000AF78600B46FB70FB78002B06D0094B41
:1004B000084A116C7A680A431A6406E0054B054A3B
:1004C000116C7A68D2430A401A640C37BD465DF855
:1004D000047B70470038024080B483B000AF78607E
:1004E0000B46FB70FB78002B06D0094B084A516C79
:1004F0007A680A435A6406E0054B054A516C7A68EB
:10050000D2430A405A640C37BD465DF8047B7047FD
:100510000038024080B483B000AF78607B68002B65
:1005200001DA002305E07B68FF2B01DDFF2300E0FB
:100530007B6818460C37BD465DF8047B704700BFEA
:1005400080B58EB000AFF860B9607A603B60FB6840
:100550007B6305E0786B9C4901F0F6FE03467B6304
:10056000786B4FF0000102F095F90346002BF1D1B2
:1005700005E0786B944901F0E5FE03467B63786BF8
:10058000914902F09BF90346002BF2D178684FF0B5
:10059000000102F089F90346002B07D04FF0000359
:1005A000BB62BB6AFB62FB6A3B63BAE0B8684FF0B0
:1005B000000102F079F90346002B06D07B68BB628C
:1005C000BB6AFB62FB6A3B63ABE0786B7F4902F07E
:1005D00077F803467B62786A01F02AFB02460B46F5
:1005E0001046194601F030F902460B4610461946EE
:1005F00001F00CFE03463B62386A01F059FF0346E6
:10060000786A194601F09EFE0346FB614FF07E506A
:10061000B96801F097FE03461846796801F09CFF1F
:100620000346BB61B868F96901F096FF03464FF0D5
:100630007E50194601F086FE03461846796801F09F
:100640008BFF03467B614FF07E50F96901F07AFE23
:1006500003461846B96801F07FFF03464FF07E500D
:10066000194601F06FFE03461846796801F074FFE1
:1006700003463B613B6A0133072B4BD801A252F87A
:1006800023F000BF07070008A5060008B30600080E
:10069000C1060008CF060008DD060008EB060008CA
:1006A000F90600087B683B633B69FB62BB69BB6280
:1006B00037E07B693B637B68FB62BB69BB6230E010
:1006C000BB693B637B68FB623B69BB6229E0BB693A
:1006D0003B637B69FB627B68BB6222E03B693B63F7
:1006E000BB69FB627B68BB621BE07B683B63BB69E9
:1006F000FB627B69BB6214E07B683B633B69FB6226
:10070000BB69BB620DE07B683B63BB69FB627B69D5
:10071000BB6206E07B68BB62BB6AFB62FB6A3B6351
:1007200000BF386B01F084FA02460B4610461946AA
:1007300023A3D3E9002301F0CFFA02460B4610466B
:10074000194601F063FD03461846FFF7E3FE024633
:100750003B681A60F86A01F06BFA02460B461046D5
:10076000194617A3D3E9002301F0B6FA02460B4657
:100770001046194601F04AFD03461846FFF7CAFE27
:1007800002463B6C1A60B86A01F052FA02460B4608
:10079000104619460AA3D3E9002301F09DFA024648
:1007A0000B461046194601F031FD03461846FFF787
:1007B000B1FE02467B6C1A603837BD4680BD00BF73
:1007C0000000000000E06F400000B44300007042F1
:1007D00080B487B000AF7860396000237B6100236C
:1007E0003B610023FB6000237B6176E07B69012293
:1007F00002FA03F33B613B681A683B691340FB60F4
:10080000FA683B699A4265D17B681A687B695B002C
:10081000032101FA03F3DB431A407B681A607B680B
:100820001A683B681B7919467B695B0001FA03F380
:100830001A437B681A603B681B79012B03D03B6825
:100840001B79022B2ED17B689A687B695B000321A0
:1008500001FA03F3DB431A407B689A607B689A686D
:100860003B685B7919467B695B0001FA03F31A4325
:100870007B689A607B685A687B699BB2012101FAA8
:1008800003F3DB431A407B685A607B685A683B6815
:100890009B7919467B699BB201FA03F39BB21A4319
:1008A0007B685A607B68DA687B699BB25B000321D6
:1008B00001FA03F3DB431A407B68DA607B68DA688D
:1008C0003B68DB7919467B695B0001FA03F31A4345
:1008D0007B68DA607B6901337B617B690F2B85D98B
:1008E0001C37BD465DF8047B704700BF80B485B0FF
:1008F00000AF786013460A467A807B700023FB6065
:100900000023BB607A787B8803F007039B0002FA20
:1009100003F3FB607B88DB089BB21A467B88DB080D
:100920009BB219467B68083153F821107B8803F08D
:1009300007039B000F2000FA03F3DB4319407B6899
:10094000083243F822107B88DB089BB21A467B688A
:10095000083253F82220FB681343BB607B88DB0816
:100960009BB21A467B680832B96843F822101437E4
:10097000BD465DF8047B704780B500AF114B114A4E
:10098000126842F001021A600E4B00229A600D4A72
:100990000C4B1B6823F0847323F480331360094BE2
:1009A000094A5A60074B074A126822F480221A60EB
:1009B000044B0022DA6000F00BF8044B4FF00062A9
:1009C0009A6080BD003802401030002400ED00E045
:1009D00080B483B000AF00237B6000233B60354BC5
:1009E000344A126842F480321A60324B1B6803F4B6
:1009F00000333B607B6801337B603B68002B03D195
:100A00007B68B3F5A06FF0D12A4B1B6803F4003369
:100A1000002B02D001233B6001E000233B603B68D8
:100A2000012B42D1234B234A126C42F080521A64AC
:100A3000214B214A126842F480421A601D4B1D4A24
:100A400092689A601B4B1B4A926842F400429A607B
:100A5000184B184A926842F4A0529A60154B174AF4
:100A60005A60144B134A126842F080721A6000BF39
:100A7000104B1B6803F00073002BF9D0104B40F2B1
:100A800005621A600B4B0B4A926822F003029A60CF
:100A9000084B084A926842F002029A6000BF054B78
:100AA0009B6803F00C03082BF9D10C37BD465DF8A9
:100AB000047B704700380240007000400854400733
:100AC000003C024080B483B000AF78607B681B6854
:100AD00023F001027B681A607B6800221A607B6841
:100AE00000225A607B6800229A607B680022DA60EC
:100AF0007B6800221A617B6821225A617A68454B23
:100B00009A4203D1444B3D229A607EE07A68434B7F
:100B10009A4204D1404B4FF474629A6075E07A684F
:100B20003F4B9A4204D13C4B4FF474129A606CE0F4
:100B30007A683C4B9A4204D1374B4FF074629A600A
:100B400063E07A68384B9A4203D1334B374ADA6014
:100B50005BE07A68364B9A4203D12F4B354ADA6014
:100B600053E07A68344B9A4203D12B4B334ADA6014
:100B70004BE07A68324B9A4204D1274B4FF03D52FA
:100B8000DA6042E07A682F4B9A4203D12E4B3D2225
:100B90009A603AE07A682D4B9A4204D12A4B4FF47E
:100BA00074629A6031E07A68294B9A4204D1264BEC
:100BB0004FF474129A6028E07A68264B9A4204D166
:100BC000214B4FF074629A601FE07A68224B9A4280
:100BD00003D11D4B154ADA6017E07A681F4B9A4221
:100BE00003D1194B134ADA600FE07A681C4B9A4222
:100BF00003D1154B114ADA6007E07A68194B9A4223
:100C000003D1114B4FF03D52DA600C37BD465DF811
:100C1000047B704710600240006002402860024080
:100C20004060024058600240706002403D00002079
:100C300088600240400F0020A060024000003D207C
:100C4000B860024010640240006402402864024020
:100C5000406402405864024070640240886402406C
:100C6000A0640240B864024080B485B000AF7860F0
:100C700039600023FB607B681B68FB60FA68244BCB
:100C80001340FB603B681A683B68DB681A433B68AB
:100C90005B691A433B689B691A433B68DB691A43EB
:100CA0003B681B6A1A433B685B6A1A433B689B6A52
:100CB0001A433B685B6B1A433B689B6B1343FA68B0
:100CC0001343FB607B68FA681A607B685B69FB60B2
:100CD000FB6823F00703FB603B68DA6A3B681B6B29
:100CE0001343FA681343FB607B68FA685A613B68F8
:100CF0001A697B685A603B685A687B689A603B68EF
:100D00009A687B68DA601437BD465DF8047B7047EB
:100D10003F801CF080B483B000AF78600B46FB705E
:100D2000FB78002B06D07B681B6843F001027B68D0
:100D30001A6005E07B681B6823F001027B681A607B
:100D40000C37BD465DF8047B704700BF80B485B0AA
:100D500000AFF860B9601346FB71BB6803F0800315
:100D6000002B0FD0FB79002B06D0FB685B6943F0AA
:100D70008002FB685A6105E0FB685B6923F0800232
:100D8000FB685A61BB68802B14D0FB79002B08D01C
:100D9000FB681A68BB6803F01E031A43FB681A60FD
:100DA00008E0FB681A68BB6803F01E03DB431A40C7
:100DB000FB681A601437BD465DF8047B704700BFBE
:100DC00080B487B000AF786039600023FB750023E2
:100DD000FB600023BB607A68224B9A4202D8224B08
:100DE0003B6101E0214B3B613B6823F0F02323F0A2
:100DF000C313002B0AD03B68DB0A03F01E03FB6021
:100E00007B681A68FB681340BB6004E07B685B6921
:100E100003F08003BB603B6803F00053002B03D05A
:100E20003B695B68FB6002E03B691B68FB60FB6839
:100E300023F0F02323F08213FB60FA683B68134031
:100E4000002B05D0BB68002B02D00123FB7501E00D
:100E50000023FB75FB7D18461C37BD465DF8047BFF
:100E6000704700BF0F64024000600240006402400F
:100E700080B485B000AF786039607A68104B9A42D0
:100E800002D8104BFB6001E00F4BFB603B6803F0A6
:100E90000053002B07D03B6823F0F02323F082138C
:100EA000FA68D36006E03B6823F0F02323F0821356
:100EB000FA6893601437BD465DF8047B704700BF45
:100EC0000F640240006002400064024080B582B0BE
:100ED00000AF1B4B00221A80194B00225A60184B9E
:100EE00000229A600023BB8017E00023FB800DE006
:100EF000BA8813469B0013449B011A44FB88134491
:100F0000104A0021D154FB880133FB80FB88B3F5E4
:100F1000A07FEDD9BB880133BB80BB88EF2BE4D920
:100F200000F05EF800F0B0F800F03EF900F010F9C3
:100F3000054B1A68024B9A600837BD4680BD00BF5A
:100F4000000000200C0000208864024080B584B0BE
:100F500000AF0346FB710023BB8114E00023FB813B
:100F60000AE0F989BA89FB79084611461A4600F069
:100F700011F8FB890133FB81FB89B3F5A07FF0D326
:100F8000BB890133BB81BB89EF2BE7D91037BD4645
:100F900080BD00BF80B483B000AF13460246FA8024
:100FA0000A46BA80FB70FB88B3F5A07F01D300230B
:100FB000FB80BB88EF2B01D90023BB80BA88134686
:100FC0009B0013449B011A44FB881344034AF9789D
:100FD000D1540C37BD465DF8047B70470C000020EF
:100FE00080B582B000AF10200121FFF739FA4FF42D
:100FF0007F433B6001233B710023BB710123FB71E5
:1010000003237B713B461E481946FFF7E1FB1C4B4F
:101010004FF47F425A8302200121FFF721FA4FF457
:1010200000633B6002233B7103237B710023BB7190
:101030000123FB713B4613481946FFF7C9FB1148D2
:101040000B210122FFF752FC02200121FFF708FAD1
:101050004FF480533B6001233B710023BB7101239C
:10106000FB7103237B713B4606481946FFF7B0FB33
:10107000044B4FF480521A830837BD4680BD00BF31
:10108000001002400004024080B588B000AF01208B
:101090000121FFF721FA0B23BB610023BB82002350
:1010A000BB830023FB8207F114032848194600F094
:1010B000A3F901200121FFF7F1F940F66B23BB6191
:1010C0000023BB820023BB830023FB8207F11403B0
:1010D0004FF08040194600F08FF960233B800123D8
:1010E0007B804FF4D273BB600223BB813B464FF041
:1010F0008040194600F02AFA4FF08040082100F0A5
:1011000011FB60233B8001237B804FF4A073BB6005
:101110000223BB813B464FF08040194600F09CFA09
:101120004FF08040082100F019FB0848012100F031
:10113000CDF94FF08040012100F0C8F94FF0804018
:10114000012100F0E3F92037BD4680BD00000140D9
:1011500080B582B000AF134810210122FFF7F6FDE1
:1011600044233B7100237B710023BB710123FB717E
:101170003B1D184600F0E2F84FF0804008210122A4
:1011800000F00AFB1C233B7100237B710023BB7121
:101190000123FB713B1D184600F0D0F80837BD460F
:1011A00080BD00BF8864024080B590B000AF4FF4AE
:1011B00080000121FFF754F91B480021FFF7AAFD29
:1011C0001948FFF77FFC4FF040637B60174BBB6013
:1011D000174BFB6040233B6140F241137B610023CE
:1011E000BB614FF48063FB6100233B6200237B62A1
:1011F0000023BB624FF44033FB6200233B630123B7
:101200007B630023BB630023FB633B1D0648194639
:10121000FFF72AFD07484FF48071012200F0F0FA31
:101220004037BD4680BD00BF8864024015100240B3
:101230000C0000200000014080B500AF4FF080405E
:10124000082100F0CDFA254B1B8801339AB2234BBD
:101250001A80224B1B88B3F5037F05D91F4B002250
:101260001A801F4A1D4B5A601C4B1B88012B04D847
:101270001C4B4FF480525A8303E01A4B4FF48052B8
:101280001A83164B1B88232B27D9144B1A8840F23C
:1012900002239A4221D8144B104A92681A60124BCA
:1012A0000E4A5268DA60114B104A128892B242F02C
:1012B000010292B21A800C4B0B4A126842F00102F2
:1012C0001A60064B1B8803F00103002B05D0034B6B
:1012D0005B6803F24112014B5A6080BD00000020A0
:1012E0000C0000200004024088640240000001401D
:1012F00080B500AF0D480E49FFF762FD0346002B95
:1013000012D00A480A49FFF7B3FD0A4B094A12886E
:1013100092B222F0010292B21A80044B00221A60AB
:10132000054B4FF47F425A8380BD00BF8864024062
:1013300000880020000001400010024080B485B009
:1013400000AF78600023FB730023BB730F237B7314
:101350007B68DB78002B37D0254BDB68DB4303F45D
:10136000E0631B0AFB73FB7BC3F10403BB737A7B53
:10137000FB7B42FA03F37B737B685B781A46BB7B8B
:1013800002FA03F3FB737B689A787B7B1340DAB233
:10139000FB7B1343FB73FB7B1B01FB73154A7B68D1
:1013A0001B781344FA7B83F80023124B7A68127877
:1013B0005209D2B27968097801F01F01012000FAC0
:1013C00001F143F822100EE00A4B7A6812785209B4
:1013D000D2B27968097801F01F01012000FA01F109
:1013E000203243F822101437BD465DF8047B704765
:1013F00000ED00E000E100E080B485B000AF78606F
:1014000039600023FB817B681B88FB817A68284B4D
:101410009A4213D07A68274B9A420FD07B68B3F177
:10142000804F0BD07A68244B9A4207D07A68234BBE
:101430009A4203D07A68224B9A4208D1FB8923F062
:101440007003FB813B685A88FB891343FB817A68F0
:101450001C4B9A420CD07A681B4B9A4208D0FB89ED
:1014600023F44073FB813B681A89FB891343FB819A
:101470007B68FA891A803B685A687B68DA623B6845
:101480001A887B681A857A68094B9A4203D07A6871
:10149000084B9A4204D13B689B7A1A467B681A86AD
:1014A0007B6801229A821437BD465DF8047B704741
:1014B000000001400004014000040040000800401A
:1014C000000C0040001000400014004080B483B0C5
:1014D00000AF78600B46FB70FB78002B08D07B6870
:1014E0001B889BB243F080039AB27B681A8007E0A6
:1014F0007B681B889BB223F080039AB27B681A80BA
:101500000C37BD465DF8047B704700BF80B483B0E4
:1015100000AF78600B46FB70FB78002B08D07B682F
:101520001B889BB243F001039AB27B681A8007E0E4
:101530007B681B889BB223F001039AB27B681A80F8
:101540000C37BD465DF8047B704700BF80B485B0A2
:1015500000AF7860396000237B810023FB8100238A
:10156000BB817B681B8C9BB223F480739AB27B682F
:101570001A847B681B8CFB817B689B88BB817B68A2
:101580009B8B7B817B8923F070037B817B8923F09C
:1015900003037B813B681A887B8913437B81FB892A
:1015A00023F40073FB813B689B891B029AB2FB8981
:1015B0001343FB813B685B881B029AB2FB89134390
:1015C000FB817A68224B9A4203D07A68214B9A4277
:1015D0002BD1FB8923F40063FB813B68DB891B0271
:1015E0009AB2FB891343FB81FB8923F48063FB815F
:1015F0003B689B881B029AB2FB891343FB81BB8922
:1016000023F48053BB81BB8923F40053BB813B6827
:101610001B8A1B019AB2BB891343BB813B685B8A5F
:101620001B019AB2BB891343BB817B68BA899A803C
:101630007B687A899A833B689A687B68DA637B68FF
:10164000FA891A841437BD465DF8047B704700BFE1
:10165000000001400004014080B485B000AF786014
:1016600039600023BB8100237B810023FB817B68E1
:101670001B8C9BB223F480539AB27B681A847B68DC
:101680001B8C7B817B689B88FB817B689B8BBB81F0
:10169000BB8923F4E043BB81BB8923F44073BB8146
:1016A0003B681B881B029AB2BB891343BB817B89B1
:1016B00023F400537B813B689B891B039AB27B898F
:1016C00013437B813B685B881B039AB27B8913437E
:1016D0007B817A68114B9A4203D07A68104B9A4208
:1016E0000AD1FB8923F48043FB813B681B8A9B0161
:1016F0009AB2FB891343FB817B68FA899A807B68E5
:10170000BA899A833B689A687B681A647B687A898D
:101710001A841437BD465DF8047B70470000014011
:101720000004014080B485B000AF78600B467B8038
:101730000023FB817B689B8BFB81FB8923F00803E3
:10174000FB81FA897B881343FB817B68FA899A8342
:101750001437BD465DF8047B704700BF80B485B088
:1017600000AF78600B467B800023FB817B689B8BFE
:10177000FB81FB8923F40063FB817B881B029AB207
:10178000FB891343FB817B68FA899A831437BD4632
:101790005DF8047B704700BF80B483B000AF786011
:1017A00013460A467A807B707B78002B08D07B68D2
:1017B0009B899AB27B8813439AB27B689A8109E02D
:1017C0007B689B899AB27B88DB439BB213409AB2B9
:1017D0007B689A810C37BD465DF8047B704700BF7B
:1017E00080B483B000AF78600B467B807B88DB439E
:1017F0009AB27B681A820C37BD465DF8047B70474D
:1018000080B483B000AF786013460A467A807B705C
:101810007B78002B08D07B689B899AB27B88134326
:101820009AB27B689A8109E07B689B899AB27B882F
:10183000DB439BB213409AB27B689A810C37BD465A
:101840005DF8047B704700BF2DE9F84FC1F30A57DC
:10185000A7F2FF36132E02460B4604460D46894674
:101860008A4680461CDC002E40DB3D4F374107EAAC
:10187000010C5CEA000C18D037A3D3E9002300F078
:1018800079F80022002300F0B7FC28B1002D42DBDC
:101890002AEA07094FF0000840464946BDE8F88F9C
:1018A000332E06DDB6F5806F31D010461946BDE8FF
:1018B000F88FA7F2134C4FF0FF3B2BFA0CFB1BEAFF
:1018C000000FF2D024A3D3E9002300F053F8002244
:1018D000002300F091FC0028DED0002D22DB28EA56
:1018E0000B08D14640464946BDE8F88F1AA3D3E914
:1018F000002300F03FF80022002300F07DFC0028C8
:10190000CAD0002D1CDB4FF00008C146C4E700F030
:1019100031F8BDE8F88F4FF4801A4AFA06F606EB64
:10192000050AB5E7142E14D0C7F5866701230337DF
:1019300003FA07F717EB040828BF05EB030ACEE705
:1019400025F00042074B224318BF99464FF000088C
:10195000A2E705F1010AC2E79C7500883CE4377EE6
:10196000FFFF0F000000F0BF81F0004102E000BF68
:1019700083F0004330B54FEA41044FEA430594EA4F
:10198000050F08BF90EA020F1FBF54EA000C55EA8A
:10199000020C7FEA645C7FEA655C00F0E2804FEA5B
:1019A0005454D4EB5555B8BF6D420CDD2C4480EA3D
:1019B000020281EA030382EA000083EA010180EA6D
:1019C000020281EA0303362D88BF30BD11F0004FBB
:1019D0004FEA01314FF4801C4CEA113102D04042F1
:1019E00061EB410113F0004F4FEA03334CEA13332C
:1019F00002D0524263EB430394EA050F00F0A78044
:101A0000A4F10104D5F1200E0DDB02FA0EFC22FA3E
:101A100005F2801841F1000103FA0EF2801843FA32
:101A200005F359410EE0A5F120050EF1200E012A23
:101A300003FA0EFC28BF4CF0020C43FA05F3C01861
:101A400051EBE37101F0004507D54FF0000EDCF1DA
:101A5000000C7EEB00006EEB0101B1F5801F1BD383
:101A6000B1F5001F0CD349085FEA30004FEA3C0C87
:101A700004F101044FEA445212F5800F80F09A807D
:101A8000BCF1004F08BF5FEA500C50F1000041EB81
:101A9000045141EA050130BD5FEA4C0C404141EB85
:101AA000010111F4801FA4F10104E9D191F0000FAC
:101AB00004BF01460020B1FA81F308BF2033A3F12F
:101AC0000B03B3F120020CDA0C3208DD02F1140C26
:101AD000C2F10C0201FA0CF021FA02F10CE002F161
:101AE0001402D8BFC2F1200C01FA02F120FA0CFC5A
:101AF000DCBF41EA0C019040E41AA2BF01EB0451A3
:101B0000294330BD6FEA04041F3C1CDA0C340EDCA0
:101B100004F11404C4F1200220FA04F001FA02F3E3
:101B200040EA030021FA04F345EA030130BDC4F1A1
:101B30000C04C4F1200220FA02F001FA04F340EA96
:101B40000300294630BD21FA04F0294630BD94F047
:101B5000000F83F4801306BF81F480110134013D2E
:101B60004EE77FEA645C18BF7FEA655C29D094EA9F
:101B7000050F08BF90EA020F05D054EA000C04BF1D
:101B80001946104630BD91EA030F1EBF0021002008
:101B900030BD5FEA545C05D14000494128BF41F0A7
:101BA000004130BD14F580043CBF01F5801130BD0B
:101BB00001F0004545F0FE4141F470014FF0000096
:101BC00030BD7FEA645C1ABF194610467FEA655C47
:101BD0001CBF0B46024650EA013406BF52EA0335E9
:101BE00091EA030F41F4002130BD00BF90F0000FD7
:101BF00004BF0021704730B54FF4806404F1320413
:101C00004FF000054FF0000150E700BF90F0000FCB
:101C100004BF0021704730B54FF4806404F13204F2
:101C200010F0004548BF40424FF000013EE700BFC2
:101C300042004FEAE2014FEA31014FEA02701FBF52
:101C400012F07F4393F07F4F81F06051704792F024
:101C5000000F14BF93F07F4F704730B54FF460749E
:101C600001F0004521F0004120E700BF50EA0102E9
:101C700008BF704730B54FF000050AE050EA010296
:101C800008BF704730B511F0004502D5404261EB06
:101C900041014FF4806404F132045FEA915C3FF447
:101CA000DCAE4FF003025FEADC0C18BF03325FEAE0
:101CB000DC0C18BF033202EBDC02C2F1200300FA95
:101CC00003FC20FA02F001FA03FE40EA0E0021FABA
:101CD00002F11444C1E600BF70B54FF0FF0C4CF4A4
:101CE000E06C1CEA11541DBF1CEA135594EA0C0F5A
:101CF00095EA0C0F00F0DEF82C4481EA030621EA95
:101D00004C5123EA4C5350EA013518BF52EA0335CF
:101D100041F4801143F4801338D0A0FB02CE4FF081
:101D20000005E1FB02E506F00042E0FB03E54FF0B1
:101D30000006E1FB03569CF0000F18BF4EF0010EA9
:101D4000A4F1FF04B6F5007F64F5407404D25FEAA5
:101D50004E0E6D4146EB060642EAC62141EA555158
:101D60004FEAC52040EA5E504FEACE2EB4F1FD0C9A
:101D700088BFBCF5E06F1ED8BEF1004F08BF5FEA18
:101D8000500E50F1000041EB045170BD06F00046CA
:101D900046EA010140EA020081EA0301B4EB5C0477
:101DA000C2BFD4EB0C0541EA045170BD41F480116F
:101DB0004FF0000E013C00F3AB8014F1360FDEBF94
:101DC000002001F0004170BDC4F10004203C35DA70
:101DD0000C341BDC04F11404C4F1200500FA05F3F3
:101DE00020FA04F001FA05F240EA020001F0004294
:101DF00021F0004110EBD37021FA04F642EB06010A
:101E00005EEA430E08BF20EAD37070BDC4F10C0433
:101E1000C4F1200500FA04F320FA05F001FA04F2F7
:101E200040EA020001F0004110EBD37041F10001E3
:101E30005EEA430E08BF20EAD37070BDC4F12005EE
:101E400000FA05F24EEA020E20FA04F301FA05F256
:101E500043EA020321FA04F001F0004121FA04F2FE
:101E600020EA020000EBD3705EEA430E08BF20EACE
:101E7000D37070BD94F0000F0FD101F00046400008
:101E800041EB010111F4801F08BF013CF7D041EA8A
:101E9000060195F0000F18BF704703F0004652008E
:101EA00043EB030313F4801F08BF013DF7D043EA5F
:101EB0000603704794EA0C0F0CEA135518BF95EA15
:101EC0000C0F0CD050EA410618BF52EA4306D1D19C
:101ED00081EA030101F000414FF0000070BD50EABB
:101EE000410606BF1046194652EA430619D094EA45
:101EF0000C0F02D150EA013613D195EA0C0F05D12F
:101F000052EA03361CBF104619460AD181EA030182
:101F100001F0004141F0FE4141F470014FF000003A
:101F200070BD41F0FE4141F4780170BD70B54FF0D5
:101F3000FF0C4CF4E06C1CEA11541DBF1CEA135555
:101F400094EA0C0F95EA0C0F00F0A7F8A4EB050437
:101F500081EA030E52EA03354FEA013100F088802E
:101F60004FEA03334FF0805545EA131343EA1263F7
:101F70004FEA022245EA111545EA10654FEA0026AC
:101F80000EF000419D4208BF964244F1FD0404F565
:101F9000407402D25B084FEA3202B61A65EB0305C1
:101FA0005B084FEA32024FF480104FF4002CB6EB7E
:101FB000020E75EB030E22BFB61A754640EA0C00FE
:101FC0005B084FEA3202B6EB020E75EB030E22BF3E
:101FD000B61A754640EA5C005B084FEA3202B6EB7F
:101FE000020E75EB030E22BFB61A754640EA9C003E
:101FF0005B084FEA3202B6EB020E75EB030E22BF0E
:10200000B61A754640EADC0055EA060E18D04FEACB
:10201000051545EA16754FEA06164FEAC30343EA6B
:1020200052734FEAC2025FEA1C1CC0D111F4801F38
:102030000BD141EA00014FF000004FF0004CB6E731
:1020400011F4801F04BF01430020B4F1FD0C88BFD0
:10205000BCF5E06F3FF6AFAEB5EB030C04BFB6EBDB
:10206000020C5FEA500C50F1000041EB045170BDCE
:102070000EF0004E4EEA113114EB5C04C2BFD4EBFB
:102080000C0541EA045170BD41F480114FF0000E7F
:10209000013C90E645EA060E8DE60CEA135594EAFB
:1020A0000C0F08BF95EA0C0F3FF43BAF94EA0C0FFE
:1020B0000AD150EA01347FF434AF95EA0C0F7FF473
:1020C00025AF104619462CE795EA0C0F06D152EAC7
:1020D00003353FF4FDAE1046194622E750EA4106AB
:1020E00018BF52EA43067FF4C5AE50EA41047FF4BC
:1020F0000DAF52EA43057FF4EBAE12E74FF0FF3C21
:1021000006E000BF4FF0010C02E000BF4FF0010CF1
:102110004DF804CD4FEA410C7FEA6C5C4FEA430C6A
:1021200018BF7FEA6C5C1BD001B050EA410C0CBFB9
:1021300052EA430C91EA030F02BF90EA020F00201B
:10214000704710F1000F91EA030F58BF994208BF82
:1021500090422CBFD8176FEAE37040F0010070473F
:102160004FEA410C7FEA6C5C02D150EA013C07D196
:102170004FEA430C7FEA6C5CD6D152EA033CD3D0E1
:102180005DF8040B704700BF8446104662468C46DB
:102190001946634600E000BF01B5FFF7B7FF00280E
:1021A00048BF10F1000F01BD4DF808EDFFF7F4FF37
:1021B0000CBF012000205DF808FB00BF4DF808EDC2
:1021C000FFF7EAFF34BF012000205DF808FB00BFE5
:1021D0004DF808EDFFF7E0FF94BF012000205DF807
:1021E00008FB00BF4DF808EDFFF7CEFF94BF0120BC
:1021F00000205DF808FB00BF4DF808EDFFF7C4FFB5
:1022000034BF012000205DF808FB00BF4FEA410207
:1022100012F5001215D211D56FF47873B3EB625238
:1022200012D94FEAC12343F0004343EA505311F05F
:10223000004F23FA02F018BF404270474FF00000F1
:10224000704750EA013005D111F0004008BF6FF02F
:10225000004070474FF00000704700BF4A0011D2A5
:1022600012F5001211D20DD56FF47873B3EB6252F0
:102270000ED44FEAC12343F0004343EA505323FAFC
:1022800002F070474FF00000704750EA013002D171
:102290004FF0FF3070474FF0000070474FEA4102A7
:1022A000B2F1E04324BFB3F5001CDCF1FE5C0DD9B4
:1022B00001F0004C4FEAC0024CEA5070B2F1004FFE
:1022C00040EB830008BF20F00100704711F0804F01
:1022D00021D113F13872BCBF01F00040704741F4C6
:1022E00080114FEA5252C2F11802C2F1200C10FACA
:1022F0000CF320FA02F018BF40F001004FEAC123AE
:102300004FEAD32303FA0CFC40EA0C0023FA02F351
:102310004FEA4303CCE77FEA625307D150EA013327
:102320001EBF4FF0FE4040F44000704701F00040F7
:1023300040F0FE4040F40000704700BF80F00040D5
:1023400002E000BF81F0004142001FBF5FEA41038D
:1023500092EA030F7FEA226C7FEA236C6AD04FEA8D
:102360001262D2EB1363C1BFD218414048404140D2
:10237000B8BF5B42192B88BF704710F0004F40F484
:10238000000020F07F4018BF404211F0004F41F4A0
:10239000000121F07F4118BF494292EA030F3FD06C
:1023A000A2F1010241FA03FC10EB0C00C3F120037F
:1023B00001FA03F100F0004302D5494260EB40000E
:1023C000B0F5000F13D3B0F1807F06D340084FEA79
:1023D000310102F10102FE2A51D2B1F1004F40EB6E
:1023E000C25008BF20F0010040EA030070474900D6
:1023F00040EB000010F4000FA2F10102EDD1B0FAA1
:1024000080FCACF1080CB2EB0C0200FA0CF0AABF95
:1024100000EBC25052421843BCBFD0401843704733
:1024200092F0000F81F4000106BF80F40000013239
:10243000013BB5E74FEA41037FEA226C18BF7FEA10
:10244000236C21D092EA030F04D092F0000F08BF52
:102450000846704790EA010F1CBF0020704712F039
:102460007F4F04D1400028BF40F00040704712F178
:1024700000723CBF00F50000704700F0004343F0DD
:10248000FE4040F4000070477FEA226216BF084613
:102490007FEA23630146420206BF5FEA412390EAD6
:1024A000010F40F4800070474FF0000304E000BFCC
:1024B00010F0004348BF40425FEA000C08BF70477D
:1024C00043F0964301464FF000001CE050EA010241
:1024D00008BF70474FF000030AE000BF50EA010256
:1024E00008BF704711F0004302D5404261EB410143
:1024F0005FEA010C02BF84460146002043F0B64368
:1025000008BFA3F18053A3F50003BCFA8CF2083A8C
:10251000A3EBC25310DB01FA02FC634400FA02FC95
:10252000C2F12002BCF1004F20FA02F243EB02009C
:1025300008BF20F00100704702F1200201FA02FCFE
:10254000C2F1200250EA4C0021FA02F243EB0200F1
:1025500008BF20EADC7070474FF0FF0C1CEAD05235
:102560001EBF1CEAD15392EA0C0F93EA0C0F6FD0F6
:102570001A4480EA010C400218BF5FEA41211ED0D4
:102580004FF0006343EA501043EA5111A0FB0131C0
:102590000CF00040B1F5000F3EBF490041EAD37195
:1025A0005B0040EA010062F17F02FD2A1DD8B3F111
:1025B000004F40EBC25008BF20F00100704790F080
:1025C000000F0CF0004C08BF49024CEA502040EAD2
:1025D00051207F3AC2BFD2F1FF0340EAC250704798
:1025E00040F400004FF00003013A5DDC12F1190FD6
:1025F000DCBF00F000407047C2F10002410021FA48
:1026000002F1C2F1200200FA02FC5FEA310040F15F
:10261000000053EA4C0308BF20EADC70704792F0D8
:10262000000F00F0004C02BF400010F4000F013A10
:10263000F9D040EA0C0093F0000F01F0004C02BF0B
:10264000490011F4000F013BF9D041EA0C018FE77A
:102650000CEAD15392EA0C0F18BF93EA0C0F0AD080
:1026600030F0004C18BF31F0004CD8D180EA0100A6
:1026700000F00040704790F0000F17BF90F0004F3F
:10268000084691F0000F91F0004F14D092EA0C0F21
:1026900001D142020FD193EA0C0F03D14B0218BFB4
:1026A000084608D180EA010000F0004040F0FE40FA
:1026B00040F40000704740F0FE4040F44000704796
:1026C0004FF0FF0C1CEAD0521EBF1CEAD15392EA15
:1026D0000C0F93EA0C0F69D0A2EB030280EA010C05
:1026E00049024FEA402037D04FF0805343EA11119E
:1026F00043EA10130CF000408B4238BF5B0042F1FC
:102700007D024FF4000C8B4224BF5B1A40EA0C00A0
:10271000B3EB510F24BFA3EB510340EA5C00B3EBD2
:10272000910F24BFA3EB910340EA9C00B3EBD10FC0
:1027300024BFA3EBD10340EADC001B0118BF5FEA12
:102740001C1CE0D1FD2A3FF650AF8B4240EBC2503B
:1027500008BF20F0010070470CF0004C4CEA5020FC
:102760007F32C2BFD2F1FF0340EAC250704740F44B
:1027700000004FF00003013A37E792F0000F00F03D
:10278000004C02BF400010F4000F013AF9D040EABB
:102790000C0093F0000F01F0004C02BF490011F44F
:1027A000000F013BF9D041EA0C0195E70CEAD15347
:1027B00092EA0C0F08D142027FF47DAF93EA0C0F2E
:1027C0007FF470AF084676E793EA0C0F04D14B0212
:1027D0003FF44CAF08466EE730F0004C18BF31F0C4
:1027E000004CCAD130F000427FF45CAF31F00043BE
:1027F0007FF43CAF5FE700BF4FF0FF3C06E000BF57
:102800004FF0010C02E000BF4FF0010C4DF804CD79
:102810004FEA40024FEA41037FEA226C18BF7FEA89
:10282000236C11D001B052EA530C18BF90EA010F8B
:1028300058BFB2EB030088BFC81738BF6FEAE1701A
:1028400018BF40F0010070477FEA226C02D15FEAB6
:10285000402C05D17FEA236CE4D15FEA412CE1D022
:102860005DF8040B704700BF844608466146FFE7E9
:102870000FB5FFF7C9FF002848BF10F1000F0FBDCB
:102880004DF808EDFFF7F4FF0CBF012000205DF8C4
:1028900008FB00BF4DF808EDFFF7EAFF34BF012049
:1028A00000205DF808FB00BF4DF808EDFFF7E0FFE2
:1028B00094BF012000205DF808FB00BF4DF808ED33
:1028C000FFF7D2FF94BF012000205DF808FB00BF96
:1028D0004DF808EDFFF7C8FF34BF012000205DF878
:1028E00008FB00BF42000ED2B2F1FE4F0BD34FF0F7
:1028F0009E03B3EB126209D44FEA002343F0004376
:1029000023FA02F070474FF00000704712F1610F98
:1029100001D1420202D14FF0FF3070474FF000006A
:04292000704700BF3D
:0400000508000000EF
:00000001FF
