:020000040800F2
:10000000FC34012089010008E5010008E501000831
:10001000E5010008E5010008E50100080000000016
:10002000000000000000000000000000E5010008E2
:10003000E501000800000000E5010008E5010008F6
:10004000E5010008E5010008E5010008E5010008F8
:10005000E5010008E5010008E5010008E5010008E8
:10006000E5010008E5010008E5010008E5010008D8
:10007000E5010008E5010008E5010008E5010008C8
:10008000E5010008E5010008E5010008E5010008B8
:10009000E5010008E5010008E5010008E5010008A8
:1000A000E5010008E5010008E5010008E501000898
:1000B000310D0008E5010008E5010008E501000830
:1000C000E5010008E5010008E5010008E501000878
:1000D000E5010008E5010008E5010008E501000868
:1000E000E5010008E5010008E5010008E501000858
:1000F000E5010008E5010008E5010008E501000848
:10010000E5010008E5010008E5010008E501000837
:10011000E5010008E5010008E5010008E501000827
:10012000E5010008E5010008E5010008E501000817
:10013000E5010008E5010008E5010008E501000807
:10014000E5010008E5010008E5010008E5010008F7
:10015000E90D0008E5010008E5010008E5010008D7
:10016000E5010008E5010008E5010008E5010008D7
:10017000E5010008E5010008E5010008E5010008C7
:10018000E5010008E501000880B582B000AF104B22
:100190007B60104B3B6007E03B681A1D3A607A6851
:1001A000111D796012681A603A680B4B9A42F3D3BA
:1001B0000A480B494FF000028842B8BF40F8042BB0
:1001C000FFF6FAAF00F012F80837BD4680BD00BF59
:1001D0004013000800000020000000200000002064
:1001E000FC2C012080B400AFFEE700BF80B500AF5B
:1001F00000F03EF900F0E6FB002000F023FC0A20AE
:100200000A210A2200F042FC642064210A2200F044
:100210003DFCFEE780B483B000AF78600B46FB7016
:10022000FB78002B06D0094B084A116B7A680A4309
:100230001A6306E0054B054A116B7A68D2430A40FF
:100240001A630C37BD465DF8047B704700380240E6
:1002500080B483B000AF78600B46FB70FB78002B56
:1002600006D0094B084A116C7A680A431A6406E002
:10027000054B054A116C7A68D2430A401A640C3760
:10028000BD465DF8047B70470038024080B483B0FF
:1002900000AF78600B46FB70FB78002B06D0094B53
:1002A000084A516C7A680A435A6406E0054B054ACD
:1002B000516C7A68D2430A405A640C37BD465DF8E7
:1002C000047B70470038024080B487B000AF78608C
:1002D000396000237B6100233B610023FB60002326
:1002E0007B6176E07B69012202FA03F33B613B68A4
:1002F0001A683B691340FB60FA683B699A4265D112
:100300007B681A687B695B00032101FA03F3DB4316
:100310001A407B681A607B681A683B681B7919462B
:100320007B695B0001FA03F31A437B681A603B6840
:100330001B79012B03D03B681B79022B2ED17B68E4
:100340009A687B695B00032101FA03F3DB431A40DF
:100350007B689A607B689A683B685B7919467B6921
:100360005B0001FA03F31A437B689A607B685A6862
:100370007B699BB2012101FA03F3DB431A407B68DE
:100380005A607B685A683B689B7919467B699BB2C7
:1003900001FA03F39BB21A437B685A607B68DA6800
:1003A0007B699BB25B00032101FA03F3DB431A4034
:1003B0007B68DA607B68DA683B68DB7919467B69C1
:1003C0005B0001FA03F31A437B68DA607B6901334F
:1003D0007B617B690F2B85D91C37BD465DF8047B9B
:1003E000704700BF80B485B000AF786013460A46FE
:1003F0007A807B700023FB600023BB607A787B8867
:1004000003F007039B0002FA03F3FB607B88DB0821
:100410009BB21A467B88DB089BB219467B68083181
:1004200053F821107B8803F007039B000F2000FA8C
:1004300003F3DB4319407B68083243F822107B88C2
:10044000DB089BB21A467B68083253F82220FB680F
:100450001343BB607B88DB089BB21A467B6808327B
:10046000B96843F822101437BD465DF8047B704725
:1004700080B500AF114B114A126842F001021A60B8
:100480000E4B00229A600D4A0C4B1B6823F08473BC
:1004900023F480331360094B094A5A60074B074A1B
:1004A000126822F480221A60044B0022DA6000F005
:1004B0000BF8044B4FF000629A6080BD0038024098
:1004C0001030002400ED00E080B483B000AF0023C2
:1004D0007B6000233B60354B344A126842F4803223
:1004E0001A60324B1B6803F400333B607B680133B6
:1004F0007B603B68002B03D17B68B3F5A06FF0D124
:100500002A4B1B6803F40033002B02D001233B600D
:1005100001E000233B603B68012B42D1234B234A7F
:10052000126C42F080521A64214B214A126842F444
:1005300080421A601D4B1D4A92689A601B4B1B4AF1
:10054000926842F400429A60184B184A926842F44A
:10055000A0529A60154B174A5A60144B134A1268FE
:1005600042F080721A6000BF104B1B6803F00073EA
:10057000002BF9D0104B40F205621A600B4B0B4A6E
:10058000926822F003029A60084B084A926842F08F
:1005900002029A6000BF054B9B6803F00C03082B16
:1005A000F9D10C37BD465DF8047B70470038024036
:1005B0000070004008544007003C024080B483B003
:1005C00000AF78607B681B6823F001027B681A60CB
:1005D0007B6800221A607B6800225A607B680022D8
:1005E0009A607B680022DA607B6800221A617B686F
:1005F00021225A617A68454B9A4203D1444B3D22ED
:100600009A607EE07A68434B9A4204D1404B4FF4A3
:1006100074629A6075E07A683F4B9A4204D13C4B11
:100620004FF474129A606CE07A683C4B9A4204D1A1
:10063000374B4FF074629A6063E07A68384B9A42A5
:1006400003D1334B374ADA605BE07A68364B9A4223
:1006500003D12F4B354ADA6053E07A68344B9A4223
:1006600003D12B4B334ADA604BE07A68324B9A4223
:1006700004D1274B4FF03D52DA6042E07A682F4BAD
:100680009A4203D12E4B3D229A603AE07A682D4B74
:100690009A4204D12A4B4FF474629A6031E07A682E
:1006A000294B9A4204D1264B4FF474129A6028E0E9
:1006B0007A68264B9A4204D1214B4FF074629A60BB
:1006C0001FE07A68224B9A4203D11D4B154ADA602B
:1006D00017E07A681F4B9A4203D1194B134ADA602C
:1006E0000FE07A681C4B9A4203D1154B114ADA602D
:1006F00007E07A68194B9A4203D1114B4FF03D52F3
:10070000DA600C37BD465DF8047B7047106002402C
:100710000060024028600240406002405860024091
:10072000706002403D00002088600240400F0020C1
:10073000A060024000003D20B8600240106402400A
:100740000064024028640240406402405864024051
:100750007064024088640240A0640240B8640240B1
:1007600080B485B000AF786039600023FB607B689F
:100770001B68FB60FA68244B1340FB603B681A68F7
:100780003B68DB681A433B685B691A433B689B69BB
:100790001A433B68DB691A433B681B6A1A433B6890
:1007A0005B6A1A433B689B6A1A433B685B6B1A435C
:1007B0003B689B6B1343FA681343FB607B68FA68E2
:1007C0001A607B685B69FB60FB6823F00703FB60D2
:1007D0003B68DA6A3B681B6B1343FA681343FB60A0
:1007E0007B68FA685A613B681A697B685A603B68A3
:1007F0005A687B689A603B689A687B68DA6014374D
:10080000BD465DF8047B70473F801CF080B483B028
:1008100000AF78600B46FB70FB78002B06D07B683E
:100820001B6843F001027B681A6005E07B681B6867
:1008300023F001027B681A600C37BD465DF8047B2B
:10084000704700BF80B485B000AFF860B960134650
:10085000FB71BB6803F08003002B0FD0FB79002BEA
:1008600006D0FB685B6943F08002FB685A6105E0D3
:10087000FB685B6923F08002FB685A61BB68802BD0
:1008800014D0FB79002B08D0FB681A68BB6803F012
:100890001E031A43FB681A6008E0FB681A68BB680D
:1008A00003F01E03DB431A40FB681A601437BD4691
:1008B0005DF8047B704700BF80B487B000AF7860FC
:1008C00039600023FB750023FB600023BB607A685E
:1008D000224B9A4202D8224B3B6101E0214B3B6103
:1008E0003B6823F0F02323F0C313002B0AD03B68AE
:1008F000DB0A03F01E03FB607B681A68FB68134089
:10090000BB6004E07B685B6903F08003BB603B680D
:1009100003F00053002B03D03B695B68FB6002E0EF
:100920003B691B68FB60FB6823F0F02323F0821314
:10093000FB60FA683B681340002B05D0BB68002BB6
:1009400002D00123FB7501E00023FB75FB7D1846F7
:100950001C37BD465DF8047B704700BF0F64024042
:10096000006002400064024080B485B000AF78604F
:1009700039607A68104B9A4202D8104BFB6001E054
:100980000F4BFB603B6803F00053002B07D03B6824
:1009900023F0F02323F08213FA68D36006E03B686B
:1009A00023F0F02323F08213FA6893601437BD46D6
:1009B0005DF8047B704700BF0F6402400060024096
:1009C0000064024080B582B000AF1B4B00221A8049
:1009D000194B00225A60184B00229A600023BB80FA
:1009E00017E00023FB800DE0BA8813469B001344F8
:1009F0009B011A44FB881344104A0021D154FB8800
:100A00000133FB80FB88B3F5A07FEDD9BB880133B0
:100A1000BB80BB88EF2BE4D900F05EF800F0B0F8A3
:100A200000F03EF900F010F9054B1A68024B9A608D
:100A30000837BD4680BD00BF000000200C0000202C
:100A40008864024080B584B000AF0346FB71002388
:100A5000BB8114E00023FB810AE0F989BA89FB79A4
:100A6000084611461A4600F011F8FB890133FB8154
:100A7000FB89B3F5A07FF0D3BB890133BB81BB8970
:100A8000EF2BE7D91037BD4680BD00BF80B483B0DF
:100A900000AF13460246FA800A46BA80FB70FB8814
:100AA000B3F5A07F01D30023FB80BB88EF2B01D9D6
:100AB0000023BB80BA8813469B0013449B011A4451
:100AC000FB881344034AF978D1540C37BD465DF8CE
:100AD000047B70470C00002080B582B000AF10206E
:100AE0000121FFF797FB4FF47F433B6001233B71EC
:100AF0000023BB710123FB7103237B713B461E481E
:100B00001946FFF7E1FB1C4B4FF47F425A8302204A
:100B10000121FFF77FFB4FF400633B6002233B7131
:100B200003237B710023BB710123FB713B461348F8
:100B30001946FFF7C9FB11480B210122FFF752FCB0
:100B400002200121FFF766FB4FF480533B60012335
:100B50003B710023BB710123FB7103237B713B4677
:100B600006481946FFF7B0FB044B4FF480521A8336
:100B70000837BD4680BD00BF00100240000402409F
:100B800080B588B000AF01200121FFF77FFB0B2368
:100B9000BB610023BB820023BB830023FB8207F1E0
:100BA00014032848194600F0A3F901200121FFF79A
:100BB0004FFB40F66B23BB610023BB820023BB834A
:100BC0000023FB8207F114034FF08040194600F028
:100BD0008FF960233B8001237B804FF4D273BB608D
:100BE0000223BB813B464FF08040194600F02AFAB1
:100BF0004FF08040082100F011FB60233B8001236F
:100C00007B804FF4A073BB600223BB813B464FF057
:100C10008040194600F09CFA4FF08040082100F017
:100C200019FB0848012100F0CDF94FF08040012167
:100C300000F0C8F94FF08040012100F0E3F92037BF
:100C4000BD4680BD0000014080B582B000AF1348B2
:100C500010210122FFF7F6FD44233B7100237B7135
:100C60000023BB710123FB713B1D184600F0E2F825
:100C70004FF080400821012200F00AFB1C233B7149
:100C800000237B710023BB710123FB713B1D1846C0
:100C900000F0D0F80837BD4680BD00BF8864024030
:100CA00080B590B000AF4FF480000121FFF7B2FA99
:100CB0001B480021FFF7AAFD1948FFF77FFC4FF002
:100CC00040637B60174BBB60174BFB6040233B616D
:100CD00040F241137B610023BB614FF48063FB61F1
:100CE00000233B6200237B620023BB624FF440334E
:100CF000FB6200233B6301237B630023BB63002370
:100D0000FB633B1D06481946FFF72AFD07484FF4D1
:100D10008071012200F0F0FA4037BD4680BD00BF6F
:100D200088640240151002400C00002000000140C1
:100D300080B500AF4FF08040082100F0CDFA254B80
:100D40001B8801339AB2234B1A80224B1B88B3F5C0
:100D5000037F05D91F4B00221A801F4A1D4B5A6082
:100D60001C4B1B88012B04D81C4B4FF480525A8318
:100D700003E01A4B4FF480521A83164B1B88232B27
:100D800027D9144B1A8840F202239A4221D8144BD7
:100D9000104A92681A60124B0E4A5268DA60114B80
:100DA000104A128892B242F0010292B21A800C4BA1
:100DB0000B4A126842F001021A60064B1B8803F0CE
:100DC0000103002B05D0034B5B6803F24112014B7A
:100DD0005A6080BD000000200C000020000402408A
:100DE000886402400000014080B500AF0D480E4904
:100DF000FFF762FD0346002B12D00A480A49FFF7AD
:100E0000B3FD0A4B094A128892B222F0010292B253
:100E10001A80044B00221A60054B4FF47F425A831C
:100E200080BD00BF886402400088002000000140AF
:100E30000010024080B485B000AF78600023FB73DF
:100E40000023BB730F237B737B68DB78002B37D0C9
:100E5000254BDB68DB4303F4E0631B0AFB73FB7B7E
:100E6000C3F10403BB737A7BFB7B42FA03F37B730E
:100E70007B685B781A46BB7B02FA03F3FB737B68E3
:100E80009A787B7B1340DAB2FB7B1343FB73FB7BCB
:100E90001B01FB73154A7B681B781344FA7B83F8AC
:100EA0000023124B7A6812785209D2B27968097815
:100EB00001F01F01012000FA01F143F822100EE0B9
:100EC0000A4B7A6812785209D2B27968097801F02F
:100ED0001F01012000FA01F1203243F822101437DB
:100EE000BD465DF8047B704700ED00E000E100E0E6
:100EF00080B485B000AF786039600023FB817B68E7
:100F00001B88FB817A68284B9A4213D07A68274B5A
:100F10009A420FD07B68B3F1804F0BD07A68244B94
:100F20009A4207D07A68234B9A4203D07A68224BC0
:100F30009A4208D1FB8923F07003FB813B685A88F1
:100F4000FB891343FB817A681C4B9A420CD07A6868
:100F50001B4B9A4208D0FB8923F44073FB813B680A
:100F60001A89FB891343FB817B68FA891A803B68E5
:100F70005A687B68DA623B681A887B681A857A68E7
:100F8000094B9A4203D07A68084B9A4204D13B68D5
:100F90009B7A1A467B681A867B6801229A821437EC
:100FA000BD465DF8047B704700000140000401402D
:100FB0000004004000080040000C00400010004009
:100FC0000014004080B483B000AF78600B46FB7023
:100FD000FB78002B08D07B681B889BB243F0800312
:100FE0009AB27B681A8007E07B681B889BB223F06B
:100FF00080039AB27B681A800C37BD465DF8047B8B
:10100000704700BF80B483B000AF78600B46FB70C0
:10101000FB78002B08D07B681B889BB243F0010350
:101020009AB27B681A8007E07B681B889BB223F02A
:1010300001039AB27B681A800C37BD465DF8047BC9
:10104000704700BF80B485B000AF7860396000237E
:101050007B810023FB810023BB817B681B8C9BB2BF
:1010600023F480739AB27B681A847B681B8CFB81A3
:101070007B689B88BB817B689B8B7B817B8923F012
:1010800070037B817B8923F003037B813B681A8893
:101090007B8913437B81FB8923F40073FB813B68CD
:1010A0009B891B029AB2FB891343FB813B685B88D7
:1010B0001B029AB2FB891343FB817A68224B9A4246
:1010C00003D07A68214B9A422BD1FB8923F4006329
:1010D000FB813B68DB891B029AB2FB891343FB81CE
:1010E000FB8923F48063FB813B689B881B029AB2D7
:1010F000FB891343FB81BB8923F48053BB81BB89EC
:1011000023F40053BB813B681B8A1B019AB2BB8945
:101110001343BB813B685B8A1B019AB2BB891343B3
:10112000BB817B68BA899A807B687A899A833B689D
:101130009A687B68DA637B68FA891A841437BD463B
:101140005DF8047B704700BF0000014000040140CF
:1011500080B485B000AF786039600023BB81002384
:101160007B810023FB817B681B8C9BB223F4805323
:101170009AB27B681A847B681B8C7B817B689B8816
:10118000FB817B689B8BBB81BB8923F4E043BB81E4
:10119000BB8923F44073BB813B681B881B029AB256
:1011A000BB891343BB817B8923F400537B813B685C
:1011B0009B891B039AB27B8913437B813B685B88C5
:1011C0001B039AB27B8913437B817A68114B9A4245
:1011D00003D07A68104B9A420AD1FB8923F48043EA
:1011E000FB813B681B8A9B019AB2FB891343FB81FD
:1011F0007B68FA899A807B68BA899A833B689A6887
:101200007B681A647B687A891A841437BD465DF856
:10121000047B7047000001400004014080B485B0A9
:1012200000AF78600B467B800023FB817B689B8B43
:10123000FB81FB8923F00803FB81FA897B88134338
:10124000FB817B68FA899A831437BD465DF8047B7D
:10125000704700BF80B485B000AF78600B467B80DC
:101260000023FB817B689B8BFB81FB8923F400635C
:10127000FB817B881B029AB2FB891343FB817B684D
:10128000FA899A831437BD465DF8047B704700BF26
:1012900080B483B000AF786013460A467A807B70D2
:1012A0007B78002B08D07B689B899AB27B8813439C
:1012B0009AB27B689A8109E07B689B899AB27B88A5
:1012C000DB439BB213409AB27B689A810C37BD46D0
:1012D0005DF8047B704700BF80B483B000AF7860D6
:1012E0000B467B807B88DB439AB27B681A820C3783
:1012F000BD465DF8047B704780B483B000AF786072
:1013000013460A467A807B707B78002B08D07B6876
:101310009B899AB27B8813439AB27B689A8109E0D1
:101320007B689B899AB27B88DB439BB213409AB25D
:101330007B689A810C37BD465DF8047B704700BF1F
:0400000508000000EF
:00000001FF
