:020000040800F2
:10000000C464012089010008E5010008E501000839
:10001000E5010008E5010008E50100080000000016
:10002000000000000000000000000000E5010008E2
:10003000E501000800000000E5010008E5010008F6
:10004000E5010008E5010008E5010008E5010008F8
:10005000E5010008E5010008E5010008E5010008E8
:10006000E5010008E5010008E5010008E5010008D8
:10007000E5010008E5010008E5010008E5010008C8
:10008000E5010008E5010008E5010008E5010008B8
:10009000E5010008E5010008E5010008E5010008A8
:1000A000E5010008E5010008E5010008E501000898
:1000B00019160008E5010008E5010008E50100083F
:1000C000E5010008E5010008E5010008E501000878
:1000D000E5010008E5010008E5010008E501000868
:1000E000E5010008E5010008E5010008E501000858
:1000F000E5010008E5010008E5010008E501000848
:10010000E5010008E5010008E5010008E501000837
:10011000E5010008E5010008E5010008E501000827
:10012000E5010008E5010008E5010008E501000817
:10013000E5010008E5010008E5010008E501000807
:10014000E5010008E5010008E5010008E5010008F7
:10015000D1160008E5010008E5010008E5010008E6
:10016000E5010008E5010008E5010008E5010008D7
:10017000E5010008E5010008E5010008E5010008C7
:10018000E5010008E501000880B582B000AF104B22
:100190007B60104B3B6007E03B681A1D3A607A6851
:1001A000111D796012681A603A680B4B9A42F3D3BA
:1001B0000A480B494FF000028842B8BF40F8042BB0
:1001C000FFF6FAAF00F012F80837BD4680BD00BF59
:1001D0007C29000800000020CC2F0020CC2F00201C
:1001E000C85C012080B400AFFEE700BF80B594B0CA
:1001F00004AF00F0B1FD01F059F8002001F096F8CD
:1002000002F0ACF902466F4B83FB0213D911D317EE
:10021000C91A0B469B000B449B01D31AFB6302F0E7
:100220009DF90246684B82FB03015318D911D3177D
:10023000C91A0B461B015B1A1B01D31ABB630023AF
:100240007B6300233B630023FB620023BB625F4AA6
:1002500007F10C0392E8030083E803005C4A3B1DAE
:1002600092E8030083E8030064237B62FF233B6280
:100270000023FB61002000F09FFB4323FB76FB7E05
:100280000022009200220192002202920022039298
:1002900014206421FE2200F0B5FB4E4B7B6100234D
:1002A0000093002301930023029300230393002073
:1002B000C821E8227B6900F035FC474B7B610023B5
:1002C0000093002301930123029300230393002052
:1002D000D821E8227B6900F025FC0A230093002343
:1002E0000193002302930023039300200021322274
:1002F000322300F033FB0A230093002301930023F1
:100300000293322032216422642300F0D1FA2823A0
:1003100000930023019300230293962096216422E8
:10032000642300F0C5FA50230093002301930023B7
:100330000293322096216422642300F0B9FA7823D4
:10034000009300230193002302939620322164221C
:10035000642300F0ADFAA02300930023019300234F
:100360000293322064216422642300F0A1FAC8239E
:1003700000930023019300230293962064216422BA
:10038000642300F095FAF0230093002301930023E7
:100390000293642032216422642300F089FAFF234F
:1003A000009300230193002302936420962164228A
:1003B000642300F07DFAB4201E21012200F068F8C9
:1003C000FEE700BF6766666689888888C8260008D9
:1003D000D026000858260008A826000880B483B05C
:1003E00000AF78600B46FB70FB78002B06D0094B02
:1003F000084A116B7A680A431A6306E0054B054AFE
:10040000116B7A68D2430A401A630C37BD465DF817
:10041000047B70470038024080B483B000AF78603E
:100420000B46FB70FB78002B06D0094B084A116C79
:100430007A680A431A6406E0054B054A116C7A682B
:10044000D2430A401A640C37BD465DF8047B7047FE
:100450000038024080B483B000AF78600B46FB7078
:10046000FB78002B06D0094B084A516C7A680A4386
:100470005A6406E0054B054A516C7A68D2430A403B
:100480005A640C37BD465DF8047B70470038024063
:1004900080B58AB000AFF860B9607A6000237B62F3
:1004A00000233B620023FB614E23BB6182237B61FF
:1004B000BB683B6223E0FB68FB6117E0FB6999B214
:1004C0003B6A9AB213487B6A03441B78084611467C
:1004D0001A4600F04FFF7A6A42F29C739A4202D8A1
:1004E0007B6A01337B62FB690133FB61FA687B69DC
:1004F0001A44FB699A42E1DC3B6A01333B62BA6809
:10050000BB691A443B6A9A42D5DC00231846283757
:10051000BD4680BD000400202DE9B04386B000AF89
:10052000F860B9607A603B603A68BB68D21A796853
:10053000FB68CB1A92FBF3F3184601F0C7FC0246A6
:100540000B46C7E90423D7E904014FF000024FF03E
:10055000000301F089FF0346002B33D1F86801F056
:10056000B5FC02460B4610461946D7E9042301F0B4
:1005700013FD02460B4614461D46F86801F0A6FC22
:1005800080468946B86801F0A1FC02460B46104639
:100590001946D7E9042301F0FFFC02460B4640460A
:1005A000494601F045FB02460B462046294601F02C
:1005B00041FB02460B461046194601F087FF0346F1
:1005C000BB60E2E04FF000024FF00003C7E90423F4
:1005D000DBE0FB6899B2BB689AB23B6BDBB20846C2
:1005E00011461A4600F0C6FEFB689CB2B86801F0DE
:1005F0006DFC02460B4610461946D7E9042301F06C
:1006000019FB02460B461046194601F087FF0346C8
:100610009AB23B6BDBB2204611461A4600F0AAFEA6
:10062000F86801F053FC02460B4610461946D7E91C
:10063000042301F0FFFA02460B461046194601F06A
:100640006DFF03469CB2B86801F040FC02460B46C1
:1006500010461946D7E9042301F0ECFA02460B468E
:100660001046194601F05AFF03469AB23B6BDBB2C3
:10067000204611461A4600F07DFEF86801F026FC7F
:1006800002460B4610461946D7E9042301F0D2FA78
:1006900002460B461046194601F040FF03469CB245
:1006A000B86801F013FC02460B4610461946D7E91C
:1006B000042301F0BFFA02460B4610461946D7E95B
:1006C000042301F0B7FA02460B461046194601F022
:1006D00025FF03469AB23B6BDBB2204611461A4611
:1006E00000F048FEF86801F0F1FB02460B461046A8
:1006F0001946D7E9042301F09DFA02460B4610463D
:100700001946D7E9042301F095FA02460B46104634
:10071000194601F003FF03469CB2B86801F0D6FB0E
:1007200002460B4610461946D7E9042301F082FA27
:1007300002460B4610461946D7E9042301F07AFA1F
:1007400002460B461046194601F0E8FE03469AB2EF
:100750003B6BDBB2204611461A4600F00BFEB86830
:1007600001F0B4FB02460B4610461946D7E90423B4
:1007700001F060FA02460B461046194601F0A6FE4B
:100780000346BB60FB680133FB60FA687B689A42F2
:10079000FFF61FAF002318461837BD46BDE8B083EB
:1007A0002DE9B04386B000AFF860B9607A603B6075
:1007B0007A68FB68D21A3968BB68CB1A92FBF3F3EC
:1007C000184601F083FB02460B46C7E90423D7E92C
:1007D00004014FF000024FF0000301F045FE034614
:1007E000002B33D1B86801F071FB02460B4610466E
:1007F0001946D7E9042301F0CFFB02460B46144605
:100800001D46B86801F062FB80468946F86801F031
:100810005DFB02460B4610461946D7E9042301F05A
:10082000BBFB02460B464046494601F001FA024630
:100830000B462046294601F0FDF902460B461046BC
:10084000194601F043FE0346BB6027E04FF000026B
:100850004FF00003C7E9042320E0FB6899B2BB68AE
:100860009AB23B6BDBB2084611461A4600F082FD95
:10087000F86801F02BFB02460B4610461946D7E9F3
:10088000042301F0D7F902460B461046194601F041
:100890001DFE0346FB60BB680133BB60BA683B6862
:1008A0009A42DADB002318461837BD46BDE8B0830C
:1008B00080B588B004AFF860B9607A603B607A6850
:1008C000FB68D31A83EAE372A2EBE3723968BB6870
:1008D000CB1A002BB8BF5B429A421DDB7A68FB68DB
:1008E0009A420CDBBB690093FB6901933B6A02935C
:1008F000F868B9687A683B68FFF70EFE29E0BB69C3
:100900000093FB6901933B6A029378683968FA683F
:10091000BB68FFF701FE1CE03A68BB689A420CDB3B
:10092000BB690093FB6901933B6A0293F868B9685D
:100930007A683B68FFF734FF0BE0BB690093FB6903
:1009400001933B6A029378683968FA68BB68FFF7DD
:1009500027FF002318461037BD4680BD80B586B0FE
:1009600000AFF860B9607A603B607B6A002B1ED1F3
:10097000BB687B6117E0FB683B610DE03B6999B2A6
:100980007B699AB23B6ADBB2084611461A4600F010
:10099000F1FC3B6901333B613A697B689A42EDDDCA
:1009A0007B6901337B617A693B689A42E3DD00230E
:1009B00018461837BD4680BD80B584B000AF78605A
:1009C0000023BB8115E00023FB810BE07B68DBB2D9
:1009D000F989BA89084611461A4600F0CBFCFB8912
:1009E0000133FB81FB89B3F5A07FEFD3BB890133D2
:1009F000BB81BB89EF2BE6D9002318461037BD46D3
:100A000080BD00BF80B588B000AFF860B9607A6083
:100A1000FB703B6B002B3BD1FB78DA003F4B134460
:100A20007B61FB68FB612BE0BB68BB611FE0BA69BF
:100A3000BB68D31A7A6913441B781A46F969FB68B4
:100A4000CB1A012101FA03F313403B613B69002BF0
:100A50000AD0FB6999B2BB699AB27B68DBB20846DF
:100A600011461A4600F086FCBB690133BB61BB68C6
:100A700003F10802BB699A42D9DCFB690133FB61CF
:100A8000FB6803F10802FB699A42CDDC002341E0D8
:100A90003B6B012B0BD1FB78A3F120021346DB004B
:100AA0009B1A1F4A13447B61FB68FB612CE0012306
:100AB00030E0BB68BB611FE0FA69FB68D31A7A6952
:100AC00013441B781A46B969BB68CB1A012101FA95
:100AD00003F313403B613B69002B0AD0FB6999B2D9
:100AE000BB699AB27B68DBB2084611461A4600F031
:100AF00041FCBB690133BB61BB68DA1DBB699A422B
:100B0000DADCFB690133FB61FB68DA1DFB699A42A1
:100B1000CFDC002318462037BD4680BD00000020F2
:100B2000D826000880B5A4B004AFF860B9607A6038
:100B30003B60FB68FB67BB68BB6700237B6707F113
:100B400010031846396801F029FD25E007F110026D
:100B50007B6F13441B78D7F888200092D7F88C203D
:100B60000192D7F890200292D7F894200392F86F60
:100B7000B96F7A68FFF746FF7B6F01337B67FB6FC6
:100B80000833FB67FB6F0833B3F5A07F04DB00235A
:100B9000FB67BB6F0833BB6707F110027B6F134421
:100BA0001B78002BD2D118468037BD4680BD00BFD0
:100BB00080B487B000AF7860396000237B61002388
:100BC0003B610023FB6000237B6176E07B690122AF
:100BD00002FA03F33B613B681A683B691340FB6010
:100BE000FA683B699A4265D17B681A687B695B0049
:100BF000032101FA03F3DB431A407B681A607B6828
:100C00001A683B681B7919467B695B0001FA03F39C
:100C10001A437B681A603B681B79012B03D03B6841
:100C20001B79022B2ED17B689A687B695B000321BC
:100C300001FA03F3DB431A407B689A607B689A6889
:100C40003B685B7919467B695B0001FA03F31A4341
:100C50007B689A607B685A687B699BB2012101FAC4
:100C600003F3DB431A407B685A607B685A683B6831
:100C70009B7919467B699BB201FA03F39BB21A4335
:100C80007B685A607B68DA687B699BB25B000321F2
:100C900001FA03F3DB431A407B68DA607B68DA68A9
:100CA0003B68DB7919467B695B0001FA03F31A4361
:100CB0007B68DA607B6901337B617B690F2B85D9A7
:100CC0001C37BD465DF8047B704700BF80B485B01B
:100CD00000AF786013460A467A807B700023FB6081
:100CE0000023BB607A787B8803F007039B0002FA3D
:100CF00003F3FB607B88DB089BB21A467B88DB082A
:100D00009BB219467B68083153F821107B8803F0A9
:100D100007039B000F2000FA03F3DB4319407B68B5
:100D2000083243F822107B88DB089BB21A467B68A6
:100D3000083253F82220FB681343BB607B88DB0832
:100D40009BB21A467B680832B96843F82210143700
:100D5000BD465DF8047B704780B500AF114B114A6A
:100D6000126842F001021A600E4B00229A600D4A8E
:100D70000C4B1B6823F0847323F480331360094BFE
:100D8000094A5A60074B074A126822F480221A6007
:100D9000044B0022DA6000F00BF8044B4FF00062C5
:100DA0009A6080BD003802401030002400ED00E061
:100DB00080B483B000AF00237B6000233B60354BE1
:100DC000344A126842F480321A60324B1B6803F4D2
:100DD00000333B607B6801337B603B68002B03D1B1
:100DE0007B68B3F5A06FF0D12A4B1B6803F4003386
:100DF000002B02D001233B6001E000233B603B68F5
:100E0000012B42D1234B234A126C42F080521A64C8
:100E1000214B214A126842F480421A601D4B1D4A40
:100E200092689A601B4B1B4A926842F400429A6097
:100E3000184B184A926842F4A0529A60154B174A10
:100E40005A60144B134A126842F080721A6000BF55
:100E5000104B1B6803F00073002BF9D0104B40F2CD
:100E600005621A600B4B0B4A926822F003029A60EB
:100E7000084B084A926842F002029A6000BF054B94
:100E80009B6803F00C03082BF9D10C37BD465DF8C5
:100E9000047B70470038024000700040085440074F
:100EA000003C024080B483B000AF78607B681B6870
:100EB00023F001027B681A607B6800221A607B685D
:100EC00000225A607B6800229A607B680022DA6008
:100ED0007B6800221A617B6821225A617A68454B3F
:100EE0009A4203D1444B3D229A607EE07A68434B9C
:100EF0009A4204D1404B4FF474629A6075E07A686C
:100F00003F4B9A4204D13C4B4FF474129A606CE010
:100F10007A683C4B9A4204D1374B4FF074629A6026
:100F200063E07A68384B9A4203D1334B374ADA6030
:100F30005BE07A68364B9A4203D12F4B354ADA6030
:100F400053E07A68344B9A4203D12B4B334ADA6030
:100F50004BE07A68324B9A4204D1274B4FF03D5216
:100F6000DA6042E07A682F4B9A4203D12E4B3D2241
:100F70009A603AE07A682D4B9A4204D12A4B4FF49A
:100F800074629A6031E07A68294B9A4204D1264B08
:100F90004FF474129A6028E07A68264B9A4204D182
:100FA000214B4FF074629A601FE07A68224B9A429C
:100FB00003D11D4B154ADA6017E07A681F4B9A423D
:100FC00003D1194B134ADA600FE07A681C4B9A423E
:100FD00003D1154B114ADA6007E07A68194B9A423F
:100FE00003D1114B4FF03D52DA600C37BD465DF82E
:100FF000047B70471060024000600240286002409D
:101000004060024058600240706002403D00002095
:1010100088600240400F0020A060024000003D2098
:10102000B86002401064024000640240286402403C
:101030004064024058640240706402408864024088
:10104000A0640240B864024080B485B000AF78600C
:1010500039600023FB607B681B68FB60FA68244BE7
:101060001340FB603B681A683B68DB681A433B68C7
:101070005B691A433B689B691A433B68DB691A4307
:101080003B681B6A1A433B685B6A1A433B689B6A6E
:101090001A433B685B6B1A433B689B6B1343FA68CC
:1010A0001343FB607B68FA681A607B685B69FB60CE
:1010B000FB6823F00703FB603B68DA6A3B681B6B45
:1010C0001343FA681343FB607B68FA685A613B6814
:1010D0001A697B685A603B685A687B689A603B680B
:1010E0009A687B68DA601437BD465DF8047B704708
:1010F0003F801CF080B483B000AF78600B46FB707B
:10110000FB78002B06D07B681B6843F001027B68EC
:101110001A6005E07B681B6823F001027B681A6097
:101120000C37BD465DF8047B704700BF80B485B0C6
:1011300000AFF860B9601346FB71BB6803F0800331
:10114000002B0FD0FB79002B06D0FB685B6943F0C6
:101150008002FB685A6105E0FB685B6923F080024E
:10116000FB685A61BB68802B14D0FB79002B08D038
:10117000FB681A68BB6803F01E031A43FB681A6019
:1011800008E0FB681A68BB6803F01E03DB431A40E3
:10119000FB681A601437BD465DF8047B704700BFDA
:1011A00080B487B000AF786039600023FB750023FE
:1011B000FB600023BB607A68224B9A4202D8224B24
:1011C0003B6101E0214B3B613B6823F0F02323F0BE
:1011D000C313002B0AD03B68DB0A03F01E03FB603D
:1011E0007B681A68FB681340BB6004E07B685B693E
:1011F00003F08003BB603B6803F00053002B03D077
:101200003B695B68FB6002E03B691B68FB60FB6855
:1012100023F0F02323F08213FB60FA683B6813404D
:10122000002B05D0BB68002B02D00123FB7501E029
:101230000023FB75FB7D18461C37BD465DF8047B1B
:10124000704700BF0F64024000600240006402402B
:1012500080B485B000AF786039607A68104B9A42EC
:1012600002D8104BFB6001E00F4BFB603B6803F0C2
:101270000053002B07D03B6823F0F02323F08213A8
:10128000FA68D36006E03B6823F0F02323F0821372
:10129000FA6893601437BD465DF8047B704700BF61
:1012A0000F640240006002400064024080B582B0DA
:1012B00000AF1B4B00221A80194B00225A60184BBA
:1012C00000229A600023BB8017E00023FB800DE022
:1012D000BA8813469B0013449B011A44FB881344AD
:1012E000104A0021D154FB880133FB80FB88B3F501
:1012F000A07FEDD9BB880133BB80BB88EF2BE4D93D
:1013000000F05EF800F0B0F800F03EF900F010F9DF
:10131000054B1A68024B9A600837BD4680BD00BF76
:10132000CC2F0020D82F00208864024080B584B0E4
:1013300000AF0346FB710023BB8114E00023FB8157
:101340000AE0F989BA89FB79084611461A4600F085
:1013500011F8FB890133FB81FB89B3F5A07FF0D342
:10136000BB890133BB81BB89EF2BE7D91037BD4661
:1013700080BD00BF80B483B000AF13460246FA8040
:101380000A46BA80FB70FB88B3F5A07F01D3002327
:10139000FB80BB88EF2B01D90023BB80BA881346A2
:1013A0009B0013449B011A44FB881344034AF978B9
:1013B000D1540C37BD465DF8047B7047D82F002010
:1013C00080B582B000AF10200121FFF707F84FF47D
:1013D0007F433B6001233B710023BB710123FB7101
:1013E00003237B713B461E481946FFF7E1FB1C4B6C
:1013F0004FF47F425A8302200121FEF7EFFF4FF4A2
:1014000000633B6002233B7103237B710023BB71AC
:101410000123FB713B4613481946FFF7C9FB1148EE
:101420000B210122FFF752FC02200121FEF7D6FF1B
:101430004FF480533B6001233B710023BB710123B8
:10144000FB7103237B713B4606481946FFF7B0FB4F
:10145000044B4FF480521A830837BD4680BD00BF4D
:10146000001002400004024080B588B000AF0120A7
:101470000121FEF7EFFF0B23BB610023BB8200239A
:10148000BB830023FB8207F114032848194600F0B0
:10149000A3F901200121FEF7BFFF40F66B23BB61DA
:1014A0000023BB820023BB830023FB8207F11403CC
:1014B0004FF08040194600F08FF960233B800123F4
:1014C0007B804FF4D273BB600223BB813B464FF05D
:1014D0008040194600F02AFA4FF08040082100F0C1
:1014E00011FB60233B8001237B804FF4A073BB6022
:1014F0000223BB813B464FF08040194600F09CFA26
:101500004FF08040082100F019FB0848012100F04D
:10151000CDF94FF08040012100F0C8F94FF0804034
:10152000012100F0E3F92037BD4680BD00000140F5
:1015300080B582B000AF134810210122FFF7F6FDFD
:1015400044233B7100237B710023BB710123FB719A
:101550003B1D184600F0E2F84FF0804008210122C0
:1015600000F00AFB1C233B7100237B710023BB713D
:101570000123FB713B1D184600F0D0F80837BD462B
:1015800080BD00BF8864024080B590B000AF4FF4CA
:1015900080000121FEF722FF1B480021FFF7AAFD72
:1015A0001948FFF77FFC4FF040637B60174BBB602F
:1015B000174BFB6040233B6140F241137B610023EA
:1015C000BB614FF48063FB6100233B6200237B62BD
:1015D0000023BB624FF44033FB6200233B630123D3
:1015E0007B630023BB630023FB633B1D0648194656
:1015F000FFF72AFD07484FF48071012200F0F0FA4E
:101600004037BD4680BD00BF8864024015100240CF
:10161000D82F00200000014080B500AF4FF080407F
:10162000082100F0CDFA254B1B8801339AB2234BD9
:101630001A80224B1B88B3F5037F05D91F4B00226C
:101640001A801F4A1D4B5A601C4B1B88012B04D863
:101650001C4B4FF480525A8303E01A4B4FF48052D4
:101660001A83164B1B88232B27D9144B1A8840F258
:1016700002239A4221D8144B104A92681A60124BE6
:101680000E4A5268DA60114B104A128892B242F048
:10169000010292B21A800C4B0B4A126842F001020E
:1016A0001A60064B1B8803F00103002B05D0034B87
:1016B0005B6803F24112014B5A6080BDCC2F0020C1
:1016C000D82F00200004024088640240000001403E
:1016D00080B500AF0D480E49FFF762FD0346002BB1
:1016E00012D00A480A49FFF7B3FD0A4B094A12888B
:1016F00092B222F0010292B21A80044B00221A60C8
:10170000054B4FF47F425A8380BD00BF886402407E
:1017100000880020000001400010024080B485B025
:1017200000AF78600023FB730023BB730F237B7330
:101730007B68DB78002B37D0254BDB68DB4303F479
:10174000E0631B0AFB73FB7BC3F10403BB737A7B6F
:10175000FB7B42FA03F37B737B685B781A46BB7BA7
:1017600002FA03F3FB737B689A787B7B1340DAB24F
:10177000FB7B1343FB73FB7B1B01FB73154A7B68ED
:101780001B781344FA7B83F80023124B7A68127893
:101790005209D2B27968097801F01F01012000FADC
:1017A00001F143F822100EE00A4B7A6812785209D0
:1017B000D2B27968097801F01F01012000FA01F125
:1017C000203243F822101437BD465DF8047B704781
:1017D00000ED00E000E100E080B485B000AF78608B
:1017E00039600023FB817B681B88FB817A68284B6A
:1017F0009A4213D07A68274B9A420FD07B68B3F194
:10180000804F0BD07A68244B9A4207D07A68234BDA
:101810009A4203D07A68224B9A4208D1FB8923F07E
:101820007003FB813B685A88FB891343FB817A680C
:101830001C4B9A420CD07A681B4B9A4208D0FB8909
:1018400023F44073FB813B681A89FB891343FB81B6
:101850007B68FA891A803B685A687B68DA623B6861
:101860001A887B681A857A68094B9A4203D07A688D
:10187000084B9A4204D13B689B7A1A467B681A86C9
:101880007B6801229A821437BD465DF8047B70475D
:101890000000014000040140000400400008004036
:1018A000000C0040001000400014004080B483B0E1
:1018B00000AF78600B46FB70FB78002B08D07B688C
:1018C0001B889BB243F080039AB27B681A8007E0C2
:1018D0007B681B889BB223F080039AB27B681A80D6
:1018E0000C37BD465DF8047B704700BF80B483B001
:1018F00000AF78600B46FB70FB78002B08D07B684C
:101900001B889BB243F001039AB27B681A8007E000
:101910007B681B889BB223F001039AB27B681A8014
:101920000C37BD465DF8047B704700BF80B485B0BE
:1019300000AF7860396000237B810023FB810023A6
:10194000BB817B681B8C9BB223F480739AB27B684B
:101950001A847B681B8CFB817B689B88BB817B68BE
:101960009B8B7B817B8923F070037B817B8923F0B8
:1019700003037B813B681A887B8913437B81FB8946
:1019800023F40073FB813B689B891B029AB2FB899D
:101990001343FB813B685B881B029AB2FB891343AC
:1019A000FB817A68224B9A4203D07A68214B9A4293
:1019B0002BD1FB8923F40063FB813B68DB891B028D
:1019C0009AB2FB891343FB81FB8923F48063FB817B
:1019D0003B689B881B029AB2FB891343FB81BB893E
:1019E00023F48053BB81BB8923F40053BB813B6844
:1019F0001B8A1B019AB2BB891343BB813B685B8A7C
:101A00001B019AB2BB891343BB817B68BA899A8058
:101A10007B687A899A833B689A687B68DA637B681B
:101A2000FA891A841437BD465DF8047B704700BFFD
:101A3000000001400004014080B485B000AF786030
:101A400039600023BB8100237B810023FB817B68FD
:101A50001B8C9BB223F480539AB27B681A847B68F8
:101A60001B8C7B817B689B88FB817B689B8BBB810C
:101A7000BB8923F4E043BB81BB8923F44073BB8162
:101A80003B681B881B029AB2BB891343BB817B89CD
:101A900023F400537B813B689B891B039AB27B89AB
:101AA00013437B813B685B881B039AB27B8913439A
:101AB0007B817A68114B9A4203D07A68104B9A4224
:101AC0000AD1FB8923F48043FB813B681B8A9B017D
:101AD0009AB2FB891343FB817B68FA899A807B6801
:101AE000BA899A833B689A687B681A647B687A89AA
:101AF0001A841437BD465DF8047B7047000001402E
:101B00000004014080B485B000AF78600B467B8054
:101B10000023FB817B689B8BFB81FB8923F00803FF
:101B2000FB81FA897B881343FB817B68FA899A835E
:101B30001437BD465DF8047B704700BF80B485B0A4
:101B400000AF78600B467B800023FB817B689B8B1A
:101B5000FB81FB8923F40063FB817B881B029AB223
:101B6000FB891343FB817B68FA899A831437BD464E
:101B70005DF8047B704700BF80B483B000AF78602D
:101B800013460A467A807B707B78002B08D07B68EE
:101B90009B899AB27B8813439AB27B689A8109E049
:101BA0007B689B899AB27B88DB439BB213409AB2D5
:101BB0007B689A810C37BD465DF8047B704700BF97
:101BC00080B483B000AF78600B467B807B88DB43BA
:101BD0009AB27B681A820C37BD465DF8047B704769
:101BE00080B483B000AF786013460A467A807B7079
:101BF0007B78002B08D07B689B899AB27B88134343
:101C00009AB27B689A8109E07B689B899AB27B884B
:101C1000DB439BB213409AB27B689A810C37BD4676
:101C20005DF8047B704700BF81F0004102E000BF17
:101C300083F0004330B54FEA41044FEA430594EA8C
:101C4000050F08BF90EA020F1FBF54EA000C55EAC7
:101C5000020C7FEA645C7FEA655C00F0E2804FEA98
:101C60005454D4EB5555B8BF6D420CDD2C4480EA7A
:101C7000020281EA030382EA000083EA010180EAAA
:101C8000020281EA0303362D88BF30BD11F0004FF8
:101C90004FEA01314FF4801C4CEA113102D040422E
:101CA00061EB410113F0004F4FEA03334CEA133369
:101CB00002D0524263EB430394EA050F00F0A78081
:101CC000A4F10104D5F1200E0DDB02FA0EFC22FA7C
:101CD00005F2801841F1000103FA0EF2801843FA70
:101CE00005F359410EE0A5F120050EF1200E012A61
:101CF00003FA0EFC28BF4CF0020C43FA05F3C0189F
:101D000051EBE37101F0004507D54FF0000EDCF117
:101D1000000C7EEB00006EEB0101B1F5801F1BD3C0
:101D2000B1F5001F0CD349085FEA30004FEA3C0CC4
:101D300004F101044FEA445212F5800F80F09A80BA
:101D4000BCF1004F08BF5FEA500C50F1000041EBBE
:101D5000045141EA050130BD5FEA4C0C404141EBC2
:101D6000010111F4801FA4F10104E9D191F0000FE9
:101D700004BF01460020B1FA81F308BF2033A3F16C
:101D80000B03B3F120020CDA0C3208DD02F1140C63
:101D9000C2F10C0201FA0CF021FA02F10CE002F19E
:101DA0001402D8BFC2F1200C01FA02F120FA0CFC97
:101DB000DCBF41EA0C019040E41AA2BF01EB0451E0
:101DC000294330BD6FEA04041F3C1CDA0C340EDCDE
:101DD00004F11404C4F1200220FA04F001FA02F321
:101DE00040EA030021FA04F345EA030130BDC4F1DF
:101DF0000C04C4F1200220FA02F001FA04F340EAD4
:101E00000300294630BD21FA04F0294630BD94F084
:101E1000000F83F4801306BF81F480110134013D6B
:101E20004EE77FEA645C18BF7FEA655C29D094EADC
:101E3000050F08BF90EA020F05D054EA000C04BF5A
:101E40001946104630BD91EA030F1EBF0021002045
:101E500030BD5FEA545C05D14000494128BF41F0E4
:101E6000004130BD14F580043CBF01F5801130BD48
:101E700001F0004545F0FE4141F470014FF00000D3
:101E800030BD7FEA645C1ABF194610467FEA655C84
:101E90001CBF0B46024650EA013406BF52EA033526
:101EA00091EA030F41F4002130BD00BF90F0000F14
:101EB00004BF0021704730B54FF4806404F1320450
:101EC0004FF000054FF0000150E700BF90F0000F09
:101ED00004BF0021704730B54FF4806404F1320430
:101EE00010F0004548BF40424FF000013EE700BF00
:101EF00042004FEAE2014FEA31014FEA02701FBF90
:101F000012F07F4393F07F4F81F06051704792F061
:101F1000000F14BF93F07F4F704730B54FF46074DB
:101F200001F0004521F0004120E700BF50EA010226
:101F300008BF704730B54FF000050AE050EA0102D3
:101F400008BF704730B511F0004502D5404261EB43
:101F500041014FF4806404F132045FEA915C3FF484
:101F6000DCAE4FF003025FEADC0C18BF03325FEA1D
:101F7000DC0C18BF033202EBDC02C2F1200300FAD2
:101F800003FC20FA02F001FA03FE40EA0E0021FAF7
:101F900002F11444C1E600BF70B54FF0FF0C4CF4E1
:101FA000E06C1CEA11541DBF1CEA135594EA0C0F97
:101FB00095EA0C0F00F0DEF82C4481EA030621EAD2
:101FC0004C5123EA4C5350EA013518BF52EA03350D
:101FD00041F4801143F4801338D0A0FB02CE4FF0BF
:101FE0000005E1FB02E506F00042E0FB03E54FF0EF
:101FF0000006E1FB03569CF0000F18BF4EF0010EE7
:10200000A4F1FF04B6F5007F64F5407404D25FEAE2
:102010004E0E6D4146EB060642EAC62141EA555195
:102020004FEAC52040EA5E504FEACE2EB4F1FD0CD7
:1020300088BFBCF5E06F1ED8BEF1004F08BF5FEA55
:10204000500E50F1000041EB045170BD06F0004607
:1020500046EA010140EA020081EA0301B4EB5C04B4
:10206000C2BFD4EB0C0541EA045170BD41F48011AC
:102070004FF0000E013C00F3AB8014F1360FDEBFD1
:10208000002001F0004170BDC4F10004203C35DAAD
:102090000C341BDC04F11404C4F1200500FA05F330
:1020A00020FA04F001FA05F240EA020001F00042D1
:1020B00021F0004110EBD37021FA04F642EB060147
:1020C0005EEA430E08BF20EAD37070BDC4F10C0471
:1020D000C4F1200500FA04F320FA05F001FA04F235
:1020E00040EA020001F0004110EBD37041F1000121
:1020F0005EEA430E08BF20EAD37070BDC4F120052C
:1021000000FA05F24EEA020E20FA04F301FA05F293
:1021100043EA020321FA04F001F0004121FA04F23B
:1021200020EA020000EBD3705EEA430E08BF20EA0B
:10213000D37070BD94F0000F0FD101F00046400045
:1021400041EB010111F4801F08BF013CF7D041EAC7
:10215000060195F0000F18BF704703F000465200CB
:1021600043EB030313F4801F08BF013DF7D043EA9C
:102170000603704794EA0C0F0CEA135518BF95EA52
:102180000C0F0CD050EA410618BF52EA4306D1D1D9
:1021900081EA030101F000414FF0000070BD50EAF8
:1021A000410606BF1046194652EA430619D094EA82
:1021B0000C0F02D150EA013613D195EA0C0F05D16C
:1021C00052EA03361CBF104619460AD181EA0301C0
:1021D00001F0004141F0FE4141F470014FF0000078
:1021E00070BD41F0FE4141F4780170BD70B54FF013
:1021F000FF0C4CF4E06C1CEA11541DBF1CEA135593
:1022000094EA0C0F95EA0C0F00F0A7F8A4EB050474
:1022100081EA030E52EA03354FEA013100F088806B
:102220004FEA03334FF0805545EA131343EA126334
:102230004FEA022245EA111545EA10654FEA0026E9
:102240000EF000419D4208BF964244F1FD0404F5A2
:10225000407402D25B084FEA3202B61A65EB0305FE
:102260005B084FEA32024FF480104FF4002CB6EBBB
:10227000020E75EB030E22BFB61A754640EA0C003B
:102280005B084FEA3202B6EB020E75EB030E22BF7B
:10229000B61A754640EA5C005B084FEA3202B6EBBC
:1022A000020E75EB030E22BFB61A754640EA9C007B
:1022B0005B084FEA3202B6EB020E75EB030E22BF4B
:1022C000B61A754640EADC0055EA060E18D04FEA09
:1022D000051545EA16754FEA06164FEAC30343EAA9
:1022E00052734FEAC2025FEA1C1CC0D111F4801F76
:1022F0000BD141EA00014FF000004FF0004CB6E76F
:1023000011F4801F04BF01430020B4F1FD0C88BF0D
:10231000BCF5E06F3FF6AFAEB5EB030C04BFB6EB18
:10232000020C5FEA500C50F1000041EB045170BD0B
:102330000EF0004E4EEA113114EB5C04C2BFD4EB38
:102340000C0541EA045170BD41F480114FF0000EBC
:10235000013C90E645EA060E8DE60CEA135594EA38
:102360000C0F08BF95EA0C0F3FF43BAF94EA0C0F3B
:102370000AD150EA01347FF434AF95EA0C0F7FF4B0
:1023800025AF104619462CE795EA0C0F06D152EA04
:1023900003353FF4FDAE1046194622E750EA4106E8
:1023A00018BF52EA43067FF4C5AE50EA41047FF4F9
:1023B0000DAF52EA43057FF4EBAE12E74FF0FF3C5E
:1023C00006E000BF4FF0010C02E000BF4FF0010C2F
:1023D0004DF804CD4FEA410C7FEA6C5C4FEA430CA8
:1023E00018BF7FEA6C5C1BD001B050EA410C0CBFF7
:1023F00052EA430C91EA030F02BF90EA020F002059
:10240000704710F1000F91EA030F58BF994208BFBF
:1024100090422CBFD8176FEAE37040F0010070477C
:102420004FEA410C7FEA6C5C02D150EA013C07D1D3
:102430004FEA430C7FEA6C5CD6D152EA033CD3D01E
:102440005DF8040B704700BF8446104662468C4618
:102450001946634600E000BF01B5FFF7B7FF00284B
:1024600048BF10F1000F01BD4DF808EDFFF7F4FF74
:102470000CBF012000205DF808FB00BF4DF808EDFF
:10248000FFF7EAFF34BF012000205DF808FB00BF22
:102490004DF808EDFFF7E0FF94BF012000205DF844
:1024A00008FB00BF4DF808EDFFF7CEFF94BF0120F9
:1024B00000205DF808FB00BF4DF808EDFFF7C4FFF2
:1024C00034BF012000205DF808FB00BF4FEA410245
:1024D00012F5001215D211D56FF47873B3EB625276
:1024E00012D94FEAC12343F0004343EA505311F09D
:1024F000004F23FA02F018BF404270474FF000002F
:10250000704750EA013005D111F0004008BF6FF06C
:10251000004070474FF00000704700BF4A0011D2E2
:1025200012F5001211D20DD56FF47873B3EB62522D
:102530000ED44FEAC12343F0004343EA505323FA39
:1025400002F070474FF00000704750EA013002D1AE
:102550004FF0FF3070474FF00000704710B40C4B45
:102560000C481C680C4BD4F8A820D4F8AC1000FB25
:1025700002F003FB0101A2FB032301320B4443F1F0
:102580000003C4E92A2323F000405DF8044B7047A0
:10259000C82F00202DF451582D7F954C80EA010260
:1025A000844612F0030F4FD111F0030F32D14DF8D2
:1025B000044D11F0040F51F8043B0BD0A3F101328C
:1025C0009A4312F0803F04BF4CF8043B51F8043B9F
:1025D00016D100BF51F8044BA3F101329A4312F017
:1025E000803FA4F101320BD14CF8043BA24312F01E
:1025F000803F04BF51F8043B4CF8044BEAD023461B
:102600000CF8013B13F0FF0F4FEA3323F8D15DF8CC
:10261000044B704711F0010F06D011F8012B0CF894
:10262000012B002A08BF704711F0020FBFD031F80C
:10263000022B12F0FF0F16BF2CF8022B8CF8002093
:1026400012F47F4FB3D1704711F8012B0CF8012B16
:10265000002AF9D1704700BF5741542045454E200C
:102660004B55542072756B204F504452414348548F
:102670002021402324255E262A28292067616174B1
:102680002064657A65207A696E2076657264657269
:10269000206F7020646520766F6C67656E646520BE
:1026A000726567656C3F00004D6F6F6920646174EF
:1026B00020646F6574207469652E204E6F752062EA
:1026C0006C696A3F000000000A000000640000001E
:1026D0006400000064000000000000000000007FB3
:1026E000517F000000000F090F090F00003E6B41F1
:1026F0006B416B3E0E7B5541556F38775D6F367B76
:102700004D773E6B5155536E540F090F000000007A
:102710003E635D77000000775D633E0000003E2A67
:10272000362A3E00001C3622361C0000F090F000D5
:102730000000001C1414141C0000705070000000F5
:1027400000784E731D0700003E63414D4D613F0709
:102750007D417F0000007F4D55555B7E007F5555C4
:1027600055693F001F316F6F416F387F5155556D6F
:102770003F007E434555556D3F0F097D5D6D311F0F
:102780003E2A555555693F0E7B515555613F7E4256
:102790007E00000000FE82FE000000001C366B5D23
:1027A0007700003E2A2A2A3E0000775D6B361C0027
:1027B00000077D55751B0E007E427D655555617E77
:1027C000436D2D6D417F7E434145516F383E635DC2
:1027D000555577007E434D4D5D613F7E43555555C0
:1027E0007F007E436D2D2D3F007E434D4D55653F4F
:1027F0007F417777417F007755415D7500007841D3
:102800004D5D613F007F4177734D7F007F415F5099
:102810005070007E437D7D417D7D7F437D057D4100
:102820007F3E635D5D5D613F7E436D2D2D311F3EBB
:10283000635DDD9DE13F7E436D6D4D711F7E5B5598
:10284000556D3F0007057D417D05073F615F505F86
:10285000613F1F316F5868311F7F415F5F61415F8A
:102860007F497777497F007F595757613F007F4DF8
:102870005555597F007F415D55000000071D734E7F
:10288000780000775D417F0000000E0B0D0B0E00FD
:102890000070505050700000070D0B0E0000007EBD
:1028A000036D2D6D017F7E434155516F383E635D51
:1028B000555577007E43414D4D613F7E43555555FB
:1028C0007F007E436D2D2D3F007E435D5545653F66
:1028D0007F417777417F00775D415D770000784FDA
:1028E0005D5D613F007F0077710C7F007F415F502D
:1028F0005070007E437D7D437D7D7F437D057D411E
:102900007F3E63414D4D613F7E43652525311F3E2E
:102910006341CD8DE13F7E43616545711F7E5B550F
:10292000556D3F0007057D417D05073F615F505FA5
:10293000613F1F316F586F311F7F415F5F615F5F84
:102940007F497777497F007F595757613F007F4D17
:102950005555597F001C77415D7700007F417F000E
:10296000000000775D41771C0000060205010100B0
:0C29700000000000000000004300000018
:10297C00000000000000000000000000000000004B
:10298C00000000000000000000000000000000003B
:10299C00000000000000000000000000000000002B
:1029AC00000000000000000000000000000000001B
:1029BC00000000000000000000000000000000000B
:1029CC0000000000000000000000000000000000FB
:1029DC0000000000000000000000000000000000EB
:1029EC0000000000000000000000000000000000DB
:1029FC0000000000000000000000000000000000CB
:102A0C0000000000000000000000000000000000BA
:102A1C0000000000000000000000000000000000AA
:102A2C00000000000000000000000000000000009A
:102A3C00000000000000000000000000000000008A
:102A4C00000000000000000000000000000000007A
:102A5C00000000000000000000000000000000006A
:102A6C00000000000000000000000000000000005A
:102A7C000000000000000000183C3C181800180072
:102A8C00363600000000000036367F367F363600C2
:102A9C000C3E031E301F0C00006333180C666300E1
:102AAC001C361C6E3B336E00060603000000000053
:102ABC00180C0606060C1800060C1818180C060044
:102ACC0000663CFF3C660000000C0C3F0C0C000048
:102ADC0000000000000C0C060000003F000000008D
:102AEC0000000000000C0C006030180C0603010004
:102AFC003E63737B6F673E000C0E0C0C0C0C3F009E
:102B0C001E33301C06333F001E33301C30331E0086
:102B1C00383C36337F3078003F031F3030331E0093
:102B2C001C06031F33331E003F3330180C0C0C00F3
:102B3C001E33331E33331E001E33333E30180E004B
:102B4C00000C0C00000C0C00000C0C00000C0C0613
:102B5C00180C0603060C180000003F00003F000094
:102B6C00060C1830180C06001E3330180C000C0024
:102B7C003E637B7B7B031E000C1E33333F333300E1
:102B8C003F66663E66663F003C66030303663C0098
:102B9C001F36666666361F007F46161E16467F0079
:102BAC007F46161E16060F003C66030373667C00F8
:102BBC003333333F333333001E0C0C0C0C0C1E0020
:102BCC007830303033331E006766361E3666670049
:102BDC000F06060646667F0063777F7F6B63630094
:102BEC0063676F7B736363001C36636363361C001F
:102BFC003F66663E06060F001E3333333B1E38001D
:102C0C003F66663E366667001E33070E38331E007D
:102C1C003F2D0C0C0C0C1E003333333333333F007D
:102C2C0033333333331E0C006363636B7F77630082
:102C3C006363361C1C3663003333331E0C0C1E00CE
:102C4C007F6331184C667F001E06060606061E00C2
:102C5C0003060C18306040001E18181818181E00B7
:102C6C00081C36630000000000000000000000FF9C
:102C7C000C0C18000000000000001E303E336E00EB
:102C8C000706063E66663B0000001E3303331E003B
:102C9C003830303E33336E0000001E333F031E00CD
:102CAC001C36060F06060F0000006E33333E301F35
:102CBC000706366E666667000C000E0C0C0C1E00C8
:102CCC00300030303033331E070666361E36670050
:102CDC000E0C0C0C0C0C1E000000337F7F6B630081
:102CEC0000001F333333330000001E3333331E0018
:102CFC0000003B66663E060F00006E33333E3078B4
:102D0C0000003B6E66060F0000003E031E301F00E5
:102D1C00080C3E0C0C2C18000000333333336E00BF
:102D2C0000003333331E0C000000636B7F7F3600D2
:102D3C00000063361C36630000003333333E301F13
:102D4C0000003F190C263F00380C0C070C0C380007
:102D5C001818180018181800070C0C380C0C070061
:102D6C006E3B0000000000000000000000000000AE
:102D7C008888888888888888888888886868486C63
:102D8C007171717171704C28488CD4D4F4F4F8F8CA
:102D9C00F8F8F8F8F8F8F8F4D4D0AC8864646468FF
:102DAC008888888888888888888888888888888897
:102DBC008888888888888888888888888888888887
:102DCC0088888888888888888888888888886868B7
:102DDC00486C717171707070707070707070707010
:102DEC00707070706C6C6C6C6C90B4D4D4D8D8D48B
:102DFC00D4D48888888888888888888888886864F3
:102E0C00486C7171717171704C482468B0D4F4F4D1
:102E1C00F8F8F8F8F8F8F8F8F8F8F5F5D0B08864A0
:102E2C00646888888888888888888888888888885A
:102E3C008888888888888888888888888888888806
:102E4C0088888888888888888888888888888888F6
:102E5C006868486C717170707070707070707070A0
:102E6C007070706C6C6C6C6C9090B4D4D5D9D8D8E4
:102E7C00D8D4D4D488888888888888888888888892
:102E8C0068446871717171717070704C484890D45D
:102E9C00F4F8F8F8F8F8F8F8F8F8F8F8F8F9F5D5CF
:102EAC00D08C88688888888888888888888888886A
:102EBC008888888888888888888888888888888886
:102ECC008888888888888888888888888888888876
:102EDC0088888868484C70707070707070707070F2
:102EEC007070706C4C6C6C6C90B0B4D5D5D9D8D863
:102EFC00D8F8F8F4D4D48888888888888888888812
:102F0C00886868486C71717171707071706C484828
:102F1C008CD4F4F8F8F8F8F8F8F8F8F8F8F8F8F8B9
:102F2C00F8F9F5D0AC88888888888888888888885B
:102F3C008888888888888888888888888888888805
:102F4C0088888888888888888888888888888888F5
:102F5C008888888888684848707070707070707045
:102F6C007070706C6C6C6C6C90B0B4D4D9D9F8F87F
:102F7C00F8F8F8F8F4F4F4F4888888888888888855
:102F8C008888886868486C71717171707071707024
:102F9C006C486CB0D4F8F8F8F8F8F8F8F8F8F8F8D9
:102FAC00F8F8F8F8F5F5D4AC8C8888888888888887
:102FBC008888888888888888888888888888888885
:102FCC008888888888888888888888888888888875
:102FDC00888888888888886848486C707070707099
:102FEC007070706C6C6C6C9090B4D5D5D9D8F8F8B6
:102FFC00F8F8F8F8F8F4F4F4F4F4888888888888F9
:10300C0088888888886848686D7171717170707073
:10301C0070706C68688CD4F4F8F8F8F8F8F8F8F874
:10302C00F8F8F8F8F8F8F8F4F5D4B0AC8888888893
:10303C008888888888888888888888888888888804
:10304C0088888888888888888888888888888888F4
:10305C008888888888888888888868486C70909068
:10306C0090706C6C6C6C9090B0D4D4D9F9F8F8F872
:10307C00F8F8F8F8F8F8F8F8F4F4F4F48888888894
:10308C008888888888886844486C7171717151503F
:10309C0070707071706C688CB0D4F8F8F8F8F8F83F
:1030AC00F8F8F8F8F8F8F8F8F8F8F5F4F4D0AC8883
:1030BC00848488888888888888888888888888888C
:1030CC008888888888888888888888888888888874
:1030DC008888888888888888888888886848486C20
:1030EC0090906C6C6C6C9090B4D4D4F8F8F8F8F8B0
:1030FC00F4F8F8F8F8F8F8F8F8F8F8F8F4D4888850
:10310C0088888888888888886844486C717151518F
:10311C00515050505070706C686890B4D4F8F8F8F6
:10312C00F8F8F8F8F8F8F8F8F8F8F8F8F4F4F5F521
:10313C00D0AC88888488888888888888888888889B
:10314C0088888888888888888888888888888888F3
:10315C008888888888888888888888888888686823
:10316C00686C6C8C6C6C8C90B4D4D4D4F8F8F8F883
:10317C00F8F8F4F8F8F8F8F8F8F8F8F8F4F8F8D4EF
:10318C00888888888888888888686844486C6D4CEA
:10319C004C5050504C50505070706C6C8CB0D4D40F
:1031AC00F8F8F8F8F8F8F8F8F8F8F8F8F8F8F4F49B
:1031BC00F4F5F5D0AC8888848888888888888888D5
:1031CC008888888888888888888888888888888873
:1031DC008888888888888888888888888888888863
:1031EC00686868686C6C8C90B0D4D4D8F8F8F8F82F
:1031FC00F8F8F8F8F8F8F8F8F8F8F8F8F8F4F4F44F
:10320C00F4D4888888888888888888684448486C7A
:10321C004C4C4C2C2C2C2C4C4C4C70706C6C6C8C7A
:10322C00B0D4F4F8F8F8F8F8F8F8F8F8F8F8F8F882
:10323C00F8F8F8F4F5F4D4D0AC88888888888888B5
:10324C0088888888888888888888888888888888F2
:10325C0088888888888888888888888888888888E2
:10326C008888686868688C8CB0D4D4D8F8F8F8F87A
:10327C00F8F8F8F8F8F8F8F8F8F8F8F8F8F8F8F4C6
:10328C00F4F4F4D4888888888888888888684448C6
:10329C00484C4C4C2C2C2C2C2C2C2C4C4C70706CDE
:1032AC006C6C8CB4D4F8F8F8F8F8F8F8F8F8F8F87E
:1032BC00F8F8F8F8F8F8F8F8F4F4D0AC88888888BE
:1032CC008888888888888888888888888888888872
:1032DC008888888888888888888888888484848472
:1032EC008484846868888CACB0D4D4F4F8F8F8F88A
:1032FC00F8F8F8F8F8F8F8F8F8F4F4F4F8F8F8F84E
:10330C00F8F4F4F4D4B08888888888888888686849
:10331C0044484C4C4C4C2C2C2C2C2C2C2C2C4C4CED
:10332C00706C4C486C90D4D4F8F8F8F8F8F8F8F8BD
:10333C00F8F8F8F8F8F8F8F8F8F8F8F4F4D0AC88ED
:10334C0088888888888888888888888888888888F1
:10335C008888888484848484848484848484848415
:10336C008484888888888CACB0D4D4F4F8F8F8F8C5
:10337C00F8F8F8F8F8F8F8F4F4F4F8F8F4F4F4F4DD
:10338C00F4F4F8F8F4F4D4B08888888888888888AD
:10339C00684444484C4C4C2C2C2C2C2C2C2C2C2C79
:1033AC002C4C4C4C4C48688CB0D4D4F8F8F8F8F849
:1033BC00F8F8F8F8F8F8F8F8F8F8F8F8F8F8F4F489
:1033CC00D0D0AC88888888888888888888888888BD
:1033DC008888888888888888888888888888888861
:1033EC00ACACACACACACD0D0D0D4F4F4F4F4F8F8C5
:1033FC00F8F8F8F8F8F8F8F8F8F4F4F4F4F4F4F45D
:10340C00F4F4F4F4F8F4F4D4D48C8888888888889C
:10341C008868684448484C2C2C2C2C2C2C2C2C2C9C
:10342C002C2C2C2C4C4C4C4848688CB0D4F4F8F810
:10343C00F8F8F8F8F8F8F8F8F8F8F8F8F8F8F8F800
:10344C00F4F4F4F4D0ACACACACACACACACACACAC6C
:10345C00ACACD0D0D0D0D0D0D0D0D0D0D0D0D0D0A8
:10346C00D0D0D0D0D5F5F5F5F5F4F4F4F4F4F4F8B7
:10347C00F8F8F8F8F4F8F8F8F8F8F4F4F4F8F4F4D8
:10348C00F4F4F4F4F4F4F4F4F4D4B08C888888886C
:10349C0088888868444448484C2C2C2C2C2C2C2C88
:1034AC002C2C2C2C2C2C2C4C4C4848686C8CB0D4D0
:1034BC00F8F8F8F8F8F8F8F8F8F8F8F8F8F8F8F880
:1034CC00F8F8F8F8F4F4F4D4D0D0D0D0D0D0D0D0E0
:1034DC00D0D0D4D4F4F4F4F5F5F5F5F5F5F5F5F51F
:1034EC00F5F5F5F5F5F5F5F5F5F5F4F4F4F4F4F882
:1034FC00F8F8F8F8F8F8F4F4F4F8F4F4F4F8F8F858
:10350C00F4F4F4F4F4F4F4F4F4F4D4B0908C888877
:10351C00888888888868444448484C2C2C2C2C2C4F
:10352C002C2C2C2C2C2C2C2C2C2C4C4C48486868DF
:10353C008CB4D4F8F8F8F8F8F8F8F8F8F8F8F8F8D3
:10354C00F8F8F8F8F8F8F8F4F4F4F4F4F4F4F4F413
:10355C00F4F4F4F4F4F4F4F4F4F4F4F8F8F8F8F80B
:10356C00F8F8F8F4F4F4F4F4F4F4F4F4F4F4F8F8FB
:10357C00F8F8F8F8F8F8F8F8F8F4F4F4F4F4F4F8D7
:10358C00F8F8F4F4F4F4F4F4F4F4D4D4B0B08C6C9F
:10359C0088888888888888684444484C2C2C2C2C33
:1035AC002C2C2C2C2C2C2C2C2C2C2C2C4C4C4848D7
:1035BC00484868B0D4F4F8F8F8F8F8F8F8F8F4F8E3
:1035CC00F8F8F8F8F8F8F8F8F8F8F8F4F8F4F4F47F
:1035DC00F4F4F4F4F4F4F4F4F4F4F4F4F4F8F8F893
:1035EC00F8F8F8F8F8F4F4F4F4F4F4F4F4F4F4F877
:1035FC00F8F8F8F8F8F8F8F8F8F8F8F4F4F4F4F453
:10360C00F4F8F8F8F4F4F4F4F4F4F4F4D4B0B0906E
:10361C00906C88888888888888644448484C2C2C0E
:10362C002C2C2C2C2C2C2C2C2C2C2C2C2C2C4C4C8E
:10363C0048484848486CB0D4F4F8F8F8F4F4F4F47A
:10364C00F4F8F8F8F8F8F8F8F8F8F8F8F8F8F8F8F2
:10365C00F8F8F8F8F8F4F4F4F4F8F8F8F4F8F8F8F2
:10366C00F8F8F8F8F8F8F8F8F8F8F8F8F8F8F8F8CE
:10367C00F8F8F8F8F8F8F8F8F8F8F8F8F8F4F4F4CA
:10368C00F4F4F4F4F8F8F4F4F4F4F4F4F4D4B090AE
:10369C008C90707088888888888868444448484C26
:1036AC002C2C2C2C2C2C2C2C2C2C2C2C2C2C2C2C4E
:1036BC002C4C4C48484848688CB0D4F8F4F8F4F4D6
:1036CC00F4F4F8F8F8F8F8F8F8F8F8F8F8F8F8F876
:1036DC00F8F8F8F8F8F8F8F8F8F8F8F8F8F8F8F85E
:1036EC00F8F8F8F8F8F8F8F8F8F8F8F8F8F8F8F84E
:1036FC00F8F8F8F8F8F8F8F8F8F8F8F8F8F8F8F442
:10370C00F4F4F4F4F4F4F4F4F8F4F4F4F4F4D0B0D1
:10371C008C6C6C6C70708888888888886844444885
:10372C00482C2C2C2C2C2C2C2C2C2C2C2C2C2C2CB1
:10373C002C2D2D4D4C4C48484848688CD0F4F4F84E
:10374C00F4F8F4F4F8F8F4F8F8F8F8F8F8F8F8F8FD
:10375C00F8F8F8F8F8F8F8F8F8F8F8F8F8F8F8F8DD
:10376C00F8F8F8F8F8F8F8F8F8F8F8F8F8F8F8F8CD
:10377C00F8F8F8F8F8F8F8F8F8F8F8F8F8F8F8F8BD
:10378C00F4F4F8F4F8F8F4F4F4F4F4F4F5F5D4B043
:10379C008C8C6C6C4C4C4C4C888888888888644425
:1037AC004448482C2C2C2C2C2C2C2C2C2C2D2D2DFA
:1037BC002D2D2D2D2D2D4D484848484848688CD42A
:1037CC00D5F9F8F4F4F4F4F4F4F8F8F8F8F8F8F8A7
:1037DC00F8F8F8F8F8F8F8F8F8F8F8F8F8F8F8F85D
:1037EC00F8F8F8F8F8F8F8F8F8F8F8F8F8F8F8F84D
:1037FC00F8F8F8F8F8F8F8F8F8F8F8F8F8F8F8F83D
:10380C00F8F4F8F8F4F8F4F8F8F8F8F8F4F5F5D466
:10381C00B08C6C6C6C4C4C4C4C4C88888888886890
:10382C0064444848482C2C2C2C2C2C282C2C2C2C2C
:10383C002D2D2D2D2D2D2D2D282848484848484814
:10384C00688CD4F5F4F4F4F4F4F4F8F8F8F8F8F827
:10385C00F8F8F8F8F8F8F8F8F8F8F8F8F8F8F8F8DC
:10386C00F8F8F8F8F8F8F8F8F8F8F8F8F8F8F8F8CC
:10387C00F8F8F8F8F8F8F8F8F8F8F8F8F8F8F8F8BC
:10388C00F8F8F8F8F8F4F4F4F4F8F8F8F8F4F5D5E6
:10389C00D4B08C6C6C4C4C4C4C4C2C2C898888883F
:1038AC008868444448482C2C2C2C2C2C282828285C
:1038BC00282C2C2D2D2D2D2D2D29292928484848F3
:1038CC0048484868ACD0D4D4D4D4D4F4F8F8F8F838
:1038DC00F8F8F8F8F8F8F8F8F8F8F8F8F8F8F8F85C
:1038EC00F8F8F8F8F8F8F8F8F8F8F8F8F8F8F8F84C
:1038FC00F8F8F8F8F8F8F8F8F8F8F8F8F8F8F8F83C
:10390C00F8F8F8F8F8F8F4F4F4F4F4F4F4F4F4D473
:10391C00D5B4B08C6C6C4C4C4C2C2C2C2C2C89882D
:10392C0088888868444448482C2C2C2D2C2828281E
:10393C0028282828282D2D292929292929292828EA
:10394C00484848484848688CB0D0B0D0D4F4F8F80F
:10395C00F8F8F8F8F8F8F8F8F8F8F8F8F8F8F8F8DB
:10396C00F8F8F8F8F8F8F8F8F8F8F8F8F8F8F8F8CB
:10397C00F8F8F8F8F8F8F8F8F8F8F8F8F8F8F8F8BB
:10398C00F8F8F8F8F8F8F8F8F8F4F4F4F4F4F8F4C3
:10399C00F4D4B0908C6C484C4C4C4C2C2C2C2C2CC7
:1039AC008988888868644444484C4C2D2D2D2C28DB
:1039BC002828282828282828282829292929292975
:1039CC00282828484848484848688CACACD0D4F4DF
:1039DC00F8F8F8F8F8F8F8F8F8F8F8F8F8F8F8F85B
:1039EC00F8F8F8F8F8F8F8F8F8F8F8F8F8F8F8F84B
:1039FC00F8F8F8F8F8F8F8F8F8F8F8F8F8F8F8F83B
:103A0C00F8F8F8F8F8F8F8F8F8F8F4F4F4F4F4F442
:103A1C00F8F4D4B0906C6C6C4C4C4C4C4C2C2C2C56
:103A2C002C2C8988888868444448484D4D2D2D2D70
:103A3C0028282828282828282828282828282929F8
:103A4C00282828282848484848484844688CB0D436
:103A5C00F4F4F8F8F8F8F8F8F8F8F8F8F8F8F8F8E2
:103A6C00F8F8F8F8F8F8F8F8F8F8F8F8F8F8F8F8CA
:103A7C00F8F8F8F8F8F8F8F8F8F8F8F8F8F8F8F8BA
:103A8C00F8F8F8F8F8F8F8F8F8F8F8F4F4F4D4D4FE
:103A9C00D4F4D4D4B08C6C6C6C4C4C4C4C4C4C2C36
:103AAC002C2C2C2C8888888868444448484C2C2C16
:103ABC002D2D282828282828282828282828282870
:103ACC002929282828282828484848484844688C08
:103ADC00D0D4F4F4F8F8F8F8F8F8F8F8F8F8F8F8AE
:103AEC00F8F8F8F8F8F8F8F8F8F8F8F8F8F8F8F84A
:103AFC00F8F8F8F8F8F8F8F8F8F8F8F8F8F8F8F83A
:103B0C00F8F8F8F8F8F8F8F8F8F8F8F8F8F8F4F431
:103B1C00D0D0D0D4D0B08C6C6C4C4C4C4C4C4C4C5D
:103B2C002C2C2C2C2C2C88888888684444484828B9
:103B3C0028282828282828282828282828282828F9
:103B4C00282828282828282828282848484848444D
:103B5C0068ACD4F4F4F4F8F8F8F8F8F8F8F8F8F8E5
:103B6C00F8F8F8F8F8F8F8F8F8F8F8F8F8F8F8F8C9
:103B7C00F8F8F8F8F8F8F8F8F8F8F8F8F8F8F8F8B9
:103B8C00F8F8F8F8F8F8F8F8F8F8F8F8F8F8F8F8A9
:103B9C00F4F4D0D0B0B08C8C6C6C6C4C4C4C4C4C59
:103BAC004C2C2C2C2C2C2C2C888888886444444835
:103BBC002828282828282828282828282828282879
:103BCC002828282828282828282828282828484829
:103BDC00484468B0D4F4F8F8F8F8F8F8F8F8F8F8BD
:103BEC00F8F8F8F8F8F8F8F8F8F8F8F8F8F8F8F849
:103BFC00F8F8F8F8F8F8F8F8F8F8F8F8F8F8F8F839
:103C0C00F8F8F8F8F8F8F8F8F8F8F8F8F8F8F8F828
:103C1C00F8F8F4F4D4D0AC8C886868684C4C4C4CF4
:103C2C004C4C2C2C2C2C2C2C2C2C88888868442428
:103C3C0024282828282828282828282828282828FC
:103C4C0028282828282828282828282828282828E8
:103C5C00484848488CD0F5F8F8F8F8F8F8F8F8F82F
:103C6C00F8F8F8F8F8F8F8F8F8F8F8F8F8F8F8F8C8
:103C7C00F8F8F8F8F8F8F8F8F8F8F8F8F8F8F8F8B8
:103C8C00F8F8F8F8F8F8F4F8F8F8F8F8F8F8F8F8AC
:103C9C00F8F8F8F8F4F4D4D0AC886868684C4C4C5C
:103CAC004C4C2C2C2C2C2C2C2C2C2C2C88888868B8
:103CBC004424282828282828282828282828282860
:103CCC002828282829282828282828282424242873
:103CDC002828484848688CD4F9F8F8F8F8F8F8F827
:103CEC00F4F8F4F4F8F8F8F8F8F8F8F8F8F8F8F854
:103CFC00F8F8F8F8F8F8F8F8F8F8F8F8F8F8F8F43C
:103D0C00F8F8F8F8F8F8F4F4F4F8F8F8F8F8F8F833
:103D1C00F8F8F8F8F8F8F8F8F4D4B08C6868684C4F
:103D2C004C4C4C2C2C2C2C2C2C2C2C2C2C2C8888AF
:103D3C006844442428282828282828282828282883
:103D4C002828282828282828282828280804040473
:103D5C00042428484848486CB0D5F9F8F8F8F8F825
:103D6C00F8F4F4F4F4F4F4F8F8F8F8F8F8F8F8F8DF
:103D7C00F8F8F8F8F8F8F8F8F8F8F8F8F8F8F8F8B7
:103D8C00F8F8F8F8F8F8F4F4F4F4F4F4F4F4F4F8CB
:103D9C00F8F8F8F8F8F8F8F8F8F8F4F4D08C686853
:103DAC00684C4C4C4C2C2C2C2C2C2C2C2C2C2C2C8B
:103DBC008888684444242828282828282828282843
:103DCC0028282828282828282828282828080404CF
:103DDC000404042828484848488CB0D5F8F8F8F86A
:103DEC00F8F4F4F4F4F4F4F4F4F4F8F8F8F8F8F86B
:103DFC00F8F8F8F8F8F8F8F8F8F8F8F8F8F8F8F837
:103E0C00F8F8F8F8F8F8F8F4F4F4D4D4D4D4D4F4EA
:103E1C00F4F4F8F8F8F8F8F8F8F8F8F4F4F4D4B096
:103E2C006868684C4C4C4C2C2C2C2C2C2C2C2C2C92
:103E3C002C2C8988684424284828282828282828B5
:103E4C00282828282828282828282828282828040A
:103E5C0004040404242828484848488CD4F4F4F872
:103E6C00F8F8F8F4F4D4D4D4D0D0D0D4F4F4F8F8DE
:103E7C00F8F8F8F8F8F8F8F8F8F8F8F8F8F8F8F8B6
:103E8C00F8F8F8F8F8F8F8F8F4F4D4D0D0B0ACAC02
:103E9C00B0D0D4F4F4F8F8F8F8F8F8F8F8F8F8F436
:103EAC00D4B08C68684C4C4C4C2C2C2C2C2C2C2CC2
:103EBC002C2C2C2C89686444244848282828282831
:103ECC002828282828282828282828282828282866
:103EDC0028040404040428284848484868B0D4F44A
:103EEC00F4F8F8F8F4F4D4D0D0B0AC8C88ACD0F4AE
:103EFC00F4F8F8F8F8F8F8F8F8F8F8F8F8F8F8F83A
:103F0C00F8F8F8F8F8F8F8F8F8F8F4D4D0B0B0AC51
:103F1C00888888ACD0D4F4F8F8F8F8F8F8F8F8F801
:103F2C00F8F8F4D4B06C484C4C4C4C2C2C2C2C2C5D
:103F3C002C2C2C2C2C2C88684444444848282828A9
:103F4C0028282828282828282828282828282828E5
:103F5C0028282804040404242828484848486CB01D
:103F6C00D4F4F4F8F4F4F4F4D4B0B0B0AC886488BD
:103F7C00ACD0F4F8F8F8F8F8F8F8F8F8F8F8F8F82D
:103F8C00F8F8F8F8F8F8F8F8F8F8F4F4F4D4B0D045
:103F9C00D1D188646488ACD0F4F4F8F8F8F8F8F867
:103FAC00F8F8F8F8F4D4B06C4C4C4C4C4C2C4C4C01
:103FBC004C2C2C2C2C2C2C2C88684424484848281D
:103FCC002828282828282828282828282829282864
:103FDC0028282828282828282828284848484848B5
:103FEC008CB4F4F4F4F8F8F8F4F4D0B0B0D1D08880
:103FFC00646488B0D4F8F8F8F8F8F8F8F8F8F8F839
:10400C00F8F8F8F8F8F8F8F8F8F8F8F8F4F4F4D058
:10401C00B0D0F5F5AC64646488B0D4F4F8F8F8F872
:10402C00F8F8F8F8F8F4F4F5D48C68484C4C4C4C8F
:10403C004C4C4C5050505050505088684424284898
:10404C0048282828282828282828282828282829C3
:10405C002828282828282828282828282C4C4C4868
:10406C0048688CD4F4F4F8F8F8F8F4D4D0ACACD1AB
:10407C00D1A8646064ACD4F4F8F8F8F8F8F8F8F85F
:10408C00F8F8F8F8F8F8F8F8F8F8F8F8F8F8F8F4A8
:10409C00F4D0ACACD5D5AC64646488ACD4F4F4F88E
:1040AC00F4F8F8F8F8F8F8F4F4F5D5906848484CBA
:1040BC004C50505050505050505050506844442424
:1040CC002848282828282828282828282828282844
:1040DC0028282828282C28282828282C4D4D4D4CB9
:1040EC004C484868B0D4F4F4F4F4F4F4F4D4B08844
:1040FC0088ACAC644040648CD0F4F8F8F8F8F8F86C
:10410C00F8F8F8F8F8F8F8F8F8F8F8F8F8F8F8F823
:10411C00F8F4F4D08C88ACA86464406488ACD4F413
:10412C00F4F4F4F8F8F8F8F8F4F4F4F5D5B06C48C5
:10413C00484C4C5050505050505050505050684477
:10414C0024242828282828282828282828282828EB
:10415C002828282828282828282828282C2C4C4C83
:10416C004D4C4C484868B0D4F4F4F4F4F4F4F4D462
:10417C00B0886484646040406488D0F4F8F8F8F83F
:10418C00F8F8F8F8F8F8F8F8F8F8F8F8F8F8F8F8A3
:10419C00F8F8F8F4F4D08C6464644040406488AC63
:1041AC00D4F4F4F4F4F4F8F8F4F4F4F4F4F4F5D4FA
:1041BC008C48484C505050505050505050505050CB
:1041CC00684424242828282828282828282828280F
:1041DC0004040404082828282828282C28282C2CF7
:1041EC004C4C4C4C4C48486CB4D4F4F4F4F4F4F40B
:1041FC00F4D4D0AC646464404040648CD0F4F8F4E3
:10420C00F8F8F8F8F8F8F8F8F8F8F8F8F8F8F8F822
:10421C00F8F8F8F8F8F4F4D4AC68646440404064FE
:10422C0088B0D4F4F4F8F4F4F8F8F4F4F4F4F4F406
:10423C00F4D48C48484C5050505050505050505022
:10424C0050504444242828282828282808080804E2
:10425C00040404040404040428282828282C282CEA
:10426C002C2C4C4C4C4C4C48488CD4F4F4F4F4F4BA
:10427C00F4F4F4F4D4D088646460404064ACD0F4BA
:10428C00F8F4F8F8F8F8F8F8F4F4F8F8F8F8F8F8AE
:10429C00F8F8F8F8F8F8F8F8F4D4D08C646464649E
:1042AC0064648CD0D4F4F4F8F4F4F4F4F4F4F4F48A
:1042BC00F4F4F4D4B06C484C505050505050505012
:1042CC0050505050442424282828282828280404F6
:1042DC000404040404040404040404282828282CDA
:1042EC002C2C2C2C4C4C4C4C4C48488CD4F4F4F4CA
:1042FC00F4F4F4F4F4F4F4D4AC888864646488AC16
:10430C00D4F4F4F4F8F8F8F8F8F4F4F4F4F4F8F865
:10431C00F8F8F8F8F8F8F8F8F8F8F4F4D4B0AC8841
:10432C0088646488ACD4F4F4F4F4F4F4F4F4F4F4A1
:10433C00F4F4F4F4F4F4B06C484C50505050505029
:10434C005050505050504424242828282828280401
:10435C0004040404040404040404040404042828C9
:10436C00282C2C2C2C2C2C4C4C4C484868B0D5F4BC
:10437C00F4F4F4F4F8F8F8F8F8F4D4D0ACACACAC41
:10438C00ACD0D4F4F4F4F8F8F8F4F4F4F4F4F4F461
:10439C00F8F8F8F8F8F8F8F8F8F8F8F8F4F4F4D4C1
:1043AC00D0D0ACACACACD0D4F4F4F4F4F4F4F4F46D
:1043BC00F4F4F4F4F4F4F4F4D48C484C505050501D
:1043CC005050505050505050242428282828282829
:1043DC00080404040404040404040404040404048D
:1043EC0028282C2C2C2C2C2C2C4C4C4C48486CB0AD
:1043FC00F5F4F4F4F4F4F4F8F8F8F8F4F4F4D4D0A4
:10440C00D0D0D0D4F4F4F8F8F8F4F4F4D4D0D4F444
:10441C00F4F4F8F8F8F8F8F8F8F8F8F8F8F8F8F818
:10442C00F8F4F4D4D4D0D0D4F4F4F4F4F4F4F4F4E4
:10443C00F4F4F4F4F4F4F4F4F4F4D48C684C705014
:10444C005050505050505050505024242828282858
:10445C0028280804040404040404040404040404C4
:10446C00040428282C2C2C2C2C2C4C4C4C4C484820
:10447C008CD5F5F4F4F4F4F4F4F8F8F8F8F8F4F462
:10448C00F4F4F4F4F4F4F4F4F8F8F4F4D0D0ACACB0
:10449C00ACB0D0D4F4F4F4F8F8F8F8F8F8F8F8F87C
:1044AC00F8F8F8F4F4F4F4F4F4F4F4F4F4F4F4F4B4
:1044BC00F4F4F4F4F4F4F4F4F4F4F4F4D4906C4C64
:1044CC007050505050505050505050502424482848
:1044DC002828282804040404040404040404040400
:1044EC000404040428282C2C2C2C2C4C4C4C4C480C
:1044FC0048488CD5F5F4F4F4F4F4F4F8F8F8F8F83A
:10450C00F8F8F8F8F8F8F8F8F4F8F8F8F4F4D0AC9F
:10451C00886464888CB0D4F4F4F8F8F8F8F8F8F8F7
:10452C00F8F8F8F8F8F8F8F4F4F4F4F4F4F4F4F423
:10453C00F4F4F4F4F4F4F4F4F4F4F4F4F4F4D4B093
:10454C006C4C70705050505050505050505024483B
:10455C004828282828280804040404040404040413
:10456C0004040404040828282C2C2C2C2C4C4C4C13
:10457C004C4848688CD1D0F4F4F5F4F4F4F4F8F821
:10458C00F8F8F8F8F8F8F8F8F8F8F8F8F8F8F4F4A7
:10459C00D4B08864646488ACD4F4F4F8F8F8F8F80F
:1045AC00F8F8F8F8F8F8F8F8F8F4F4F4F4F4F4F49B
:1045BC00F4F4F4F4F4F4F4F4F4F4F4F4F4F4F4F8AB
:1045CC00F4B06C6C70705050505050505050505063
:1045DC00244848282828282828040404040404040F
:1045EC00040404040404042828282C2C2C2C2C4C03
:1045FC004C4C4C48486888ACCCCCD0F0F0F4F4F47B
:10460C00F8F8F8F8F8F8F8F8F8F8F8F8F8F8F8F81E
:10461C00F8F8F4D4D0ACAC88ACB0D4F4F4F4F8F82A
:10462C00F8F8F8F8F8F8F8F8F8F8F8F8F8F4F4F40A
:10463C00F4F4F4F4F4F0F0F0F0F0F0F4F4F4F4F446
:10464C00F4F4F4D48C6C7070505050505050505056
:10465C00505028484C2C2C282828280808040404DE
:10466C0004040404040404040428282C2C2C2D2DEC
:10467C004C4C4C4C4C4844446484A4A8A8CCCCF07E
:10468C00F4F4F4F8F8F8F8F8F8F8F8F8F8F8F8F8AA
:10469C00F8F8F8F8F8F4F4F4D0D0D0D4F4F4F4F446
:1046AC00F8F8F8F8F8F8F8F8F8F8F8F8F8F8F4F486
:1046BC00F4F4F4F4F0F0D0CCCCCCCCCCD0F0F4F4CA
:1046CC00F4F4F4F4F4D4906C6C707050505050506E
:1046DC005050505048484C2C2C2828282828080882
:1046EC000808040404040404080828282C2C2C2C86
:1046FC002D4D4D4C4C4C4844444064848484A4A8B7
:10470C00A8CCD0F4F4F8F8F8F8F8F8F8F8F8F8F8C9
:10471C00F8F8F8F8F8F8F4F8F4F4F4F4F4F4F4F431
:10472C00F4F8F8F8F8F8F8F8F8F8F8F8F8F8F8F801
:10473C00F4F4F4F4F4F4D0CCACA8CCC8C8A8CCCC29
:10474C00D0F4F4F4F4F4F4D4906C4C7070705050C9
:10475C00505050505050484C2C2C2C28282828288D
:10476C00282828282828282828282828282C2C4C91
:10477C004C4C4D4D4C4C4C4C4844446484A4A4A427
:10478C00A4A4A8A8CCF0F4F8F8F8F8F8F8F8F8F81D
:10479C00F8F8F8F8F8F8F8F8F8F4F4F4F4F4F4F4A9
:1047AC00F4F4F4F4F4F4F8F8F8F8F8F8F8F8F8F895
:1047BC00F8F8F4F4F4F4F4F0CCA8A8A8C8C8C8C865
:1047CC00C8C8CCD0F4F4F4F4F4D4B06C4C6C705085
:1047DC005050505050505050484C4C2C2C2C282899
:1047EC002828282828282D4D4D4D4D4D4D4D4D4DEB
:1047FC004D4D4D4D4D4D4C4C4C4C48446488A8C8C7
:10480C00C8C8C8A8A8A8CCD0F4F8F8F8F8F8F8F8F4
:10481C00F8F8F8F8F8F8F8F8F8F8F4F4F4F4F4F424
:10482C00F4F4F4F4F4F4F4F4F4F4F4F8F8F8F8F828
:10483C00F8F8F8F8F4F4F4F4F4F0CCC8A8C8C8C844
:10484C00C8C8A8A8ACD0F4F4F4F4F4D4B46C4C6C90
:10485C0070505050505050505050484C2C2C2C2CC8
:10486C002C2D2D2D2D2D2D2D4D4D4D4D4D4D4D4D6D
:10487C004D4D4D4D4D4D4D4D4C4C4C4C484464881C
:10488C00A8C8C8C8C8C8C8A8ACD0F4F4F8F8F8F8D8
:10489C00F8F8F8F8F8F8F8F8F8F8F8F4F4F4F4F4A0
:1048AC00F4F4F4F4F4F4F4F4F4F4F4F4F4F4F8F8B4
:1048BC00F8F8F8F8F8F8F4F4F4F4F4D0CCC8C8C864
:1048CC00C8C8C8C8C8A8A8CCD0F4F4F4F4D4D49000
:1048DC006C6C70705050505050505050484C2C2CA8
:1048EC002C2C2C2D2D2D2D2D2D4D4D4D4D4D4D4D0F
:1048FC004D4D4D4D4D4D4D4D4D4D4C4C4C484444F6
:10490C0064A8A8C8C8C8C8C8C8A8CCD0F4F4F4F81F
:10491C00F8F8F8F8F8F8F8F8F8F8F8F8F8F4F4F417
:10492C00F5F5F5F4F4F5F5F5F5F4F4F4F4F4F4F434
:10493C00F8F8F8F8F8F8F8F8F4F4F4F4F0CCC8C88F
:10494C00C8C8C8C8C8C8C8A8A8ACD0F4F4F4F4F453
:10495C00D4906C4C50705050505050505050284C7B
:10496C002C2C2C2C2C2C2C2D2D2D2D2D2D2D2D2D72
:10497C002C2C2C4D4D4D4D4D4D4D4D4C4C4C4C48C7
:10498C00444464A8C8C8C8C8C8C8C8C8CCD0F4F4C3
:10499C00F4F8F8F8F8F8F8F8F8F8F8F8F8F4F4F49B
:1049AC00F4F5F5F1F0F0F0F0F0F0F5F5F4F4F4F4D2
:1049BC00F4F8F8F8F8F8F8F8F8F4F4F4F4F4F0CCB7
:1049CC00C8C8C8C8C8C8C8C8C8C8A8ACD0F4F4F40B
:1049DC00F4F4D4B46C4C4C50505050505050505087
:1049EC00282C2C2C2C2C2C2C2C2D2D2D2D2D2D2DF8
:1049FC002C2C2C2C2C4D4D4D4D4D4D4D4C4C4C4C84
:104A0C004C48244464A8A8C8C8C8C8C8C8C8CCD0D6
:104A1C00F4F4F4F8F8F8F8F8F8F8F8F8F8F8F8F41A
:104A2C00F4F4D0D0CCACACACACACCCCCD0F0F0F48E
:104A3C00F4F4F4F8F8F8F8F8F8F8F8F4F4F4F4F40A
:104A4C00F0CCA8C8C8C8C8C8C8C8C8C8A8A8D0F4DA
:104A5C00F4F4F4F4D4B48C484C4C505050505050A6
:104A6C005050282C2C2C2C2C2C2C2C2C2C2C2D2D34
:104A7C002C2C2C2C2C2C2C2C4D4D4D4D4D4D4D4C63
:104A8C004C4C4C2824446488A8C8C8C8C8C8C8C89A
:104A9C00CCF0F4F4F4F8F8F8F8F8F8F8F8F8F8F8CA
:104AAC00F8F4D4D0AC8884848484A8A8A8A8ACCC0E
:104ABC00CCD0F0F4F4F8F8F8F4F4F8F8F8F4F4F4E2
:104ACC00F4F4F0CCC8C8C8C8C8C8C8C8C8C8A8AC12
:104ADC00D0F4F4F4F4F4D4D4906C4C4C4C505050BE
:104AEC0050505050282C2C2C2C2C2C2C2C2C2C2C6E
:104AFC002C2C2C2C2C2C2C2C2C2C2D4D4D4D4D4D44
:104B0C004D4D4D4C4C2824446488A8C8C8C8C8C80E
:104B1C00C8C8CCF4F4F4F4F8F8F8F8F8F8F8F8F8A5
:104B2C00F8F8F4F4D0AC8864648484A8CCCCCCCCF5
:104B3C00A8A8CCCCD0F4F4F4F4F8F8F8F8F8F8F41D
:104B4C00F4F4F4F4F0CCC8C8C8C8C8C8C8C8C8C8FD
:104B5C00A8CCD0F4F4F4F4F4D4D4B06C4C4C4C4C4D
:104B6C00505050505030282C2C2C2C2C2C2C2C2CC5
:104B7C002C2C2C2C2C2C2C2C2C2C2C2C2C2C2C2C69
:104B8C002C2C2C4C4C4C482844686888A8A8C8C8C5
:104B9C00C8C8C8CCF0F4F4F4F4F8F8F8F8F8F8F85D
:104BAC00F8F8F8F8F4F4D0A8846484A8CCCCEDED33
:104BBC00ECCCCCCCCCCCD0F4F4F4F4F8F8F8F8F889
:104BCC00F8F8F4F4F4F4F4D0CCC8C8C8C8C8C8C811
:104BDC00C8C8C8CCF0F4F4F4F4F4D4D4B06C484C99
:104BEC004C4C4C505050504C4C4C2C2C2C2C2C2CA9
:104BFC002C2C2C2C2C2C2C2C2C2C2C2C2C2C2C2CE9
:104C0C002C2C2C2C2C2C2C4C282848688C88A8A4B8
:104C1C00A4A8A8A8A8CCF0F4F4F4F8F8F8F8F8F8DC
:104C2C00F8F8F8F8F8F8F4F4D0886484A8CCCDF14E
:104C3C00F1F1F1F1F1ECCCCCCCD0F4F4F4F4F8F8D3
:104C4C00F8F8F8F4F4F4F4F4F4F0CCC8C8C8C8C814
:104C5C00C8C8C8C8CCD0F4F4F4F4F4F4F4D5D58CAA
:104C6C00484C4C4C4C50505050504C4C2C2C2C2CE8
:104C7C002C2C2C2C2C2C2C2C2C2C2C2C2C2C2C2C68
:104C8C002C2C2C2C2C2C2C2C2C282828488CB1ACE3
:104C9C00A8A8A8A8A8ACCCD0F4F4F4F8F8F8F8F8C4
:104CAC00F8F8F8F8F8F8F8F8F4F4D0888484A8CD7B
:104CBC00F1F1F1F1F1F1F1F1CCCCCCD0F4F4F4F45C
:104CCC00F4F8F8F4F4F4F4F4F4F4F4F0D0CCA8C858
:104CDC00C8C8C8C8C8CCCCF0F4F4F4F4F4F4F4D4D8
:104CEC00D590684C4C4C5050505050504D4C2C2C36
:104CFC002C2C2C2C2C2C2C2C2C2C2C2C2C2C2C2CE8
:104D0C002C2C2C2C2C2C2C2C2C2C28282828488C6B
:104D1C00D1D5D0CCCCCCCCD0F0F4F4F4F4F8F8F869
:104D2C00F8F8F8F8F8F8F8F8F8F8F8F4D0A884A837
:104D3C00CCCDF1F1F1EDF1F1F1F1CCCCCCD0F4F42E
:104D4C00F4F4F4F8F8F4F4F4F4F4F4F4F4F4F0D037
:104D5C00CCCCCCCCCCCCCCCCF0F4F4F4F4F4F4F44B
:104D6C00F4F8D5B06C4C6C505050505050504D4CD9
:104D7C002C2C2C2C2C2C2C2C2C2C2C2C2C2C2C2C67
:104D8C002C2C2C2C2C2C2C2C2C2C2C2C2828282867
:104D9C00486CD5F5F5F1F0F0F4F4F4F4F4F4F8F81B
:104DAC00F8F8F8F8F8F8F8F8F8F8F8F8F8F4D0ACEF
:104DBC0088A8CCF1F1F1F1EDF1F1F1F1CCCCCCD042
:104DCC00F4F4F4F4F4F4F4F4F4F4F4F4F4F4F4F497
:104DDC00F4F4D0F0F0F0F0F0F0F0F4F4F4F4F4F4C7
:104DEC00F4F4F4F8F9D48C6C6C7050505050505062
:104DFC004C4C2C2C2C2C2C2C2C2C2C2C2C2C2C2CA7
:104E0C002C2C2C2C2C2C2C2C2C2C2C2C2C2C2828DE
:104E1C002828486CB1F5F5F5F5F5F4F4F4F4F4F450
:104E2C00F8F8F8F8F8F8F8F8F8F8F8F8F8F8F8F4FA
:104E3C00D4ACA8A8CCF1F1F1F1F1F1F1F1F1CCCCB9
:104E4C00CCD0F4F4F4F4F4F4F4F4F4F4F4F4F4F462
:104E5C00F4F4F4F4F4F4F4F4F4F4F4F4F4F4F4F406
:104E6C00F4F4F4F4F8F4F9D5906C6C707050505074
:104E7C0050504C2C2C2C2C2C2C2C2C2C2C2C2C2CFE
:104E8C002C2C2C2C2C2C2C2C2C2C2C2C2C2C2C2C56
:104E9C00282828284868B1D5F5F5F5F4F4F4F4F48D
:104EAC00F8F8F8F8F8F8F8F8F8F8F8F8F8F8F8F876
:104EBC00F8F4F4D0A8A8CCD1F1F1F1F1F1F1F1F1C1
:104ECC00CCCCCCD0F4F4F4F4F4F4F4F4F4F4F4F432
:104EDC00F4F8F4F4F4F4F4F4F4F4F4F4F4F4F4F482
:104EEC00F4F4F4F4F4F8F8F4F4D4B0686C70705092
:104EFC00505050504C2C2C2C2C2C2C2C2C2C2C2C36
:104F0C002C2C2C2C2C2C2C2C2C2C2C2C2C2C2C2CD5
:104F1C002C2C2C2C2C2828488CD5D5F5F4F4F4F416
:104F2C00F4F8F8F8F8F8F8F8F8F8F8F8F8F8F8F8F9
:104F3C00F8F8F8F8F4D0ACA8A8CCCDEDF1F1F1F17B
:104F4C00F1CCCCCCCCD0F4F4F4F4F4F4F4F4F4F4DC
:104F5C00F4F4F4F4F4F4F4F4F4F4F4F4F4F4F4F405
:104F6C00F4F4F4F4F4F8F8F8F8F4F4F4B06C6C70BD
:104F7C007050505050504C4C2C2C2C2C2C2C2C2C2D
:104F8C002C2C2C2C2C2C2C2C2C2C2C2C2C2C2C2C55
:104F9C002C2C2C2C2C2C2C2828486CB0D5F5F4F46B
:104FAC00F8F8F8F8F8F8F8F8F8F8F8F8F8F8F8F875
:104FBC00F8F8F8F8F8F8F4F4D0ACA8A8CCCCEDEDEF
:104FCC00EDF1CCCCA8ACCCF0F4F4F8F4F4F4F8F8A3
:104FDC00F8F8F4F4F4F4F4F4F4F4F8F4F8F4F4F475
:104FEC00F4F4F4F4F4F4F4F8F8F8F8F4F4F4B08C11
:104FFC006C6C70705050504C4D4C4C2C2C2C2C2CF0
:10500C002C2C2C2C2C2C2C2C2C2C2C2C2C2C2C2CD4
:10501C002C2C2C2C2C2C2C2C2C4C48486890D5F55A
:10502C00F4F8F8F8F8F8F8F8F8F8F8F8F8F8F8F8F8
:10503C00F8F8F8F8F8F8F8F8F8F4F4D0ACACA8A84C
:10504C00A8CCC8C8A8A8A8ACD0F4F4F4F8F4F4F42C
:10505C00F8F8F8F8F8F4F8F8F4F4F8F4F8F4F4F4E0
:10506C00F4F4F4F4F4F4F4F4F4F4F8F8F8F4F4F4E8
:10507C00D48C6C6C705050504C4C4D4C4C4C2C4D4A
:10508C004D2C2C2C2C2C2C2C2C2C2C2C2C4C4C4CD3
:10509C004C4C4C4C4C4C4C4C4C4C4C4C4C48488C0C
:1050AC00B4D4F8F8F8F8F8F8F8F8F8F8F8F8F8F8DC
:1050BC00F8F8F8F8F8F8F8F8F8F8F8F8F4F4D0D0BC
:1050CC00CCACA8A8A8A8A8ACACD0F0F4F4F4F8F830
:1050DC00F8F8F8F8F8F8F8F8F8F8F8F8F8F8F8F844
:1050EC00F8F4F4F4F4F4F4F4F4F4F4F4F4F4F4F470
:1050FC00F4F4D490684C6C4C4C4C4C4C4C4C2C2CCC
:10510C002C4C4D51514D4C2C2C2C4C50515151512F
:10511C0051515151505050505050505050504C4C87
:10512C00486CB0D4F4F8F8F8F8F8F8F8F8F8F8F89F
:10513C00F8F8F8F8F8F8F8F8F8F8F8F8F8F8F4F4EB
:10514C00F4F4D0D0D0D0CCCCD0D0D0F4F4F4F4F45F
:10515C00F8F8F8F8F8F8F8F8F8F8F8F8F8F8F8F8C3
:10516C00F8F8F8F4F4F4F4F4F4F4F4F4F4F4F4F4E7
:10517C00F4F4F4F4D4B06C4C4C4C4C4C4C4C2C2CF7
:10518C002C2C2C2C4D51515151515151515151519B
:10519C0051515151515151515150505050505070DA
:1051AC00706C4C688CB0F4F8F8F8F8F8F8F8F8F87B
:1051BC00F8F8F8F8F8F8F8F8F8F8F8F8F8F8F8F863
:1051CC00F8F4F4F4F4F4F4F4F4F4F4F4F4F4F4F48F
:1051DC00F4F4F8F8F8F8F8F8F8F8F8F8F8F8F8F84B
:1051EC00F8F4F4F8F4F4F4F4F4F4F4F4F4F4F4F46B
:1051FC00F4F4F4F4F4F4D4B06C4C4C4C4C4C4C4CE7
:10520C0028282C2C2C2C4D5151515151515151516C
:10521C005151515151515151515050505050505079
:10522C00507071706C486CB0D4F8F8F8F8F8F8F865
:10523C00F8F8F8F8F8F8F8F8F8F8F8F8F8F8F8F8E2
:10524C00F8F8F8F4F4F4F4F4F4F4F4F4F4F4F4F406
:10525C00F4F4F4F8F8F8F8F8F8F8F8F8F8F8F8F8CE
:10526C00F8F8F8F8F8F8F4F4F4F4F8F8F8F8F8F8C2
:10527C00F4F4F4F4F4F4F4F4D4B06C4C4C4C4C4C16
:10528C004C4C282828282C2C2C4C50515151515125
:10529C0051515151515151505050505050505050FB
:1052AC0050505050504C4C4C688CD4F4F8F8F8F8E2
:1052BC00F8F8F8F8F8F8F8F8F8F8F8F8F8F8F8F862
:1052CC00F8F8F8F8F8F8F8F8F4F4F4F4F4F4F4F472
:1052DC00F4F4F4F4F4F8F8F8F8F8F8F8F8F8F8F856
:1052EC00F8F8F8F8F8F8F8F8F8F4F4F8F8F8F8F83A
:1052FC00F8F8F8F4F4F4F4F4F4F4F4D08C684C4CBE
:10530C004C4C4C4C282828282C2C2C2C4C505051D4
:10531C005151515151515151515050505050505078
:10532C0050505050504C4C4C4C4C688CB0D4F8F8FD
:10533C00F8F8F8F8F8F8F8F8F8F8F8F8F8F8F8F8E1
:10534C00F8F8F8F8F8F8F8F8F8F8F4F4F4F4F4F4E9
:10535C00F4F4F4F4F4F4F4F8F8F8F8F8F8F8F8F8DD
:10536C00F8F8F4F4F8F8F8F8F8F8F8F4F8F8F8F8BD
:10537C00F8F8F8F8F8F4F4F4F4F4F4F4F4D48C68E1
:10538C004C4C4C4C4C4C282828282C2C2C2C2C2CA1
:10539C002C2C2C4C5151515050505050505050506E
:1053AC005050505050504C4C2C4C4C4C688CB0D4F1
:1053BC00F4F8F8F8F8F8F8F8F8F8F8F8F8F8F8F865
:1053CC00F8F8F8F8F8F8F8F8F8F8F8F8F4F4F4F461
:1053DC00F4F4F4F4F4F4F4F4F8F8F8F8F8F8F8F861
:1053EC00F8F8F8F8F8F4F8F8F8F8F8F8F8F8F8F835
:1053FC00F8F8F8F8F8F8F8F8F8F8F4F4F4F4F4D459
:10540C008C684C4C4C4C4C4C282828282C2C2C2C84
:10541C002C2C2C2C2C2C2C2C5050505050505050A0
:10542C0050505050505050504C2C2C2C4C4C6C6CB0
:10543C008CD0F4F8F8F8F8F8F8F8F8F8F8F8F8F878
:10544C00F8F8F8F8F8F8F8F8F8F8F8F8F8F8F4F4D8
:10545C00F4F4F4F4F4F4F4F4F4F8F8F8F8F8F8F8E4
:10546C00F8F8F8F8F8F4F8F8F8F4F8F8F8F8F8F8B8
:10547C00F8F8F8F8F8F8F8F8F8F8F8F8F8F4F4F4AC
:10548C00F4D4B06C484C4C4C4C4C2828282C2C2C6C
:10549C002C2C2C2C2C2C2C2C2C2C2C2C50505050B0
:1054AC00505050505050505050504C4C2C4C4C6C08
:1054BC006C6C8CB0D4F8F8F8F8F8F8F8F8F8F8F850
:1054CC00F8F8F8F8F8F8F8F8F8F8F8F8F8F8F8F850
:1054DC00F8F4F4F4F4F4F4F4F4F4F4F8F8F8F8F868
:1054EC00F8F8F8F8F8F8F8F8F8F4F8F4F8F8F8F838
:1054FC00F8F8F8F8F8F8F8F8F8F8F8F8F8F8F8F424
:10550C00F4F4F4D4B06C484C4C4C4C4C00000000FF
:10551C00000000008C2E0020F42E00205C2F0020B8
:10552C00000000000000000000000000000000006F
:10553C00000000000000000000000000000000005F
:10554C0000000000782900080000000000000000A6
:10555C00000000000000000000000000000000003F
:10556C00000000000000000000000000000000002F
:10557C00000000000000000000000000000000001F
:10558C00000000000000000000000000000000000F
:10559C0000000000000000000000000000000000FF
:1055AC0000000000000000000000000000000000EF
:1055BC0000000000000000000100000000000000DE
:1055CC000E33CDAB34126DE6ECDE05000B000000A3
:1055DC0000000000000000000000000000000000BF
:1055EC0000000000000000000000000000000000AF
:1055FC00000000000000000000000000000000009F
:10560C00000000000000000000000000000000008E
:0C593C000000000000000000A02B002074
:0400000508000000EF
:00000001FF
