:020000040800F2
:10000000FC8B012051040008AD040008AD04000879
:10001000AD040008AD040008AD04000800000000B5
:10002000000000000000000000000000AD04000817
:10003000AD04000800000000AD040008AD04000895
:10004000AD040008AD040008AD040008AD040008CC
:10005000AD040008AD040008AD040008AD040008BC
:10006000AD040008AD040008AD040008AD040008AC
:10007000AD040008AD040008AD040008AD0400089C
:10008000AD040008AD040008AD040008AD0400088C
:10009000AD040008AD040008AD040008AD0400087C
:1000A000AD040008AD040008AD040008AD0400086C
:1000B00075220008AD040008AD040008AD04000876
:1000C000AD040008AD040008AD040008AD0400084C
:1000D000AD040008AD04000831030008AD040008B9
:1000E000AD040008AD040008AD040008AD0400082C
:1000F000AD040008AD040008AD040008AD0400081C
:10010000AD040008AD040008AD040008AD0400080B
:10011000AD040008AD040008AD040008AD040008FB
:10012000AD040008AD040008AD040008AD040008EB
:10013000AD040008AD040008AD040008AD040008DB
:10014000AD040008AD040008AD040008AD040008CB
:100150002D230008AD040008AD040008AD0400081C
:10016000AD040008AD040008AD040008AD040008AB
:10017000AD040008AD040008AD040008AD0400089B
:10018000AD040008AD04000880B483B000AF78600F
:100190000B467B807B88C3F308039AB27B689A8006
:1001A0000C37BD465DF8047B704700BF80B485B056
:1001B00000AF78600B467B800023FB737B681B8855
:1001C0009AB27B8813409BB2002B02D00123FB73B1
:1001D00001E00023FB73FB7B18461437BD465DF836
:1001E000047B704780B487B000AF78600B467B809B
:1001F0000023FB6000237B610023BB600023FB74B2
:100200007B88DBB25B09DBB2BB607B8803F01F033A
:100210007B617B69012202FA03F37B61BB68012BDE
:1002200006D17B689B899BB27A6913407B610FE0A2
:10023000BB68022B06D17B681B8A9BB27A6913408C
:100240007B6105E07B689B8A9BB27A6913407B6186
:100250007B881B0A9BB2FB60FB68012202FA03F356
:10026000FB607B681B889BB2FA681340FB607B696C
:10027000002B05D0FB68002B02D00123FB7401E0AA
:100280000023FB74FB7C18461C37BD465DF8047BDD
:10029000704700BF80B485B000AF78600B467B80AC
:1002A0000023FB810023BB817B881B0AFB81FB8928
:1002B000012202FA03F3BB81BB89DB439AB27B685C
:1002C0001A801437BD465DF8047B704780B582B054
:1002D00000AF0346FB7100BF07488021FFF766FFB0
:1002E0000346002BF8D0FB799BB203481946FFF771
:1002F0004BFF0837BD4680BD0044004080B584B048
:1003000000AF78600023FB6009E0FB687A68134463
:100310001B781846FFF7DAFFFB680133FB60FB68C8
:100320007A6813441B78002BEFD11037BD4680BD8F
:1003300080B582B000AF2F4840F22551FFF752FF41
:100340000346002B52D02B4840F22551FFF7A2FF65
:10035000284B9B889BB2FB71FB79402B05D9FB791D
:100360005A2B02D8FB792033FB71FB792C2B16D149
:100370000A23FB71204B1A68204B1868204913464A
:100380009B0013449B0003440B44FA791A701A4BE8
:100390001B685A1C184B1A60184B00221A60FB7914
:1003A0000D2B09D8144B00221A60144B00221A603E
:1003B000134800F027F811E00F4B1A680F4B18682C
:1003C0000F4913469B0013449B0003440B44FA79E6
:1003D0001A700A4B1B685A1C084B1A6000BF05486C
:1003E0004021FFF7E3FE0346002BF8D00837BD4657
:1003F00080BD00BF004400404C56002050560020F5
:100400006056002080B582B000AF78600E48FFF7DC
:1004100075FF0E4B00221A600FE00C4B1A68134652
:100420009B0013449B007A6813441846FFF766FF4D
:10043000064B1B685A1C054B1A60044B1B68072BA4
:10044000EBDD0837BD4680BD102E00085C5600204D
:1004500080B582B000AF104B7B60104B3B6007E073
:100460003B681A1D3A607A68111D796012681A603B
:100470003A680B4B9A42F3D30A480B494FF00002FB
:100480008842B8BF40F8042BFFF6FAAF00F012F82C
:100490000837BD4680BD00BFA02E00080000002028
:1004A0004C5600204C560020FC83012080B400AF45
:1004B000FEE700BF80B58AB008AF01F09FFA01F0F7
:1004C00047FD002000F04EFE0A2300931423019301
:1004D00000230293322032214622962300F0F2FCC0
:1004E0002823009301230193002302939620962151
:1004F0006422642300F0E6FC50230093012301935F
:1005000000230293322096216422642300F0DAFC57
:100510007823009301230193002302939620322134
:100520006422642300F0CEFCA023009301230193F6
:1005300000230293322064216422642300F0C2FC71
:10054000C823009301230193002302939620642182
:100550006422642300F0B6FCF0230093012301938E
:1005600000230293642032216422642300F0AAFC59
:10057000FF2300930123019300230293642096211B
:100580006422642300F09EFC7823009301230193EE
:1005900000230293002000210A22642300F092FC31
:1005A000B4204621062200F0D7F8B420002105220D
:1005B00000F0D2F8DC20A021012200F0CDF8F020DC
:1005C000A021022200F0C8F84FF48270A02103227B
:1005D00000F0C2F84FF48C70A021042200F0BCF8A7
:1005E00019230093002301930023029319230393FB
:1005F000962096213222322300F0E6FC4323FB7141
:10060000FB79002200920122019200220292002234
:10061000039214206421FE2200F0D2FD1F4B3B60A8
:1006200000230093022301930023029300230393EA
:100630000020B421E8223B6800F0E8FE184B3B6044
:1006400000230093012301930123029300230393CA
:100650000020D821E8223B6800F0D8FE0023009358
:10066000322032210F22192300F0E4FF46230093A9
:1006700023230193322302933223039319230493F8
:10068000322305931E230693002307931920192173
:100690003222192301F02AF8FEE700BF302E0008AD
:1006A000802E000880B483B000AF78600B46FB70EA
:1006B000FB78002B06D0094B084A116B7A680A4375
:1006C0001A6306E0054B054A116B7A68D2430A406B
:1006D0001A630C37BD465DF8047B70470038024052
:1006E00080B483B000AF78600B46FB70FB78002BC2
:1006F00006D0094B084A116C7A680A431A6406E06E
:10070000054B054A116C7A68D2430A401A640C37CB
:10071000BD465DF8047B70470038024080B483B06A
:1007200000AF78600B46FB70FB78002B06D0094BBE
:10073000084A516C7A680A435A6406E0054B054A38
:10074000516C7A68D2430A405A640C37BD465DF852
:10075000047B70470038024090B58BB000AFF86062
:10076000B9607A6000237B6200233B620023FB6157
:100770004E23BB6182237B61FB68B3F5A07F08DC5D
:10078000FB68002B05DBBB68F02B02DCBB68002B91
:1007900001DA01234FE17B68012B33D100233B6257
:1007A0002CE00023FB6123E08B4A3B6A1901FB69C3
:1007B0000B4413441B78002B17D0FB699AB2FB68DB
:1007C0009BB2134499B23B6A9AB2BB689BB2134482
:1007D0009AB281483B6A1C01FB69234403441B789D
:1007E000084611461A4601F0F3FBFB690133FB6131
:1007F000FB690F2BD8DD3B6A01333B623B6A0F2B51
:10080000CFDD17E17B68022B38D100233B6231E05A
:100810000F23FB6126E0704A3B6A1901FB690B4418
:1008200013441B78002B17D07B6A9AB2FB689BB2EB
:10083000134499B23B6A9AB2BB689BB213449AB212
:1008400065483B6A1C01FB69234403441B78084646
:1008500011461A4601F0BCFB7B6A01337B62FB69DF
:10086000013BFB61FB69002BD5DA00237B623B6A0D
:1008700001333B623B6A0F2BCADDDBE07B68032B55
:1008800033D100233B622CE00023FB6123E0524A7A
:10089000FB6919013B6A0B4413441B78002B17D0EA
:1008A000FB699AB2FB689BB2134499B23B6A9AB255
:1008B000BB689BB213449AB24748FB691C013B6A70
:1008C000234403441B78084611461A4601F080FB76
:1008D000FB690133FB61FB690F2BD8DD3B6A0133F8
:1008E0003B623B6A0F2BCFDDA4E07B68042B38D141
:1008F0000F233B622FE00023FB6123E0364AFB69B4
:1009000019013B6A0B4413441B78002B17D0FB6979
:100910009AB2FB689BB2134499B27B6A9AB2BB68E5
:100920009BB213449AB22C48FB691C013B6A2344D6
:1009300003441B78084611461A4601F049FBFB693F
:100940000133FB61FB690F2BD8DD7B6A01337B62CE
:100950003B6A013B3B623B6A002BCCDA00237B62A3
:1009600068E07B68052B2DD1BB683B6223E0FB6808
:10097000FB6117E0FB6999B23B6A9AB217487B6A40
:1009800003441B78084611461A4601F021FB7A6A97
:1009900042F29B739A4202D87B6A01337B62FB6905
:1009A0000133FB61FA687B691A44FB699A42E1DC16
:1009B0003B6A01333B62BA68BB691A443B6A9A429C
:1009C000D5DC37E07B68062B32D1BB683B6228E080
:1009D000FB68FB611CE000BF9C270020000000209A
:1009E000FB6999B23B6A9AB215487B6A03441B784B
:1009F000084611461A4601F0EBFA7A6A42F20F7382
:100A00009A4202D87B6A01337B62FB690133FB6146
:100A1000FB6803F16402FB699A42E1DC3B6A013343
:100A20003B62BB6803F164023B6A9A42D0DC01E09E
:100A3000022300E0002318462C37BD4690BD00BFBE
:100A40009C280020B0B590B000AFF860B9607A6023
:100A50003B607B6DBB617A68FB68D31A184602F075
:100A600063F802460B46C7E904233A68BB68D31A09
:100A7000184602F059F802460B46C7E90E23BB6838
:100A80007B630023FB62FB683B620123FB61D7E9C8
:100A90000E014FF000024FF0000302F00BF9034685
:100AA000002B11D04FF0FF33FB61D7E90E0102F0AC
:100AB00029F90346002BB8BF5B42184602F034F810
:100AC00002460B46C7E90E23D7E90E231046194606
:100AD00001F0DEFE02460B4610461946D7E9042314
:100AE00001F0D4FE02460B461046194602F00AF900
:100AF0000346BB62BB6A7B62BB687B63BB695B000E
:100B0000BB61BB69013BBB61FB683B63B4E03B6B12
:100B100099B27B6B9AB23B6DDBB2084611461A461E
:100B200001F056FABB69012B6ADDBB6A7B623B6B45
:100B30003B620023FB625FE0FA6ABB699A421FD006
:100B40003B6A99B27B6B9AB2FB6A9BB2D31A9AB298
:100B50003B6DDBB2084611461A4601F039FA3B6A92
:100B600099B27B6B9AB2FB6A9BB2D31A9BB20133E8
:100B70009AB23B6DDBB2084611461A4601F028FADC
:100B80007B6A002B1CDD3A6AFB6913443B62786A7E
:100B900001F0CAFF04460D46D7E904231046194662
:100BA00001F076FE02460B462046294601F06EFE15
:100BB00002460B461046194602F0A4F803467B6233
:100BC000786A01F0B1FF04460D46D7E90E231046BE
:100BD000194601F05DFE02460B462046294601F00B
:100BE00057FE02460B461046194602F08BF80346A4
:100BF0007B62FB6A0133FB62FA6ABB699A429BDD46
:100C0000BB6A002B1CDD7A6BFB6913447B63B86AFB
:100C100001F08AFF04460D46D7E904231046194621
:100C200001F036FE02460B462046294601F02EFE14
:100C300002460B461046194602F064F80346BB62B2
:100C4000B86A01F071FF04460D46D7E90E2310463D
:100C5000194601F01DFE02460B462046294601F0CA
:100C600017FE02460B461046194602F04BF80346A3
:100C7000BB623B6B01333B633A6B7B689A42FFF686
:100C800046AF002318464037BD46B0BDB0B590B062
:100C900000AFF860B9607A603B607B6DBB617A68D9
:100CA000FB68D31A184601F03FFF02460B46C7E91E
:100CB0000E233A68BB68D31A184601F035FF024686
:100CC0000B46C7E90423BB687B630023BB62012397
:100CD000FB61D7E90E014FF000024FF0000301F075
:100CE000E9FF0346002B11D04FF0FF33FB61D7E93A
:100CF0000E0102F007F80346002BB8BF5B4218460E
:100D000001F012FF02460B46C7E90E23D7E90E0198
:100D100001F0F8FF03465C00D7E9040101F0F2FF9F
:100D20000346E31A7B627B6A3B62FB683B63BB68FA
:100D3000FB62BB695B00BB61BB69013BBB61BB681C
:100D40007B63B4E03B6B99B27B6B9AB23B6DDBB2D9
:100D5000084611461A4601F03BF9BB69012B6ADDD2
:100D60007B6A3B627B6BFB620023BB625FE0BA6A1B
:100D7000BB699A421FD03B6B9AB2BB6A9BB2D31A33
:100D800099B2FB6A9AB23B6DDBB2084611461A462D
:100D900001F01EF93B6B9AB2BB6A9BB2D31A9BB2AD
:100DA000013B99B2FB6A9AB23B6DDBB20846114631
:100DB0001A4601F00DF93B6A002B1CDDFA6AFB694B
:100DC0001344FB62386A01F0AFFE04460D46D7E9D2
:100DD00004231046194601F05BFD02460B462046EF
:100DE000294601F053FD02460B461046194601F014
:100DF00089FF03463B62386A01F096FE04460D46C1
:100E0000D7E90E231046194601F042FD02460B4673
:100E10002046294601F03CFD02460B461046194685
:100E200001F070FF03463B62BB6A0133BB62BA6AE2
:100E3000BB699A429BDD7B6A002B1CDD3A6BFB6928
:100E400013443B63786A01F06FFE04460D46D7E910
:100E500004231046194601F01BFD02460B462046AE
:100E6000294601F013FD02460B461046194601F0D3
:100E700049FF03467B62786A01F056FE04460D4640
:100E8000D7E90E231046194601F002FD02460B4633
:100E90002046294601F0FCFC02460B461046194646
:100EA00001F030FF03467B627B6B01337B637A6B1F
:100EB0003B689A42FFF646AF002318464037BD46CE
:100EC000B0BD00BF80B588B004AFF860B9607A608B
:100ED0003B60FB68B3F5A07F08DCFB68002B05DBFB
:100EE000BB68F02B02DCBB68002B01DA012366E053
:100EF0007B68B3F5A07F08DC7B68002B05DB3B68D3
:100F0000F02B02DC3B68002B01DA012357E0BB69C0
:100F1000FF2B02DCBB69002B01DA03234FE0FB69E6
:100F2000002BB8BF5B42FB617A68FB68D31A83EA87
:100F3000E372A2EBE3723968BB68CB1A002BB8BF2F
:100F40005B429A421DDB7A68FB689A420CDDBB6902
:100F50000093FB6901933B6A0293F868B9687A6869
:100F60003B68FFF76FFD29E0BB690093FB690193C4
:100F70003B6A029378683968FA68BB68FFF762FDDC
:100F80001CE03A68BB689A420CDDBB690093FB69C0
:100F900001933B6A0293F868B9687A683B68FFF787
:100FA00075FE0BE0BB690093FB6901933B6A0293FA
:100FB00078683968FA68BB68FFF768FE002318464E
:100FC0001037BD4680BD00BF80B58AB004AFF86061
:100FD000B9607A603B60FB68B3F5A07F08DCFB6812
:100FE000002B05DBBB68F02B02DCBB68002B01DAB1
:100FF0000123B2E03B6AFF2B02DC3B6A002B01DAE3
:101000000323AAE07B68002BB8BF5B427B603B6890
:10101000002BB8BF5B423B607B6A012B23D1BB68CE
:101020007B6119E0FB683B610DE03B6999B27B692C
:101030009AB23B6ADBB2084611461A4600F0C8FF76
:101040003B6901333B61FA687B681A443B699A4209
:10105000EBDA7B6901337B61BA683B681A447B69D0
:101060009A42DFDA78E07B6A002B73D1FA687B68FA
:10107000134401333A6A0092BA6A0192FA6A029200
:10108000F868B9681A46BB68FFF71CFFFA687B6806
:10109000D118FA687B681A44B8683B680344013386
:1010A000386A0090B86A0190F86A02900846B968F8
:1010B000FFF708FFBB6A012B28DDFA687B68D118AF
:1010C000BA683B6813445A1EB8683B680344013B46
:1010D000386A0090B86A0190F86A02900846114692
:1010E000FA68FFF7EFFEBA683B6813445A1CB96808
:1010F000BB6ACB1A396A0091B96A0191F96A029107
:10110000F8681146FA68FFF7DDFE25E0FA687B68AB
:10111000D118BA683B681A44B8683B680344386A17
:101120000090B86A0190F86A029008461146FA6881
:10113000FFF7C8FEBA683B6813443A6A0092BA6A7D
:101140000192FA6A0292F8681946FA68BB68FFF7DA
:10115000B9FE01E07B2300E0002318461837BD46A6
:1011600080BD00BF80B584B000AF78607B68FF2B86
:1011700002DC7B68002B01DA03231CE00023BB8127
:1011800015E00023FB810BE07B68DBB2F989BA89AB
:10119000084611461A4600F01BFFFB890133FB810C
:1011A000FB89B3F5A07FEFD3BB890133BB81BB893A
:1011B000EF2BE6D9002318461037BD4680BD00BF8F
:1011C00080B588B000AFF860B9607A60FB7000232A
:1011D0007B613B6B002B40F08580FB78DA00894B0C
:1011E00013443B61FB6A012B36D1FB68FB612BE0AA
:1011F000BB68BB611FE0BA69BB68D31A3A69134484
:101200001B781A46F969FB68CB1A012101FA03F32E
:1012100013407B617B69002B0AD0FB6999B2BB69E3
:101220009AB27B68DBB2084611461A4600F0D0FE3F
:10123000BB690133BB61BB6803F10802BB699A4219
:10124000D9DCFB690133FB61FB6803F10802FB6930
:101250009A42CDDC0023D0E0FB6A022B40F0CC8028
:10126000FB68FB6136E0BB68BB612AE0BB6903F049
:101270000103002B14D1BA69BB68D31ADA0F1344E7
:101280005B103A6913441B781A46F969FB68CB1A5C
:10129000D90F0B445B10012101FA03F313407B616A
:1012A0007B69002B0AD0FB6999B2BB699AB27B6853
:1012B000DBB2084611461A4600F08AFEBB690133CC
:1012C000BB61BB6803F11002BB699A42CEDCFB69CB
:1012D0000133FB61FB6803F11002FB699A42C2DC37
:1012E00000238AE03B6B012B40F08680FB78203B9B
:1012F000FB70FA781346DB009B1A434A13443B61A8
:10130000FB6A012B33D1FB68FB612AE0BB68BB6140
:101310001FE0FA69FB68D31A3A6913441B781A462E
:10132000B969BB68CB1A012101FA03F313407B6151
:101330007B69002B0AD0FB6999B2BB699AB27B68C2
:10134000DBB2084611461A4600F042FEBB69013383
:10135000BB61BB68DA1DBB699A42DADCFB69013309
:10136000FB61FB68DA1DFB699A42CFDC44E0FB6A53
:10137000022B41D1FB68FB6136E0BB68BB612AE010
:10138000BB6903F00103002B14D1FA69FB68D31A7F
:10139000DA0F13445B103A6913441B781A46B96993
:1013A000BB68CB1AD90F0B445B10012101FA03F380
:1013B00013407B617B69002B0AD0FB6999B2BB6942
:1013C0009AB27B68DBB2084611461A4600F000FE6E
:1013D000BB690133BB61BB6803F10E02BB699A4272
:1013E000CEDCFB690133FB61FB6803F10E02FB6994
:1013F0009A42C2DC002300E0002318462037BD4695
:1014000080BD00BFAC4F0020AC53002080B5A4B01D
:1014100004AFF860B9607A603B607B68FF2B02DC48
:101420007B68002B01DA03235EE0FB68B3F5A07F45
:1014300008DCFB68002B05DBBB68F02B02DCBB681B
:10144000002B01DA01234FE0FB68FB67BB68BB6739
:1014500000237B6707F110031846396801F07AFC16
:101460003AE007F110027B6F13441B78D7F888200D
:101470000092D7F88C200192D7F890200292D7F8EA
:1014800094200392F86FB96F7A68FFF799FE7B6F2B
:1014900001337B67D7F88C30DB00FA6F1344FB67AE
:1014A000D7F88C30DA00FB6F1344B3F5A07F13DB61
:1014B0000023FB67D7F88C30DB00BA6F1344BB679F
:1014C000D7F88C30DA00BB6F1344F02B02DCBB6F13
:1014D000002B01DA012307E007F110027B6F1344B0
:1014E0001B78002BBDD1002318468037BD4680BD38
:1014F00080B584B000AFF860B9607A603B60FB688B
:101500009AB27B689BB2134499B2BB689AB23B68AB
:101510009BB213449AB2BB69DBB2084611461A4625
:1015200000F056FDFB689AB27B689BB2D31A99B261
:10153000BB689AB23B689BB213449AB2BB69DBB2F8
:10154000084611461A4600F043FDFB689AB27B68D4
:101550009BB2134499B2BB689AB23B689BB2D31A50
:101560009AB2BB69DBB2084611461A4600F030FD5C
:10157000FB689AB27B689BB2D31A99B2BB689AB2E5
:101580003B689BB2D31A9AB2BB69DBB208461146DC
:101590001A4600F01DFDFB689AB23B689BB21344EB
:1015A00099B2BB689AB27B689BB213449AB2BB698A
:1015B000DBB2084611461A4600F00AFDFB689AB2F3
:1015C0003B689BB2D31A99B2BB689AB27B689BB254
:1015D00013449AB2BB69DBB2084611461A4600F0C2
:1015E000F7FCFB689AB23B689BB2134499B2BB68A4
:1015F0009AB27B689BB2D31A9AB2BB69DBB2084637
:1016000011461A4600F0E4FCFB689AB23B689BB2B4
:10161000D31A99B2BB689AB27B689BB2D31A9AB2BA
:10162000BB69DBB2084611461A4600F0D1FC103700
:10163000BD4680BD80B58AB002AFF860B9607A60FF
:101640003B603B68FF2B02DC3B68002B01DA032385
:1016500047E0FB68B3F5A07F08DCFB68002B05DBE7
:10166000BB68F02B02DCBB68002B01DA012338E0F9
:101670000023FB617B68BB617A681346DB079B1A1A
:101680005B0003337B613B680093F868B968FA69D3
:10169000BB69FFF72DFF1FE0FB690133FB617B692D
:1016A000002B0BDDBB69013BBB61FA69BB69D31A37
:1016B0009A007B6913440A337B6105E0FB699A0059
:1016C0007B69134406337B613B680093F868B96813
:1016D000FA69BB69FFF70CFFBA69FB699A42DBDA6A
:1016E000002318462037BD4680BD00BF80B58AB0B4
:1016F00004AFF860B9607A603B6000237B61BB6B2C
:10170000FF2B02DCBB6B002B01DA03239DE0FB689F
:10171000B3F5A07F3CDCFB68002B39DBBB68F02B0A
:1017200036DCBB68002B33DB7B68B3F5A07F2FDC96
:101730007B68002B2CDB3B68F02B29DC3B68002B03
:1017400026DB3B6AB3F5A07F22DC3B6A002B1FDB64
:101750007B6AF02B1CDC7B6A002B19DBBB6AB3F5C0
:10176000A07F15DCBB6A002B12DBFB6AF02B0FDCC1
:10177000FB6A002B0CDB3B6BB3F5A07F08DC3B6BFB
:10178000002B05DB7B6BF02B02DC7B6B002B01DA83
:1017900001235AE0BB6B00930123019300230293C2
:1017A000F868B9687A683B68FFF78CFB78617B69F9
:1017B000002B01D07B6948E0BB6B009301230193B0
:1017C00000230293786839683A6A7B6AFFF77AFBEC
:1017D00078617B69002B01D07B6936E0BB6B00939D
:1017E0000123019300230293386A796ABA6AFB6A7B
:1017F000FFF768FB78617B69002B01D07B6924E0EF
:10180000BB6B00930123019300230293B86AF96A2A
:101810003A6B7B6BFFF756FB78617B69002B01D03D
:101820007B6912E0BB6B00930123019300230293B9
:10183000386B796BFA68BB68FFF744FB78617B69AA
:10184000002B01D07B6900E0002318461837BD4605
:1018500080BD00BF80B487B000AF786039600023DE
:101860007B6100233B610023FB6000237B6176E00A
:101870007B69012202FA03F33B613B681A683B690A
:101880001340FB60FA683B699A4265D17B681A682D
:101890007B695B00032101FA03F3DB431A407B6899
:1018A0001A607B681A683B681B7919467B695B0084
:1018B00001FA03F31A437B681A603B681B79012B1A
:1018C00003D03B681B79022B2ED17B689A687B6919
:1018D0005B00032101FA03F3DB431A407B689A6043
:1018E0007B689A683B685B7919467B695B0001FA03
:1018F00003F31A437B689A607B685A687B699BB2E2
:10190000012101FA03F3DB431A407B685A607B68CC
:101910005A683B689B7919467B699BB201FA03F3CD
:101920009BB21A437B685A607B68DA687B699BB21A
:101930005B00032101FA03F3DB431A407B68DA60A2
:101940007B68DA683B68DB7919467B695B0001FAE2
:1019500003F31A437B68DA607B6901337B617B693F
:101960000F2B85D91C37BD465DF8047B704700BF3F
:1019700080B485B000AF786013460A467A807B70E9
:101980000023FB600023BB607A787B8803F00703A9
:101990009B0002FA03F3FB607B88DB089BB21A46CC
:1019A0007B88DB089BB219467B68083153F821100D
:1019B0007B8803F007039B000F2000FA03F3DB434F
:1019C00019407B68083243F822107B88DB089BB201
:1019D0001A467B68083253F82220FB681343BB6029
:1019E0007B88DB089BB21A467B680832B96843F8EB
:1019F00022101437BD465DF8047B704780B500AFF8
:101A0000114B114A126842F001021A600E4B00227B
:101A10009A600D4A0C4B1B6823F0847323F48033C7
:101A20001360094B094A5A60074B074A126822F4AF
:101A300080221A60044B0022DA6000F00BF8044B9D
:101A40004FF000629A6080BD0038024010300024E0
:101A500000ED00E080B483B000AF00237B60002382
:101A60003B60354B344A126842F480321A60324B84
:101A70001B6803F400333B607B6801337B603B6889
:101A8000002B03D17B68B3F5A06FF0D12A4B1B6804
:101A900003F40033002B02D001233B6001E000235C
:101AA0003B603B68012B42D1234B234A126C42F02E
:101AB00080521A64214B214A126842F480421A6013
:101AC0001D4B1D4A92689A601B4B1B4A926842F458
:101AD00000429A60184B184A926842F4A0529A60E9
:101AE000154B174A5A60144B134A126842F0807221
:101AF0001A6000BF104B1B6803F00073002BF9D075
:101B0000104B40F205621A600B4B0B4A926822F0B0
:101B100003029A60084B084A926842F002029A60F7
:101B200000BF054B9B6803F00C03082BF9D10C3761
:101B3000BD465DF8047B70470038024000700040ED
:101B400008544007003C024080B483B000AF786086
:101B50007B681B6823F001027B681A607B680022A7
:101B60001A607B6800225A607B6800229A607B685A
:101B70000022DA607B6800221A617B6821225A61A8
:101B80007A68454B9A4203D1444B3D229A607EE0ED
:101B90007A68434B9A4204D1404B4FF474629A6086
:101BA00075E07A683F4B9A4204D13C4B4FF4741273
:101BB0009A606CE07A683C4B9A4204D1374B4FF004
:101BC00074629A6063E07A68384B9A4203D1334B6F
:101BD000374ADA605BE07A68364B9A4203D12F4B82
:101BE000354ADA6053E07A68344B9A4203D12B4B82
:101BF000334ADA604BE07A68324B9A4204D1274B81
:101C00004FF03D52DA6042E07A682F4B9A4203D19E
:101C10002E4B3D229A603AE07A682D4B9A4204D1CD
:101C20002A4B4FF474629A6031E07A68294B9A42E9
:101C300004D1264B4FF474129A6028E07A68264B40
:101C40009A4204D1214B4FF074629A601FE07A6887
:101C5000224B9A4203D11D4B154ADA6017E07A688D
:101C60001F4B9A4203D1194B134ADA600FE07A688E
:101C70001C4B9A4203D1154B114ADA6007E07A688F
:101C8000194B9A4203D1114B4FF03D52DA600C3799
:101C9000BD465DF8047B7047106002400060024062
:101CA000286002404060024058600240706002407C
:101CB0003D00002088600240400F0020A0600240EC
:101CC00000003D20B8600240106402400064024001
:101CD000286402404064024058640240706402403C
:101CE00088640240A0640240B864024080B485B0B9
:101CF00000AF786039600023FB607B681B68FB6085
:101D0000FA68244B1340FB603B681A683B68DB6849
:101D10001A433B685B691A433B689B691A433B68FB
:101D2000DB691A433B681B6A1A433B685B6A1A43C8
:101D30003B689B6A1A433B685B6B1A433B689B6B2F
:101D40001343FA681343FB607B68FA681A607B6888
:101D50005B69FB60FB6823F00703FB603B68DA6AA2
:101D60003B681B6B1343FA681343FB607B68FA689C
:101D70005A613B681A697B685A603B685A687B689D
:101D80009A603B689A687B68DA601437BD465DF8F4
:101D9000047B70473F801CF080B483B000AF786054
:101DA0000B46FB70FB78002B06D07B681B6843F06A
:101DB00001027B681A6005E07B681B6823F0010262
:101DC0007B681A600C37BD465DF8047B704700BF26
:101DD00080B485B000AFF860B9601346FB71BB6892
:101DE00003F08003002B0FD0FB79002B06D0FB689B
:101DF0005B6943F08002FB685A6105E0FB685B6940
:101E000023F08002FB685A61BB68802B14D0FB79F9
:101E1000002B08D0FB681A68BB6803F01E031A4346
:101E2000FB681A6008E0FB681A68BB6803F01E03D1
:101E3000DB431A40FB681A601437BD465DF8047B2B
:101E4000704700BF80B487B000AF7860396000236E
:101E5000FB750023FB600023BB607A68224B9A422B
:101E600002D8224B3B6101E0214B3B613B6823F0F0
:101E7000F02323F0C313002B0AD03B68DB0A03F0E6
:101E80001E03FB607B681A68FB681340BB6004E0BC
:101E90007B685B6903F08003BB603B6803F0005321
:101EA000002B03D03B695B68FB6002E03B691B6869
:101EB000FB60FB6823F0F02323F08213FB60FA68D9
:101EC0003B681340002B05D0BB68002B02D00123D8
:101ED000FB7501E00023FB75FB7D18461C37BD46F2
:101EE0005DF8047B704700BF0F6402400060024051
:101EF0000064024080B485B000AF786039607A68D1
:101F0000104B9A4202D8104BFB6001E00F4BFB6074
:101F10003B6803F00053002B07D03B6823F0F0230D
:101F200023F08213FA68D36006E03B6823F0F023C5
:101F300023F08213FA6893601437BD465DF8047B82
:101F4000704700BF0F64024000600240006402401E
:101F500080B582B000AF1B4B00221A80194B0022C3
:101F60005A60184B00229A600023BB8017E00023C0
:101F7000FB800DE0BA8813469B0013449B011A4472
:101F8000FB881344104A0021D154FB880133FB80A5
:101F9000FB88B3F5A07FEDD9BB880133BB80BB883C
:101FA000EF2BE4D900F03AF800F08CF800F01AF9C1
:101FB00000F0ECF8054B1A68024B9A600837BD46F2
:101FC00080BD00BF005700200C57002088640240ED
:101FD00080B483B000AF13460246FA800A46BA8046
:101FE000FB70FB88B3F5A07F01D30023FB80BB8887
:101FF000EF2B01D90023BB80BA8813469B00134402
:102000009B011A44FB881344034AF978D1540C37D6
:10201000BD465DF8047B70470C57002080B582B048
:1020200000AF10200121FEF73DFB4FF47F433B60E2
:1020300001233B710023BB710123FB7103237B71DF
:102040003B461E481946FFF705FC1C4B4FF47F42E8
:102050005A8302200121FEF725FB4FF400633B6009
:1020600002233B7103237B710023BB710123FB71AE
:102070003B4613481946FFF7EDFB11480B2101229F
:10208000FFF776FC02200121FEF70CFB4FF4805392
:102090003B6001233B710023BB710123FB710323D0
:1020A0007B713B4606481946FFF7D4FB044B4FF4BF
:1020B00080521A830837BD4680BD00BF0010024021
:1020C0000004024080B588B000AF01200121FEF776
:1020D00025FB0B23BB610023BB820023BB830023B2
:1020E000FB8207F114032848194600F0A3F90120E8
:1020F0000121FEF7F5FA40F66B23BB610023BB829A
:102100000023BB830023FB8207F114034FF08040C0
:10211000194600F08FF960233B8001237B804FF448
:10212000D273BB600223BB813B464FF0804019460F
:1021300000F02AFA4FF08040082100F011FB6023E4
:102140003B8001237B804FF4A073BB600223BB81E3
:102150003B464FF08040194600F09CFA4FF080401B
:10216000082100F019FB0848012100F0CDF94FF0DB
:102170008040012100F0C8F94FF08040012100F0BB
:10218000E3F92037BD4680BD0000014080B582B034
:1021900000AF134810210122FFF71AFE44233B71C0
:1021A00000237B710023BB710123FB713B1D18468B
:1021B00000F0E2F84FF080400821012200F00AFB15
:1021C0001C233B7100237B710023BB710123FB7136
:1021D0003B1D184600F0D0F80837BD4680BD00BF53
:1021E0008864024080B590B000AF4FF480000121B8
:1021F000FEF758FA1B480021FFF7CEFD1948FFF7FC
:10220000A3FC4FF040637B60174BBB60174BFB6038
:1022100040233B6140F241137B610023BB614FF4DB
:102220008063FB6100233B6200237B620023BB626F
:102230004FF44033FB6200233B6301237B630023A5
:10224000BB630023FB633B1D06481946FFF74EFDA9
:1022500007484FF48071012200F0F0FA4037BD4684
:1022600080BD00BF88640240151002400C5700205A
:102270000000014080B500AF4FF08040082100F021
:10228000CDFA254B1B8801339AB2234B1A80224B7F
:102290001B88B3F5037F05D91F4B00221A801F4A04
:1022A0001D4B5A601C4B1B88012B04D81C4B4FF450
:1022B00080525A8303E01A4B4FF480521A83164B14
:1022C0001B88232B27D9144B1A8840F202239A42E9
:1022D00021D8144B104A92681A60124B0E4A526869
:1022E000DA60114B104A128892B242F0010292B2A7
:1022F0001A800C4B0B4A126842F001021A60064B1E
:102300001B8803F00103002B05D0034B5B6803F22D
:102310004112014B5A6080BD005700200C5700202D
:1023200000040240886402400000014080B500AF14
:102330000D480E49FFF786FD0346002B12D00A48D0
:102340000A49FFF7D7FD0A4B094A128892B222F0D8
:10235000010292B21A80044B00221A60054B4FF41E
:102360007F425A8380BD00BF8864024000880020FD
:10237000000001400010024080B485B000AF7860DA
:102380000023FB730023BB730F237B737B68DB7815
:10239000002B37D0254BDB68DB4303F4E0631B0ADB
:1023A000FB73FB7BC3F10403BB737A7BFB7B42FAB9
:1023B00003F37B737B685B781A46BB7B02FA03F3FB
:1023C000FB737B689A787B7B1340DAB2FB7B134309
:1023D000FB73FB7B1B01FB73154A7B681B78134463
:1023E000FA7B83F80023124B7A6812785209D2B232
:1023F0007968097801F01F01012000FA01F143F822
:1024000022100EE00A4B7A6812785209D2B279682B
:10241000097801F01F01012000FA01F1203243F890
:1024200022101437BD465DF8047B704700ED00E0D4
:1024300000E100E080B485B000AF7860396000232F
:10244000FB817B681B88FB817A68284B9A4213D0FA
:102450007A68274B9A420FD07B68B3F1804F0BD03C
:102460007A68244B9A4207D07A68234B9A4203D069
:102470007A68224B9A4208D1FB8923F07003FB81D2
:102480003B685A88FB891343FB817A681C4B9A424C
:102490000CD07A681B4B9A4208D0FB8923F4407316
:1024A000FB813B681A89FB891343FB817B68FA89AE
:1024B0001A803B685A687B68DA623B681A887B68D6
:1024C0001A857A68094B9A4203D07A68084B9A4277
:1024D00004D13B689B7A1A467B681A867B68012286
:1024E0009A821437BD465DF8047B704700000140B6
:1024F000000401400004004000080040000C0040BF
:10250000001000400014004080B483B000AF786039
:102510000B46FB70FB78002B08D07B681B889BB2B6
:1025200043F080039AB27B681A8007E07B681B88BF
:102530009BB223F080039AB27B681A800C37BD46A9
:102540005DF8047B704700BF80B483B000AF786053
:102550000B46FB70FB78002B08D07B681B889BB276
:1025600043F001039AB27B681A8007E07B681B88FE
:102570009BB223F001039AB27B681A800C37BD46E8
:102580005DF8047B704700BF80B485B000AF786011
:10259000396000237B810023FB810023BB817B68A2
:1025A0001B8C9BB223F480739AB27B681A847B687D
:1025B0001B8CFB817B689B88BB817B689B8B7B81B1
:1025C0007B8923F070037B817B8923F003037B816C
:1025D0003B681A887B8913437B81FB8923F4007352
:1025E000FB813B689B891B029AB2FB891343FB81E9
:1025F0003B685B881B029AB2FB891343FB817A68B4
:10260000224B9A4203D07A68214B9A422BD1FB8904
:1026100023F40063FB813B68DB891B029AB2FB89D0
:102620001343FB81FB8923F48063FB813B689B8818
:102630001B029AB2FB891343FB81BB8923F48053AD
:10264000BB81BB8923F40053BB813B681B8A1B0100
:102650009AB2BB891343BB813B685B8A1B019AB268
:10266000BB891343BB817B68BA899A807B687A896E
:102670009A833B689A687B68DA637B68FA891A8474
:102680001437BD465DF8047B704700BF0000014071
:102690000004014080B485B000AF78603960002349
:1026A000BB8100237B810023FB817B681B8C9BB259
:1026B00023F480539AB27B681A847B681B8C7B81DD
:1026C0007B689B88FB817B689B8BBB81BB8923F4E8
:1026D000E043BB81BB8923F44073BB813B681B880B
:1026E0001B029AB2BB891343BB817B8923F400533D
:1026F0007B813B689B891B039AB27B8913437B8157
:102700003B685B881B039AB27B8913437B817A68A1
:10271000114B9A4203D07A68104B9A420AD1FB8936
:1027200023F48043FB813B681B8A9B019AB2FB899F
:102730001343FB817B68FA899A807B68BA899A8304
:102740003B689A687B681A647B687A891A841437B4
:10275000BD465DF8047B7047000001400004014065
:1027600080B485B000AF78600B467B800023FB818E
:102770007B689B8BFB81FB8923F00803FB81FA8933
:102780007B881343FB817B68FA899A831437BD46A3
:102790005DF8047B704700BF80B485B000AF7860FF
:1027A0000B467B800023FB817B689B8BFB81FB8935
:1027B00023F40063FB817B881B029AB2FB891343DD
:1027C000FB817B68FA899A831437BD465DF8047BE8
:1027D000704700BF80B483B000AF786013460A46EC
:1027E0007A807B707B78002B08D07B689B899AB2BB
:1027F0007B8813439AB27B689A8109E07B689B8946
:102800009AB27B88DB439BB213409AB27B689A8171
:102810000C37BD465DF8047B704700BF80B483B0C1
:1028200000AF78600B467B807B88DB439AB27B6885
:102830001A820C37BD465DF8047B704780B483B0C4
:1028400000AF786013460A467A807B707B78002B55
:1028500008D07B689B899AB27B8813439AB27B68C5
:102860009A8109E07B689B899AB27B88DB439BB2A3
:1028700013409AB27B689A810C37BD465DF8047BA1
:10288000704700BF81F0004102E000BF83F00043C9
:1028900030B54FEA41044FEA430594EA050F08BFFB
:1028A00090EA020F1FBF54EA000C55EA020C7FEABF
:1028B000645C7FEA655C00F0E2804FEA5454D4EB3C
:1028C0005555B8BF6D420CDD2C4480EA020281EA06
:1028D000030382EA000083EA010180EA020281EA3E
:1028E0000303362D88BF30BD11F0004F4FEA013190
:1028F0004FF4801C4CEA113102D0404261EB41019F
:1029000013F0004F4FEA03334CEA133302D0524224
:1029100063EB430394EA050F00F0A780A4F10104E0
:10292000D5F1200E0DDB02FA0EFC22FA05F280181A
:1029300041F1000103FA0EF2801843FA05F3594100
:102940000EE0A5F120050EF1200E012A03FA0EFC7F
:1029500028BF4CF0020C43FA05F3C01851EBE371A9
:1029600001F0004507D54FF0000EDCF1000C7EEBC6
:1029700000006EEB0101B1F5801F1BD3B1F5001F04
:102980000CD349085FEA30004FEA3C0C04F1010423
:102990004FEA445212F5800F80F09A80BCF1004F4C
:1029A00008BF5FEA500C50F1000041EB045141EACE
:1029B000050130BD5FEA4C0C404141EB010111F4CF
:1029C000801FA4F10104E9D191F0000F04BF01467A
:1029D0000020B1FA81F308BF2033A3F10B03B3F158
:1029E00020020CDA0C3208DD02F1140CC2F10C02E8
:1029F00001FA0CF021FA02F10CE002F11402D8BF46
:102A0000C2F1200C01FA02F120FA0CFCDCBF41EA11
:102A10000C019040E41AA2BF01EB0451294330BDE0
:102A20006FEA04041F3C1CDA0C340EDC04F11404BD
:102A3000C4F1200220FA04F001FA02F340EA030094
:102A400021FA04F345EA030130BDC4F10C04C4F1DA
:102A5000200220FA02F001FA04F340EA03002946BA
:102A600030BD21FA04F0294630BD94F0000F83F404
:102A7000801306BF81F480110134013D4EE77FEAE7
:102A8000645C18BF7FEA655C29D094EA050F08BF33
:102A900090EA020F05D054EA000C04BF1946104614
:102AA00030BD91EA030F1EBF0021002030BD5FEA58
:102AB000545C05D14000494128BF41F0004130BD80
:102AC00014F580043CBF01F5801130BD01F00045D4
:102AD00045F0FE4141F470014FF0000030BD7FEA47
:102AE000645C1ABF194610467FEA655C1CBF0B4642
:102AF000024650EA013406BF52EA033591EA030F59
:102B000041F4002130BD00BF90F0000F04BF002150
:102B1000704730B54FF4806404F132044FF0000583
:102B20004FF0000150E700BF90F0000F04BF0021FC
:102B3000704730B54FF4806404F1320410F0004562
:102B400048BF40424FF000013EE700BF42004FEA5D
:102B5000E2014FEA31014FEA02701FBF12F07F43DA
:102B600093F07F4F81F06051704792F0000F14BFD7
:102B700093F07F4F704730B54FF4607401F000451B
:102B800021F0004120E700BF50EA010208BF704772
:102B900030B54FF000050AE050EA010208BF704767
:102BA00030B511F0004502D5404261EB41014FF4D0
:102BB000806404F132045FEA915C3FF4DCAE4FF0D4
:102BC00003025FEADC0C18BF03325FEADC0C18BFBB
:102BD000033202EBDC02C2F1200300FA03FC20FA0C
:102BE00002F001FA03FE40EA0E0021FA02F1144459
:102BF000C1E600BF4FF0FF3C06E000BF4FF0010C04
:102C000002E000BF4FF0010C4DF804CD4FEA410C3B
:102C10007FEA6C5C4FEA430C18BF7FEA6C5C1BD008
:102C200001B050EA410C0CBF52EA430C91EA030F89
:102C300002BF90EA020F0020704710F1000F91EAE6
:102C4000030F58BF994208BF90422CBFD8176FEAB4
:102C5000E37040F0010070474FEA410C7FEA6C5C82
:102C600002D150EA013C07D14FEA430C7FEA6C5C89
:102C7000D6D152EA033CD3D05DF8040B704700BFB5
:102C80008446104662468C461946634600E000BF03
:102C900001B5FFF7B7FF002848BF10F1000F01BDD5
:102CA0004DF808EDFFF7F4FF0CBF012000205DF8A0
:102CB00008FB00BF4DF808EDFFF7EAFF34BF012025
:102CC00000205DF808FB00BF4DF808EDFFF7E0FFBE
:102CD00094BF012000205DF808FB00BF4DF808ED0F
:102CE000FFF7CEFF94BF012000205DF808FB00BF76
:102CF0004DF808EDFFF7C4FF34BF012000205DF858
:102D000008FB00BF4FEA410212F5001215D211D59F
:102D10006FF47873B3EB625212D94FEAC12343F0D8
:102D2000004343EA505311F0004F23FA02F018BF5A
:102D3000404270474FF00000704750EA013005D123
:102D400011F0004008BF6FF0004070474FF00000E6
:102D5000704700BF80EA0102844612F0030F4FD192
:102D600011F0030F32D14DF8044D11F0040F51F85A
:102D7000043B0BD0A3F101329A4312F0803F04BF11
:102D80004CF8043B51F8043B16D100BF51F8044BFA
:102D9000A3F101329A4312F0803FA4F101320BD12A
:102DA0004CF8043BA24312F0803F04BF51F8043BAF
:102DB0004CF8044BEAD023460CF8013B13F0FF0F0C
:102DC0004FEA3323F8D15DF8044B704711F0010F3F
:102DD00006D011F8012B0CF8012B002A08BF704710
:102DE00011F0020FBFD031F8022B12F0FF0F16BF07
:102DF0002CF8022B8CF8002012F47F4FB3D17047CF
:102E000011F8012B0CF8012B002AF9D1704700BFF3
:102E100067656E65726174656420434F4D4D414E28
:102E200044207374727563747572653A0A00000009
:102E30005741542045454E20484F4552454E204F5E
:102E4000504452414348542021402324255E262AE1
:102E5000282920676161742064657A65207A696E2B
:102E600020766572646572206F7020646520766FCD
:102E70006C67656E646520726567656C3F00000075
:102E80004D6F6F692064617420646F65742074698C
:102E9000652E204E6F7520626C696A3F000000004D
:102EA0008888888888888888888888886868486C3E
:102EB0007171717171704C28488CD4D4F4F4F8F8A5
:102EC000F8F8F8F8F8F8F8F4D4D0AC8864646468DA
:102ED0008888888888888888888888888888888872
:102EE0008888888888888888888888888888888862
:102EF0008888888888888888888888888888686892
:102F0000486C7171717070707070707070707070EA
:102F1000707070706C6C6C6C6C90B4D4D4D8D8D465
:102F2000D4D48888888888888888888888886864CD
:102F3000486C7171717171704C482468B0D4F4F4AC
:102F4000F8F8F8F8F8F8F8F8F8F8F5F5D0B088647B
:102F50006468888888888888888888888888888835
:102F600088888888888888888888888888888888E1
:102F700088888888888888888888888888888888D1
:102F80006868486C7171707070707070707070707B
:102F90007070706C6C6C6C6C9090B4D4D5D9D8D8BF
:102FA000D8D4D4D48888888888888888888888886D
:102FB00068446871717171717070704C484890D438
:102FC000F4F8F8F8F8F8F8F8F8F8F8F8F8F9F5D5AA
:102FD000D08C886888888888888888888888888845
:102FE0008888888888888888888888888888888861
:102FF0008888888888888888888888888888888851
:1030000088888868484C70707070707070707070CC
:103010007070706C4C6C6C6C90B0B4D5D5D9D8D83D
:10302000D8F8F8F4D4D488888888888888888888EC
:10303000886868486C71717171707071706C484803
:103040008CD4F4F8F8F8F8F8F8F8F8F8F8F8F8F894
:10305000F8F9F5D0AC888888888888888888888836
:1030600088888888888888888888888888888888E0
:1030700088888888888888888888888888888888D0
:103080008888888888684848707070707070707020
:103090007070706C6C6C6C6C90B0B4D4D9D9F8F85A
:1030A000F8F8F8F8F4F4F4F4888888888888888830
:1030B0008888886868486C717171717070717070FF
:1030C0006C486CB0D4F8F8F8F8F8F8F8F8F8F8F8B4
:1030D000F8F8F8F8F5F5D4AC8C8888888888888862
:1030E0008888888888888888888888888888888860
:1030F0008888888888888888888888888888888850
:10310000888888888888886848486C707070707073
:103110007070706C6C6C6C9090B4D5D5D9D8F8F890
:10312000F8F8F8F8F8F4F4F4F4F4888888888888D3
:1031300088888888886848686D717171717070704E
:1031400070706C68688CD4F4F8F8F8F8F8F8F8F84F
:10315000F8F8F8F8F8F8F8F4F5D4B0AC888888886E
:1031600088888888888888888888888888888888DF
:1031700088888888888888888888888888888888CF
:103180008888888888888888888868486C70909043
:1031900090706C6C6C6C9090B0D4D4D9F9F8F8F84D
:1031A000F8F8F8F8F8F8F8F8F4F4F4F4888888886F
:1031B0008888888888886844486C7171717151501A
:1031C00070707071706C688CB0D4F8F8F8F8F8F81A
:1031D000F8F8F8F8F8F8F8F8F8F8F5F4F4D0AC885E
:1031E0008484888888888888888888888888888867
:1031F000888888888888888888888888888888884F
:103200008888888888888888888888886848486CFA
:1032100090906C6C6C6C9090B4D4D4F8F8F8F8F88A
:10322000F4F8F8F8F8F8F8F8F8F8F8F8F4D488882A
:1032300088888888888888886844486C717151516A
:10324000515050505070706C686890B4D4F8F8F8D1
:10325000F8F8F8F8F8F8F8F8F8F8F8F8F4F4F5F5FC
:10326000D0AC888884888888888888888888888876
:1032700088888888888888888888888888888888CE
:1032800088888888888888888888888888886868FE
:10329000686C6C8C6C6C8C90B4D4D4D4F8F8F8F85E
:1032A000F8F8F4F8F8F8F8F8F8F8F8F8F4F8F8D4CA
:1032B000888888888888888888686844486C6D4CC5
:1032C0004C5050504C50505070706C6C8CB0D4D4EA
:1032D000F8F8F8F8F8F8F8F8F8F8F8F8F8F8F4F476
:1032E000F4F5F5D0AC8888848888888888888888B0
:1032F000888888888888888888888888888888884E
:10330000888888888888888888888888888888883D
:10331000686868686C6C8C90B0D4D4D8F8F8F8F809
:10332000F8F8F8F8F8F8F8F8F8F8F8F8F8F4F4F429
:10333000F4D4888888888888888888684448486C55
:103340004C4C4C2C2C2C2C4C4C4C70706C6C6C8C55
:10335000B0D4F4F8F8F8F8F8F8F8F8F8F8F8F8F85D
:10336000F8F8F8F4F5F4D4D0AC8888888888888890
:1033700088888888888888888888888888888888CD
:1033800088888888888888888888888888888888BD
:103390008888686868688C8CB0D4D4D8F8F8F8F855
:1033A000F8F8F8F8F8F8F8F8F8F8F8F8F8F8F8F4A1
:1033B000F4F4F4D4888888888888888888684448A1
:1033C000484C4C4C2C2C2C2C2C2C2C4C4C70706CB9
:1033D0006C6C8CB4D4F8F8F8F8F8F8F8F8F8F8F859
:1033E000F8F8F8F8F8F8F8F8F4F4D0AC8888888899
:1033F000888888888888888888888888888888884D
:10340000888888888888888888888888848484844C
:103410008484846868888CACB0D4D4F4F8F8F8F864
:10342000F8F8F8F8F8F8F8F8F8F4F4F4F8F8F8F828
:10343000F8F4F4F4D4B08888888888888888686824
:1034400044484C4C4C4C2C2C2C2C2C2C2C2C4C4CC8
:10345000706C4C486C90D4D4F8F8F8F8F8F8F8F898
:10346000F8F8F8F8F8F8F8F8F8F8F8F4F4D0AC88C8
:1034700088888888888888888888888888888888CC
:1034800088888884848484848484848484848484F0
:103490008484888888888CACB0D4D4F4F8F8F8F8A0
:1034A000F8F8F8F8F8F8F8F4F4F4F8F8F4F4F4F4B8
:1034B000F4F4F8F8F4F4D4B0888888888888888888
:1034C000684444484C4C4C2C2C2C2C2C2C2C2C2C54
:1034D0002C4C4C4C4C48688CB0D4D4F8F8F8F8F824
:1034E000F8F8F8F8F8F8F8F8F8F8F8F8F8F8F4F464
:1034F000D0D0AC8888888888888888888888888898
:10350000888888888888888888888888888888883B
:10351000ACACACACACACD0D0D0D4F4F4F4F4F8F89F
:10352000F8F8F8F8F8F8F8F8F8F4F4F4F4F4F4F437
:10353000F4F4F4F4F8F4F4D4D48C88888888888877
:103540008868684448484C2C2C2C2C2C2C2C2C2C77
:103550002C2C2C2C4C4C4C4848688CB0D4F4F8F8EB
:10356000F8F8F8F8F8F8F8F8F8F8F8F8F8F8F8F8DB
:10357000F4F4F4F4D0ACACACACACACACACACACAC47
:10358000ACACD0D0D0D0D0D0D0D0D0D0D0D0D0D083
:10359000D0D0D0D0D5F5F5F5F5F4F4F4F4F4F4F892
:1035A000F8F8F8F8F4F8F8F8F8F8F4F4F4F8F4F4B3
:1035B000F4F4F4F4F4F4F4F4F4D4B08C8888888847
:1035C00088888868444448484C2C2C2C2C2C2C2C63
:1035D0002C2C2C2C2C2C2C4C4C4848686C8CB0D4AB
:1035E000F8F8F8F8F8F8F8F8F8F8F8F8F8F8F8F85B
:1035F000F8F8F8F8F4F4F4D4D0D0D0D0D0D0D0D0BB
:10360000D0D0D4D4F4F4F4F5F5F5F5F5F5F5F5F5F9
:10361000F5F5F5F5F5F5F5F5F5F5F4F4F4F4F4F85C
:10362000F8F8F8F8F8F8F4F4F4F8F4F4F4F8F8F832
:10363000F4F4F4F4F4F4F4F4F4F4D4B0908C888852
:10364000888888888868444448484C2C2C2C2C2C2A
:103650002C2C2C2C2C2C2C2C2C2C4C4C48486868BA
:103660008CB4D4F8F8F8F8F8F8F8F8F8F8F8F8F8AE
:10367000F8F8F8F8F8F8F8F4F4F4F4F4F4F4F4F4EE
:10368000F4F4F4F4F4F4F4F4F4F4F4F8F8F8F8F8E6
:10369000F8F8F8F4F4F4F4F4F4F4F4F4F4F4F8F8D6
:1036A000F8F8F8F8F8F8F8F8F8F4F4F4F4F4F4F8B2
:1036B000F8F8F4F4F4F4F4F4F4F4D4D4B0B08C6C7A
:1036C00088888888888888684444484C2C2C2C2C0E
:1036D0002C2C2C2C2C2C2C2C2C2C2C2C4C4C4848B2
:1036E000484868B0D4F4F8F8F8F8F8F8F8F8F4F8BE
:1036F000F8F8F8F8F8F8F8F8F8F8F8F4F8F4F4F45A
:10370000F4F4F4F4F4F4F4F4F4F4F4F4F4F8F8F86D
:10371000F8F8F8F8F8F4F4F4F4F4F4F4F4F4F4F851
:10372000F8F8F8F8F8F8F8F8F8F8F8F4F4F4F4F42D
:10373000F4F8F8F8F4F4F4F4F4F4F4F4D4B0B09049
:10374000906C88888888888888644448484C2C2CE9
:103750002C2C2C2C2C2C2C2C2C2C2C2C2C2C4C4C69
:1037600048484848486CB0D4F4F8F8F8F4F4F4F455
:10377000F4F8F8F8F8F8F8F8F8F8F8F8F8F8F8F8CD
:10378000F8F8F8F8F8F4F4F4F4F8F8F8F4F8F8F8CD
:10379000F8F8F8F8F8F8F8F8F8F8F8F8F8F8F8F8A9
:1037A000F8F8F8F8F8F8F8F8F8F8F8F8F8F4F4F4A5
:1037B000F4F4F4F4F8F8F4F4F4F4F4F4F4D4B09089
:1037C0008C90707088888888888868444448484C01
:1037D0002C2C2C2C2C2C2C2C2C2C2C2C2C2C2C2C29
:1037E0002C4C4C48484848688CB0D4F8F4F8F4F4B1
:1037F000F4F4F8F8F8F8F8F8F8F8F8F8F8F8F8F851
:10380000F8F8F8F8F8F8F8F8F8F8F8F8F8F8F8F838
:10381000F8F8F8F8F8F8F8F8F8F8F8F8F8F8F8F828
:10382000F8F8F8F8F8F8F8F8F8F8F8F8F8F8F8F41C
:10383000F4F4F4F4F4F4F4F4F8F4F4F4F4F4D0B0AC
:103840008C6C6C6C70708888888888886844444860
:10385000482C2C2C2C2C2C2C2C2C2C2C2C2C2C2C8C
:103860002C2D2D4D4C4C48484848688CD0F4F4F829
:10387000F4F8F4F4F8F8F4F8F8F8F8F8F8F8F8F8D8
:10388000F8F8F8F8F8F8F8F8F8F8F8F8F8F8F8F8B8
:10389000F8F8F8F8F8F8F8F8F8F8F8F8F8F8F8F8A8
:1038A000F8F8F8F8F8F8F8F8F8F8F8F8F8F8F8F898
:1038B000F4F4F8F4F8F8F4F4F4F4F4F4F5F5D4B01E
:1038C0008C8C6C6C4C4C4C4C888888888888644400
:1038D0004448482C2C2C2C2C2C2C2C2C2C2D2D2DD5
:1038E0002D2D2D2D2D2D4D484848484848688CD405
:1038F000D5F9F8F4F4F4F4F4F4F8F8F8F8F8F8F882
:10390000F8F8F8F8F8F8F8F8F8F8F8F8F8F8F8F837
:10391000F8F8F8F8F8F8F8F8F8F8F8F8F8F8F8F827
:10392000F8F8F8F8F8F8F8F8F8F8F8F8F8F8F8F817
:10393000F8F4F8F8F4F8F4F8F8F8F8F8F4F5F5D441
:10394000B08C6C6C6C4C4C4C4C4C8888888888686B
:1039500064444848482C2C2C2C2C2C282C2C2C2C07
:103960002D2D2D2D2D2D2D2D2828484848484848EF
:10397000688CD4F5F4F4F4F4F4F4F8F8F8F8F8F802
:10398000F8F8F8F8F8F8F8F8F8F8F8F8F8F8F8F8B7
:10399000F8F8F8F8F8F8F8F8F8F8F8F8F8F8F8F8A7
:1039A000F8F8F8F8F8F8F8F8F8F8F8F8F8F8F8F897
:1039B000F8F8F8F8F8F4F4F4F4F8F8F8F8F4F5D5C1
:1039C000D4B08C6C6C4C4C4C4C4C2C2C898888881A
:1039D0008868444448482C2C2C2C2C2C2828282837
:1039E000282C2C2D2D2D2D2D2D29292928484848CE
:1039F00048484868ACD0D4D4D4D4D4F4F8F8F8F813
:103A0000F8F8F8F8F8F8F8F8F8F8F8F8F8F8F8F836
:103A1000F8F8F8F8F8F8F8F8F8F8F8F8F8F8F8F826
:103A2000F8F8F8F8F8F8F8F8F8F8F8F8F8F8F8F816
:103A3000F8F8F8F8F8F8F4F4F4F4F4F4F4F4F4D44E
:103A4000D5B4B08C6C6C4C4C4C2C2C2C2C2C898808
:103A500088888868444448482C2C2C2D2C282828F9
:103A600028282828282D2D292929292929292828C5
:103A7000484848484848688CB0D0B0D0D4F4F8F8EA
:103A8000F8F8F8F8F8F8F8F8F8F8F8F8F8F8F8F8B6
:103A9000F8F8F8F8F8F8F8F8F8F8F8F8F8F8F8F8A6
:103AA000F8F8F8F8F8F8F8F8F8F8F8F8F8F8F8F896
:103AB000F8F8F8F8F8F8F8F8F8F4F4F4F4F4F8F49E
:103AC000F4D4B0908C6C484C4C4C4C2C2C2C2C2CA2
:103AD0008988888868644444484C4C2D2D2D2C28B6
:103AE0002828282828282828282829292929292950
:103AF000282828484848484848688CACACD0D4F4BA
:103B0000F8F8F8F8F8F8F8F8F8F8F8F8F8F8F8F835
:103B1000F8F8F8F8F8F8F8F8F8F8F8F8F8F8F8F825
:103B2000F8F8F8F8F8F8F8F8F8F8F8F8F8F8F8F815
:103B3000F8F8F8F8F8F8F8F8F8F8F4F4F4F4F4F41D
:103B4000F8F4D4B0906C6C6C4C4C4C4C4C2C2C2C31
:103B50002C2C8988888868444448484D4D2D2D2D4B
:103B600028282828282828282828282828282929D3
:103B7000282828282848484848484844688CB0D411
:103B8000F4F4F8F8F8F8F8F8F8F8F8F8F8F8F8F8BD
:103B9000F8F8F8F8F8F8F8F8F8F8F8F8F8F8F8F8A5
:103BA000F8F8F8F8F8F8F8F8F8F8F8F8F8F8F8F895
:103BB000F8F8F8F8F8F8F8F8F8F8F8F4F4F4D4D4D9
:103BC000D4F4D4D4B08C6C6C6C4C4C4C4C4C4C2C11
:103BD0002C2C2C2C8888888868444448484C2C2CF1
:103BE0002D2D28282828282828282828282828284B
:103BF0002929282828282828484848484844688CE3
:103C0000D0D4F4F4F8F8F8F8F8F8F8F8F8F8F8F888
:103C1000F8F8F8F8F8F8F8F8F8F8F8F8F8F8F8F824
:103C2000F8F8F8F8F8F8F8F8F8F8F8F8F8F8F8F814
:103C3000F8F8F8F8F8F8F8F8F8F8F8F8F8F8F4F40C
:103C4000D0D0D0D4D0B08C6C6C4C4C4C4C4C4C4C38
:103C50002C2C2C2C2C2C8888888868444448482894
:103C600028282828282828282828282828282828D4
:103C70002828282828282828282828484848484428
:103C800068ACD4F4F4F4F8F8F8F8F8F8F8F8F8F8C0
:103C9000F8F8F8F8F8F8F8F8F8F8F8F8F8F8F8F8A4
:103CA000F8F8F8F8F8F8F8F8F8F8F8F8F8F8F8F894
:103CB000F8F8F8F8F8F8F8F8F8F8F8F8F8F8F8F884
:103CC000F4F4D0D0B0B08C8C6C6C6C4C4C4C4C4C34
:103CD0004C2C2C2C2C2C2C2C888888886444444810
:103CE0002828282828282828282828282828282854
:103CF0002828282828282828282828282828484804
:103D0000484468B0D4F4F8F8F8F8F8F8F8F8F8F897
:103D1000F8F8F8F8F8F8F8F8F8F8F8F8F8F8F8F823
:103D2000F8F8F8F8F8F8F8F8F8F8F8F8F8F8F8F813
:103D3000F8F8F8F8F8F8F8F8F8F8F8F8F8F8F8F803
:103D4000F8F8F4F4D4D0AC8C886868684C4C4C4CCF
:103D50004C4C2C2C2C2C2C2C2C2C88888868442403
:103D600024282828282828282828282828282828D7
:103D700028282828282828282828282828282828C3
:103D8000484848488CD0F5F8F8F8F8F8F8F8F8F80A
:103D9000F8F8F8F8F8F8F8F8F8F8F8F8F8F8F8F8A3
:103DA000F8F8F8F8F8F8F8F8F8F8F8F8F8F8F8F893
:103DB000F8F8F8F8F8F8F4F8F8F8F8F8F8F8F8F887
:103DC000F8F8F8F8F4F4D4D0AC886868684C4C4C37
:103DD0004C4C2C2C2C2C2C2C2C2C2C2C8888886893
:103DE000442428282828282828282828282828283B
:103DF000282828282928282828282828242424284E
:103E00002828484848688CD4F9F8F8F8F8F8F8F801
:103E1000F4F8F4F4F8F8F8F8F8F8F8F8F8F8F8F82E
:103E2000F8F8F8F8F8F8F8F8F8F8F8F8F8F8F8F416
:103E3000F8F8F8F8F8F8F4F4F4F8F8F8F8F8F8F80E
:103E4000F8F8F8F8F8F8F8F8F4D4B08C6868684C2A
:103E50004C4C4C2C2C2C2C2C2C2C2C2C2C2C88888A
:103E6000684444242828282828282828282828285E
:103E7000282828282828282828282828080404044E
:103E8000042428484848486CB0D5F9F8F8F8F8F800
:103E9000F8F4F4F4F4F4F4F8F8F8F8F8F8F8F8F8BA
:103EA000F8F8F8F8F8F8F8F8F8F8F8F8F8F8F8F892
:103EB000F8F8F8F8F8F8F4F4F4F4F4F4F4F4F4F8A6
:103EC000F8F8F8F8F8F8F8F8F8F8F4F4D08C68682E
:103ED000684C4C4C4C2C2C2C2C2C2C2C2C2C2C2C66
:103EE000888868444424282828282828282828281E
:103EF00028282828282828282828282828080404AA
:103F00000404042828484848488CB0D5F8F8F8F844
:103F1000F8F4F4F4F4F4F4F4F4F4F8F8F8F8F8F845
:103F2000F8F8F8F8F8F8F8F8F8F8F8F8F8F8F8F811
:103F3000F8F8F8F8F8F8F8F4F4F4D4D4D4D4D4F4C5
:103F4000F4F4F8F8F8F8F8F8F8F8F8F4F4F4D4B071
:103F50006868684C4C4C4C2C2C2C2C2C2C2C2C2C6D
:103F60002C2C898868442428482828282828282890
:103F700028282828282828282828282828282804E5
:103F800004040404242828484848488CD4F4F4F84D
:103F9000F8F8F8F4F4D4D4D4D0D0D0D4F4F4F8F8B9
:103FA000F8F8F8F8F8F8F8F8F8F8F8F8F8F8F8F891
:103FB000F8F8F8F8F8F8F8F8F4F4D4D0D0B0ACACDD
:103FC000B0D0D4F4F4F8F8F8F8F8F8F8F8F8F8F411
:103FD000D4B08C68684C4C4C4C2C2C2C2C2C2C2C9D
:103FE0002C2C2C2C8968644424484828282828280C
:103FF0002828282828282828282828282828282841
:1040000028040404040428284848484868B0D4F424
:10401000F4F8F8F8F4F4D4D0D0B0AC8C88ACD0F488
:10402000F4F8F8F8F8F8F8F8F8F8F8F8F8F8F8F814
:10403000F8F8F8F8F8F8F8F8F8F8F4D4D0B0B0AC2C
:10404000888888ACD0D4F4F8F8F8F8F8F8F8F8F8DC
:10405000F8F8F4D4B06C484C4C4C4C2C2C2C2C2C38
:104060002C2C2C2C2C2C8868444444484828282884
:1040700028282828282828282828282828282828C0
:1040800028282804040404242828484848486CB0F8
:10409000D4F4F4F8F4F4F4F4D4B0B0B0AC88648898
:1040A000ACD0F4F8F8F8F8F8F8F8F8F8F8F8F8F808
:1040B000F8F8F8F8F8F8F8F8F8F8F4F4F4D4B0D020
:1040C000D1D188646488ACD0F4F4F8F8F8F8F8F842
:1040D000F8F8F8F8F4D4B06C4C4C4C4C4C2C4C4CDC
:1040E0004C2C2C2C2C2C2C2C8868442448484828F8
:1040F000282828282828282828282828282928283F
:10410000282828282828282828282848484848488F
:104110008CB4F4F4F4F8F8F8F4F4D0B0B0D1D0885A
:10412000646488B0D4F8F8F8F8F8F8F8F8F8F8F813
:10413000F8F8F8F8F8F8F8F8F8F8F8F8F4F4F4D033
:10414000B0D0F5F5AC64646488B0D4F4F8F8F8F84D
:10415000F8F8F8F8F8F4F4F5D48C68484C4C4C4C6A
:104160004C4C4C5050505050505088684424284873
:10417000482828282828282828282828282828299E
:104180002828282828282828282828282C4C4C4843
:1041900048688CD4F4F4F8F8F8F8F4D4D0ACACD186
:1041A000D1A8646064ACD4F4F8F8F8F8F8F8F8F83A
:1041B000F8F8F8F8F8F8F8F8F8F8F8F8F8F8F8F483
:1041C000F4D0ACACD5D5AC64646488ACD4F4F4F869
:1041D000F4F8F8F8F8F8F8F4F4F5D5906848484C95
:1041E0004C505050505050505050505068444424FF
:1041F000284828282828282828282828282828281F
:1042000028282828282C28282828282C4D4D4D4C93
:104210004C484868B0D4F4F4F4F4F4F4F4D4B0881E
:1042200088ACAC644040648CD0F4F8F8F8F8F8F846
:10423000F8F8F8F8F8F8F8F8F8F8F8F8F8F8F8F8FE
:10424000F8F4F4D08C88ACA86464406488ACD4F4EE
:10425000F4F4F4F8F8F8F8F8F4F4F4F5D5B06C48A0
:10426000484C4C5050505050505050505050684452
:1042700024242828282828282828282828282828C6
:104280002828282828282828282828282C2C4C4C5E
:104290004D4C4C484868B0D4F4F4F4F4F4F4F4D43D
:1042A000B0886484646040406488D0F4F8F8F8F81A
:1042B000F8F8F8F8F8F8F8F8F8F8F8F8F8F8F8F87E
:1042C000F8F8F8F4F4D08C6464644040406488AC3E
:1042D000D4F4F4F4F4F4F8F8F4F4F4F4F4F4F5D4D5
:1042E0008C48484C505050505050505050505050A6
:1042F00068442424282828282828282828282828EA
:1043000004040404082828282828282C28282C2CD1
:104310004C4C4C4C4C48486CB4D4F4F4F4F4F4F4E5
:10432000F4D4D0AC646464404040648CD0F4F8F4BD
:10433000F8F8F8F8F8F8F8F8F8F8F8F8F8F8F8F8FD
:10434000F8F8F8F8F8F4F4D4AC68646440404064D9
:1043500088B0D4F4F4F8F4F4F8F8F4F4F4F4F4F4E1
:10436000F4D48C48484C50505050505050505050FD
:1043700050504444242828282828282808080804BD
:10438000040404040404040428282828282C282CC5
:104390002C2C4C4C4C4C4C48488CD4F4F4F4F4F495
:1043A000F4F4F4F4D4D088646460404064ACD0F495
:1043B000F8F4F8F8F8F8F8F8F4F4F8F8F8F8F8F889
:1043C000F8F8F8F8F8F8F8F8F4D4D08C6464646479
:1043D00064648CD0D4F4F4F8F4F4F4F4F4F4F4F465
:1043E000F4F4F4D4B06C484C5050505050505050ED
:1043F00050505050442424282828282828280404D1
:104400000404040404040404040404282828282CB4
:104410002C2C2C2C4C4C4C4C4C48488CD4F4F4F4A4
:10442000F4F4F4F4F4F4F4D4AC888864646488ACF0
:10443000D4F4F4F4F8F8F8F8F8F4F4F4F4F4F8F840
:10444000F8F8F8F8F8F8F8F8F8F8F4F4D4B0AC881C
:1044500088646488ACD4F4F4F4F4F4F4F4F4F4F47C
:10446000F4F4F4F4F4F4B06C484C50505050505004
:1044700050505050505044242428282828282804DC
:1044800004040404040404040404040404042828A4
:10449000282C2C2C2C2C2C4C4C4C484868B0D5F497
:1044A000F4F4F4F4F8F8F8F8F8F4D4D0ACACACAC1C
:1044B000ACD0D4F4F4F4F8F8F8F4F4F4F4F4F4F43C
:1044C000F8F8F8F8F8F8F8F8F8F8F8F8F4F4F4D49C
:1044D000D0D0ACACACACD0D4F4F4F4F4F4F4F4F448
:1044E000F4F4F4F4F4F4F4F4D48C484C50505050F8
:1044F0005050505050505050242428282828282804
:104500000804040404040404040404040404040467
:1045100028282C2C2C2C2C2C2C4C4C4C48486CB087
:10452000F5F4F4F4F4F4F4F8F8F8F8F4F4F4D4D07E
:10453000D0D0D0D4F4F4F8F8F8F4F4F4D4D0D4F41F
:10454000F4F4F8F8F8F8F8F8F8F8F8F8F8F8F8F8F3
:10455000F8F4F4D4D4D0D0D4F4F4F4F4F4F4F4F4BF
:10456000F4F4F4F4F4F4F4F4F4F4D48C684C7050EF
:104570005050505050505050505024242828282833
:10458000282808040404040404040404040404049F
:10459000040428282C2C2C2C2C2C4C4C4C4C4848FB
:1045A0008CD5F5F4F4F4F4F4F4F8F8F8F8F8F4F43D
:1045B000F4F4F4F4F4F4F4F4F8F8F4F4D0D0ACAC8B
:1045C000ACB0D0D4F4F4F4F8F8F8F8F8F8F8F8F857
:1045D000F8F8F8F4F4F4F4F4F4F4F4F4F4F4F4F48F
:1045E000F4F4F4F4F4F4F4F4F4F4F4F4D4906C4C3F
:1045F0007050505050505050505050502424482823
:1046000028282828040404040404040404040404DA
:104610000404040428282C2C2C2C2C4C4C4C4C48E6
:1046200048488CD5F5F4F4F4F4F4F4F8F8F8F8F814
:10463000F8F8F8F8F8F8F8F8F4F8F8F8F4F4D0AC7A
:10464000886464888CB0D4F4F4F8F8F8F8F8F8F8D2
:10465000F8F8F8F8F8F8F8F4F4F4F4F4F4F4F4F4FE
:10466000F4F4F4F4F4F4F4F4F4F4F4F4F4F4D4B06E
:104670006C4C707050505050505050505050244816
:1046800048282828282808040404040404040404EE
:1046900004040404040828282C2C2C2C2C4C4C4CEE
:1046A0004C4848688CD1D0F4F4F5F4F4F4F4F8F8FC
:1046B000F8F8F8F8F8F8F8F8F8F8F8F8F8F8F4F482
:1046C000D4B08864646488ACD4F4F4F8F8F8F8F8EA
:1046D000F8F8F8F8F8F8F8F8F8F4F4F4F4F4F4F476
:1046E000F4F4F4F4F4F4F4F4F4F4F4F4F4F4F4F886
:1046F000F4B06C6C7070505050505050505050503E
:1047000024484828282828282804040404040404E9
:10471000040404040404042828282C2C2C2C2C4CDD
:104720004C4C4C48486888ACCCCCD0F0F0F4F4F455
:10473000F8F8F8F8F8F8F8F8F8F8F8F8F8F8F8F8F9
:10474000F8F8F4D4D0ACAC88ACB0D4F4F4F4F8F805
:10475000F8F8F8F8F8F8F8F8F8F8F8F8F8F4F4F4E5
:10476000F4F4F4F4F4F0F0F0F0F0F0F4F4F4F4F421
:10477000F4F4F4D48C6C7070505050505050505031
:10478000505028484C2C2C282828280808040404B9
:1047900004040404040404040428282C2C2C2D2DC7
:1047A0004C4C4C4C4C4844446484A4A8A8CCCCF059
:1047B000F4F4F4F8F8F8F8F8F8F8F8F8F8F8F8F885
:1047C000F8F8F8F8F8F4F4F4D0D0D0D4F4F4F4F421
:1047D000F8F8F8F8F8F8F8F8F8F8F8F8F8F8F4F461
:1047E000F4F4F4F4F0F0D0CCCCCCCCCCD0F0F4F4A5
:1047F000F4F4F4F4F4D4906C6C7070505050505049
:104800005050505048484C2C2C282828282808085C
:104810000808040404040404080828282C2C2C2C60
:104820002D4D4D4C4C4C4844444064848484A4A891
:10483000A8CCD0F4F4F8F8F8F8F8F8F8F8F8F8F8A4
:10484000F8F8F8F8F8F8F4F8F4F4F4F4F4F4F4F40C
:10485000F4F8F8F8F8F8F8F8F8F8F8F8F8F8F8F8DC
:10486000F4F4F4F4F4F4D0CCACA8CCC8C8A8CCCC04
:10487000D0F4F4F4F4F4F4D4906C4C7070705050A4
:10488000505050505050484C2C2C2C282828282868
:10489000282828282828282828282828282C2C4C6C
:1048A0004C4C4D4D4C4C4C4C4844446484A4A4A402
:1048B000A4A4A8A8CCF0F4F8F8F8F8F8F8F8F8F8F8
:1048C000F8F8F8F8F8F8F8F8F8F4F4F4F4F4F4F484
:1048D000F4F4F4F4F4F4F8F8F8F8F8F8F8F8F8F870
:1048E000F8F8F4F4F4F4F4F0CCA8A8A8C8C8C8C840
:1048F000C8C8CCD0F4F4F4F4F4D4B06C4C6C705060
:104900005050505050505050484C4C2C2C2C282873
:104910002828282828282D4D4D4D4D4D4D4D4D4DC5
:104920004D4D4D4D4D4D4C4C4C4C48446488A8C8A1
:10493000C8C8C8A8A8A8CCD0F4F8F8F8F8F8F8F8CF
:10494000F8F8F8F8F8F8F8F8F8F8F4F4F4F4F4F4FF
:10495000F4F4F4F4F4F4F4F4F4F4F4F8F8F8F8F803
:10496000F8F8F8F8F4F4F4F4F4F0CCC8A8C8C8C81F
:10497000C8C8A8A8ACD0F4F4F4F4F4D4B46C4C6C6B
:1049800070505050505050505050484C2C2C2C2CA3
:104990002C2D2D2D2D2D2D2D4D4D4D4D4D4D4D4D48
:1049A0004D4D4D4D4D4D4D4D4C4C4C4C48446488F7
:1049B000A8C8C8C8C8C8C8A8ACD0F4F4F8F8F8F8B3
:1049C000F8F8F8F8F8F8F8F8F8F8F8F4F4F4F4F47B
:1049D000F4F4F4F4F4F4F4F4F4F4F4F4F4F4F8F88F
:1049E000F8F8F8F8F8F8F4F4F4F4F4D0CCC8C8C83F
:1049F000C8C8C8C8C8A8A8CCD0F4F4F4F4D4D490DB
:104A00006C6C70705050505050505050484C2C2C82
:104A10002C2C2C2D2D2D2D2D2D4D4D4D4D4D4D4DE9
:104A20004D4D4D4D4D4D4D4D4D4D4C4C4C484444D0
:104A300064A8A8C8C8C8C8C8C8A8CCD0F4F4F4F8FA
:104A4000F8F8F8F8F8F8F8F8F8F8F8F8F8F4F4F4F2
:104A5000F5F5F5F4F4F5F5F5F5F4F4F4F4F4F4F40F
:104A6000F8F8F8F8F8F8F8F8F4F4F4F4F0CCC8C86A
:104A7000C8C8C8C8C8C8C8A8A8ACD0F4F4F4F4F42E
:104A8000D4906C4C50705050505050505050284C56
:104A90002C2C2C2C2C2C2C2D2D2D2D2D2D2D2D2D4D
:104AA0002C2C2C4D4D4D4D4D4D4D4D4C4C4C4C48A2
:104AB000444464A8C8C8C8C8C8C8C8C8CCD0F4F49E
:104AC000F4F8F8F8F8F8F8F8F8F8F8F8F8F4F4F476
:104AD000F4F5F5F1F0F0F0F0F0F0F5F5F4F4F4F4AD
:104AE000F4F8F8F8F8F8F8F8F8F4F4F4F4F4F0CC92
:104AF000C8C8C8C8C8C8C8C8C8C8A8ACD0F4F4F4E6
:104B0000F4F4D4B46C4C4C50505050505050505061
:104B1000282C2C2C2C2C2C2C2C2D2D2D2D2D2D2DD2
:104B20002C2C2C2C2C4D4D4D4D4D4D4D4C4C4C4C5E
:104B30004C48244464A8A8C8C8C8C8C8C8C8CCD0B1
:104B4000F4F4F4F8F8F8F8F8F8F8F8F8F8F8F8F4F5
:104B5000F4F4D0D0CCACACACACACCCCCD0F0F0F469
:104B6000F4F4F4F8F8F8F8F8F8F8F8F4F4F4F4F4E5
:104B7000F0CCA8C8C8C8C8C8C8C8C8C8A8A8D0F4B5
:104B8000F4F4F4F4D4B48C484C4C50505050505081
:104B90005050282C2C2C2C2C2C2C2C2C2C2C2D2D0F
:104BA0002C2C2C2C2C2C2C2C4D4D4D4D4D4D4D4C3E
:104BB0004C4C4C2824446488A8C8C8C8C8C8C8C875
:104BC000CCF0F4F4F4F8F8F8F8F8F8F8F8F8F8F8A5
:104BD000F8F4D4D0AC8884848484A8A8A8A8ACCCE9
:104BE000CCD0F0F4F4F8F8F8F4F4F8F8F8F4F4F4BD
:104BF000F4F4F0CCC8C8C8C8C8C8C8C8C8C8A8ACED
:104C0000D0F4F4F4F4F4D4D4906C4C4C4C50505098
:104C100050505050282C2C2C2C2C2C2C2C2C2C2C48
:104C20002C2C2C2C2C2C2C2C2C2C2D4D4D4D4D4D1E
:104C30004D4D4D4C4C2824446488A8C8C8C8C8C8E9
:104C4000C8C8CCF4F4F4F4F8F8F8F8F8F8F8F8F880
:104C5000F8F8F4F4D0AC8864648484A8CCCCCCCCD0
:104C6000A8A8CCCCD0F4F4F4F4F8F8F8F8F8F8F4F8
:104C7000F4F4F4F4F0CCC8C8C8C8C8C8C8C8C8C8D8
:104C8000A8CCD0F4F4F4F4F4D4D4B06C4C4C4C4C28
:104C9000505050505030282C2C2C2C2C2C2C2C2CA0
:104CA0002C2C2C2C2C2C2C2C2C2C2C2C2C2C2C2C44
:104CB0002C2C2C4C4C4C482844686888A8A8C8C8A0
:104CC000C8C8C8CCF0F4F4F4F4F8F8F8F8F8F8F838
:104CD000F8F8F8F8F4F4D0A8846484A8CCCCEDED0E
:104CE000ECCCCCCCCCCCD0F4F4F4F4F8F8F8F8F864
:104CF000F8F8F4F4F4F4F4D0CCC8C8C8C8C8C8C8EC
:104D0000C8C8C8CCF0F4F4F4F4F4D4D4B06C484C73
:104D10004C4C4C505050504C4C4C2C2C2C2C2C2C83
:104D20002C2C2C2C2C2C2C2C2C2C2C2C2C2C2C2CC3
:104D30002C2C2C2C2C2C2C4C282848688C88A8A493
:104D4000A4A8A8A8A8CCF0F4F4F4F8F8F8F8F8F8B7
:104D5000F8F8F8F8F8F8F4F4D0886484A8CCCDF129
:104D6000F1F1F1F1F1ECCCCCCCD0F4F4F4F4F8F8AE
:104D7000F8F8F8F4F4F4F4F4F4F0CCC8C8C8C8C8EF
:104D8000C8C8C8C8CCD0F4F4F4F4F4F4F4D5D58C85
:104D9000484C4C4C4C50505050504C4C2C2C2C2CC3
:104DA0002C2C2C2C2C2C2C2C2C2C2C2C2C2C2C2C43
:104DB0002C2C2C2C2C2C2C2C2C282828488CB1ACBE
:104DC000A8A8A8A8A8ACCCD0F4F4F4F8F8F8F8F89F
:104DD000F8F8F8F8F8F8F8F8F4F4D0888484A8CD56
:104DE000F1F1F1F1F1F1F1F1CCCCCCD0F4F4F4F437
:104DF000F4F8F8F4F4F4F4F4F4F4F4F0D0CCA8C833
:104E0000C8C8C8C8C8CCCCF0F4F4F4F4F4F4F4D4B2
:104E1000D590684C4C4C5050505050504D4C2C2C10
:104E20002C2C2C2C2C2C2C2C2C2C2C2C2C2C2C2CC2
:104E30002C2C2C2C2C2C2C2C2C2C28282828488C46
:104E4000D1D5D0CCCCCCCCD0F0F4F4F4F4F8F8F844
:104E5000F8F8F8F8F8F8F8F8F8F8F8F4D0A884A812
:104E6000CCCDF1F1F1EDF1F1F1F1CCCCCCD0F4F409
:104E7000F4F4F4F8F8F4F4F4F4F4F4F4F4F4F0D012
:104E8000CCCCCCCCCCCCCCCCF0F4F4F4F4F4F4F426
:104E9000F4F8D5B06C4C6C505050505050504D4CB4
:104EA0002C2C2C2C2C2C2C2C2C2C2C2C2C2C2C2C42
:104EB0002C2C2C2C2C2C2C2C2C2C2C2C2828282842
:104EC000486CD5F5F5F1F0F0F4F4F4F4F4F4F8F8F6
:104ED000F8F8F8F8F8F8F8F8F8F8F8F8F8F4D0ACCA
:104EE00088A8CCF1F1F1F1EDF1F1F1F1CCCCCCD01D
:104EF000F4F4F4F4F4F4F4F4F4F4F4F4F4F4F4F472
:104F0000F4F4D0F0F0F0F0F0F0F0F4F4F4F4F4F4A1
:104F1000F4F4F4F8F9D48C6C6C705050505050503C
:104F20004C4C2C2C2C2C2C2C2C2C2C2C2C2C2C2C81
:104F30002C2C2C2C2C2C2C2C2C2C2C2C2C2C2828B9
:104F40002828486CB1F5F5F5F5F5F4F4F4F4F4F42B
:104F5000F8F8F8F8F8F8F8F8F8F8F8F8F8F8F8F4D5
:104F6000D4ACA8A8CCF1F1F1F1F1F1F1F1F1CCCC94
:104F7000CCD0F4F4F4F4F4F4F4F4F4F4F4F4F4F43D
:104F8000F4F4F4F4F4F4F4F4F4F4F4F4F4F4F4F4E1
:104F9000F4F4F4F4F8F4F9D5906C6C70705050504F
:104FA00050504C2C2C2C2C2C2C2C2C2C2C2C2C2CD9
:104FB0002C2C2C2C2C2C2C2C2C2C2C2C2C2C2C2C31
:104FC000282828284868B1D5F5F5F5F4F4F4F4F468
:104FD000F8F8F8F8F8F8F8F8F8F8F8F8F8F8F8F851
:104FE000F8F4F4D0A8A8CCD1F1F1F1F1F1F1F1F19C
:104FF000CCCCCCD0F4F4F4F4F4F4F4F4F4F4F4F40D
:10500000F4F8F4F4F4F4F4F4F4F4F4F4F4F4F4F45C
:10501000F4F4F4F4F4F8F8F4F4D4B0686C7070506C
:10502000505050504C2C2C2C2C2C2C2C2C2C2C2C10
:105030002C2C2C2C2C2C2C2C2C2C2C2C2C2C2C2CB0
:105040002C2C2C2C2C2828488CD5D5F5F4F4F4F4F1
:10505000F4F8F8F8F8F8F8F8F8F8F8F8F8F8F8F8D4
:10506000F8F8F8F8F4D0ACA8A8CCCDEDF1F1F1F156
:10507000F1CCCCCCCCD0F4F4F4F4F4F4F4F4F4F4B7
:10508000F4F4F4F4F4F4F4F4F4F4F4F4F4F4F4F4E0
:10509000F4F4F4F4F4F8F8F8F8F4F4F4B06C6C7098
:1050A0007050505050504C4C2C2C2C2C2C2C2C2C08
:1050B0002C2C2C2C2C2C2C2C2C2C2C2C2C2C2C2C30
:1050C0002C2C2C2C2C2C2C2828486CB0D5F5F4F446
:1050D000F8F8F8F8F8F8F8F8F8F8F8F8F8F8F8F850
:1050E000F8F8F8F8F8F8F4F4D0ACA8A8CCCCEDEDCA
:1050F000EDF1CCCCA8ACCCF0F4F4F8F4F4F4F8F87E
:10510000F8F8F4F4F4F4F4F4F4F4F8F4F8F4F4F44F
:10511000F4F4F4F4F4F4F4F8F8F8F8F4F4F4B08CEB
:105120006C6C70705050504C4D4C4C2C2C2C2C2CCA
:105130002C2C2C2C2C2C2C2C2C2C2C2C2C2C2C2CAF
:105140002C2C2C2C2C2C2C2C2C4C48486890D5F535
:10515000F4F8F8F8F8F8F8F8F8F8F8F8F8F8F8F8D3
:10516000F8F8F8F8F8F8F8F8F8F4F4D0ACACA8A827
:10517000A8CCC8C8A8A8A8ACD0F4F4F4F8F4F4F407
:10518000F8F8F8F8F8F4F8F8F4F4F8F4F8F4F4F4BB
:10519000F4F4F4F4F4F4F4F4F4F4F8F8F8F4F4F4C3
:1051A000D48C6C6C705050504C4C4D4C4C4C2C4D25
:1051B0004D2C2C2C2C2C2C2C2C2C2C2C2C4C4C4CAE
:1051C0004C4C4C4C4C4C4C4C4C4C4C4C4C48488CE7
:1051D000B4D4F8F8F8F8F8F8F8F8F8F8F8F8F8F8B7
:1051E000F8F8F8F8F8F8F8F8F8F8F8F8F4F4D0D097
:1051F000CCACA8A8A8A8A8ACACD0F0F4F4F4F8F80B
:10520000F8F8F8F8F8F8F8F8F8F8F8F8F8F8F8F81E
:10521000F8F4F4F4F4F4F4F4F4F4F4F4F4F4F4F44A
:10522000F4F4D490684C6C4C4C4C4C4C4C4C2C2CA6
:105230002C4C4D51514D4C2C2C2C4C50515151510A
:1052400051515151505050505050505050504C4C62
:10525000486CB0D4F4F8F8F8F8F8F8F8F8F8F8F87A
:10526000F8F8F8F8F8F8F8F8F8F8F8F8F8F8F4F4C6
:10527000F4F4D0D0D0D0CCCCD0D0D0F4F4F4F4F43A
:10528000F8F8F8F8F8F8F8F8F8F8F8F8F8F8F8F89E
:10529000F8F8F8F4F4F4F4F4F4F4F4F4F4F4F4F4C2
:1052A000F4F4F4F4D4B06C4C4C4C4C4C4C4C2C2CD2
:1052B0002C2C2C2C4D515151515151515151515176
:1052C00051515151515151515150505050505070B5
:1052D000706C4C688CB0F4F8F8F8F8F8F8F8F8F856
:1052E000F8F8F8F8F8F8F8F8F8F8F8F8F8F8F8F83E
:1052F000F8F4F4F4F4F4F4F4F4F4F4F4F4F4F4F46A
:10530000F4F4F8F8F8F8F8F8F8F8F8F8F8F8F8F825
:10531000F8F4F4F8F4F4F4F4F4F4F4F4F4F4F4F445
:10532000F4F4F4F4F4F4D4B06C4C4C4C4C4C4C4CC1
:1053300028282C2C2C2C4D51515151515151515147
:105340005151515151515151515050505050505054
:10535000507071706C486CB0D4F8F8F8F8F8F8F840
:10536000F8F8F8F8F8F8F8F8F8F8F8F8F8F8F8F8BD
:10537000F8F8F8F4F4F4F4F4F4F4F4F4F4F4F4F4E1
:10538000F4F4F4F8F8F8F8F8F8F8F8F8F8F8F8F8A9
:10539000F8F8F8F8F8F8F4F4F4F4F8F8F8F8F8F89D
:1053A000F4F4F4F4F4F4F4F4D4B06C4C4C4C4C4CF1
:1053B0004C4C282828282C2C2C4C50515151515100
:1053C00051515151515151505050505050505050D6
:1053D00050505050504C4C4C688CD4F4F8F8F8F8BD
:1053E000F8F8F8F8F8F8F8F8F8F8F8F8F8F8F8F83D
:1053F000F8F8F8F8F8F8F8F8F4F4F4F4F4F4F4F44D
:10540000F4F4F4F4F4F8F8F8F8F8F8F8F8F8F8F830
:10541000F8F8F8F8F8F8F8F8F8F4F4F8F8F8F8F814
:10542000F8F8F8F4F4F4F4F4F4F4F4D08C684C4C98
:105430004C4C4C4C282828282C2C2C2C4C505051AF
:105440005151515151515151515050505050505053
:1054500050505050504C4C4C4C4C688CB0D4F8F8D8
:10546000F8F8F8F8F8F8F8F8F8F8F8F8F8F8F8F8BC
:10547000F8F8F8F8F8F8F8F8F8F8F4F4F4F4F4F4C4
:10548000F4F4F4F4F4F4F4F8F8F8F8F8F8F8F8F8B8
:10549000F8F8F4F4F8F8F8F8F8F8F8F4F8F8F8F898
:1054A000F8F8F8F8F8F4F4F4F4F4F4F4F4D48C68BC
:1054B0004C4C4C4C4C4C282828282C2C2C2C2C2C7C
:1054C0002C2C2C4C51515150505050505050505049
:1054D0005050505050504C4C2C4C4C4C688CB0D4CC
:1054E000F4F8F8F8F8F8F8F8F8F8F8F8F8F8F8F840
:1054F000F8F8F8F8F8F8F8F8F8F8F8F8F4F4F4F43C
:10550000F4F4F4F4F4F4F4F4F8F8F8F8F8F8F8F83B
:10551000F8F8F8F8F8F4F8F8F8F8F8F8F8F8F8F80F
:10552000F8F8F8F8F8F8F8F8F8F8F4F4F4F4F4D433
:105530008C684C4C4C4C4C4C282828282C2C2C2C5F
:105540002C2C2C2C2C2C2C2C50505050505050507B
:1055500050505050505050504C2C2C2C4C4C6C6C8B
:105560008CD0F4F8F8F8F8F8F8F8F8F8F8F8F8F853
:10557000F8F8F8F8F8F8F8F8F8F8F8F8F8F8F4F4B3
:10558000F4F4F4F4F4F4F4F4F4F8F8F8F8F8F8F8BF
:10559000F8F8F8F8F8F4F8F8F8F4F8F8F8F8F8F893
:1055A000F8F8F8F8F8F8F8F8F8F8F8F8F8F4F4F487
:1055B000F4D4B06C484C4C4C4C4C2828282C2C2C47
:1055C0002C2C2C2C2C2C2C2C2C2C2C2C505050508B
:1055D000505050505050505050504C4C2C4C4C6CE3
:1055E0006C6C8CB0D4F8F8F8F8F8F8F8F8F8F8F82B
:1055F000F8F8F8F8F8F8F8F8F8F8F8F8F8F8F8F82B
:10560000F8F4F4F4F4F4F4F4F4F4F4F8F8F8F8F842
:10561000F8F8F8F8F8F8F8F8F8F4F8F4F8F8F8F812
:10562000F8F8F8F8F8F8F8F8F8F8F8F8F8F8F8F4FE
:10563000F4F4F4D4B06C484C4C4C4C4C00000000DA
:10564000000000000000000000000000000000005A
:10565000000000000000000000000000000000004A
:10566000000000000000000000000000000000003A
:1056700000000000FF00000000000000000000002B
:1056800000000000FFFF000000000000000000001C
:1056900000000000FFFFFFFF00000000FFFFFFFF12
:1056A000FFFFFFFFFFFFFFFFFF000000FFFFFFFF07
:1056B000FFFFFFFFFFFFFFFFFFFFFF00FFFFFFFFF9
:1056C000FFFFFFFFFFFFFFFFFFFFFF00FFFFFFFFE9
:1056D000FFFFFFFFFFFFFFFFFF00000000000000D3
:1056E00000000000FFFFFFFF0000000000000000BE
:1056F00000000000FFFF00000000000000000000AC
:1057000000000000FF00000000000000000000009A
:105710000000000000000000000000000000000089
:105720000000000000000000000000000000000079
:105730000000000000000000000000000000000069
:105740000000000000000000000000000000000059
:105750000000000000000000000000000000000049
:105760000000000000000425000000000000000010
:105770000000000000000000000000000000000029
:105780000000000000000000000000000000000019
:105790000000000000000000000000000000000009
:1057A00000000000000000000000000000000000F9
:1057B00000000000000000000000000000000000E9
:1057C00000000000000000000000000000000000D9
:1057D00000000000000000000000000000000000C9
:1057E00000000000000000000000000000000000B9
:1057F00000000000000000000000000000000000A9
:105800000000000000000000000000000000000098
:105810000000000000000000000000000000000088
:105820000000000000000000000000000000000078
:105830000000000000000000000000000000000068
:105840000000000000000000000000000000000058
:105850000000000000000000000000000000000048
:105860000000000000000000000000000000000038
:105870000000000000000000000000000000000028
:105880000000000000000000000000000000000018
:105890000000000000000000000000000000000008
:1058A00000000000000000000000000000000000F8
:1058B00000000000000000000000000000000000E8
:1058C00000000000000000000000000000000000D8
:1058D00000000000000000000000000000000000C8
:1058E00000000000000000000000000000000000B8
:1058F0000000000000002444688C91B1B5B5B5B536
:10590000B1918C68442000000000000000000000FD
:105910000000000000000000000000000000000087
:105920000000000000000000000000000000000077
:105930000000000000000000000000000000000067
:105940000000000000000000000000000000000057
:10595000000000000000488CB5F9F9FDF9F9FDFDE3
:10596000FDF9F9F9F9F9FDFDFDF9D9B56C4400002F
:105970000000000000000000000000000000000027
:105980000000000000000000000000000000000017
:105990000000000000000000000000000000000007
:1059A00000000000000000000000000000000000F7
:1059B000000000000000206CB5F9FDFDFDF9F9F9CB
:1059C000F9F9F9F9F9F9F9F9F9F9F9F9F9F9F9F947
:1059D000FDFDD9B1480000000000000000000000FB
:1059E00000000000000000000000000000000000B7
:1059F00000000000000000000000000000000000A7
:105A00000000000000000000000000000000000096
:105A1000000000000000000048B1F9FDFDFDFDFDA3
:105A2000FDF9F9F9F9F9F9F9F9F9F9F9F9F9F9F9E2
:105A3000F9F9F9FDF9FDFDFDFDF9912400000000E3
:105A40000000000000000000000000000000000056
:105A50000000000000000000000000000000000046
:105A60000000000000000000000000000000000036
:105A70000000000000000000000068D9F9F9F9F901
:105A8000F9F9FDF9F9F9F9F9F9F9F9F9F9F9F9F982
:105A9000F9F9F9F9F9F9FDFDF9F9F9F9F9F9FDFD66
:105AA000B5480000000000000000000000000000F9
:105AB00000000000000000000000000000000000E6
:105AC00000000000000000000000000000000000D6
:105AD00000000000000000000000000068D9FDF98F
